S01800004B6579706164324E6F6B6961353131302E73726563C3
S113000035C1000050C100004EC100004CC10000C9
S11300104AC1000048C1000046C1000044C10000BC
S113002042C1000040C100003EC100003CC10000CC
S11300303AC1000038C1000036C1000034C10000DC
S113004032C1000030C100002EC100002CC10000EC
S11300502AC1000028C1000026C1000024C10000FC
S113006022C1000020C100001EC100001CC100000C
S11300701AC1000018C1000016C1000014C100001C
S113008012C1000010C100000EC1000000000000F9
S11300900000005F00000007000700147F147F14B5
S11300A0242A7F2A122313086462364955225000F9
S11300B005030000001C2241000041221C0014081A
S11300C03E081408083E08080050300000080808DC
S11300D00808006060000020100804023E514945F1
S11300E03E00427F400042615149462141454B3127
S11300F01814127F1027454545393C4A49493001B7
S1130100710905033649494936064949291E00360D
S1130110360000005636000008142241001414145E
S1130120141400412214080201510906324979418C
S11301303E7E1111117E7F494949363E414141229B
S11301407F4141221C7F494949417F090909013EF8
S11301504149497A7F0808087F00417F41002040D7
S1130160413F017F081422417F404040407F020C00
S1130170027F7F0408107F3E4141413E7F09090907
S1130180063E4151215E7F091929464649494931B4
S113019001017F01013F4040403F1F2040201F3F9D
S11301A04038403F6314081463070870080761511E
S11301B0494543007F4141000204081020004141A9
S11301C07F00040201020440404040400001020458
S11301D00020545454787F484444383844444420DC
S11301E0384444487F3854545418087E0901020C9A
S11301F05252523E7F0804047800447D400020405F
S1130200443D007F1028440000417F40007C0418D6
S113021004787C0804047838444444387C14141466
S113022008081414187C7C08040408485454542006
S1130230043F4440203C4040207C1C2040201C3C87
S11302404030403C44281028440C5050503C4464F6
S1130250544C44000836410000007F000000413641
S113026008001008081008000000000011241FBE38
S1130270CFEFD0E4DEBFCDBF11E0A0E0B1E0EEE10E
S1130280F8E000E00BBF02C007900D92A630B10762
S1130290D9F723E0A6E0B1E001C01D92A030B20777
S11302A0E1F770D0BAC2ACCE8EEF88B9000086B147
S11302B0809584FD46C086B1809585FD44C086B195
S11302C0809586FD42C086B1809590E0880F892F85
S11302D0881F990B9195892BD1F58DEF88B9000072
S11302E086B1809584FD35C086B1809585FD33C087
S11302F086B1809586FD31C086B1809590E0880FE7
S1130300892F881F990B9195892B49F58BEF88B913
S1130310000086B1809584FD24C086B1809585FD5A
S113032022C086B1809586FD20C086B1809590E07C
S1130330880F892F881F990B9195892BC1F480E030
S1130340089581E3089584E3089587E308958AE294
S1130350089582E3089585E3089588E3089580E38A
S1130360089583E3089586E3089589E3089583E275
S11303700895CF93C82F36D161E08C2F6FD12AD244
S1130380CF910895CF93DF93CDB7DEB7A6970FB67D
S1130390F894DEBF0FBECDBF8FE087B980EF88B978
S11303A08FEF8AB91BB8E8D01DD182E3898381E439
S11303B08A8382E48B8383E48C8383E38D8384E464
S11303C08E8385E48F8386E4888784E3898787E442
S11303D08A8788E48B8789E48C8785E38D878AE420
S11303E08E878BE48F878CE4888B86E3898B8DE4FE
S11303F08A8B8EE48B8B8FE48C8B87E38D8B80E5EB
S11304008E8B82E58F8B83E5888F88E3898F84E5E3
S11304108A8F85E58B8F86E58C8F89E38D8F87E5C1
S11304208E8F88E58F8F89E588A386E0E0E0F1E090
S1130430DE01919601900D928A95E1F761E0CE017B
S11304408196B6D1C7D1E12CF12C00E02DDF182F15
S11304508823E1F329DF1817E9F3101363C083E05D
S1130460E816F10420F48FEFE81AF80A02C0E12C30
S1130470F12C023349F4E1E0F0E0EC0FFD1FEE0D46
S1130480FF1D808176DFE2CF033349F4E5E0F0E03D
S1130490EC0FFD1FEE0DFF1D80816BDFD7CF043302
S11304A049F4E9E0F0E0EC0FFD1FEE0DFF1D808143
S11304B060DFCCCF053349F4EDE0F0E0EC0FFD1F35
S11304C0EE0DFF1D808155DFC1CF063349F4E1E114
S11304D0F0E0EC0FFD1FEE0DFF1D80814ADFB6CF6B
S11304E0073349F4E5E1F0E0EC0FFD1FEE0DFF1DCD
S11304F080813FDFABCF083349F4E9E1F0E0EC0F52
S1130500FD1FEE0DFF1D808134DFA0CF093309F0FC
S11305109DCFEDE1F0E0EC0FFD1FEE0DFF1D80819E
S113052028DF94CF5FD061E0812F98D053D1012F81
S1130530E12CF12C8BCF5998662311F05B9A15C0EE
S11305405B9813C0AC01022E02C0559547950A94DE
S1130550E2F740FF02C05C9A01C05C985D9A5D9826
S11305602150310978F7599A089527E030E090E056
S1130570E9CF60E0E0CF0895CF93DF93519A529A88
S1130580539A549A559A5A9A599A83EC99E0019736
S1130590F1F700C000005A988BE594E40197F1F755
S11305A000C000005A9A599881E2E3DF83E1E1DF59
S11305B086E0DFDF82ECDDDF80E2DBDF89E0D9DFAC
S11305C080E8D7DF80E4D5DFC8EFD1E061E080E0E8
S11305D0B2DF2197D9F788E0CCDF8CE0CADFDF9166
S11305E0CF91089580E8C5DF80E4C3DF1092FE0256
S11305F01092FF02E6E0F1E08EEF92E01192E8172C
S1130600F907E1F70895262F26952695269590E07B
S113061034E5239F800D911D1124442379F0FC01BE
S1130620EA5FFE4F677081E090E002C0880F991F77
S11306306A95E2F79081892B80830895FC01EA5F33
S1130640FE4F677081E090E002C0880F991F6A95A1
S1130650E2F7809590818923808308955F926F9259
S11306607F928F929F92AF92BF92CF92DF92EF923E
S1130670FF920F931F93CF93DF93562E262F30E0D4
S11306804901880C991C880C991C820E931E18141D
S113069019040CF059C08901000F111F000F111F1C
S11306A0000F111F021B130B612CA82EB12CC501C6
S11306B080975C01AA0CBB1CAA0CBB1CA80EB91E1B
S11306C00F2EFFEFCF2EF2E0DF2EF02D0F2EFEEFD8
S11306D0EF2EF2E0FF2EF02D2AC0FE01249130E02F
S11306E0872D652D8ED002C0359527958A95E2F722
S11306F020FF09C0F6016081670DF701808141E0A8
S1130700860D81DF08C0F6016081670DF7018081E5
S113071040E0860D78DF7394872D90E08017910771
S1130720E4F26394862D90E0881599056CF4101614
S11307301106BCF7862D652D64D0E501C80FD11DC7
S1130740C457DF4F712CC9CF8091FE0291E0980FFE
S1130750852D880F880F850D890F843518F48093B3
S1130760FE020EC01092FE02EFEFF2E0808191E0F3
S1130770980F852D880F880F880F8519890F80831E
S11307808091FF02803320F01092FE021092FF024B
S1130790DF91CF911F910F91FF90EF90DF90CF9059
S11307A0BF90AF909F908F907F906F905F900895CF
S11307B01F93CF93DF93EC018881882339F0162FA0
S11307C02196612F4BDF89918111FBCFDF91CF916E
S11307D01F9108950F931F93CF93DF9380E8C9DE91
S11307E080E4C7DEC6E0D1E00EEF12E061E089915B
S11307F0A2DEC017D107D1F7DF91CF911F910F91DE
S11308000895991B79E004C0991F961708F0961B68
S1110810881F7A95C9F780950895F894FFCF54
S109081E48656C6C6F00DC
S9030000FC
