:1000000035C1000043C1000041C100003FC10000F4
:100010003DC100003BC1000039C1000037C10000F4
:1000200035C1000033C1000031C100002FC1000004
:100030002DC100002BC1000029C1000027C1000014
:1000400025C1000023C1000021C100001FC1000024
:100050001DC100001BC1000019C1000017C1000034
:1000600015C1000013C1000011C100000FC1000044
:100070000DC100000BC1000009C1000007C1000054
:1000800005C1000003C1000001C100000000000024
:100090000000005F00000007000700147F147F14B9
:1000A000242A7F2A122313086462364955225000FD
:1000B00005030000001C2241000041221C0014081E
:1000C0003E081408083E08080050300000080808E0
:1000D0000808006060000020100804023E514945F5
:1000E0003E00427F400042615149462141454B312B
:1000F0001814127F1027454545393C4A49493001BB
:10010000710905033649494936064949291E003611
:100110003600000056360000081422410014141462
:100120001414004122140802015109063249794190
:100130003E7E1111117E7F494949363E414141229F
:100140007F4141221C7F494949417F090909013EFC
:100150004149497A7F0808087F00417F41002040DB
:10016000413F017F081422417F404040407F020C04
:10017000027F7F0408107F3E4141413E7F0909090B
:10018000063E4151215E7F091929464649494931B8
:1001900001017F01013F4040403F1F2040201F3FA1
:1001A0004038403F63140814630708700807615122
:1001B000494543007F4141000204081020004141AD
:1001C0007F0004020102044040404040000102045C
:1001D0000020545454787F484444383844444420E0
:1001E000384444487F3854545418087E0901020C9E
:1001F0005252523E7F0804047800447D4000204063
:10020000443D007F1028440000417F40007C0418DA
:1002100004787C0804047838444444387C1414146A
:1002200008081414187C7C0804040848545454200A
:10023000043F4440203C4040207C1C2040201C3C8B
:100240004030403C44281028440C5050503C4464FA
:10025000544C44000836410000007F000000413645
:1002600008001008081008000000000011241FBE3C
:10027000CFEFD0E4DEBFCDBF22E0A0E0B1E001C00F
:100280001D92AA3FB207E1F71DD021C2B9CE80E48A
:1002900080937C0087E880937A000895ECE7F0E093
:1002A0009081987F8770892B8083EAE7F0E08081D6
:1002B00080648083808186FDFDCF8091780090915D
:1002C0007900089511B88FEF82B984B915B88AB949
:1002D0001BB8DDDF80E0E2DF8C01A6D0DBD0980127
:1002E0003695279536952795ABE7B4E1E1D19695FC
:1002F000879544E6489F9001499F300D1124C8011D
:10030000821B930B61E0805D01D160E085E0A8D1A4
:100310009801ADECBCECCCD19695879596958795D8
:10032000969587959C01220F331F880F991F880F80
:10033000991F880F991F820F931F9801281B390B53
:10034000C90161E0805DE2D060E08AE089D161E0CE
:1003500080E3DCD08AD10F2EF4E6FF2EF02D80E072
:100360009DDFEC0180179107D1F394D09E01369563
:10037000279536952795ABE7B4E19AD19695879561
:10038000F89E9001F99E300D1124CE01821B930B33
:1003900061E0805DBBD060E087E062D19E01ADECA2
:1003A000BCEC86D196958795969587959695879579
:1003B0009C01220F331F880F991F880F991F880FE8
:1003C000991F820F931F9E01281B390BC90161E001
:1003D000805D9CD060E08EE043D161E080E396D008
:1003E00044D18E01BCCF5998662311F05B9A15C099
:1003F0005B9813C0AC01022E02C0559547950A9434
:10040000E2F740FF02C05C9A01C05C985D9A5D987B
:100410002150310978F7599A089527E030E090E0AB
:10042000E9CF60E0E0CF0895CF93DF93519A529ADD
:10043000539A549A559A5A9A599A83EC99E001978B
:10044000F1F700C000005A988BE594E40197F1F7AA
:1004500000C000005A9A599881E2E3DF83E1E1DFAE
:1004600086E0DFDF82ECDDDF80E2DBDF89E0D9DF01
:1004700080E8D7DF80E4D5DFC8EFD1E061E080E03D
:10048000B2DF2197D9F788E0CCDF8CE0CADFDF91BB
:10049000CF91089580E8C5DF80E4C3DF1092F802B1
:1004A0001092F902E0E0F1E088EF92E01192E81793
:1004B000F907E1F70895262F26952695269590E0D1
:1004C00034E5239F800D911D1124442379F0FC0114
:1004D000E050FF4F677081E090E002C0880F991FE5
:1004E0006A95E2F79081892B80830895FC01E050A2
:1004F000FF4F677081E090E002C0880F991F6A95F6
:10050000E2F7809590818923808308955F926F92AE
:100510007F928F929F92AF92BF92CF92DF92EF9293
:10052000FF920F931F93CF93DF93562E262F30E029
:100530004901880C991C880C991C820E931E181472
:1005400019040CF059C08901000F111F000F111F71
:10055000000F111F021B130B612CA82EB12CC5011B
:1005600080975C01AA0CBB1CAA0CBB1CA80EB91E70
:100570000F2EF9EFCF2EF2E0DF2EF02D0F2EF8EF39
:10058000EF2EF2E0FF2EF02D2AC0FE01249130E084
:10059000872D652D81D002C0359527958A95E2F784
:1005A00020FF09C0F6016081670DF701808141E0FD
:1005B000860D81DF08C0F6016081670DF70180813B
:1005C00040E0860D78DF7394872D90E080179107C7
:1005D000E4F26394862D90E0881599056CF410166A
:1005E0001106BCF7862D652D57D0E501C80FD11D2A
:1005F000C457DF4F712CC9CF8091F80291E0980F5A
:10060000852D880F880F850D890F843518F4809308
:10061000F8020EC01092F802E9EFF2E0808191E05A
:10062000980F852D880F880F880F8519890F808373
:100630008091F902803320F01092F8021092F902B2
:10064000DF91CF911F910F91FF90EF90DF90CF90AE
:10065000BF90AF909F908F907F906F905F90089524
:100660008093F8026093F90208950F931F93CF933C
:10067000DF9380E8D6DE80E4D4DEC0E0D1E008EF8E
:1006800012E061E08991AFDEC017D107D1F7DF91A9
:10069000CF911F910F910895991B79E004C0991F84
:1006A000961708F0961B881F7A95C9F780950895CC
:1006B000A29FB001B39FC001A39F700D811D1124A3
:1006C000911DB29F700D811D1124911D0895F89404
:0206D000FFCF5A
:00000001FF
