S01000004164644472696E6B2E7372656313
S113000035C1000051C100004FC100004DC10000C6
S11300104BC1000049C1000047C1000045C10000B8
S113002043C1000041C100003FC100003DC10000C8
S11300303BC100000C94820A37C1000035C10000A6
S113004033C1000031C100002FC100002DC10000E8
S11300502BC1000029C1000027C1000025C10000F8
S113006023C1000021C100001FC100001DC1000008
S11300701BC1000019C1000017C1000015C1000018
S113008013C1000011C100000FC1000000000000F6
S11300900000005F00000007000700147F147F14B5
S11300A0242A7F2A122313086462364955225000F9
S11300B005030000001C2241000041221C0014081A
S11300C03E081408083E08080050300000080808DC
S11300D00808006060000020100804023E514945F1
S11300E03E00427F400042615149462141454B3127
S11300F01814127F1027454545393C4A49493001B7
S1130100710905033649494936064949291E00360D
S1130110360000005636000008142241001414145E
S1130120141400412214080201510906324979418C
S11301303E7E1111117E7F494949363E414141229B
S11301407F4141221C7F494949417F090909013EF8
S11301504149497A7F0808087F00417F41002040D7
S1130160413F017F081422417F404040407F020C00
S1130170027F7F0408107F3E4141413E7F09090907
S1130180063E4151215E7F091929464649494931B4
S113019001017F01013F4040403F1F2040201F3F9D
S11301A04038403F6314081463070870080761511E
S11301B0494543007F4141000204081020004141A9
S11301C07F00040201020440404040400001020458
S11301D00020545454787F484444383844444420DC
S11301E0384444487F3854545418087E0901020C9A
S11301F05252523E7F0804047800447D400020405F
S1130200443D007F1028440000417F40007C0418D6
S113021004787C0804047838444444387C14141466
S113022008081414187C7C08040408485454542006
S1130230043F4440203C4040207C1C2040201C3C87
S11302404030403C44281028440C5050503C4464F6
S1130250544C44000836410000007F000000413641
S113026008001008081008000000000011241FBE38
S1130270CFEFD0E4DEBFCDBF11E0A0E0B1E0ECE908
S1130280FCE100E00BBF02C007900D92AA3BB1074E
S1130290D9F729E0AAEBB1E001C01D92A33FB20750
S11302A0E1F760D60C944C0EABCECF93DF93EC0108
S11302B00E94E50B2091BA013091BB01C9018C0F5A
S11302C09D1F8C3D45E0940758F42817390758F4CE
S11302D0E901C454DE4F9093BB018093BA0105C079
S11302E0C0E0D0E002C0C0E0D0E00E94AF0CCE017C
S11302F0DF91CF9108950895FC0103969283818341
S11303002FEF3FEF348323839683858390878783FE
S113031010820895FC01118610860895CF93DF930F
S1130320FC01DB0121813281E9018A819B811396E1
S11303309C938E9312978181928115969C938E93B0
S113034014978A819B81EC017D836C83E9017B8313
S11303506A83728361831996FC93EE931897808164
S11303608F5F8083DF91CF910895CF93DF93EB016B
S1130370488159814F3F2FEF520731F4DC01179622
S1130380ED91FC91189717C0FC013396DC0115968A
S11303902D913C911697D9012D913C914217530709
S11303A050F00280F381E02DA281B3812D913C9124
S11303B042175307B0F7A281B381BB83AA83159672
S11303C0DC93CE931497FD83EC83D383C283998704
S11303D08887FC0120812F5F2083DF91CF910895CE
S11303E0FC01A281B3818481958115969C938E939F
S11303F01497A481B5818281938113969C938E93E3
S11304001297A085B18511968D919C911297E8174A
S1130410F90731F48481958112969C938E931197F8
S1130420118610868C9181508C9308958EEF88B933
S1130430000086B1809584FD46C086B1809585FD17
S113044044C086B1809586FD42C086B1809590E017
S1130450880F892F881F990B9195892BD1F58DEFE2
S113046088B9000086B1809584FD35C086B1809539
S113047085FD33C086B1809586FD31C086B18095F7
S113048090E0880F892F881F990B9195892B49F546
S11304908BEF88B9000086B1809584FD24C086B1B5
S11304A0809585FD22C086B1809586FD20C086B1E9
S11304B0809590E0880F892F881F990B9195892B3F
S11304C0C1F480E0089581E3089584E3089587E307
S11304D008958AE2089582E3089585E3089588E300
S11304E0089580E3089583E3089586E3089589E3F6
S11304F0089583E208959BD561E084E191E07DD67F
S11305006AE082E08CD661E082E291E076D664E132
S113051082E085D661E08AE291E06FD66EE182E006
S11305207ED661E082E391E068D668E282E077D625
S113053061E08CE391E061D677C6089578D561E0F7
S113054085E491E05AD66AE080E069D661E08BE404
S113055091E053D669C608956AD561E087E591E0D4
S11305604CD66AE080E05BD661E085E691E045D652
S11305705BC6089510929D0710929C07E0E0F1E09D
S11305808FE580831182128213820895EF92FF9285
S11305900F931F93CF93DF938091F209833009F473
S11305A047C028F4813081F0823041F145C2843063
S11305B009F45FC1853009F42CC23EC28FE493EC88
S11305C00197F1F700C0000031DF80939D07882375
S11305D0A9F306C08FE493EC0197F1F700C0000083
S11305E025DF80939C0790919D07891799F324C276
S11305F08FE493EC0197F1F700C0000017DF8093BC
S11306009D078823A9F306C08FE493EC0197F1F7C3
S113061000C000000BDF80939C0790919D07891711
S113062099F30AC28FE493EC0197F1F700C000003C
S1130630FDDE80939D078823A9F306C08FE493EC25
S11306400197F1F700C00000F1DE80939C079091C0
S11306509D07891799F3C0E0D1E01FE5FEC0882308
S113066009F4E8C08A3209F4BFC020919907309197
S11306709A072115310509F5282F30E02053310957
S113068030939A07209399078883D1D461E085E455
S113069091E0B3D56AE080E0C2D561E08BE491E0FB
S11306A0ACD564E180E0BBD561E0CE01A6D561E0C4
S11306B081E591E0A2D5B8D5BDC0A9014150510949
S11306C04930510560F5A901440F551F220F331F0E
S11306D0220F331F220F331F240F351F280F311D04
S11306E02053310930939A072093990789839FD423
S11306F061E085E491E081D56AE080E090D561E035
S11307008BE491E07AD564E180E089D561E0CE01A3
S113071074D561E081E591E070D586D58BC0A901DF
S11307204A5051094A35510560F5A901440F551F36
S1130730220F331F220F331F220F331F240F351FA5
S1130740280F311D2053310930939A0720939907BC
S11307508A836DD461E085E491E04FD56AE080E05E
S11307605ED561E08BE491E048D564E180E057D543
S113077061E0CE0142D561E081E591E03ED554D5FA
S113078059C0A901445651094438534008F052C095
S1130790A901440F551F220F331F220F331F220FAD
S11307A0331F240F351F280F311D20533109309377
S11307B09A07209399078B833AD461E085E491E00A
S11307C01CD56AE080E02BD561E08BE491E015D57F
S11307D064E180E024D561E0CE010FD561E081E5DC
S11307E091E00BD521D526C010929A071092990753
S11307F0188319821A821B821AD461E085E491E07D
S1130800FCD46AE080E00BD561E08BE491E0F5D4A0
S113081064E180E004D561E0CE01EFD461E081E5DC
S113082091E0EBD401D506C08FE493EC0197F1F786
S113083000C00000FBDD80939D078823A9F306C058
S11308408FE493EC0197F1F700C00000EFDD809393
S11308509C0790919D07891799F380919D07833296
S113086009F0FDCE3DC38FE493EC0197F1F700C08E
S11308700000DCDD80939D078823A9F306C08FE484
S113088093EC0197F1F700C00000D0DD80939C0742
S113089090919D07891799F3C0E0D1E01FE5ADC0A1
S11308A0882309F497C08A3209F470C0909198079C
S11308B091111DC090ED980F909398078883B7D33A
S11308C061E087E591E099D46AE080E0A8D461E032
S11308D085E691E092D464E180E0A1D461E0CE01A8
S11308E08CD461E08CE691E088D49ED473C02FEF61
S11308F0290F293018F5990F292F220F220F920F53
S113090020ED280F920F90939807898390D361E08C
S113091087E591E072D46AE080E081D461E085E605
S113092091E06BD464E180E07AD461E0CE0165D4D7
S113093061E08CE691E061D477D44CC026EF290FB6
S11309402A3508F047C0990F292F220F220F920F42
S113095020ED280F920F909398078A8368D361E063
S113096087E591E04AD46AE080E059D461E085E605
S113097091E043D464E180E052D461E0CE013DD4FF
S113098061E08CE691E039D44FD424C010929807EA
S1130990188319821A821B824AD361E087E591E0A9
S11309A02CD46AE080E03BD461E085E691E025D474
S11309B064E180E034D461E0CE011FD461E08CE6D0
S11309C091E01BD431D406C08FE493EC0197F1F786
S11309D000C000002BDD80939D078823A9F306C087
S11309E08FE493EC0197F1F700C000001FDD8093C2
S11309F09C0790919D07891799F380919D078332F5
S1130A0009F04ECF6DC28FE493EC0197F1F700C06B
S1130A1000000CDD80939D078823A9F306C08FE4B2
S1130A2093EC0197F1F700C0000000DD80939C0770
S1130A3090919D07891799F38091F209823009F406
S1130A404FC028F4882361F0813051F146C28430CC
S1130A5009F4B9C008F48DC0853009F420C23DC240
S1130A6080911101882309F450C280919B07882347
S1130A7089F0DDD261E08FE691E0BFD36AE080E0E7
S1130A80CED361E089E791E0B8D3CED381E08093FF
S1130A90F2093BC230DD6EDD82E08093F20935C29B
S1130AA080919D07833251F480911101882351F084
S1130AB0109211015FDD1092F20927C28091110199
S1130AC0811123C210929B0710929A0710929907E2
S1130AD0109298074FDD109211011092F20915C27D
S1130AE080919D07813361F4809111018823A9F1DC
S1130AF081E080939B0722DD83E08093F20905C2A5
S1130B00823361F480911101882339F182E080936A
S1130B109B0714DD83E08093F209F7C1833359F412
S1130B20809111018823C9F0C3E0C0939B0706DDBF
S1130B30C093F209EAC1843361F4809111018823DE
S1130B4061F084E080939B07F9DC83E08093F209F1
S1130B50DCC1809111018111D8C110929B071092C0
S1130B609A07109299071092980704DD1092F209DF
S1130B70CCC180919D078332B1F480919907909103
S1130B809A07892B81F080911101882381F0E0E09C
S1130B90F1E08FE58083118212821382DDDC84E030
S1130BA08093F209B2C1809111018111AEC11092FA
S1130BB09B0710929A071092990710929807DADC13
S1130BC01092F209A2C180919D07833209F057C1A6
S1130BD080919807882309F452C1809111018823D8
S1130BE009F451C124D2E0919B07F0E0EE0FFF1FFE
S1130BF0EB5FFE4F61E080819181FFD26AE080E08B
S1130C000ED3C0919907D0919A07C83E93E0D907B3
S1130C1008F47FC0FE01F695E795F695E795F695FD
S1130C20E7959F01A5ECB0E20E94270E8C01129576
S1130C3002950F7001271F70012728EE33E0029FF1
S1130C40C001039F900D129F900D11248E01081B6B
S1130C50190B9E013695279536952795ABE7B4E198
S1130C60F6D79695879544E6489F9001499F300DA5
S1130C701124BE01621B730BC801C2D77B019F0103
S1130C80A5ECB0E2E4D7929582958F7089279F7086
S1130C90892761E0805D07D29801369527953695BE
S1130CA02795ABE7B4E1D3D79695879561E0805D4E
S1130CB0FAD19701ADECBCECCAD796958795969579
S1130CC087959695879561E0805DEDD19E01ADECA9
S1130CD0BCECBDD7969587959695879596958795FF
S1130CE09C01220F331F880F991F880F991F880FAB
S1130CF0991F820F931FBE01681B790BC70180D710
S1130D00862F61E0805DCFD161E088E891E075D203
S1130D104BC0AE0156954795569547959A01ABE75A
S1130D20B4E195D78C011695079524E6209FC00160
S1130D30219F900D11248E01081B190B9A0187D74E
S1130D409695879561E0805DAED19801ADECBCECE1
S1130D507ED796958795969587959695879561E024
S1130D60805DA1D19E01ADECBCEC71D796958795C1
S1130D7096958795969587959C01220F331F880F2A
S1130D80991F880F991F880F991F820F931FBE0107
S1130D90681B790BC80134D7862F61E0805D83D14D
S1130DA061E088E891E029D264E180E038D21091D2
S1130DB098071436C0F189E2189F812D1124D82F89
S1130DC0D295DF70912F24E6D29F90191124D92F48
S1130DD082958F7061E0805D66D1CDECDC9F812DC2
S1130DE0112486958695869561E0805D5CD12D2FD2
S1130DF030E01C9F912D1124969596959695990F08
S1130E00892F880F880F980F812F891B682F70E016
S1130E10C9010AD7862F61E0805D45D161E08CE687
S1130E2091E0EBD119C0CDEC1C9FC12D1124C695C6
S1130E30C695C69561E080E38C0F35D1CC0F8C2F1D
S1130E40880F880FC80F812F8C1B61E0805D2BD128
S1130E5061E08CE691E0D1D16EE180E0E0D161E027
S1130E608CE891E0CAD168E280E0D9D161E088E9F8
S1130E7091E0C3D1D9D185E08093F20946C0809135
S1130E801101811142C010929B0710929A0710928F
S1130E909907109298076EDB1092F20936C0809180
S1130EA09D078A3271F410929B0710929A07109250
S1130EB09907109298075EDB109211011092F209C3
S1130EC024C0833231F456DB109211011092F209DE
S1130ED01CC085E080939D0718C01092F20915C0CC
S1130EE08091F209823009F434CE38F4882309F46D
S1130EF0B7CD813009F4D8CDF0CF843009F463CE76
S1130F0008F437CE853059F2E8CFDF91CF911F91A5
S1130F100F91FF90EF9008951092F20937DB84E669
S1130F2090E0A1D5FBCFAF92BF92CF92DF92EF9228
S1130F30FF920F93A12CB12CC12CD12CE12CF12CBC
S1130F40082F20E030E045E550E065EA71E08CE8E8
S1130F5097E011D30F91FF90EF90DF90CF90BF9067
S1130F60AF9008958FE087B980EF88B98FEF8AB981
S1130F701BB827D081E0D7DFFFD380E090E008954D
S1130F805998662311F05B9A15C05B9813C0AC01A5
S1130F90022E02C0559547950A94E2F740FF02C01D
S1130FA05C9A01C05C985D9A5D982150310978F78C
S1130FB0599A089527E030E090E0E9CF60E0E0CF6F
S1130FC00895CF93DF93519A529A539A549A559A0B
S1130FD05A9A599A83EC99E00197F1F700C00000FE
S1130FE05A988BE594E40197F1F700C000005A9AEF
S1130FF0599881E2E3DF83E1E1DF86E0DFDF82EC21
S1131000DDDF80E2DBDF89E0D9DF80E8D7DF80E461
S1131010D5DFC8EFD1E061E080E0B2DF2197D9F7F6
S113102088E0CCDF8CE0CADFDF91CF91089580E8BF
S1131030C5DF80E4C3DF1092960910929709EEE9A8
S1131040F7E086E999E01192E817F907E1F70895C6
S1131050262F26952695269590E034E5239F800D2E
S1131060911D1124442379F0FC01E256F84F677076
S113107081E090E002C0880F991F6A95E2F79081A1
S1131080892B80830895FC01E256F84F677081E054
S113109090E002C0880F991F6A95E2F780959081CD
S11310A08923808308955F926F927F928F929F929B
S11310B0AF92BF92CF92DF92EF92FF920F931F9362
S11310C0CF93DF93562E262F30E04901880C991CCC
S11310D0880C991C820E931E181419040CF059C024
S11310E08901000F111F000F111F000F111F021B98
S11310F0130B612CA82EB12CC50180975C01AA0C9E
S1131100BB1CAA0CBB1CA80EB91E0F2EF7E9CF2ED0
S1131110F9E0DF2EF02D0F2EF6E9EF2EF9E0FF2E89
S1131120F02D2AC0FE01249130E0872D652D5CD579
S113113002C0359527958A95E2F720FF09C0F6018C
S11311406081670DF701808141E0860D81DF08C071
S1131150F6016081670DF701808140E0860D78DF3C
S11311607394872D90E080179107E4F26394862DA1
S113117090E0881599056CF410161106BCF7862DBD
S1131180652D32D5E501C80FD11DC457DF4F712C31
S1131190C9CF8091960991E0980F852D880F880F0B
S11311A0850D890F843518F4809396090EC010922A
S11311B09609E7E9F9E0808191E0980F852D880F81
S11311C0880F880F8519890F808380919709803350
S11311D020F01092960910929709DF91CF911F91F8
S11311E00F91FF90EF90DF90CF90BF90AF909F90C2
S11311F08F907F906F905F9008951F93CF93DF93AC
S1131200EC018881882339F0162F2196612F4BDF5A
S113121089918111FBCFDF91CF911F910895809324
S113122096096093970908950F931F93CF93DF93C3
S113123080E8C4DE80E4C2DECEE9D7E006E919E046
S113124061E089919DDEC017D107D1F7DF91CF917D
S11312501F910F91089531E1FC013083319722E20F
S113126020833197A3E3A083319760833197708300
S113127031971082319760E86083319710823197FB
S113128062E06083319763E06083319764E0608358
S1131290319765E06083319766E06083319767E05A
S11312A06083319768E06083319769E060833197A8
S11312B060E1608331973083319732E13083319735
S11312C033E13083319734E13083319735E1308332
S11312D0319736E13083319737E13083319738E104
S11312E03083319739E13083319730E2308331975D
S11312F031E2308331972083319723E22083319781
S1131300408331975083319726E22083319727E237
S11313102083319728E22083319729E22083319773
S113132020E32083319721E3208386970895109248
S113133089008CE7809388008BE080938100EFE63E
S1131340F0E0808182608083A091F009B091F1097E
S1131350CD91CDBFDD91DEBFFF91EF91DF91CF91B4
S1131360BF91AF919F918F917F916F915F914F91B9
S11313703F912F911F910F91FF90EF90DF90CF90AD
S1131380BF90AF909F908F907F906F905F904F90A1
S11313903F902F901F900F900FBE0F90089581E003
S11313A008950F920FB6F8940F921F9211242F9262
S11313B03F924F925F926F927F928F929F92AF92E1
S11313C0BF92CF92DF92EF92FF920F931F932F93CE
S11313D03F934F935F936F937F938F939F93AF93B9
S11313E0BF93CF93DF93EF93FF93A091F009B09154
S11313F0F1090DB60D920EB60D928AD3A091F009A3
S1131400B091F109CD91CDBFDD91DEBFFF91EF9198
S1131410DF91CF91BF91AF919F918F917F916F9108
S11314205F914F913F912F911F910F91FF90EF90FA
S1131430DF90CF90BF90AF909F908F907F906F90F0
S11314405F904F903F902F901F900F900FBE0F9082
S113145008950F920FB6F8940F921F9211242F92B1
S11314603F924F925F926F927F928F929F92AF9230
S1131470BF92CF92DF92EF92FF920F931F932F931D
S11314803F934F935F936F937F938F939F93AF9308
S1131490BF93CF93DF93EF93FF93A091F009B091A3
S11314A0F1090DB60D920EB60D9295D131D3A091DE
S11314B0F009B091F109CD91CDBFDD91DEBFFF916F
S11314C0EF91DF91CF91BF91AF919F918F917F91D8
S11314D06F915F914F913F912F911F910F91FF90C9
S11314E0EF90DF90CF90BF90AF909F908F907F90C0
S11314F06F905F904F903F902F901F900F900FBE72
S11315000F900895A6DF1895CF93DF93EC01E09137
S1131510F009F091F109938382838091A00990915D
S1131520A109C817D90768F46091F0097091F1090D
S11315308091B6099091B7096E5F7F4F0E94B50103
S113154017C06091F0097091F1098091B8099091E8
S1131550B9096E5F7F4F0E94B5018091120190918D
S11315601301C817D90720F4D0931301C0931201B3
S1131570DF91CF9108954F925F926F927F928F92F5
S11315809F92AF92BF92CF92DF92EF92FF920F930E
S11315901F93CF93DF935C014B013A01290181E250
S11315A090E00E945501EC01892B09F4D3C0C114C9
S11315B0D10409F0CBC0C3010E945501988F8F8BD1
S11315C0009721F4CE010E947B01C4C0A30165EA07
S11315D070E04CD39301215031098F89988D3C01DF
S11315E0620E731E48E050E0B401CE01499645D323
S11315F018A2102F043008F013E01E8B6E0182E055
S1131600C80ED11CC6010E948A01CE010C960E940C
S11316108A01D987C88784E090E0811B91099D875E
S11316208C87DB8BCA8BA201B501C30114DE9983BD
S11316308883E114F10419F0F701D183C0830FB654
S1131640F8940F928091A2098F5F8093A2098091F0
S1131650F0099091F109892BA9F5D093F109C09370
S1131660F0098091A2098130E1F58CEC99E00E94A7
S11316707C0185ED99E00E947C018EED99E00E9449
S11316807C0187EE99E00E947C0183EC99E00E9442
S11316907C018AEB99E00E947C018DEA99E00E942A
S11316A07C0184EA99E00E947C0183EC99E09093A8
S11316B0B9098093B8098AEB99E09093B7098093AC
S11316C0B6090FC080919D0981110BC0E091F0090A
S11316D0F091F1098689081720F0D093F109C0939D
S11316E0F0098E8990919F09981710F480939F09AF
S11316F0909198099F5F9093980990919E099817EB
S113170010F480939E0990E09C01220F331F220F56
S1131710331F220F331F820F931FB6018453964F3A
S11317200E948E010F900FBE80919D09882351F075
S1131730E091F009F091F1098689801728F431DEEF
S113174081E009C081E007C081E005C0D88ECF8A5E
S1131750C6013CCF8FEFDF91CF911F910F91FF9086
S1131760EF90DF90CF90BF90AF909F908F907F903D
S11317706F905F904F900895AF92BF92CF92DF9297
S1131780EF92FF920F93A12CB12CC12CD12CE12C00
S1131790F12C00E020E030E045E550E064EB71E03E
S11317A08FE49DE0E8DE813041F4F89480939D0954
S11317B01092A1091092A009BADD0F91FF90EF9049
S11317C0DF90CF90BF90AF90089580919C098F5F78
S11317D080939C0908950F931F93CF93DF93809177
S11317E09C098111B2C08091A0099091A109019630
S11317F09093A1098093A0098091A0099091A109D7
S1131800892B99F58091B8099091B9092091B6096D
S11318103091B7093093B9092093B8099093B70967
S11318208093B609809199098F5F80939909E0911B
S1131830B809F091B9098081811107C08FEF9FEF3A
S1131840909313018093120110C0E091B809F091B4
S1131850B9090580F681E02D0680F781E02D8281AB
S1131860938190931301809312012091A0093091E8
S1131870A10980911201909113012817390708F4E6
S113188069C0E091B809F091B9098081882399F081
S1131890E091B809F091B9090580F681E02DC6817F
S11318A0D7818A819B812091A0093091A1092817B1
S11318B03907F8F419C08FEF9FEF909313018093C9
S11318C0120148C0E091B809F091B9090580F68188
S11318D0E02DC681D7818A819B812091A009309116
S11318E0A1092817390728F4909313018093120152
S11318F031C08E010E5F1F4FC8010E94F0018C8918
S11319009D89892B21F0CE010C960E94F0018E89CD
S113191090919E09981710F480939E0990E09C0181
S1131920220F331F220F331F220F331F820F931FE7
S1131930B8018453964F0E948E01E091B809F0914A
S1131940B90980818111BECFB6CF80919B098F5F89
S113195080939B09DF91CF911F910F910895CF92AE
S1131960DF92EF92FF920F931F93CF93DF930FB603
S1131970F8940F9280919C09815080939C098091E6
S11319809C09811162C08091A209811132C060C09A
S1131990D7011596ED91FC911697C681D781CE019A
S11319A00C960E94F0018E010E5F1F4FC8010E9429
S11319B0F0018E8990919E09981710F480939E09E6
S11319C090E09C01220F331F220F331F220F331F7D
S11319D0820F931FB8018453964F0E948E01E091A9
S11319E0F009F091F1099E898689981758F0DC2C4A
S11319F009C0D12C0F2EFDEAEF2EF9E0FF2EF02DB9
S1131A00CC24C394F70180818111C2CF80919B09BA
S1131A10882379F080919B09882391F0DCDE809102
S1131A209B09815080939B0980919B098111F6CF7A
S1131A3007C0F1E0DF1621F080919A09813039F472
S1131A4010929A09AEDC81E003C080E001C080E01E
S1131A500F900FBEDF91CF911F910F91FF90EF90E8
S1131A60DF90CF900895CF93DF93EC01892B99F009
S1131A70ACDE8091A0099091A109C80FD91F809173
S1131A80F0099091F10902960E94F001CE013CDD2B
S1131A9066DF811101C085DCDF91CF9108950F2E9F
S1131AA0F4EAEF2EF9E0FF2EF02DCCECD9E0809192
S1131AB0A309882341F189DED7011C9150DF11234A
S1131AC011F10FB6F8940F92D7011596ED91FC9190
S1131AD0169706811781C80102960E94F001809131
S1131AE0A20981508093A2098091A3098150809317
S1131AF0A3090F900FBEF8018789908D0E947B0186
S1131B00C8010E947B018881823088F24ADCCFCFF1
S1131B1080919C09811113C080919E0990E0FC0181
S1131B20EE0FFF1FEE0FFF1FEE0FFF1F8E0F9F1F05
S1131B30FC01E453F64F8081882329F01BC081E027
S1131B4080939A09089580919E09815080939E09FB
S1131B5080919E0990E0FC01EE0FFF1FEE0FFF1F26
S1131B60EE0FFF1F8E0F9F1FFC01E453F64F808181
S1131B70882349F380919E0990E09C01220F331F32
S1131B80220F331F220F331F280F391FD901A453EB
S1131B90B64F1196ED91FC9112970280F381E02DDE
S1131BA01296FC93EE9311972153364FE217F307E5
S1131BB029F422813381FD0132832183FC01EE0F5C
S1131BC0FF1FEE0FFF1FEE0FFF1F8E0F9F1FFC0165
S1131BD0E453F64F0180F281E02D86819781909342
S1131BE0F1098093F0090895991B79E004C0991FC5
S1131BF0961708F0961B881F7A95C9F78095089563
S1131C00AA1BBB1B51E107C0AA1FBB1FA617B7071E
S1131C1010F0A61BB70B881F991F5A95A9F780953A
S1131C209095BC01CD01089597FB072E16F40094FE
S1131C3006D077FD08D0E4DF07FC05D03EF490958C
S1131C4081959F4F0895709561957F4F0895A29F48
S1131C50B001B39FC001A39F700D811D1124911D7C
S1131C60B29F700D811D1124911D0895DC0101C0E6
S1131C706D9341505040E0F70895FB01DC01415061
S1131C80504048F001900D920020C9F701C01D9208
S10F1C9041505040E0F70895F894FFCF55
S1131C9C5F20202000B20125012D0135013F0100F8
S1131CAC0001FFFF54797065206F66206472696EC1
S1131CBC6B00313A204265657200323A2057696EE6
S1131CCC6500333A204C6971756F7200343A204FB9
S1131CDC7468657200456E74657200566F6C756D30
S1131CEC6520286D4C2900456E74657220416C6327
S1131CFC6F686F6C00436F6E74656E7420250043BF
S1131D0C616E27742061646400616E796D6F726515
S1131D1C206472696E6B7300206D4C002A20746F02
S1131D2C2043616E63656C002320746F20436F6ED7
S1131D3C6669726D004164644472696E6B546173BC
S10D1D4C6B002A0049444C450000D6
S9030000FC
