:1000000035C1000051C100004FC100004DC10000CA
:100010004BC1000049C1000047C1000045C10000BC
:1000200043C1000041C100003FC100003DC10000CC
:100030003BC100000C940B0B37C1000035C1000020
:1000400033C1000031C100002FC100002DC10000EC
:100050002BC1000029C1000027C1000025C10000FC
:1000600023C1000021C100001FC100001DC100000C
:100070001BC1000019C1000017C1000015C100001C
:1000800013C1000011C100000FC1000000000000FA
:100090000000005F00000007000700147F147F14B9
:1000A000242A7F2A122313086462364955225000FD
:1000B00005030000001C2241000041221C0014081E
:1000C0003E081408083E08080050300000080808E0
:1000D0000808006060000020100804023E514945F5
:1000E0003E00427F400042615149462141454B312B
:1000F0001814127F1027454545393C4A49493001BB
:10010000710905033649494936064949291E003611
:100110003600000056360000081422410014141462
:100120001414004122140802015109063249794190
:100130003E7E1111117E7F494949363E414141229F
:100140007F4141221C7F494949417F090909013EFC
:100150004149497A7F0808087F00417F41002040DB
:10016000413F017F081422417F404040407F020C04
:10017000027F7F0408107F3E4141413E7F0909090B
:10018000063E4151215E7F091929464649494931B8
:1001900001017F01013F4040403F1F2040201F3FA1
:1001A0004038403F63140814630708700807615122
:1001B000494543007F4141000204081020004141AD
:1001C0007F0004020102044040404040000102045C
:1001D0000020545454787F484444383844444420E0
:1001E000384444487F3854545418087E0901020C9E
:1001F0005252523E7F0804047800447D4000204063
:10020000443D007F1028440000417F40007C0418DA
:1002100004787C0804047838444444387C1414146A
:1002200008081414187C7C0804040848545454200A
:10023000043F4440203C4040207C1C2040201C3C8B
:100240004030403C44281028440C5050503C4464FA
:10025000544C44000836410000007F000000413645
:1002600008001008081008000000000011241FBE3C
:10027000CFEFD0E4DEBFCDBF11E0A0E0B1E0E2E41B
:10028000FDE100E00BBF02C007900D92AC3CB1074E
:10029000D9F72AE0ACECB1E001C01D92A232B2075E
:1002A000E1F7E9D60C949F0EABCECF93DF93EC0130
:1002B0000E946E0C2091CC013091CD01C9018C0FB0
:1002C0009D1F8C3D45E0940758F42817390758F4D2
:1002D000E901C253DE4F9093CD018093CC0105C05C
:1002E000C0E0D0E002C0C0E0D0E00E94380DCE01F6
:1002F000DF91CF9108950895FC0103969283818345
:100300002FEF3FEF34832383968385839087878302
:1003100010820895FC01118610860895CF93DF9313
:10032000FC01DB0121813281E9018A819B811396E5
:100330009C938E9312978181928115969C938E93B4
:1003400014978A819B81EC017D836C83E9017B8317
:100350006A83728361831996FC93EE931897808168
:100360008F5F8083DF91CF910895CF93DF93EB016F
:10037000488159814F3F2FEF520731F4DC01179626
:10038000ED91FC91189717C0FC013396DC0115968E
:100390002D913C911697D9012D913C91421753070D
:1003A00050F00280F381E02DA281B3812D913C9128
:1003B00042175307B0F7A281B381BB83AA83159676
:1003C000DC93CE931497FD83EC83D383C283998708
:1003D0008887FC0120812F5F2083DF91CF910895D2
:1003E000FC01A281B3818481958115969C938E93A3
:1003F0001497A481B5818281938113969C938E93E7
:100400001297A085B18511968D919C911297E8174E
:10041000F90731F48481958112969C938E931197FC
:10042000118610868C9181508C9308958EEF88B937
:10043000000086B1809584FD46C086B1809585FD1B
:1004400044C086B1809586FD42C086B1809590E01B
:10045000880F892F881F990B9195892BD1F58DEFE6
:1004600088B9000086B1809584FD35C086B180953D
:1004700085FD33C086B1809586FD31C086B18095FB
:1004800090E0880F892F881F990B9195892B49F54A
:100490008BEF88B9000086B1809584FD24C086B1B9
:1004A000809585FD22C086B1809586FD20C086B1ED
:1004B000809590E0880F892F881F990B9195892B43
:1004C000C1F480E0089581E3089584E3089587E30B
:1004D00008958AE2089582E3089585E3089588E304
:1004E000089580E3089583E3089586E3089589E3FA
:1004F000089583E208952FC04091C4075091C50725
:100500006091C6077091C7074233510561057105B7
:1005100049F41092C4071092C5071092C6071092B2
:10052000C707089587EA91E60197F1F700C0000038
:100530008091C4079091C507A091C607B091C707E5
:100540000196A11DB11D8093C4079093C507A09388
:10055000C607B093C7076ADF8093200A882361F239
:1005600065DF8093210A9091200A8917C9F31092C0
:10057000C4071092C5071092C6071092C707809152
:10058000CA0798138AC02091C8073091C907233041
:10059000310538F42F5F3F4F3093C9072093C807C8
:1005A00004C01092C9071092C807813341F4E0914A
:1005B000C807F091C907E15CFE4F8081089582333E
:1005C00041F4E091C807F091C907E55CFE4F8081D6
:1005D0000895833341F4E091C807F091C907E95CBD
:1005E000FE4F80810895843341F4E091C807F09173
:1005F000C907ED5CFE4F80810895853341F4E09199
:10060000C807F091C907E15DFE4F808108958633E8
:1006100041F4E091C807F091C907E55DFE4F808184
:100620000895873341F4E091C807F091C907E95D67
:10063000FE4F80810895883341F4E091C807F0911E
:10064000C907ED5DFE4F80810895893341F4E09143
:10065000C807F091C907E15EFE4F8081089580339D
:1006600041F4E091C807F091C907E55EFE4F808133
:1006700008958A3241F4E091C807F091C907E95E14
:10068000FE4F80810895833271F4E091C807F091A4
:10069000C907ED5EFE4F808108959093CA071092BE
:1006A000C9071092C8078091CA070895CF93DF93B6
:1006B000EC0146D561E085E491E028D66AE080E06F
:1006C00037D661E0CE0122D638D6DF91CF9108959A
:1006D0009091B8078091AF0798130FC0E9EBF7E04E
:1006E000A0EBB7E020EC37E091918D91981307C013
:1006F000E217F307C9F781E0089580E0089580E0EC
:1007000008951ED561E085E491E000D66AE080E0BE
:100710000FD661E085E091E0F9D50FD610921F0A5F
:100720000895FF920F931F93CF93DF9380911F0A39
:10073000823009F41FC130F4882359F0813009F464
:100740005AC0F4C2833009F491C1843009F429C23B
:10075000EDC2D1DE8093AC071092AB07833209F46F
:100760004BC4CFE58A32B1F4E091C307EE2371F0B8
:10077000E150E093C307F0E0EB5FFE4FC0831182CE
:100780001092AB0785E091E091DF28C085E091E011
:100790008DDF24C0882369F0E091C307F0E0EB5FB0
:1007A000FE4F808311828093AB0785E091E07EDF6E
:1007B00015C08091AB07882389F0E091C307EA3028
:1007C00068F4EF5FE093C307F0E0EB5FFE4FC08398
:1007D00011821092AB0785E091E068DF8CDE809398
:1007E000AC07833209F0BECF07C48FE493EC0197C6
:1007F000F1F700C000001ADE8093AC078823A9F34C
:1008000006C0EFE4F3EC3197F1F700C000000EDE14
:100810008093AB079091AC07891799F3C0E0D1E0C2
:100820001FE59CC0882309F486C08A3209F464C09D
:100830009091C207911119C090ED980F9093C20743
:1008400088837ED461E080E591E060D56AE080E055
:100850006FD561E08BE591E059D564E180E068D522
:1008600061E0CE0153D569D566C02FEF290F29303D
:10087000F8F4990F292F220F220F920F20ED280F45
:10088000920F9093C20789835BD461E080E591E089
:100890003DD56AE080E04CD561E08BE591E036D54E
:1008A00064E180E045D561E0CE0130D546D543C056
:1008B00026EF290F2A3508F03EC030ED380F990F8A
:1008C000292F220F220F920F930F9093C2078A8332
:1008D00037D461E080E591E019D56AE080E028D561
:1008E00061E08BE591E012D564E180E021D561E023
:1008F000CE010CD522D51FC01092C20718831982D1
:100900001A821ED461E080E591E000D56AE080E0C3
:100910000FD561E08BE591E0F9D464E180E008D582
:1009200061E0CE01F3D409D506C087EA91E60197CC
:10093000F1F700C000007ADD8093AC078823A9F3AB
:1009400006C0E7EAF1E63197F1F700C000006EDD7E
:100950008093AB079091AC07891799F38091AC070E
:10096000833209F05FCF48C38FE493EC0197F1F72E
:1009700000C000005BDD8093AC078823A9F306C0AC
:10098000EFE4F3EC3197F1F700C000004FDD809306
:10099000AB079091AC07891799F3C1E0D2E05AC038
:1009A0008133E9F4C093C107CBD36C2F89E691E082
:1009B000ADD46AE080E0BCD46C2F87E791E0A6D488
:1009C00064E180E0B5D46C2F8FE791E09FD46EE1B5
:1009D00080E0AED46C2F8AE791E098D4AED48091B9
:1009E000AC07823321F5D093C107AAD36C2F89E6D7
:1009F00091E08CD46AE080E09BD46C2F87E791E093
:100A000085D464E180E094D46C2F8FE791E07ED4AC
:100A10006EE180E08DD46C2F82E891E077D48DD4A4
:100A200006C08FE493EC0197F1F700C00000FEDCF4
:100A30008093AC078823A9F306C0EFE4F3EC319769
:100A4000F1F700C00000F2DC8093AB079091AC0797
:100A5000891799F38091AC07833209F0A1CFCCC2FA
:100A60008FE493EC0197F1F700C00000DFDC809386
:100A7000AC078823A9F306C0EFE4F3EC3197F1F754
:100A800000C00000D3DC8093AB079091AC078917BE
:100A900099F3C0ECD7E008EB17E00F2EFAE2FF2E37
:100AA000F02D73C0882309F45DC08A32A9F120912A
:100AB000AD073091AE072830310508F053C0F90179
:100AC000E854F84F80832F5F3F4F2830310520F4E2
:100AD000F901E854F84FF08233D361E089E891E0FE
:100AE00015D46AE080E024D461E080E991E00ED47E
:100AF00064E180E01DD461E0C80108D41ED4809177
:100B0000AD079091AE0701969093AE078093AD0725
:100B10008091AC078A3231F51092AE071092AD0782
:100B2000E8EBF7E01192CE17DF07E1F7F801F0826A
:100B300007D361E089E891E0E9D36AE080E0F8D387
:100B400061E080E991E0E2D364E180E0F1D361E02B
:100B5000C801DCD3F2D306C08FE493EC0197F1F720
:100B600000C0000063DC8093AC078823A9F306C0B3
:100B7000EFE4F3EC3197F1F700C0000057DC80930D
:100B8000AB079091AC07891799F38091AC0783323A
:100B900009F088CF31C28FE493EC0197F1F700C0E0
:100BA000000044DC8093AC078823A9F306C0EFE47F
:100BB000F3EC3197F1F700C0000038DC8093AB070D
:100BC0009091AC07891799F3C7EBD7E00FEA17E0CC
:100BD0000F2EFAE2FF2EF02D84C0882309F46EC098
:100BE0008A3209F43DC02091AD073091AE0728301C
:100BF000310508F063C0F901E155F84F80832F5F9C
:100C00003F4F2830310520F4F901E155F84FF082CB
:100C100097D261E089E991E079D36AE080E088D3F6
:100C200061E080E991E072D36AE08CE381D3809146
:100C3000AA0761E0805DC0D264E180E079D361E021
:100C4000C80164D37AD38091AD079091AE07019625
:100C50009093AE078093AD078091AC078A3271F50F
:100C60001092AE071092AD07EFEAF7E01192CE179F
:100C7000DF07E1F7F801F08263D261E089E991E0F2
:100C800045D36AE080E054D361E081EA91E03ED34D
:100C90006AE08CE34DD38091AA0761E0805D8CD23D
:100CA00064E180E045D361E0C80130D346D306C09B
:100CB0008FE493EC0197F1F700C00000B7DB80935D
:100CC000AC078823A9F306C0EFE4F3EC3197F1F702
:100CD00000C00000ABDB8093AB079091AC07891795
:100CE00099F38091AC07833209F077CFF1DC811161
:100CF00006C08091AA078F5F8093AA077DC11092DA
:100D0000AA0780911F0A823009F482C030F4882338
:100D100021F1813009F451C06CC1843009F4E0C084
:100D200008F4A2C0853009F47BC163C1823009F4A4
:100D30006FC030F4882369F0813009F43EC059C196
:100D4000843009F4C9C008F48FC0853009F468C143
:100D500050C18091AC07833231F58091C30788235D
:100D600031F1E82FF0E0EB5FFE4F1082815080936D
:100D7000C3071092C207E4D161E080E591E0C6D2DA
:100D80006AE080E0D5D261E08BE591E0BFD264E11A
:100D900080E0CED261E08BEA91E0B8D2CED281E0A1
:100DA00080931F0A3DC18091C307811139C18BEA2D
:100DB00091E07CDC10921F0A33C18091C2078B3511
:100DC00008F11092C107BCD161E089E691E09ED2A2
:100DD0006AE080E0ADD261E087E791E097D264E11C
:100DE00080E0A6D261E08FE791E090D26EE180E0F2
:100DF0009FD261E08BEA91E089D29FD282E080931A
:100E00001F0A0EC11092C20781E080931F0A08C119
:100E10008091C107882309F403C11092AE07109294
:100E2000AD07E8EBF7E080EC97E01192E817F907DF
:100E3000E1F78AE28093B80783D161E089E891E025
:100E400065D26AE080E074D261E080E991E05ED230
:100E500064E180E06DD261E08DEA91E057D26DD21D
:100E600083E080931F0ADCC08091AD079091AE07AC
:100E7000089709F0D5C064D161E089E991E046D2D4
:100E80006AE080E055D261E08FEA91E03FD26AE00B
:100E90008CE34ED28091AA0761E0805D8DD164E140
:100EA00080E046D261E08DEA91E030D246D21092E5
:100EB000AE071092AD071092AA07EFEAF7E087EBB2
:100EC00097E011928E179F07E1F78AE28093AF07B0
:100ED00084E080931F0AA4C08091AA0781112AC0D0
:100EE0002FD161E085E091E011D26AE080E020D26C
:100EF00061E080E091E00AD26AE084E119D261E029
:100F000085E691E003D264E180E012D28091C107CE
:100F1000813029F461E08AE791E0F8D106C082309F
:100F200021F461E082E891E0F1D107D285E080937D
:100F30001F0A76C0833071F503D161E089E891E042
:100F4000E5D16AE080E0F4D161E080E991E0DED1B2
:100F500064E180E0EDD161E08DEA91E0D7D1EDD19F
:100F60001092AA071092AE071092AD07E8EBF7E0D7
:100F7000AFEAB7E080EC97E011921D928E179F07C1
:100F8000D9F78AE28093B8071092AF0783E0809385
:100F90001F0A46C0D5D061E089E991E0B7D16AE087
:100FA00080E0C6D161E08FEA91E0B0D16AE08CE3E5
:100FB000BFD18091AA0761E0805DFED064E180E04E
:100FC000B7D161E08DEA91E0A1D1B7D11092AE071F
:100FD0001092AD07EFEAF7E087EB97E011928E17DA
:100FE0009F07E1F78AE28093AF0784E080931F0AAE
:100FF00017C010921F0A14C080911F0A823009F492
:1010000007CF38F4882309F4A8CE813009F4D5CE6F
:10101000F0CF843009F460CF08F426CF853049F74B
:10102000DF91CF911F910F91FF9008956ADB79DBDB
:1010300084E690E0A1D5FBCFAF92BF92CF92DF9232
:10104000EF92FF920F93A12CB12CC12CD12CE12C4B
:10105000F12C082F20E030E045E550E06AEB71E02C
:1010600086E198E011D30F91FF90EF90DF90CF9041
:10107000BF90AF9008958FE087B980EF88B98FEF68
:101080008AB91BB827D081E0D7DFFFD380E090E09A
:1010900008955998662311F05B9A15C05B9813C0A8
:1010A000AC01022E02C0559547950A94E2F740FF25
:1010B00002C05C9A01C05C985D9A5D98215031092C
:1010C00078F7599A089527E030E090E0E9CF60E0A2
:1010D000E0CF0895CF93DF93519A529A539A549A3E
:1010E000559A5A9A599A83EC99E00197F1F700C002
:1010F00000005A988BE594E40197F1F700C00000D6
:101100005A9A599881E2E3DF83E1E1DF86E0DFDF8D
:1011100082ECDDDF80E2DBDF89E0D9DF80E8D7DF4A
:1011200080E4D5DFC8EFD1E061E080E0B2DF219755
:10113000D9F788E0CCDF8CE0CADFDF91CF9108954A
:1011400080E8C5DF80E4C3DF1092C3091092C409B0
:10115000EBECF7E083EC99E01192E817F907E1F77F
:101160000895262F26952695269590E034E5239F11
:10117000800D911D1124442379F0FC01E553F84FB3
:10118000677081E090E002C0880F991F6A95E2F7CE
:101190009081892B80830895FC01E553F84F677097
:1011A00081E090E002C0880F991F6A95E2F7809570
:1011B00090818923808308955F926F927F928F92AE
:1011C0009F92AF92BF92CF92DF92EF92FF920F93D6
:1011D0001F93CF93DF93562E262F30E04901880CC2
:1011E000991C880C991C820E931E181419040CF07B
:1011F00059C08901000F111F000F111F000F111F8F
:10120000021B130B612CA82EB12CC50180975C0129
:10121000AA0CBB1CAA0CBB1CA80EB91E0F2EF4EC0A
:10122000CF2EF9E0DF2EF02D0F2EF3ECEF2EF9E0AC
:10123000FF2EF02D2AC0FE01249130E0872D652D70
:101240005CD502C0359527958A95E2F720FF09C045
:10125000F6016081670DF701808141E0860D81DF35
:1012600008C0F6016081670DF701808140E0860DBE
:1012700078DF7394872D90E080179107E4F26394F0
:10128000862D90E0881599056CF410161106BCF7B0
:10129000862D652D32D5E501C80FD11DC457DF4F0E
:1012A000712CC9CF8091C30991E0980F852D880FCB
:1012B000880F850D890F843518F48093C3090EC0FB
:1012C0001092C309E4ECF9E0808191E0980F852D3C
:1012D000880F880F880F8519890F80838091C40932
:1012E000803320F01092C3091092C409DF91CF918E
:1012F0001F910F91FF90EF90DF90CF90BF90AF9034
:101300009F908F907F906F905F9008951F93CF93E1
:10131000DF93EC018881882339F0162F2196612F05
:101320004BDF89918111FBCFDF91CF911F91089500
:101330008093C3096093C40908950F931F93CF93BB
:10134000DF9380E8C4DE80E4C2DECBECD7E003ECC0
:1013500019E061E089919DDEC017D107D1F7DF91D7
:10136000CF911F910F91089531E1FC0130833197A6
:1013700022E220833197A3E3A083319760833197E2
:10138000708331971082319760E8608331971082C3
:10139000319762E06083319763E06083319764E066
:1013A0006083319765E06083319766E060833197B1
:1013B00067E06083319768E06083319769E060831C
:1013C000319760E1608331973083319732E1308328
:1013D000319733E13083319734E13083319735E110
:1013E0003083319736E13083319737E1308331975D
:1013F00038E13083319739E13083319730E23083FF
:10140000319731E2308331972083319723E2208373
:101410003197408331975083319726E2208331976B
:1014200027E22083319728E22083319729E2208325
:10143000319720E32083319721E320838697089515
:10144000109289008CE7809388008BE08093810064
:10145000EFE6F0E0808182608083A0911D0AB09168
:101460001E0ACD91CDBFDD91DEBFFF91EF91DF91DF
:10147000CF91BF91AF919F918F917F916F915F912C
:101480004F913F912F911F910F91FF90EF90DF901F
:10149000CF90BF90AF909F908F907F906F905F9014
:1014A0004F903F902F901F900F900FBE0F90089578
:1014B00081E008950F920FB6F8940F921F921124B5
:1014C0002F923F924F925F926F927F928F929F9254
:1014D000AF92BF92CF92DF92EF92FF920F931F9342
:1014E0002F933F934F935F936F937F938F939F932C
:1014F000AF93BF93CF93DF93EF93FF93A0911D0A18
:10150000B0911E0A0DB60D920EB60D928AD3A0911F
:101510001D0AB0911E0ACD91CDBFDD91DEBFFF91B6
:10152000EF91DF91CF91BF91AF919F918F917F917B
:101530006F915F914F913F912F911F910F91FF906C
:10154000EF90DF90CF90BF90AF909F908F907F9063
:101550006F905F904F903F902F901F900F900FBE15
:101560000F9008950F920FB6F8940F921F921124C6
:101570002F923F924F925F926F927F928F929F92A3
:10158000AF92BF92CF92DF92EF92FF920F931F9391
:101590002F933F934F935F936F937F938F939F937B
:1015A000AF93BF93CF93DF93EF93FF93A0911D0A67
:1015B000B0911E0A0DB60D920EB60D9295D131D393
:1015C000A0911D0AB0911E0ACD91CDBFDD91DEBF65
:1015D000FF91EF91DF91CF91BF91AF919F918F914B
:1015E0007F916F915F914F913F912F911F910F913B
:1015F000FF90EF90DF90CF90BF90AF909F908F9033
:101600007F906F905F904F903F902F901F900F9022
:101610000FBE0F900895A6DF1895CF93DF93EC01CE
:10162000E0911D0AF0911E0A938382838091CD0977
:101630009091CE09C817D90768F460911D0A70917E
:101640001E0A8091E3099091E4096E5F7F4F0E942A
:10165000B50117C060911D0A70911E0A8091E509BD
:101660009091E6096E5F7F4F0E94B5018091430122
:1016700090914401C817D90720F4D0934401C09336
:101680004301DF91CF9108954F925F926F927F92C5
:101690008F929F92AF92BF92CF92DF92EF92FF9282
:1016A0000F931F93CF93DF935C014B013A01290104
:1016B00081E290E00E945501EC01892B09F4D3C02E
:1016C000C114D10409F0CBC0C3010E945501988F09
:1016D0008F8B009721F4CE010E947B01C4C0A3012F
:1016E00065EA70E016D39301215031098F89988DF6
:1016F0003C01620E731E48E050E0B401CE014996F1
:101700000FD318A2102F043008F013E01E8B6E01C7
:1017100082E0C80ED11CC6010E948A01CE010C963F
:101720000E948A01D987C88784E090E0811B9109D3
:101730009D878C87DB8BCA8BA201B501C30114DEA8
:1017400099838883E114F10419F0F701D183C083F0
:101750000FB6F8940F928091CF098F5F8093CF09D5
:1017600080911D0A90911E0A892BA9F5D0931E0A1B
:10177000C0931D0A8091CF098130E1F589EF99E08E
:101780000E947C0182E09AE00E947C018BE09AE05A
:101790000E947C0184E19AE00E947C0180EF99E044
:1017A0000E947C0187EE99E00E947C018AED99E01D
:1017B0000E947C0181ED99E00E947C0180EF99E01C
:1017C0009093E6098093E50987EE99E09093E40908
:1017D0008093E3090FC08091CA0981110BC0E09189
:1017E0001D0AF0911E0A8689081720F0D0931E0A60
:1017F000C0931D0A8E899091CC09981710F480939C
:10180000CC099091C5099F5F9093C5099091CB0930
:10181000981710F48093CB0990E09C01220F331F9E
:10182000220F331F220F331F820F931FB6018750E1
:10183000964F0E948E010F900FBE8091CA09882397
:1018400051F0E0911D0AF0911E0A8689801728F454
:1018500031DE81E009C081E007C081E005C0D88E9B
:10186000CF8AC6013CCF8FEFDF91CF911F910F91AF
:10187000FF90EF90DF90CF90BF90AF909F908F90B0
:101880007F906F905F904F900895AF92BF92CF92EC
:10189000DF92EF92FF920F93A12CB12CC12CD12C8F
:1018A000E12CF12C00E020E030E045E550E066EC72
:1018B00071E088ED9DE0E8DE813041F4F89480939A
:1018C000CA091092CE091092CD09BADD0F91FF908E
:1018D000EF90DF90CF90BF90AF9008958091C909AD
:1018E0008F5F8093C90908950F931F93CF93DF9360
:1018F0008091C9098111B2C08091CD099091CE0922
:1019000001969093CE098093CD098091CD09909155
:10191000CE09892B99F58091E5099091E6092091EE
:10192000E3093091E4093093E6092093E5099093A7
:10193000E4098093E3098091C6098F5F8093C6090B
:10194000E091E509F091E6098081811107C08FEFF0
:101950009FEF909344018093430110C0E091E5090B
:10196000F091E6090580F681E02D0680F781E02DF3
:101970008281938190934401809343012091CD090A
:101980003091CE0980914301909144012817390785
:1019900008F469C0E091E509F091E60980818823A7
:1019A00099F0E091E509F091E6090580F681E02DD6
:1019B000C681D7818A819B812091CD093091CE0942
:1019C00028173907F8F419C08FEF9FEF909344015F
:1019D0008093430148C0E091E509F091E609058054
:1019E000F681E02DC681D7818A819B812091CD0926
:1019F0003091CE092817390728F490934401809339
:101A0000430131C08E010E5F1F4FC8010E94F001DB
:101A10008C899D89892B21F0CE010C960E94F001C2
:101A20008E899091CB09981710F48093CB0990E0A0
:101A30009C01220F331F220F331F220F331F820FEF
:101A4000931FB8018750964F0E948E01E091E509DF
:101A5000F091E60980818111BECFB6CF8091C8098F
:101A60008F5F8093C809DF91CF911F910F910895E7
:101A7000CF92DF92EF92FF920F931F93CF93DF935A
:101A80000FB6F8940F928091C90981508093C909CB
:101A90008091C909811162C08091CF09811132C042
:101AA00060C0D7011596ED91FC911697C681D7813C
:101AB000CE010C960E94F0018E010E5F1F4FC801EF
:101AC0000E94F0018E899091CB09981710F48093B1
:101AD000CB0990E09C01220F331F220F331F220FEE
:101AE000331F820F931FB8018750964F0E948E01BB
:101AF000E0911D0AF0911E0A9E898689981758F078
:101B0000DC2C09C0D12C0F2EFAEDEF2EF9E0FF2EC0
:101B1000F02DCC24C394F70180818111C2CF809134
:101B2000C809882379F08091C809882391F0DCDE08
:101B30008091C80981508093C8098091C80981119A
:101B4000F6CF07C0F1E0DF1621F08091C7098130A0
:101B500039F41092C709AEDC81E003C080E001C017
:101B600080E00F900FBEDF91CF911F910F91FF90FA
:101B7000EF90DF90CF900895CF93DF93EC01892B06
:101B800099F0ACDE8091CD099091CE09C80FD91F94
:101B900080911D0A90911E0A02960E94F001CE01CA
:101BA0003CDD66DF811101C085DCDF91CF910895B6
:101BB0000F2EF1EDEF2EF9E0FF2EF02DC9EFD9E059
:101BC0008091D009882341F189DED7011C9150DF33
:101BD000112311F10FB6F8940F92D7011596ED91DC
:101BE000FC91169706811781C80102960E94F001A8
:101BF0008091CF0981508093CF098091D009815085
:101C00008093D0090F900FBEF8018789908D0E94B4
:101C10007B01C8010E947B018881823088F24ADC06
:101C2000CFCF8091C909811113C08091CB0990E079
:101C3000FC01EE0FFF1FEE0FFF1FEE0FFF1F8E0FB9
:101C40009F1FFC01E750F64F8081882329F01BC0BD
:101C500081E08093C70908958091CB0981508093DA
:101C6000CB098091CB0990E0FC01EE0FFF1FEE0F36
:101C7000FF1FEE0FFF1F8E0F9F1FFC01E750F64F57
:101C80008081882349F38091CB0990E09C01220F49
:101C9000331F220F331F220F331F280F391FD90183
:101CA000A750B64F1196ED91FC9112970280F381E7
:101CB000E02D1296FC93EE9311972450364FE217C5
:101CC000F30729F422813381FD0132832183FC0152
:101CD000EE0FFF1FEE0FFF1FEE0FFF1F8E0F9F1F58
:101CE000FC01E750F64F0180F281E02D868197815B
:101CF00090931E0A80931D0A0895991B79E004C0F1
:101D0000991F961708F0961B881F7A95C9F780953A
:101D10000895DC0101C06D9341505040E0F70895F3
:101D2000FB01DC014150504048F001900D92002031
:101D3000C9F701C01D9241505040E0F70895F89452
:021D4000FFCFD3
:101D42005F000000005F00000000000000000000D3
:101D5200000000232323232A2A2A2A303030303954
:101D62005758593854555637505253364D4E4F35B1
:101D72004A4B4C3447484933444546324142433149
:101D8200313131FFFF456E746572204E616D650021
:101D9200456E74657220796F757200776569676840
:101DA2007420696E206C62730053656C65637420E5
:101DB20047656E64657200313A204D616C65003290
:101DC2003A2046656D616C65004372656174650019
:101DD20050617373776F726400436F6E6669726DE0
:101DE2000050617373776F72643A005F002A00508B
:101DF200617373776F72643A20004164645573654E
:0C1E0200725461736B0049444C450000B1
:00000001FF
