S00F0000416464557365722E737265636D
S113000035C1000051C100004FC100004DC10000C6
S11300104BC1000049C1000047C1000045C10000B8
S113002043C1000041C100003FC100003DC10000C8
S11300303BC10000D9C6000037C1000035C1000033
S113004033C1000031C100002FC100002DC10000E8
S11300502BC1000029C1000027C1000025C10000F8
S113006023C1000021C100001FC100001DC1000008
S11300701BC1000019C1000017C1000015C1000018
S113008013C1000011C100000FC1000000000000F6
S11300900000005F00000007000700147F147F14B5
S11300A0242A7F2A122313086462364955225000F9
S11300B005030000001C2241000041221C0014081A
S11300C03E081408083E08080050300000080808DC
S11300D00808006060000020100804023E514945F1
S11300E03E00427F400042615149462141454B3127
S11300F01814127F1027454545393C4A49493001B7
S1130100710905033649494936064949291E00360D
S1130110360000005636000008142241001414145E
S1130120141400412214080201510906324979418C
S11301303E7E1111117E7F494949363E414141229B
S11301407F4141221C7F494949417F090909013EF8
S11301504149497A7F0808087F00417F41002040D7
S1130160413F017F081422417F404040407F020C00
S1130170027F7F0408107F3E4141413E7F09090907
S1130180063E4151215E7F091929464649494931B4
S113019001017F01013F4040403F1F2040201F3F9D
S11301A04038403F6314081463070870080761511E
S11301B0494543007F4141000204081020004141A9
S11301C07F00040201020440404040400001020458
S11301D00020545454787F484444383844444420DC
S11301E0384444487F3854545418087E0901020C9A
S11301F05252523E7F0804047800447D400020405F
S1130200443D007F1028440000417F40007C0418D6
S113021004787C0804047838444444387C14141466
S113022008081414187C7C08040408485454542006
S1130230043F4440203C4040207C1C2040201C3C87
S11302404030403C44281028440C5050503C4464F6
S1130250544C44000836410000007F000000413641
S113026008001008081008000000000011241FBE38
S1130270CFEFD0E4DEBFCDBF11E0A0E0B1E0E4EE0B
S1130280F4E100E00BBF02C007900D92AA36B1075B
S1130290D9F729E0AAE6B1E001C01D92AA3AB20753
S11302A0E1F7D2D20C94700AABCECF93DF93EC017A
S11302B0EED620916A0130916B01C9018C0F9D1F0C
S11302C08C3D45E0940758F42817390758F4E901A0
S11302D0C459DE4F90936B0180936A0105C0C0E05E
S11302E0D0E002C0C0E0D0E099D7CE01DF91CF9139
S11302F008950895FC010396928381832FEF3FEFC5
S1130300348323839683858390878783108208951B
S1130310FC01118610860895CF93DF93FC01DB0165
S113032021813281E9018A819B8113969C938E936A
S113033012978181928115969C938E9314978A814A
S11303409B81EC017D836C83E9017B836A837283E7
S113035061831996FC93EE93189780818F5F808355
S1130360DF91CF910895CF93DF93EB0148815981B9
S11303704F3F2FEF520731F4DC011796ED91FC91BA
S1130380189717C0FC013396DC0115962D913C910A
S11303901697D9012D913C914217530750F00280D2
S11303A0F381E02DA281B3812D913C914217530733
S11303B0B0F7A281B381BB83AA831596DC93CE9355
S11303C01497FD83EC83D383C28399878887FC01C8
S11303D020812F5F2083DF91CF910895FC01A281BA
S11303E0B3818481958115969C938E931497A481EF
S11303F0B5818281938113969C938E931297A085E5
S1130400B18511968D919C911297E817F90731F4F3
S11304108481958112969C938E93119711861086F0
S11304208C9181508C9308958EEF88B9000086B129
S1130430809584FD46C086B1809585FD44C086B113
S1130440809586FD42C086B1809590E0880F892F03
S1130450881F990B9195892BD1F58DEF88B90000F0
S113046086B1809584FD35C086B1809585FD33C005
S113047086B1809586FD31C086B1809590E0880F65
S1130480892F881F990B9195892B49F58BEF88B992
S1130490000086B1809584FD24C086B1809585FDD9
S11304A022C086B1809586FD20C086B1809590E0FB
S11304B0880F892F881F990B9195892BC1F480E0AF
S11304C0089581E3089584E3089587E308958AE213
S11304D0089582E3089585E3089588E3089580E309
S11304E0089583E3089586E3089589E3089583E2F4
S11304F008952FC040914C0750914D0760914E07CD
S113050070914F07423351056105710549F410920A
S11305104C0710924D0710924E0710924F07089502
S113052087EA91E60197F1F700C0000080914C073B
S113053090914D07A0914E07B0914F070196A11DD0
S1130540B11D80934C0790934D07A0934E07B09331
S11305504F076ADF8093A809882361F265DF8093DF
S1130560A9099091A8098917C9F310924C07109210
S11305704D0710924E0710924F078091520798131F
S11305808AC020915007309151072330310538F447
S11305902F5F3F4F309351072093500704C01092B0
S11305A0510710925007813341F4E0915007F091C4
S11305B05107E65CFE4F80810895823341F4E09157
S11305C05007F0915107EA5CFE4F80810895833310
S11305D041F4E0915007F0915107EE5CFE4F8081A9
S11305E00895843341F4E0915007F0915107E25D9E
S11305F0FE4F80810895853341F4E0915007F091D6
S11306005107E65DFE4F80810895863341F4E09101
S11306105007F0915107EA5DFE4F808108958733BA
S113062041F4E0915007F0915107EE5DFE4F808157
S11306300895883341F4E0915007F0915107E25E48
S1130640FE4F80810895893341F4E0915007F09181
S11306505107E65EFE4F80810895803341F4E091B6
S11306605007F0915107EA5EFE4F808108958A3267
S113067041F4E0915007F0915107EE5EFE4F808106
S11306800895833271F4E0915007F0915107E25FCD
S1130690FE4F808108959093520710925107109253
S11306A05007809152070895CF93DF93EC0131D125
S11306B061E080E491E013D26AE080E022D261E05C
S11306C0CE010DD223D2DF91CF91089522D161E0E2
S11306D080E491E004D26AE080E013D261E080E03B
S11306E091E0FDD113D21092A7090895CF9301DFB1
S11306F080934907109248079091A709992321F004
S1130700913009F448C061C0833209F469C0CFE56F
S11307108A32B1F4E0914A07EE2371F0E150E0939C
S11307204A07F0E0E050FF4FC0831182109248075F
S113073080E091E0B9DF28C080E091E0B5DF24C01B
S1130740882369F0E0914A07F0E0E050FF4F80838E
S113075011828093480780E091E0A6DF15C0809164
S11307604807882389F0E0914A07EA3068F4EF5F8C
S1130770E0934A07F0E0E050FF4FC08311821092EB
S1130780480780E091E090DFB4DE8093490783322C
S113079009F0BECF2CC080914B0781112EC0E0918F
S11307A04A07F0E0E050FF4F1082B3D061E08BE4E1
S11307B091E095D16AE080E0A4D161E080E091E02D
S11307C08ED1A4D181E080934B078091A70988231F
S11307D019F0813049F411C080914907833269F4DA
S11307E081E08093A70909C01092A70906C08091EF
S11307F0A7098823A9F38130B9F7CF91089566DF5B
S113080075DF84E690E08BD5FBCFAF92BF92CF9299
S1130810DF92EF92FF920F93A12CB12CC12CD12C1B
S1130820E12CF12C082F20E030E045E550E069E5AB
S113083071E08FEF93E00FD30F91FF90EF90DF9073
S1130840CF90BF90AF9008958FE087B980EF88B9BB
S11308508FEF8AB91BB827D081E0D7DFEFD380E0D0
S113086090E008955998662311F05B9A15C05B983F
S113087013C0AC01022E02C0559547950A94E2F7C5
S113088040FF02C05C9A01C05C985D9A5D9821505B
S1130890310978F7599A089527E030E090E0E9CFDC
S11308A060E0E0CF0895CF93DF93519A529A539A20
S11308B0549A559A5A9A599A83EC99E00197F1F708
S11308C000C000005A988BE594E40197F1F700C04A
S11308D000005A9A599881E2E3DF83E1E1DF86E080
S11308E0DFDF82ECDDDF80E2DBDF89E0D9DF80E877
S11308F0D7DF80E4D5DFC8EFD1E061E080E0B2DF8C
S11309002197D9F788E0CCDF8CE0CADFDF91CF9163
S1130910089580E8C5DF80E4C3DF10924B0910928C
S11309204C09E3E5F7E08BE499E01192E817F90745
S1130930E1F70895262F26952695269590E034E52F
S1130940239F800D911D1124442379F0FC01ED5A5D
S1130950F84F677081E090E002C0880F991F6A9594
S1130960E2F79081892B80830895FC01ED5AF84FBA
S1130970677081E090E002C0880F991F6A95E2F7E2
S1130980809590818923808308955F926F927F92EE
S11309908F929F92AF92BF92CF92DF92EF92FF928B
S11309A00F931F93CF93DF93562E262F30E04901E8
S11309B0880C991C880C991C820E931E1814190417
S11309C00CF059C08901000F111F000F111F000FF7
S11309D0111F021B130B612CA82EB12CC50180978B
S11309E05C01AA0CBB1CAA0CBB1CA80EB91E0F2EC2
S11309F0FCE4CF2EF9E0DF2EF02D0F2EFBE4EF2EDA
S1130A00F9E0FF2EF02D2AC0FE01249130E0872D5D
S1130A10652D44D502C0359527958A95E2F720FFC8
S1130A2009C0F6016081670DF701808141E0860D00
S1130A3081DF08C0F6016081670DF701808140E025
S1130A40860D78DF7394872D90E080179107E4F288
S1130A506394862D90E0881599056CF410161106A0
S1130A60BCF7862D652D1AD5E501C80FD11DC457D5
S1130A70DF4F712CC9CF80914B0991E0980F852DE0
S1130A80880F880F850D890F843518F480934B09DE
S1130A900EC010924B09ECE4F9E0808191E0980FCC
S1130AA0852D880F880F880F8519890F8083809181
S1130AB04C09803320F010924B0910924C09DF91BD
S1130AC0CF911F910F91FF90EF90DF90CF90BF9047
S1130AD0AF909F908F907F906F905F9008951F9339
S1130AE0CF93DF93EC018881882339F0162F219668
S1130AF0612F4BDF89918111FBCFDF91CF911F9142
S1130B00089580934B0960934C0908950F931F93A4
S1130B10CF93DF9380E8C4DE80E4C2DEC3E5D7E090
S1130B200BE419E061E089919DDEC017D107D1F78C
S1130B30DF91CF911F910F91089531E1FC01308332
S1130B40319722E220833197A3E3A0833197608316
S1130B503197708331971082319760E860833197C1
S1130B601082319762E06083319763E0608331974C
S1130B7064E06083319765E06083319766E0608369
S1130B80319767E06083319768E06083319769E06B
S1130B906083319760E1608331973083319732E12C
S1130BA03083319733E13083319734E130833197A7
S1130BB035E13083319736E13083319737E1308343
S1130BC0319738E13083319739E13083319730E21E
S1130BD03083319731E2308331972083319723E298
S1130BE020833197408331975083319726E22083C5
S1130BF0319727E22083319728E22083319729E235
S1130C002083319720E32083319721E32083869743
S1130C100895109289008CE7809388008BE080937C
S1130C208100EFE6F0E0808182608083A091A509D5
S1130C30B091A609CD91CDBFDD91DEBFFF91EF91BB
S1130C40DF91CF91BF91AF919F918F917F916F91E0
S1130C505F914F913F912F911F910F91FF90EF90D2
S1130C60DF90CF90BF90AF909F908F907F906F90C8
S1130C705F904F903F902F901F900F900FBE0F905A
S1130C80089581E008950F920FB6F8940F921F9281
S1130C9011242F923F924F925F926F927F928F9284
S1130CA09F92AF92BF92CF92DF92EF92FF920F93F7
S1130CB01F932F933F934F935F936F937F938F93E0
S1130CC09F93AF93BF93CF93DF93EF93FF93A09141
S1130CD0A509B091A6090DB60D920EB60D9272D368
S1130CE0A091A509B091A609CD91CDBFDD91DEBF3C
S1130CF0FF91EF91DF91CF91BF91AF919F918F9130
S1130D007F916F915F914F913F912F911F910F911F
S1130D10FF90EF90DF90CF90BF90AF909F908F9017
S1130D207F906F905F904F903F902F901F900F9007
S1130D300FBE0F9008950F920FB6F8940F921F9262
S1130D4011242F923F924F925F926F927F928F92D3
S1130D509F92AF92BF92CF92DF92EF92FF920F9346
S1130D601F932F933F934F935F936F937F938F932F
S1130D709F93AF93BF93CF93DF93EF93FF93A09190
S1130D80A509B091A6090DB60D920EB60D9285D1A6
S1130D9019D3A091A509B091A609CD91CDBFDD913C
S1130DA0DEBFFF91EF91DF91CF91BF91AF919F9102
S1130DB08F917F916F915F914F913F912F911F91EF
S1130DC00F91FF90EF90DF90CF90BF90AF909F90E6
S1130DD08F907F906F905F904F903F902F901F90D7
S1130DE00F900FBE0F900895A6DF1895CF93DF9351
S1130DF0EC01E091A509F091A60993838283809187
S1130E00550990915609C817D90760F46091A5094E
S1130E107091A60980916B0990916C096E5F7F4F68
S1130E20A2DA16C06091A5097091A60980916D0996
S1130E3090916E096E5F7F4F96DA80913E0190919A
S1130E403F01C817D90720F4D0933F01C0933E0156
S1130E50DF91CF9108954F925F926F927F928F921C
S1130E609F92AF92BF92CF92DF92EF92FF920F9335
S1130E701F93CF93DF935C014B013A01290181E277
S1130E8090E013DAEC01892B09F4C6C0C114D10433
S1130E9009F0BEC0C30109DA988F8F8B009719F44B
S1130EA0CE0127DAB9C0A30165EA70E003D3930148
S1130EB0215031098F89988D3C01620E731E48E0E0
S1130EC050E0B401CE014996FCD218A2102F043090
S1130ED008F013E01E8B6E0182E0C80ED11CC6011F
S1130EE017DACE010C9614DAD987C88784E090E02B
S1130EF0811B91099D878C87DB8BCA8BA201B5016D
S1130F00C3011BDE99838883E114F10419F0F7010E
S1130F10D183C0830FB6F8940F92809157098F5FE5
S1130F20809357098091A5099091A609892B69F5A9
S1130F30D093A609C093A509809157098130A1F5E2
S1130F4081E899E0D7D98AE899E0D4D983E999E08E
S1130F50D1D98CE999E0CED988E799E0CBD98FE64D
S1130F6099E0C8D982E699E0C5D989E599E0C2D962
S1130F7088E799E090936E0980936D098FE699E074
S1130F8090936C0980936B090FC080915209811171
S1130F900BC0E091A509F091A6098689081720F0F5
S1130FA0D093A609C093A5098E89909154099817E6
S1130FB010F48093540990914D099F5F90934D09CB
S1130FC090915309981710F48093530990E09C0171
S1130FD0220F331F220F331F220F331F820F931F41
S1130FE0B6018F57964F98D90F900FBE8091520932
S1130FF0882351F0E091A509F091A609868980170C
S113100028F441DE81E009C081E007C081E005C029
S1131010D88ECF8AC60147CF8FEFDF91CF911F9132
S11310200F91FF90EF90DF90CF90BF90AF909F9083
S11310308F907F906F905F904F900895AF92BF9282
S1131040CF92DF92EF92FF920F93A12CB12CC12C7F
S1131050D12CE12CF12C00E020E030E045E550E01B
S113106065E671E08AEA99E0F6DE813041F4F894AD
S1131070809352091092560910925509CADD0F91B6
S1131080FF90EF90DF90CF90BF90AF900895809144
S113109051098F5F8093510908950F931F93CF9344
S11310A0DF93809151098111AFC0809155099091CE
S11310B056090196909356098093550980915509D4
S11310C090915609892B99F580916D0990916E093B
S11310D020916B0930916C0930936E0920936D094E
S11310E090936C0980936B0980914E098F5F809374
S11310F04E09E0916D09F0916E098081811107C05C
S11311008FEF9FEF90933F0180933E0110C0E091D9
S11311106D09F0916E090580F681E02D0680F78156
S1131120E02D8281938190933F0180933E01209131
S113113055093091560980913E0190913F0128173D
S1131140390708F466C0E0916D09F0916E09808159
S1131150882399F0E0916D09F0916E090580F6817C
S1131160E02DC681D7818A819B81209155093091D8
S1131170560928173907F8F419C08FEF9FEF909399
S11311803F0180933E0145C0E0916D09F0916E09E5
S11311900580F681E02DC681D7818A819B812091CB
S11311A05509309156092817390728F490933F01BF
S11311B080933E012EC08E010E5F1F4FC8010ED9D1
S11311C08C899D89892B19F0CE010C9607D98E89BB
S11311D090915309981710F48093530990E09C015F
S11311E0220F331F220F331F220F331F820F931F2F
S11311F0B8018F57964F90D8E0916D09F0916E0920
S113120080818111C1CFB9CF809150098F5F8093C4
S11312105009DF91CF911F910F910895CF92DF92E2
S1131220EF92FF920F931F93CF93DF930FB6F8942F
S11312300F928091510981508093510980915109F5
S113124081115FC08091570981112FC05DC0D70102
S11312501596ED91FC911697C681D781CE010C9617
S1131260BDD88E010E5F1F4FC801B8D88E899091EA
S11312705309981710F48093530990E09C01220FAE
S1131280331F220F331F220F331F820F931FB80106
S11312908F57964F41D8E091A509F091A6099E89F0
S11312A08689981758F0DC2C09C0D12C0F2EF2E651
S11312B0EF2EF9E0FF2EF02DCC24C394F7018081AA
S11312C08111C5CF80915009882379F0809150090C
S11312D0882391F0E2DE8091500981508093500977
S11312E0809150098111F6CF07C0F1E0DF1621F09B
S11312F080914F09813039F410924F09C4DC81E0A8
S113130003C080E001C080E00F900FBEDF91CF9159
S11313101F910F91FF90EF90DF90CF900895CF939E
S1131320DF93EC01892B91F0B2DE80915509909105
S11313305609C80FD91F8091A5099091A609029654
S11313404DD8CE0153DD6ADF811101C09CDCDF91F1
S1131350CF9108950F2EF9E5EF2EF9E0FF2EF02D31
S1131360C1E8D9E080915809882339F190DED7018A
S11313701C9154DF112309F10FB6F8940F92D70191
S11313801596ED91FC91169706811781C801029676
S113139025D8809157098150809357098091580925
S11313A08150809358090F900FBEF8018789908D62
S11313B00E947901C8010E9479018881823090F2EB
S11313C062DCD0CF80915109811113C080915309FF
S11313D090E0FC01EE0FFF1FEE0FFF1FEE0FFF1F4B
S11313E08E0F9F1FFC01EF57F64F8081882329F051
S11313F01BC081E080934F09089580915309815067
S1131400809353098091530990E0FC01EE0FFF1F74
S1131410EE0FFF1FEE0FFF1F8E0F9F1FFC01EF57F4
S1131420F64F8081882349F38091530990E09C0111
S1131430220F331F220F331F220F331F280F391F90
S1131440D901AF57B64F1196ED91FC9112970280D6
S1131450F381E02D1296FC93EE9311972C57364F9F
S1131460E217F30729F422813381FD0132832183BA
S1131470FC01EE0FFF1FEE0FFF1FEE0FFF1F8E0F7D
S11314809F1FFC01EF57F64F0180F281E02D86810A
S113149097819093A6098093A5090895991B79E0F3
S11314A004C0991F961708F0961B881F7A95C9F7F0
S11314B080950895DC0101C06D9341505040E0F7E0
S11314C00895FB01DC014150504048F001900D9219
S11314D00020C9F701C01D9241505040E0F7089523
S10714E0F894FFCFAA
S11314E45F0000000000000000000000000023234F
S11314F423232A2A2A2A3030303039575859385469
S1131504555637505253364D4E4F354A4B4C34474B
S11315144849334445463241424331313131FFFF76
S1131524456E746572204E616D6500596F75722045
S11315344E616D652069733A004164645573657244
S10D15445461736B0049444C4500E8
S9030000FC
