:1000000035C1000050C100004EC100004CC10000CD
:100010004AC1000048C1000046C1000044C10000C0
:1000200042C1000040C100003EC100003CC10000D0
:100030003AC1000038C1000036C1000034C10000E0
:1000400032C1000030C100002EC100002CC10000F0
:100050002AC1000028C1000026C1000024C1000000
:1000600022C1000020C100001EC100001CC1000010
:100070001AC1000018C1000016C1000014C1000020
:1000800012C1000010C100000EC1000000000000FD
:100090000000005F00000007000700147F147F14B9
:1000A000242A7F2A122313086462364955225000FD
:1000B00005030000001C2241000041221C0014081E
:1000C0003E081408083E08080050300000080808E0
:1000D0000808006060000020100804023E514945F5
:1000E0003E00427F400042615149462141454B312B
:1000F0001814127F1027454545393C4A49493001BB
:10010000710905033649494936064949291E003611
:100110003600000056360000081422410014141462
:100120001414004122140802015109063249794190
:100130003E7E1111117E7F494949363E414141229F
:100140007F4141221C7F494949417F090909013EFC
:100150004149497A7F0808087F00417F41002040DB
:10016000413F017F081422417F404040407F020C04
:10017000027F7F0408107F3E4141413E7F0909090B
:10018000063E4151215E7F091929464649494931B8
:1001900001017F01013F4040403F1F2040201F3FA1
:1001A0004038403F63140814630708700807615122
:1001B000494543007F4141000204081020004141AD
:1001C0007F0004020102044040404040000102045C
:1001D0000020545454787F484444383844444420E0
:1001E000384444487F3854545418087E0901020C9E
:1001F0005252523E7F0804047800447D4000204063
:10020000443D007F1028440000417F40007C0418DA
:1002100004787C0804047838444444387C1414146A
:1002200008081414187C7C0804040848545454200A
:10023000043F4440203C4040207C1C2040201C3C8B
:100240004030403C44281028440C5050503C4464FA
:10025000544C44000836410000007F000000413645
:1002600008001008081008000000000011241FBE3C
:10027000CFEFD0E4DEBFCDBF11E0A0E0B1E0E8EA0F
:10028000FAE000E00BBF02C007900D92AC32B1075C
:10029000D9F723E0ACE2B1E001C01D92A732B2076A
:1002A000E1F75AD0FFC3ACCE803469F0803819F042
:1002B000803269F404C081E0809326030BC082E0A1
:1002C0008093260307C083E08093260303C081E068
:1002D0008093260315B80000000000000000089578
:1002E00080B181700895FCDF8823E9F328E180E084
:1002F00090E0DC013FEF35B9000000000000000095
:100300000000880F991FAA1FBB1F15B8000000002E
:1003100000000000009B03C00196A11DB11D2150EB
:1003200051F720912603222391F020E04FEF45B9A9
:100330000000000000000000000015B800000000F0
:10034000000000002F5F30912603231780F3BC01CB
:10035000CD0128E08227089511B8CFEFC2B9C4B902
:1003600015B8CAB91BB80AD23FD261E080E091E06B
:1003700021D337D36AE080E02FD361E088E091E0B9
:1003800019D32FD315B8C5B987E18A95F1F70000C5
:1003900080E48ADFA8DF2B013C0164E180E01CD30C
:1003A00061E083E191E006D31CD31ED291E84916A7
:1003B00096E9590698E9690671046CF0C301B20127
:1003C00020E836E948E950E02FD3D22E462E572EAA
:1003D000682E792E01C0D12C81E4481682E458069B
:1003E0008FE0680671046CF0C301B20120E432E4CE
:1003F0004FE050E019D3E22E462E572E682E792E6C
:1004000001C0E12C91EA491696E8590691E0690687
:1004100071046CF0C301B20120EA36E841E050E01B
:1004200003D3F22E462E572E682E792E01C0F12CC2
:1004300081E1481687E25806610471046CF0C3013B
:10044000B20120E137E240E050E0EED2022F462E2A
:10045000572E682E792E01C000E099EE491693E0E0
:100460005906610471046CF0C301B20128EE33E057
:1004700040E050E0D9D2122F462E572E682E792E0A
:1004800001C010E085E648165104610471046CF067
:10049000C301B20124E630E040E050E0C5D2D22FE3
:1004A000462E572E682E792E01C0D0E09BE04916CB
:1004B0005104610471046CF0C301B2012AE030E020
:1004C00040E050E0B1D2C22F462E572E682E792E32
:1004D00001C0C0E061E080E38D0DC2D160E086E044
:1004E0007BD261E080E38E0DBBD160E08EE074D200
:1004F00061E080E38F0DB4D160E084E16DD261E012
:1005000080E3800FADD160E08AE166D261E080E3F4
:10051000810FA6D160E082E25FD261E080E38D0FBF
:100520009FD160E088E258D261E080E38C0F98D1DF
:1005300060E08EE251D261E080E392D16EE180E032
:100540004BD261E08BE191E035D24BD28FE493EC5A
:100550000197F1F700C0000088248A9415B885B887
:1005600097E19A95F1F7000015B8BDDE6B017C01AB
:10057000461657066806790609F4D4C081E8C816FD
:1005800086E9D80688E9E806F1046CF0C701B601EF
:1005900020E836E948E950E047D2922EC62ED72E01
:1005A000E82EF92E01C0912C91E4C91692E4D906E7
:1005B0009FE0E906F1046CF0C701B60120E432E4E3
:1005C0004FE050E031D2A22EC62ED72EE82EF92EC3
:1005D00001C0A12C81EAC81686E8D80681E0E806A9
:1005E000F1046CF0C701B60120EA36E841E050E0C2
:1005F0001BD2B22EC62ED72EE82EF92E01C0B12C5A
:1006000091E1C91697E2D906E104F1046CF0C70143
:10061000B60120E137E240E050E006D2022FC62EBC
:10062000D72EE82EF92E01C000E089EEC81683E02F
:10063000D806E104F1046CF0C701B60128EE33E0FE
:1006400040E050E0F1D1122FC62ED72EE82EF92E21
:1006500001C010E095E6C916D104E104F1046CF084
:10066000C701B60124E630E040E050E0DDD1D22FF2
:10067000C62ED72EE82EF92E01C0D0E08BE0C8168A
:10068000D104E104F1046CF0C701B6012AE030E0C6
:1006900040E050E0C9D1C22FC62ED72EE82EF92E49
:1006A00001C0C0E0A1D061E080E3890DD9D060E055
:1006B00086E092D161E080E38A0DD2D060E08EE0E6
:1006C0008BD161E080E38B0DCBD060E084E184D1FD
:1006D00061E080E3800FC4D060E08AE17DD161E019
:1006E00080E3810FBDD060E082E276D161E080E3FB
:1006F0008D0FB6D060E088E26FD161E080E38C0FAF
:10070000AFD060E08EE268D161E080E3A9D06EE115
:1007100080E062D161E083E291E04CD162D12601B8
:10072000370102C02B013C016EE180E055D161E050
:100730008BE191E03FD155D111CF5998662311F04B
:100740005B9A15C05B9813C0AC01022E02C0559590
:1007500047950A94E2F740FF02C05C9A01C05C989A
:100760005D9A5D982150310978F7599A089527E0EC
:1007700030E090E0E9CF60E0E0CF0895CF93DF93E1
:10078000519A529A539A549A559A5A9A599A83EC72
:1007900099E00197F1F700C000005A988BE594E4C6
:1007A0000197F1F700C000005A9A599881E2E3DFFF
:1007B00083E1E1DF86E0DFDF82ECDDDF80E2DBDFAB
:1007C00089E0D9DF80E8D7DF80E4D5DFC8EFD1E06A
:1007D00061E080E0B2DF2197D9F788E0CCDF8CE0E0
:1007E000CADFDF91CF91089580E8C5DF80E4C3DFE1
:1007F0001092240310922503ECE2F1E084E293E0EE
:100800001192E817F907E1F70895262F2695269506
:10081000269590E034E5239F800D911D11244423FB
:1008200079F0FC01E45DFE4F677081E090E002C06A
:10083000880F991F6A95E2F79081892B808308952C
:10084000FC01E45DFE4F677081E090E002C0880F1C
:10085000991F6A95E2F78095908189238083089596
:100860005F926F927F928F929F92AF92BF92CF9240
:10087000DF92EF92FF920F931F93CF93DF93562E49
:10088000262F30E04901880C991C880C991C820E97
:10089000931E181419040CF059C08901000F111F80
:1008A000000F111F000F111F021B130B612CA82E2C
:1008B000B12CC50180975C01AA0CBB1CAA0CBB1C07
:1008C000A80EB91E0F2EF5E2CF2EF3E0DF2EF02D8D
:1008D0000F2EF4E2EF2EF3E0FF2EF02D2AC0FE01E2
:1008E000249130E0872D652D93D002C03595279552
:1008F0008A95E2F720FF09C0F6016081670DF701D4
:10090000808141E0860D81DF08C0F6016081670DBE
:10091000F701808140E0860D78DF7394872D90E0A9
:1009200080179107E4F26394862D90E0881599056D
:100930006CF410161106BCF7862D652D69D0E50103
:10094000C80FD11DC457DF4F712CC9CF809124032C
:1009500091E0980F852D880F880F850D890F8435BC
:1009600018F4809324030EC010922403E5E2F3E010
:10097000808191E0980F852D880F880F880F851949
:10098000890F808380912503803320F01092240307
:1009900010922503DF91CF911F910F91FF90EF905F
:1009A000DF90CF90BF90AF909F908F907F906F908F
:1009B0005F9008951F93CF93DF93EC018881882384
:1009C00039F0162F2196612F4BDF89918111FBCFD2
:1009D000DF91CF911F9108958093240360932503A5
:1009E00008950F931F93CF93DF9380E8C4DE80E4D4
:1009F000C2DECCE2D1E004E213E061E089919DDE49
:100A0000C017D107D1F7DF91CF911F910F910895B2
:100A1000991B79E004C0991F961708F0961B881F50
:100A20007A95C9F780950895052E97FB16F40094E2
:100A30000FD057FD05D014D007FC02D046F408C0F3
:100A400050954095309521953F4F4F4F5F4F0895FA
:100A500090958095709561957F4F8F4F9F4F08952A
:100A6000A1E21A2EAA1BBB1BFD010DC0AA1FBB1FB2
:100A7000EE1FFF1FA217B307E407F50720F0A21B24
:100A8000B30BE40BF50B661F771F881F991F1A9491
:100A900069F760957095809590959B01AC01BD01BB
:080AA000CF010895F894FFCF87
:100AA80057656C636F6D650052656164696E672E8A
:100AB8002E2E00446F6E652E2E2E004F6C6420562D
:0C0AC800616C004E65772056616C0000E8
:00000001FF
