S012000052656D6F7665557365722E7372656305
S113000035C1000051C100004FC100004DC10000C6
S11300104BC1000049C1000047C1000045C10000B8
S113002043C1000041C100003FC100003DC10000C8
S11300303BC100000C94FE0837C1000035C100002C
S113004033C1000031C100002FC100002DC10000E8
S11300502BC1000029C1000027C1000025C10000F8
S113006023C1000021C100001FC100001DC1000008
S11300701BC1000019C1000017C1000015C1000018
S113008013C1000011C100000FC1000000000000F6
S11300900000005F00000007000700147F147F14B5
S11300A0242A7F2A122313086462364955225000F9
S11300B005030000001C2241000041221C0014081A
S11300C03E081408083E08080050300000080808DC
S11300D00808006060000020100804023E514945F1
S11300E03E00427F400042615149462141454B3127
S11300F01814127F1027454545393C4A49493001B7
S1130100710905033649494936064949291E00360D
S1130110360000005636000008142241001414145E
S1130120141400412214080201510906324979418C
S11301303E7E1111117E7F494949363E414141229B
S11301407F4141221C7F494949417F090909013EF8
S11301504149497A7F0808087F00417F41002040D7
S1130160413F017F081422417F404040407F020C00
S1130170027F7F0408107F3E4141413E7F09090907
S1130180063E4151215E7F091929464649494931B4
S113019001017F01013F4040403F1F2040201F3F9D
S11301A04038403F6314081463070870080761511E
S11301B0494543007F4141000204081020004141A9
S11301C07F00040201020440404040400001020458
S11301D00020545454787F484444383844444420DC
S11301E0384444487F3854545418087E0901020C9A
S11301F05252523E7F0804047800447D400020405F
S1130200443D007F1028440000417F40007C0418D6
S113021004787C0804047838444444387C14141466
S113022008081414187C7C08040408485454542006
S1130230043F4440203C4040207C1C2040201C3C87
S11302404030403C44281028440C5050503C4464F6
S1130250544C44000836410000007F000000413641
S113026008001008081008000000000011241FBE38
S1130270CFEFD0E4DEBFCDBF11E0A0E0B1E0ECE110
S1130280F9E100E00BBF02C007900D92AE3DB1074B
S1130290D9F72AE0AEEDB1E001C01D92AF31B2074B
S11302A0E1F7DCD40C948C0CABCECF93DF93EC0150
S11302B00E945B0A2091DE013091DF01C9018C0F9D
S11302C09D1F8C3D45E0940758F42817390758F4CE
S11302D0E901C052DE4F9093DF018093DE0105C037
S11302E0C0E0D0E002C0C0E0D0E00E94250BCE0107
S11302F0DF91CF9108950895FC0103969283818341
S11303002FEF3FEF348323839683858390878783FE
S113031010820895FC01118610860895CF93DF930F
S1130320FC01DB0121813281E9018A819B811396E1
S11303309C938E9312978181928115969C938E93B0
S113034014978A819B81EC017D836C83E9017B8313
S11303506A83728361831996FC93EE931897808164
S11303608F5F8083DF91CF910895CF93DF93EB016B
S1130370488159814F3F2FEF520731F4DC01179622
S1130380ED91FC91189717C0FC013396DC0115968A
S11303902D913C911697D9012D913C914217530709
S11303A050F00280F381E02DA281B3812D913C9124
S11303B042175307B0F7A281B381BB83AA83159672
S11303C0DC93CE931497FD83EC83D383C283998704
S11303D08887FC0120812F5F2083DF91CF910895CE
S11303E0FC01A281B3818481958115969C938E939F
S11303F01497A481B5818281938113969C938E93E3
S11304001297A085B18511968D919C911297E8174A
S1130410F90731F48481958112969C938E931197F8
S1130420118610868C9181508C9308958EEF88B933
S1130430000086B1809584FD46C086B1809585FD17
S113044044C086B1809586FD42C086B1809590E017
S1130450880F892F881F990B9195892BD1F58DEFE2
S113046088B9000086B1809584FD35C086B1809539
S113047085FD33C086B1809586FD31C086B18095F7
S113048090E0880F892F881F990B9195892B49F546
S11304908BEF88B9000086B1809584FD24C086B1B5
S11304A0809585FD22C086B1809586FD20C086B1E9
S11304B0809590E0880F892F881F990B9195892B3F
S11304C0C1F480E0089581E3089584E3089587E307
S11304D008958AE2089582E3089585E3089588E300
S11304E0089580E3089583E3089586E3089589E3F6
S11304F0089583E20895AF92BF92CF92DF92EF9274
S1130500FF920F931F93CF93DF93CDB7DEB7679717
S11305100FB6F894DEBF0FBECDBF062F20E230E049
S11305203A832983FE0133969CE0DF011D929A955C
S1130530E9F7388B2F873E9697E0DF011D929A9555
S1130540E9F71AE1189F50011124F501EE5FFE4FFF
S11305506F014EE050E0BF01CE0101960E947D0C78
S1130560109F80011124C8018E5F9E4F7C014EE0D4
S113057050E0BC01C6010E947D0C4EE050E0BE017B
S11305806F5F7F4FC7010E947D0CD501AD5EBE4FEA
S11305905D0149E050E0BD01CE010F960E947D0C43
S11305A00D5E1E4F49E050E0B801C5010E947D0C6C
S11305B049E050E0BE01615F7F4FC8010E947D0C9D
S11305C0F60186859785D7011E962D913C911F973C
S11305D0378726871F969C938E931E978089509603
S11305E09C915097908B50968C9367960FB6F89485
S11305F0DEBF0FBECDBFDF91CF911F910F91FF9052
S1130600EF90DF90CF90BF90AF900895E0910001FC
S11306108AE1E89FD0011124AE5FBE4F51969C91B0
S11306208091BD07981313C08AE1E89FF00111245B
S1130630EC5EFE4FAEEBB7E025EC37E091918D9187
S1130640981307C0A217B307C9F781E0089580E0A3
S1130650089580E0089567D380910101813089F481
S113066061E08CE691E045D46AE080E054D461E036
S113067088E791E03ED461E082E091E03AD450C44E
S113068008958230E1F461E08CE691E032D46AE0CE
S113069080E041D461E088E791E02BD461E082E01E
S11306A091E027D464E180E036D461E08CE791E006
S11306B020D461E08CE191E01CD432C408958330ED
S11306C039F561E08CE691E014D46AE080E023D44B
S11306D061E088E791E00DD461E082E091E009D423
S11306E064E180E018D461E08CE791E002D461E039
S11306F08CE191E0FED36EE180E00DD461E080E80E
S113070091E0F7D361E086E391E0F3D309C408955F
S1130710843009F032C061E08CE691E0EAD36AE00B
S113072080E0F9D361E088E791E0E3D361E082E01F
S113073091E0DFD364E180E0EED361E08CE791E007
S1130740D8D361E08CE191E0D4D36EE180E0E3D3CF
S113075061E080E891E0CDD361E086E391E0C9D324
S113076068E280E0D8D361E084E891E0C2D361E03C
S113077080E591E0BED3D4C3089561E088E891E0B8
S1130780B8D3CEC3089581E08093C90710921E0A9E
S11307900895FF920F931F93CF93DF9380911E0AC6
S11307A0823051F1833009F4E7C0813009F0F7C099
S11307B006C08FE493EC0197F1F700C0000036DE29
S11307C08093C8078823A9F306C0EFE4F3EC3197BC
S11307D0F1F700C000002ADE8093C7079091C80794
S11307E0891799F391539093C807D9C08FE493EC78
S11307F00197F1F700C0000019DE8093C807882331
S1130800A9F306C0EFE4F3EC3197F1F700C0000060
S11308100DDE8093C7079091C807891799F3C5EC3B
S1130820D7E00DEB17E00F2EFAE2FF2EF02D75C086
S1130830882309F45FC08A32A1F12091BC072830D3
S113084008F058C030E0F901E354F84F80832F5F7B
S11308503F4F2830310524F4F901E354F84FF08276
S113086062D261E082E991E044D36AE080E053D34C
S113087061E088E991E03DD38091C60761E0805D45
S11308808ED264E180E047D361E0C80132D348D31B
S11308908091BC078F5F8093BC078091C8078A3220
S11308A049F51092BC07EDEBF7E01192EC17FD0748
S11308B0E1F7F801F08237D261E082E991E019D3DF
S11308C06AE080E028D361E088E991E012D3809166
S11308D0C60761E0805D63D264E180E01CD361E01F
S11308E0C80107D31DD306C08FE493EC0197F1F739
S11308F000C000009BDD8093C8078823A9F306C0CD
S1130900EFE4F3EC3197F1F700C000008FDD809342
S1130910C7079091C807891799F38091C807833254
S113092009F086CF73DE811112C08091C6078F5FF4
S11309308093C60780911E0A813009F453C0D8F110
S1130940823009F482C0833009F403C150C110928B
S1130950C60780911E0A813009F444C060F18230D8
S113096009F477C0833009F4EFC041C18FE493ECFC
S11309700197F1F700C0000059DD8093C807882370
S1130980A9F306C0EFE4F3EC3197F1F700C00000DF
S11309904DDD8093C7079091C807891799F380911B
S11309A01E0A8130F9F038F0823009F44EC08330E9
S11309B009F4CAC01CC18091C907882309F423C162
S11309C0B2D1809101018150843028F444DE81E069
S11309D080931E0A18C161E088E891E08AD21092DF
S11309E01E0A11C18091C80790910101891708F06E
S11309F00AC18093000197D161E082E991E079D244
S1130A006AE080E088D261E088E991E072D2809166
S1130A10C60761E0805DC3D164E180E07CD261E01F
S1130A2083EA91E066D27CD21092C607EDEBF7E040
S1130A3085EC97E011928E179F07E1F78AE2809385
S1130A40BD0782E080931E0ADEC08091C607811133
S1130A5031C08091C907882309F473C064D161E06F
S1130A6085EA91E046D26AE080E055D280910001A7
S1130A70FAE18F9FC001112461E08E5F9E4F39D24D
S1130A8064E180E048D261E08CEA91E032D26EE128
S1130A9080E041D261E089EB91E02BD268E280E012
S1130AA03AD261E080EC91E024D23AD283E08093A0
S1130AB01E0AA9C08330B9F48091C907882309F4B8
S1130AC040C0C9DD1092C6071092BC07EDEBF7E0F9
S1130AD085EC97E01192E817F907E1F71092BD074A
S1130AE010921E0A90C08091C907882351F11BD12E
S1130AF061E082E991E0FDD16AE080E00CD261E03E
S1130B0088E991E0F6D18091C60761E0805D47D124
S1130B1064E180E000D261E083EA91E0EAD100D2AE
S1130B201092BC07EDEBF7E085EC97E01192E81723
S1130B30F907E1F78AE28093BD0782E080931E0AF9
S1130B4062C010921E0A5FC08091C807833209F008
S1130B503AC08091000181110EC061E0CCDC62E0FA
S1130B6081E0C9DC63E082E0C6DC80910101815050
S1130B708093010116C0813059F462E0BCDC63E06B
S1130B8082E0B9DC8091010181508093010109C0A8
S1130B90823081F1833029F4809101018150809366
S1130BA0010159DD1092C6071092BC07EDEBF7E086
S1130BB085EC97E01192E817F907E1F71092BD0769
S1130BC010921E0A20C08A32F1F445DD1092C60745
S1130BD01092BC07EDEBF7E085EC97E01192E81773
S1130BE0F907E1F71092BD0710921E0A0CC010928B
S1130BF01E0A09C063E082E07EDC8091010181501D
S1130C0080930101CECFDF91CF911F910F91FF907F
S1130C100895B9DDBEDD84E690E09BD5FBCFAF92AD
S1130C20BF92CF92DF92EF92FF920F93A12CB12C3F
S1130C30C12CD12CE12CF12C082F20E030E045E52B
S1130C4050E068EC71E089E096E00FD30F91FF90DB
S1130C50EF90DF90CF90BF90AF9008958FE087B969
S1130C6080EF88B98FEF8AB91BB827D081E0D7DF2E
S1130C70F9D380E090E008955998662311F05B9AC7
S1130C8015C05B9813C0AC01022E02C05595479560
S1130C900A94E2F740FF02C05C9A01C05C985D9A36
S1130CA05D982150310978F7599A089527E030E08A
S1130CB090E0E9CF60E0E0CF0895CF93DF93519ABD
S1130CC0529A539A549A559A5A9A599A83EC99E09B
S1130CD00197F1F700C000005A988BE594E401975E
S1130CE0F1F700C000005A9A599881E2E3DF83E1EA
S1130CF0E1DF86E0DFDF82ECDDDF80E2DBDF89E05D
S1130D00D9DF80E8D7DF80E4D5DFC8EFD1E061E048
S1130D1080E0B2DF2197D9F788E0CCDF8CE0CADF2E
S1130D20DF91CF91089580E8C5DF80E4C3DF10929E
S1130D30C2091092C309EAECF7E082EC99E011923F
S1130D40E817F907E1F70895262F269526952695A5
S1130D5090E034E5239F800D911D1124442379F004
S1130D60FC01E653F84F677081E090E002C0880F01
S1130D70991F6A95E2F79081892B80830895FC017D
S1130D80E653F84F677081E090E002C0880F991F26
S1130D906A95E2F7809590818923808308955F9214
S1130DA06F927F928F929F92AF92BF92CF92DF9277
S1130DB0EF92FF920F931F93CF93DF93562E262F1C
S1130DC030E04901880C991C880C991C820E931EF2
S1130DD0181419040CF059C08901000F111F000FD9
S1130DE0111F000F111F021B130B612CA82EB12C15
S1130DF0C50180975C01AA0CBB1CAA0CBB1CA80EE5
S1130E00B91E0F2EF3ECCF2EF9E0DF2EF02D0F2EAE
S1130E10F2ECEF2EF9E0FF2EF02D2AC0FE01249112
S1130E2030E0872D652D56D502C0359527958A95D6
S1130E30E2F720FF09C0F6016081670DF7018081A8
S1130E4041E0860D81DF08C0F6016081670DF7017E
S1130E50808140E0860D78DF7394872D90E08017C1
S1130E609107E4F26394862D90E0881599056CF45B
S1130E7010161106BCF7862D652D2CD5E501C80F7B
S1130E80D11DC457DF4F712CC9CF8091C20991E0A5
S1130E90980F852D880F880F850D890F843518F4D8
S1130EA08093C2090EC01092C209E3ECF9E080817C
S1130EB091E0980F852D880F880F880F8519890F69
S1130EC080838091C309803320F01092C20910926C
S1130ED0C309DF91CF911F910F91FF90EF90DF90A5
S1130EE0CF90BF90AF909F908F907F906F905F90C6
S1130EF008951F93CF93DF93EC018881882339F001
S1130F00162F2196612F4BDF89918111FBCFDF9141
S1130F10CF911F9108958093C2096093C3090895E6
S1130F200F931F93CF93DF9380E8C4DE80E4C2DE87
S1130F30CAECD7E002EC19E061E089919DDEC017AC
S1130F40D107D1F7DF91CF911F910F91089531E12E
S1130F50FC013083319722E220833197A3E3A083FD
S1130F60319760833197708331971082319760E8AD
S1130F70608331971082319762E06083319763E038
S1130F806083319764E06083319765E060833197D3
S1130F9066E06083319767E06083319768E060833F
S1130FA0319769E06083319760E1608331973083E2
S1130FB0319732E13083319733E13083319734E133
S1130FC03083319735E13083319736E1308331977F
S1130FD037E13083319738E13083319739E1308319
S1130FE0319730E23083319731E230833197208377
S1130FF0319723E22083319740833197508331978F
S113100026E22083319727E22083319728E2208348
S1131010319729E22083319720E32083319721E31C
S1131020208386970895109289008CE78093880026
S11310308BE080938100EFE6F0E080818260808322
S1131040A0911C0AB0911D0ACD91CDBFDD91DEBFE8
S1131050FF91EF91DF91CF91BF91AF919F918F91CC
S11310607F916F915F914F913F912F911F910F91BC
S1131070FF90EF90DF90CF90BF90AF909F908F90B4
S11310807F906F905F904F903F902F901F900F90A4
S11310900FBE0F90089581E008950F920FB6F89453
S11310A00F921F9211242F923F924F925F926F9250
S11310B07F928F929F92AF92BF92CF92DF92EF92E4
S11310C0FF920F931F932F933F934F935F936F93CD
S11310D07F938F939F93AF93BF93CF93DF93EF93BC
S11310E0FF93A0911C0AB0911D0A0DB60D920EB685
S11310F00D9284D3A0911C0AB0911D0ACD91CDBF4D
S1131100DD91DEBFFF91EF91DF91CF91BF91AF9160
S11311109F918F917F916F915F914F913F912F910B
S11311201F910F91FF90EF90DF90CF90BF90AF9001
S11311309F908F907F906F905F904F903F902F90F3
S11311401F900F900FBE0F9008950F920FB6F89452
S11311500F921F9211242F923F924F925F926F929F
S11311607F928F929F92AF92BF92CF92DF92EF9233
S1131170FF920F931F932F933F934F935F936F931C
S11311807F938F939F93AF93BF93CF93DF93EF930B
S1131190FF93A0911C0AB0911D0A0DB60D920EB6D4
S11311A00D928FD12BD3A0911C0AB0911D0ACD9121
S11311B0CDBFDD91DEBFFF91EF91DF91CF91BF9164
S11311C0AF919F918F917F916F915F914F913F91DB
S11311D02F911F910F91FF90EF90DF90CF90BF90D0
S11311E0AF909F908F907F906F905F904F903F90C3
S11311F02F901F900F900FBE0F900895A6DF1895A3
S1131200CF93DF93EC01E0911C0AF0911D0A9383C4
S113121082838091CC099091CD09C817D90760F4D5
S113122060911C0A70911D0A8091E2099091E30972
S11312306E5F7F4F9AD816C060911C0A70911D0A88
S11312408091E4099091E5096E5F7F4F8ED880917B
S11312506A0190916B01C817D90720F4D0936B01F0
S1131260C0936A01DF91CF9108954F925F926F927C
S11312707F928F929F92AF92BF92CF92DF92EF9222
S1131280FF920F931F93CF93DF935C014B013A01BD
S1131290290181E290E009D8EC01892B09F4D0C03E
S11312A0C114D10409F0C8C0C3010E945501988F2C
S11312B08F8B009719F4CE011ED8C2C0A30165EA32
S11312C070E014D39301215031098F89988D3C012A
S11312D0620E731E48E050E0B401CE0149960DD36E
S11312E018A2102F043008F013E01E8B6E0182E068
S11312F0C80ED11CC6010ED8CE010C960BD8D987C6
S1131300C88784E090E0811B91099D878C87DB8BE3
S1131310CA8BA201B501C3011ADE99838883E11443
S1131320F10419F0F701D183C0830FB6F8940F923A
S11313308091CE098F5F8093CE0980911C0A909191
S11313401D0A892BA9F5D0931D0AC0931C0A80910C
S1131350CE098130E1F588EF99E00E947C0181E0BB
S11313609AE00E947C018AE09AE00E947C0183E179
S11313709AE00E947C018FEE99E00E947C0186EE47
S113138099E00E947C0189ED99E00E947C0180ED46
S113139099E00E947C018FEE99E09093E509809397
S11313A0E40986EE99E09093E3098093E2090FC083
S11313B08091C90981110BC0E0911C0AF0911D0AAA
S11313C08689081720F0D0931D0AC0931C0A8E89C1
S11313D09091CB09981710F48093CB099091C4098C
S11313E09F5F9093C4099091CA09981710F4809351
S11313F0CA0990E09C01220F331F220F331F220FD2
S1131400331F820F931FB6018850964F0E948E019E
S11314100F900FBE8091C909882351F0E0911C0AF6
S1131420F0911D0A8689801728F437DE81E009C00F
S113143081E007C081E005C0D88ECF8AC6013ECFC7
S11314408FEFDF91CF911F910F91FF90EF90DF907D
S1131450CF90BF90AF909F908F907F906F905F9050
S11314604F900895AF92BF92CF92DF92EF92FF9286
S11314700F93A12CB12CC12CD12CE12CF12C00E028
S113148020E030E045E550E068ED71E085EC9BE05C
S1131490ECDE813041F4F8948093C9091092CD09AF
S11314A01092CC09C0DD0F91FF90EF90DF90CF90A8
S11314B0BF90AF9008958091C8098F5F8093C80949
S11314C008950F931F93CF93DF938091C8098111DF
S11314D0B2C08091CC099091CD0901969093CD0929
S11314E08093CC098091CC099091CD09892B99F5F1
S11314F08091E4099091E5092091E2093091E30992
S11315003093E5092093E4099093E3098093E20979
S11315108091C5098F5F8093C509E091E409F0913A
S1131520E5098081811107C08FEF9FEF90936B01D4
S113153080936A0110C0E091E409F091E509058007
S1131540F681E02D0680F781E02D828193819093CE
S11315506B0180936A012091CC093091CD0980916F
S11315606A0190916B012817390708F469C0E0916A
S1131570E409F091E5098081882399F0E091E40978
S1131580F091E5090580F681E02DC681D7818A8135
S11315909B812091CC093091CD0928173907F8F4A3
S11315A019C08FEF9FEF90936B0180936A0148C03D
S11315B0E091E409F091E5090580F681E02DC6810A
S11315C0D7818A819B812091CC093091CD0928173C
S11315D0390728F490936B0180936A0131C08E011E
S11315E00E5F1F4FC8010E94F0018C899D89892BD1
S11315F021F0CE010C960E94F0018E899091CA09C7
S1131600981710F48093CA0990E09C01220F331FAD
S1131610220F331F220F331F820F931FB8018850EC
S1131620964F0E948E01E091E409F091E5098081D2
S11316308111BECFB6CF8091C7098F5F8093C70950
S1131640DF91CF911F910F910895CF92DF92EF9286
S1131650FF920F931F93CF93DF930FB6F8940F92DB
S11316608091C80981508093C8098091C80981116B
S113167062C08091CE09811132C060C0D701159635
S1131680ED91FC911697C681D781CE010C960E94EC
S1131690F0018E010E5F1F4FC8010E94F0018E8978
S11316A09091CA09981710F48093CA0990E09C019C
S11316B0220F331F220F331F220F331F820F931F5A
S11316C0B8018850964F0E948E01E0911C0AF09157
S11316D01D0A9E898689981758F0DC2C09C0D12CE4
S11316E00F2EF9EDEF2EF9E0FF2EF02DCC24C3944C
S11316F0F70180818111C2CF8091C709882379F0D5
S11317008091C709882391F0DCDE8091C70981505C
S11317108093C7098091C7098111F6CF07C0F1E012
S1131720DF1621F08091C609813039F41092C60980
S1131730B4DC81E003C080E001C080E00F900FBE04
S1131740DF91CF911F910F91FF90EF90DF90CF9099
S11317500895CF93DF93EC01892B99F0ACDE80914F
S1131760CC099091CD09C80FD91F80911C0A909182
S11317701D0A02960E94F001CE0142DD66DF81114E
S113178001C08BDCDF91CF9108950F2EF0EDEF2E89
S1131790F9E0FF2EF02DC8EFD9E08091CF0988231E
S11317A041F189DED7011C9150DF112311F10FB6ED
S11317B0F8940F92D7011596ED91FC911697068136
S11317C01781C80102960E94F0018091CE098150D0
S11317D08093CE098091CF0981508093CF090F90D7
S11317E00FBEF8018789908D0E947B01C8010E9479
S11317F07B018881823088F250DCCFCF8091C80988
S1131800811113C08091CA0990E0FC01EE0FFF1F03
S1131810EE0FFF1FEE0FFF1F8E0F9F1FFC01E850FE
S1131820F64F8081882329F01BC081E08093C6098C
S113183008958091CA0981508093CA098091CA0988
S113184090E0FC01EE0FFF1FEE0FFF1FEE0FFF1FD6
S11318508E0F9F1FFC01E850F64F8081882349F3C7
S11318608091CA0990E09C01220F331F220F331F7D
S1131870220F331F280F391FD901A850B64F1196D4
S1131880ED91FC9112970280F381E02D1296FC9366
S1131890EE9311972550364FE217F30729F422816E
S11318A03381FD0132832183FC01EE0FFF1FEE0F14
S11318B0FF1FEE0FFF1F8E0F9F1FFC01E850F64F16
S11318C00180F281E02D8681978190931D0A809397
S11318D01C0A0895991B79E004C0991F961708F013
S11318E0961B881F7A95C9F780950895DC0101C07D
S11318F06D9341505040E0F70895FB01DC014150E5
S1131900504048F001900D920020C9F701C01D928B
S10F191041505040E0F70895F894FFCFD8
S113191C05044A4F484E000000000000000000007F
S113192C9100013132333435363738004D41524948
S113193C4100000000000000000078000238373637
S113194C353433323100524F474552000000000009
S113195C00000000E60001343332313837363500EC
S113196C4153484C455900000000000000008C0015
S113197C02353637383132333400FFFF53656C652A
S113198C6374205573657200313A2000323A20009A
S113199C333A2000343A20004E6F2055736572732D
S11319AC2100456E7465720050617373776F7264B5
S11319BC3A20002A0052656D6F76650066726F6D71
S11319CC2073797374656D3F002A203D206E6F007F
S11319DC23203D207965730052656D6F76655573D0
S11119EC6572735461736B0049444C450000EE
S9030000FC
