S01000004D61696E4D656E752E73726563FA
S11300009AC10000B7C10000B5C10000B3C100002F
S1130010B1C10000AFC10000ADC10000ABC1000020
S1130020A9C10000A7C10000A5C10000A3C1000030
S1130030A1C100000C9454229DC100009BC100008A
S113004099C1000097C1000095C1000093C1000050
S113005091C100008FC100008DC100008BC1000060
S113006089C1000087C1000085C1000083C1000070
S113007081C100007FC100007DC100007BC1000080
S113008079C1000077C1000075C10000B305C10546
S1130090CF05DD05EB05F905070615062306310630
S11300A03F064D06670682069406A606DF06040789
S11300B0160728075107590761077307ED07010859
S11300C053084D09D509EE098F0A500B850BF30B24
S11300D0F80B470C930CB30CEE0C350DE90D850BA6
S11300E0EE0BF80B470C930CB30CEE0C350DE90D2D
S11300F0850BF30BFC0B470C930CB30CEE0C350D7A
S1130100E90D2B15591565158415A215C41513167B
S11301103F16A5172B155E1565158415A215C41574
S113012013163F16A517641BA21BB61BAC1BC01BE2
S1130130EF1B131C761C921CAE1C9F1DC41CE51CDB
S11301406E1D8A1DAC1DF81D021E0C1E161E341ECB
S1130150411E6A1E771E000000000000005F0000C0
S11301600007000700147F147F14242A7F2A122317
S11301701308646236495522500005030000001C30
S11301802241000041221C0014083E081408083EC5
S113019008080050300000080808080800606000E3
S11301A00020100804023E5149453E00427F4000B1
S11301B042615149462141454B311814127F1027A1
S11301C0454545393C4A49493001710905033649D9
S11301D0494936064949291E00363600000056367C
S11301E000000814224100141414141400412214B1
S11301F0080201510906324979413E7E1111117EEE
S11302007F494949363E414141227F4141221C7F79
S1130210494949417F090909013E4149497A7F0811
S113022008087F00417F41002040413F017F0814BE
S113023022417F404040407F020C027F7F0408102F
S11302407F3E4141413E7F090909063E4151215EFD
S11302507F09192946464949493101017F01013F76
S11302604040403F1F2040201F3F4038403F631420
S113027008146307087008076151494543007F412A
S1130280410002040810200041417F0004020102E1
S1130290044040404040000102040020545454787B
S11302A07F484444383844444420384444487F38E0
S11302B054545418087E0901020C5252523E7F08CD
S11302C004047800447D40002040443D007F102811
S11302D0440000417F40007C041804787C08040436
S11302E07838444444387C14141408081414187CD2
S11302F07C080404084854545420043F4440203CDF
S11303004040207C1C2040201C3C4030403C442881
S11303101028440C5050503C4464544C440008365B
S1130320410000007F00000041360800100808105A
S113033008000000000011241FBECFEFD0E4DEBF90
S1130340CDBF17E0A0E0B1E0E6E0FFE400E00BBFC2
S113035002C007900D92AE31B107D9F72FE0AEE19C
S1130360B7E001C01D92A43BB207E1F70E946B1FE6
S11303700C94812745CECF93DF93EC010E94B723E1
S113038020911E0730911F07C9018C0F9D1F8C3DC2
S113039045E0940758F42817390758F4E901C05E7A
S11303A0D84F90931F0780931E0705C0C0E0D0E08C
S11303B002C0C0E0D0E00E948124CE01DF91CF9141
S11303C008950895FC010396928381832FEF3FEFF4
S11303D0348323839683858390878783108208954B
S11303E0FC01118610860895CF93DF93FC01DB0195
S11303F021813281E9018A819B8113969C938E939A
S113040012978181928115969C938E9314978A8179
S11304109B81EC017D836C83E9017B836A83728316
S113042061831996FC93EE93189780818F5F808384
S1130430DF91CF910895CF93DF93EB0148815981E8
S11304404F3F2FEF520731F4DC011796ED91FC91E9
S1130450189717C0FC013396DC0115962D913C9139
S11304601697D9012D913C914217530750F0028001
S1130470F381E02DA281B3812D913C914217530762
S1130480B0F7A281B381BB83AA831596DC93CE9384
S11304901497FD83EC83D383C28399878887FC01F7
S11304A020812F5F2083DF91CF910895FC01A281E9
S11304B0B3818481958115969C938E931497A4811E
S11304C0B5818281938113969C938E931297A08514
S11304D0B18511968D919C911297E817F90731F423
S11304E08481958112969C938E9311971186108620
S11304F08C9181508C9308950E94E91F61E088E2F9
S113050092E00E94CF206AE082E00E94E12061E054
S113051085EC91E00E94CF2064E182E00E94E1201A
S113052061E08FEC91E00E94CF206EE182E00E94B6
S1130530E12061E087ED91E00E94CF200C94E62059
S113054008950E94E91F61E08AED91E00E94CF20A6
S11305506AE082E00E94E12061E083EE91E00E9483
S1130560CF2064E182E00E94E12061E08DEE91E021
S11305700E94CF206EE182E00E94E12061E086EFDC
S113058091E00E94CF2068E282E00E94E12061E0D5
S113059080E092E00E94CF200C94E62008950E940F
S11305A0E91F61E086EE91E00E94CF206AE082E0DC
S11305B00E94E12061E08DE092E00E94CF2064E19E
S11305C082E00E94E12061E08AE192E00E94CF2073
S11305D06EE184E10E94E12061E084E192E00E9406
S11305E0CF2068E282E00E94E12061E085E292E0AF
S11305F00E94CF200C94E62008950E94E91F61E038
S113060080EF91E00E94CF206AE082E00E94E12026
S113061061E082E392E00E94CF2064E182E00E94E4
S1130620E12061E08EE392E00E94CF206EE182E05F
S11306300E94E12061E085E292E00E94CF200C94C8
S1130640E6200895CF93DF93EC010E94E91F61E057
S11306508DE492E00E94CF206AE080E00E94E120D5
S113066061E0CE010E94CF200E94E620DF91CF916D
S113067008958EEF88B9000086B1809584FD46C048
S113068086B1809585FD44C086B1809586FD42C0C3
S113069086B1809590E0880F892F881F990B9195DA
S11306A0892BD1F58DEF88B9000086B1809584FD42
S11306B035C086B1809585FD33C086B1809586FDB1
S11306C031C086B1809590E0880F892F881F990BDF
S11306D09195892B49F58BEF88B9000086B18095F7
S11306E084FD24C086B1809585FD22C086B18095A5
S11306F086FD20C086B1809590E0880F892F881FE1
S1130700990B9195892BC1F480E0089581E30895B4
S113071084E3089587E308958AE2089582E30895BF
S113072085E3089588E3089580E3089583E30895B5
S113073086E3089589E3089583E208950E94E91FFA
S113074061E088E592E00E94CF206AE082E00E94A6
S1130750E12061E086E692E00E94CF2064E182E03D
S11307600E94E12061E08EE692E00E94CF206EE1DB
S113077082E00E94E12061E086E792E00E94CF20BF
S113078068E282E00E94E12061E080E892E00E9459
S1130790CF200C94E62008950E94E91F61E089E8C7
S11307A092E00E94CF206AE080E00E94E12061E0B4
S11307B08FE892E00E94CF200C94E62008950E94D6
S11307C0E91F61E08BE992E00E94CF206AE080E0BB
S11307D00E94E12061E089EA92E00E94CF200C941B
S11307E0E620089510923D0D10923C0DE5E4F1E0F1
S11307F08FE5808311821282138208958091460DC1
S11308008130C1F40E94E91F61E083EB92E00E9411
S1130810CF206AE080E00E94E12061E08FEB92E06B
S11308200E94CF2061E086E591E00E94CF200C94E5
S1130830E6200895823031F50E94E91F61E083EBE0
S113084092E00E94CF206AE080E00E94E12061E013
S11308508FEB92E00E94CF2061E086E591E00E9458
S1130860CF2064E180E00E94E12061E083EC92E02B
S11308700E94CF2061E081E791E00E94CF200C9498
S1130880E62008958330A1F50E94E91F61E083EB1F
S113089092E00E94CF206AE080E00E94E12061E0C3
S11308A08FEB92E00E94CF2061E086E591E00E9408
S11308B0CF2064E180E00E94E12061E083EC92E0DB
S11308C00E94CF2061E081E791E00E94CF206EE199
S11308D080E00E94E12061E087EC92E00E94CF205A
S11308E061E08CE891E00E94CF200C94E62008950A
S11308F0843009F042C00E94E91F61E083EB92E07A
S11309000E94CF206AE080E00E94E12061E08FEB4A
S113091092E00E94CF2061E086E591E00E94CF2022
S113092064E180E00E94E12061E083EC92E00E94B7
S1130930CF2061E081E791E00E94CF206EE180E06A
S11309400E94E12061E087EC92E00E94CF2061E008
S11309508CE891E00E94CF2068E280E00E94E120D0
S113096061E08BEC92E00E94CF2061E087EA91E0A5
S11309700E94CF200C94E62008950E94E91F61E0B4
S11309808FEC92E00E94CF200C94E62008952FC0B3
S11309904091300D5091310D6091320D7091330DB5
S11309A0443151056105710549F41092300D1092DE
S11309B0310D1092320D1092330D089587EA91E6AD
S11309C00197F1F700C000008091300D9091310D36
S11309D0A091320DB091330D0196A11DB11D8093EC
S11309E0300D9093310DA093320DB093330D41DE51
S11309F08093AE0F882361F23CDE8093B20F909116
S1130A00AE0F8917C9F31092300D1092310D109268
S1130A10320D1092330D8091360D98138AC02091B7
S1130A20340D3091350D2330310538F42F5F3F4FAD
S1130A303093350D2093340D04C01092350D10926F
S1130A40340D813341F4E091340DF091350DEF5BB9
S1130A50FE4F80810895823341F4E091340DF0918A
S1130A60350DE35CFE4F80810895833341F4E091BA
S1130A70340DF091350DE75CFE4F80810895843389
S1130A8041F4E091340DF091350DEB5CFE4F808123
S1130A900895853341F4E091340DF091350DEF5C08
S1130AA0FE4F80810895863341F4E091340DF09136
S1130AB0350DE35DFE4F80810895873341F4E09165
S1130AC0340DF091350DE75DFE4F80810895883334
S1130AD041F4E091340DF091350DEB5DFE4F8081D2
S1130AE00895893341F4E091340DF091350DEF5DB3
S1130AF0FE4F80810895803341F4E091340DF091EC
S1130B00350DE35EFE4F808108958A3241F4E09111
S1130B10340DF091350DE75EFE4F808108958332E8
S1130B2071F4E091340DF091350DEB5EFE4F808150
S1130B3008959093360D1092350D1092340D8091D6
S1130B40360D08951092B30FD7CC0895E091B30FEA
S1130B508E2F90E08C30910508F0ACC0FC01EA5B6C
S1130B60FF4F0C94532785DD8093510D82DD9091C6
S1130B70510D89139FC07DDD9091510D9817D9F3C4
S1130B8099C077DD8093500D74DD9091500D8913D9
S1130B9091C06FDD9091500D9817D9F38BC069DD2A
S1130BA08093500D66DD9091500D891383C061DDF3
S1130BB09091500D9817D9F37DC05BDD80934F0D54
S1130BC058DD90914F0D891375C053DD90914F0DF1
S1130BD09817D9F36FC04DDD80934E0D4ADD909187
S1130BE04E0D891367C045DD90914E0D9817D9F3CA
S1130BF061C03FDD8093500D3CDD9091500D891311
S1130C0059C037DD9091500D9817D9F353C031DD99
S1130C108093500D2EDD9091500D89134BC029DD2A
S1130C209091500D9817D9F345C023DD80934D0D55
S1130C3020DD90914D0D89133DC01BDD90914D0D2C
S1130C409817D9F337C015DD8093500D12DD9091BC
S1130C50500D89132FC00DDD9091500D9817D9F3C5
S1130C6029C007DD8093500D04DD9091500D891348
S1130C7021C0FFDC9091500D9817D9F31BC0F9DC0B
S1130C808093500DF6DC9091500D891313C0F1DC64
S1130C909091500D9817D9F30DC0EBDC8093500D53
S1130CA0E8DC9091500D891305C0E3DC9091500D60
S1130CB09817D9F3E091B30F8E2F90E08C30910503
S1130CC008F023C1FC01EE5AFF4F0C945327809186
S1130CD0510D813331F481E08093490D8093B30F3A
S1130CE00895823339F481E08093480D82E0809343
S1130CF0B30F0895833309F015C183E08093B30FD4
S1130D0020CC08958091490D81110CC11092510D90
S1130D101092500D10924F0D10924E0D10924D0DD9
S1130D20EBDB1092B30F08958091480D8111FAC046
S1130D301092510D1092500D10924F0D10924E0DB5
S1130D4010924D0DD9DB1092B30F089580914F0D81
S1130D50813329F484E08093B30F21CC0895823346
S1130D6029F487E08093B30F48CC08958333B1F41A
S1130D708BE08093B30F0E94E91F61E087E093E06A
S1130D800E94CF206AE082E00E94E12061E086E1D7
S1130D9093E00E94CF200C94E6200895843309F058
S1130DA0C1C01092B30F1092510D1092500D1092B9
S1130DB04F0D10924E0D10924D0D9ECB08958091C3
S1130DC04E0D813339F481E080933E0D85E08093AC
S1130DD0B30F0895823339F481E08093370D86E0B0
S1130DE08093B30F0895833309F09CC01092B30F1E
S1130DF01092510D1092500D10924F0D10924E0DF5
S1130E0010924D0D79CB089580913E0D81118AC0C9
S1130E101092B30F1092510D1092500D10924F0D6D
S1130E2010924E0D10924D0D67CB08958091370DA1
S1130E30811178C01092B30F1092510D1092500D81
S1130E4010924F0D10924E0D10924D0D55CB0895EA
S1130E5080914D0D813351F488E08093B30F81E08C
S1130E6080934C0D82E293E0EDCB0895823341F4FC
S1130E7089E08093B30F81E080934B0DBFCC08953C
S1130E80833309F04FC01092B30F1092510D10929A
S1130E90500D10924F0D10924E0D10924D0D2CCB03
S1130EA0089580914C0D81113DC026DB1092B30F43
S1130EB0089580914B0D811135C01EDB1092B30F44
S1130EC008958091500D833269F51092B30F1092FA
S1130ED0510D1092500D10924F0D10924E0D109214
S1130EE04D0D0ACB08958091500D8332D9F41092A0
S1130EF0B30F1092510D1092500D10924F0D10928D
S1130F004E0D10924D0DF8CA08951092B30F109221
S1130F10510D1092500D10924F0D10924E0D1092D3
S1130F204D0DEACA08950EDE11DE8AE090E00E94BB
S1130F300525FACFAF92BF92CF92DF92EF92FF9244
S1130F400F93A12CB12CC12CD12CE12CF12C082F06
S1130F5020E030E045E550E064E273E083E997E0A7
S1130F600E948D220F91FF90EF90DF90CF90BF9061
S1130F70AF9008959091220D8091190D98130FC090
S1130F80E3E2FDE0AAE1BDE02AE23DE091918D912A
S1130F90981307C0E217F307C9F781E0089580E0CA
S1130FA0089580E00895EF92FF920F931F93CF93DB
S1130FB0DF93E091A90F8E2F90E0FC013197E83088
S1130FC0F10508F095C3E25AFF4F0C9453278FE4C0
S1130FD093EC0197F1F700C000004BDB8093170DF1
S1130FE08823A9F306C0EFE4F3EC3197F1F700C0CE
S1130FF000003FDB8093160D9091170D891799F32C
S113100077C3C5DC8093170D1092160D833209F453
S11310101FC6CFE58A32B1F4E0912F0DEE2371F0B3
S1131020E150E0932F0DF0E0E95FFE4FC0831182A1
S11310301092160D87E091E005DB28C087E091E06F
S113104001DB24C0882369F0E0912F0DF0E0E95F13
S1131050FE4F808311828093160D87E091E0F2DACF
S113106015C08091160D882389F0E0912F0DE93089
S113107068F4EF5FE0932F0DF0E0E95FFE4FC0836B
S113108011821092160D87E091E0DCDA80DC809307
S1131090170D833209F0BECFDBC58FE493EC0197C3
S11310A0F1F700C00000E5DA8093170D8823A9F357
S11310B006C0EFE4F3EC3197F1F700C00000D9DA91
S11310C08093160D9091170D891799F3C2E0D1E022
S11310D01FE5D7C0882309F4C1C08A3209F496C039
S11310E020912D0D30912E0D2115310521F5282F3C
S11310F030E02053310930932E0D20932D0D888339
S11311000E94E91F61E081E393E00E94CF206AE03E
S113111080E00E94E12061E08CE393E00E94CF2014
S113112064E180E00E94E12061E0CE010E94CF20D2
S11311300E94E62093C0A90141505109493051054C
S113114078F5A901440F551F220F331F220F331FB7
S1131150220F331F240F351F280F311D205331094F
S113116030932E0D20932D0D89830E94E91F61E099
S113117081E393E00E94CF206AE080E00E94E120B6
S113118061E08CE393E00E94CF2064E180E00E9460
S1131190E12061E0CE010E94CF200E94E6205EC0E3
S11311A0A9014A5051094A35510508F057C0A9010F
S11311B0440F551F220F331F220F331F220F331FDB
S11311C0240F351F280F311D2053310930932E0D64
S11311D020932D0D8A830E94E91F61E081E393E04F
S11311E00E94CF206AE080E00E94E12061E08CE36D
S11311F093E00E94CF2064E180E00E94E12061E05E
S1131200CE010E94CF200E94E62028C010922E0D0D
S113121010922D0D188319821A820E94E91F61E031
S113122081E393E00E94CF206AE080E00E94E12005
S113123061E08CE393E00E94CF2064E180E00E94AF
S1131240E12061E0CE010E94CF200E94E62006C08A
S113125087EA91E60197F1F700C000000ADA80936B
S1131260170D8823A9F306C0E7EAF1E63197F1F7F1
S113127000C00000FED98093160D9091170D8917B8
S113128099F38091170D833209F024CFE1C48FE4E0
S113129093EC0197F1F700C00000EBD98093170D90
S11312A08823A9F306C0EFE4F3EC3197F1F700C00B
S11312B00000DFD98093160D9091170D891799F3CB
S11312C0C1E0D2E06CC0813331F5C0932C0D0E9493
S11312D0E91F6C2F8AE493E00E94CF206AE080E04B
S11312E00E94E1206C2F88E593E00E94CF2064E106
S11312F080E00E94E1206C2F80E693E00E94CF20E2
S11313006EE180E00E94E1206C2F8BE593E00E9467
S1131310CF200E94E6208091170D823369F5D09387
S11313202C0D0E94E91F6C2F8AE493E00E94CF20C9
S11313306AE080E00E94E1206C2F88E593E00E943F
S1131340CF2064E180E00E94E1206C2F80E693E0EE
S11313500E94CF206EE180E00E94E1206C2F83E6A2
S113136093E00E94CF200E94E62006C08FE493EC15
S11313700197F1F700C000007CD98093170D8823F2
S1131380A9F306C0EFE4F3EC3197F1F700C00000D5
S113139070D98093160D9091170D891799F3809148
S11313A0170D833209F08FCF53C480B1809582FF2B
S11313B004C08AE080932B0DDAC280B1809583FF4C
S11313C004C087E080932B0DD2C210922B0DFFC274
S11313D08FE493EC0197F1F700C000004AD98093A1
S11313E0170D8823A9F306C0EFE4F3EC3197F1F766
S11313F000C000003ED98093160D9091170D8917F7
S113140099F3CAE2DDE002E21DE00F2EFAE2FF2EBC
S1131410F02D79C0882309F463C08A32B1F1209198
S1131420180D283008F05CC030E0F901EE5DF24F91
S113143080832F5F3F4F2830310524F4F901EE5D9E
S1131440F24FF0820E94E91F61E08AE693E00E9475
S1131450CF206AE080E00E94E12061E081E793E030
S11314600E94CF2064E180E00E94E12061E0C80195
S11314700E94CF200E94E6208091180D8F5F8093F8
S1131480180D8091170D8A3259F51092180DE2E269
S1131490FDE01192CE17DF07E1F7F801F0820E9418
S11314A0E91F61E08AE693E00E94CF206AE080E0D1
S11314B00E94E12061E081E793E00E94CF2064E193
S11314C080E00E94E12061E0C8010E94CF200E94D8
S11314D0E62006C08FE493EC0197F1F700C000000A
S11314E0C8D88093170D8823A9F306C0EFE4F3EC62
S11314F03197F1F700C00000BCD88093160D90918D
S1131500170D891799F38091170D833209F082CF53
S11315109FC38FE493EC0197F1F700C00000A9D8B2
S11315208093170D8823A9F306C0EFE4F3EC3197F9
S1131530F1F700C000009DD88093160D9091170D0F
S1131540891799F3C1E2DDE009E11DE00F2EFAE20B
S1131550FF2EF02D8EC0882309F478C08A3209F456
S113156040C02091180D283008F070C030E0F90117
S1131570E75EF24F80832F5F3F4F2830310524F41C
S1131580F901E75EF24FF0820E94E91F61E08DE607
S113159094E00E94CF206AE080E00E94E12061E0B4
S11315A08AE793E00E94CF206AE08CE30E94E12066
S11315B08091150D61E0805D0E94252064E180E04A
S11315C00E94E12061E0C8010E94CF200E94E62031
S11315D08091180D8F5F8093180D8091170D8A32BA
S11315E0A9F51092180DE9E1FDE01192EC17FD0741
S11315F0E1F7F801F0820E94E91F61E08DE694E0D2
S11316000E94CF206AE080E00E94E12061E08AE746
S113161093E00E94CF206AE08CE30E94E120809155
S1131620150D61E0805D0E94252064E180E00E9448
S1131630E12061E0C8010E94CF200E94E62006C09C
S11316408FE493EC0197F1F700C0000012D8809367
S1131650170D8823A9F306C0EFE4F3EC3197F1F7F3
S113166000C0000006D88093160D9091170D8917BD
S113167099F38091170D833209F06DCF7BDC8111D2
S113168006C08091150D8F5F8093150DE1C21092F5
S1131690150DDEC28FE493EC0197F1F700C0000052
S11316A00E9439038093170D8823A1F306C0EFE449
S11316B0F3EC3197F1F700C000000E9439038093E6
S11316C0160D9091170D891791F3933209F0FFCFFE
S11316D081E08093140DE091A90F8E2F90E0893062
S11316E0910508F0ACC2FC01EA59FF4F0C94532752
S11316F0E091A90F8E2F90E08930910508F09FC2E8
S1131700FC01E159FF4F0C94532780914C0D882321
S113171009F4AAC280913F0D811153C08091460DF6
S1131720843029F410924C0D1092A90F9DC2A7E0A9
S1131730B1E0E2E0F1E080E01D92853008F410822F
S11317408F5F31968E30C1F78FE5809307018093C8
S1131750020110922F0D10922E0D10922D0D109249
S11317602C0DE2E2FDE0A9E1BDE08AE29DE01192E8
S11317701D92E817F907D9F78AE28093220D109297
S1131780190D1092180D1092170D1092160D10923B
S1131790150D1092140D0E94E91F61E08DE492E092
S11317A00E94CF206AE080E00E94E12061E087E0AF
S11317B091E00E94CF200E94E62082E08093A90F4E
S11317C053C20E94E91F61E084E893E00E94CF20A5
S11317D00E94E62081E08093A90F46C28091170DF4
S11317E0882309F441C210924C0D1092A90F3CC2F7
S11317F08091170D8332A1F580912F0D8823A1F1DB
S113180090914C0D992309F43FC0E82FF0E0E95F73
S1131810FE4F1082815080932F0D10922E0D109246
S11318202D0D0E94E91F61E081E393E00E94CF2027
S11318306AE080E00E94E12061E08CE393E00E9492
S1131840CF2064E180E00E94E12061E082E293E045
S11318500E94CF200E94E62083E08093A90F04C257
S113186080912F0D81110CC080914C0D882361F063
S113187082E293E00E94220382E08093A90FF4C1E4
S113188080914C0D8111F0C11092A90FEDC180918E
S11318902D0D90912E0D8B35910578F120914C0DE5
S11318A0222309F4D0C110922C0D0E94E91F61E09B
S11318B08AE493E00E94CF206AE080E00E94E12065
S11318C061E088E593E00E94CF2064E180E00E941B
S11318D0E12061E080E693E00E94CF206EE180E0A9
S11318E00E94E12061E082E293E00E94CF200E9406
S11318F0E62084E08093A90FB7C18A35910560F48E
S113190080914C0D882361F010922E0D10922D0DB4
S113191083E08093A90FA8C180914C0D8111A4C1CB
S11319201092A90FA1C180912C0D8823A9F0809158
S11319304C0D8823A9F081E08093420D289A0E94DF
S1131940E91F61E087EA93E00E94CF200E94E6202D
S113195085E08093A90F88C180914C0D811184C1C9
S11319601092A90F81C180912B0D882381F1809160
S11319704C0D882381F11092180DE2E2FDE08AE219
S11319809DE01192E817F907E1F78AE28093220DAE
S11319900E94E91F61E08AE693E00E94CF206AE09A
S11319A080E00E94E12061E081E793E00E94CF2083
S11319B064E180E00E94E12061E084E193E00E9420
S11319C0CF200E94E62086E08093A90F4DC180912C
S11319D04C0D811149C11092A90F46C18091180D77
S11319E08830E1F580914C0D8823E1F10E94E91FD4
S11319F061E08DE694E00E94CF206AE080E00E94DE
S1131A00E12061E085EB93E00E94CF206AE08CE363
S1131A100E94E1208091150D61E0805D0E942520E7
S1131A2064E180E00E94E12061E084E193E00E94AF
S1131A30CF200E94E6201092180D1092150DE9E1B6
S1131A40FDE081E29DE01192E817F907E1F78AE2EF
S1131A508093190D87E08093A90F06C180914C0DE6
S1131A60811102C11092A90FFFC08091150D81113F
S1131A7039C080914C0D882309F4A8C00E94E91F45
S1131A8061E087E091E00E94CF206AE080E00E945C
S1131A90E12061E082E091E00E94CF206AE084E1ED
S1131AA00E94E12061E086E493E00E94CF2064E19B
S1131AB080E00E94E12080912C0D813031F461E0BE
S1131AC08BE593E00E94CF2007C0823029F461E0C7
S1131AD083E693E00E94CF200E94E62088E0809372
S1131AE0A90FC2C08330C1F580914C0D882309F43D
S1131AF06DC00E94E91F61E08AE693E00E94CF2056
S1131B006AE080E00E94E12061E081E793E00E94C6
S1131B10CF2064E180E00E94E12061E084E193E071
S1131B200E94CF200E94E6201092150D1092180DED
S1131B30E2E2FDE0A9E1BDE08AE29DE011921D929E
S1131B40E817F907D9F78AE28093220D1092190D4C
S1131B5086E08093A90F88C080914C0D8823B1F151
S1131B600E94E91F61E08DE694E00E94CF206AE0C4
S1131B7080E00E94E12061E085EB93E00E94CF20A9
S1131B806AE08CE30E94E1208091150D61E0805DA4
S1131B900E94252064E180E00E94E12061E084E16C
S1131BA093E00E94CF200E94E6201092180DE9E1F4
S1131BB0FDE081E29DE01192E817F907E1F78AE27E
S1131BC08093190D87E08093A90F4EC01092A90F3E
S1131BD04BC08091140D882309F446C010924C0D1B
S1131BE0C091460DFBE1CF9F7001112487010A5A71
S1131BF01E4F4EE050E067E071E0C8010E9472277A
S1131C0049E050E062E27DE0C70188599E4F0E949E
S1131C10722780912C0DF801808B80912D0D90916D
S1131C202E0D9787868780912B0D818BCF5FC09374
S1131C30460D1092420D28981092A90F15C082E00B
S1131C408093A90F11C08A35910508F469CE64CE3A
S1131C50E091A90F8E2F90E08930910580F7FC0167
S1131C60E858FF4F0C945327DF91CF911F910F91A8
S1131C70FF90EF9008951092A90F95D984E690E013
S1131C800E940525FACFAF92BF92CF92DF92EF92D6
S1131C90FF920F93A12CB12CC12CD12CE12CF12C4F
S1131CA0082F20E030E045E550E060EC73E08BE382
S1131CB09EE00E948D220F91FF90EF90DF90CF90D5
S1131CC0BF90AF900895AF92BF92CF92DF92EF9200
S1131CD0FF920F931F93CF93DF93CDB7DEB7679730
S1131CE00FB6F894DEBF0FBECDBF062F20E230E062
S1131CF03A832983FE0133969CE0DF011D929A9575
S1131D00E9F7388B2F873E9697E0DF011D929A956D
S1131D10E9F71BE1189F50011124F501EA5AFE4F1F
S1131D206F014EE050E0BF01CE0101960E94722780
S1131D30109F80011124C8018A5A9E4F7C014EE0F5
S1131D4050E0BC01C6010E9472274EE050E0BE0183
S1131D506F5F7F4FC7010E947227D501A859BE4FFC
S1131D605D0149E050E0BD01CE010F960E9472274B
S1131D7008591E4F49E050E0B801C5010E9472277E
S1131D8049E050E0BE01615F7F4FC8010E947227A5
S1131D90F60186859785D7011E962D913C911F9754
S1131DA0378726871F969C938E931E97808950961B
S1131DB09C915097908B50968C9367960FB6F8949D
S1131DC0DEBF0FBECDBFDF91CF911F910F91FF906A
S1131DD0EF90DF90CF90BF90AF900895E091010114
S1131DE08BE1E89FD0011124AA5ABE4F52969C91D0
S1131DF08091080D981313C08BE1E89FF001112422
S1131E00E759FE4FA9E0BDE020E13DE091918D91BD
S1131E10981307C0A217B307C9F781E0089580E0BB
S1131E20089580E00895FF920F931F93CF93DF935B
S1131E308091AD0F833009F44BC028F4813081F0D8
S1131E40823051F135C1843009F461C0853009F420
S1131E501AC12EC18FE493EC0197F1F700C0000082
S1131E600E9439038093130D8823A1F306C0EFE485
S1131E70F3EC3197F1F700C000000E94390380931E
S1131E80120D9091130D891791F312C18FE493EC05
S1131E900197F1F700C000000E9439038093130DED
S1131EA08823A1F306C0EFE4F3EC3197F1F700C007
S1131EB000000E9439038093120D9091130D89172D
S1131EC091F3F6C08FE493EC0197F1F700C00000A2
S1131ED00E9439038093130D8823A1F306C0EFE415
S1131EE0F3EC3197F1F700C000000E9439038093AE
S1131EF0120D9091130D891791F391539093130D33
S1131F00D7C08FE493EC0197F1F700C000000E9462
S1131F1039038093130D8823A1F306C0EFE4F3EC97
S1131F203197F1F700C000000E9439038093120D2D
S1131F309091130D891791F3C0E1DDE008E01DE0F5
S1131F400F2EFAE2FF2EF02D87C0882309F46FC00C
S1131F508A32E1F12091180D283008F068C030E091
S1131F60F901E85FF24F80832F5F3F4F283031053E
S1131F7024F4F901E85FF24FF0820E94E91F61E066
S1131F8089E892E00E94CF206AE080E00E94E1208C
S1131F9061E085EB93E00E94CF208091110D61E018
S1131FA0805D0E94252064E180E00E94E12061E0E0
S1131FB0C8010E94CF200E94E6208091180D8F5FF7
S1131FC08093180D8091130D8A3289F51092180DA3
S1131FD0E8E0FDE01192CE17DF07E1F7F801F082A7
S1131FE00E94E91F61E089E892E00E94CF206AE044
S1131FF080E00E94E12061E085EB93E00E94CF2025
S11320008091110D61E0805D0E94252064E180E0F3
S11320100E94E12061E0C8010E94CF200E94E620D6
S113202006C08FE493EC0197F1F700C000000E9412
S113203039038093130D8823A1F306C0EFE4F3EC76
S11320403197F1F700C000000E9439038093120D0C
S11320509091130D891791F38091130D833209F038
S113206074CFBCDE811106C08091110D8F5F809307
S1132070110DD1C11092110DCEC18FE493EC0197D3
S1132080F1F700C000000E9439038093130D8823E8
S1132090A1F306C0EFE4F3EC3197F1F700C00000C0
S11320A00E9439038093120D9091130D891791F3B7
S11320B08091AD0F823009F449C028F4882361F07F
S11320C08130D1F19CC1843009F49FC008F448C028
S11320D0853009F43DC193C180914B0D882309F4E7
S11320E0B0C180913F0D811104C08091400D8823BF
S11320F069F00E94E91F61E084E893E00E94CF2028
S11321000E94E62081E08093AD0F9BC18091460D33
S11321108150843068F41092130D1092120D1092B5
S1132120110D85E08093010183E08093AD0F89C197
S113213082E08093AD0F85C18091130D882309F44B
S113214080C110924B0D1092AD0F7BC18091130D85
S1132150882309F476C110924B0D1092AD0F71C112
S11321608091130D9091460D8917C0F590914B0DF8
S11321709923C1F1809301010E94E91F61E089E87C
S113218092E00E94CF206AE080E00E94E12061E0BA
S113219085EB93E00E94CF208091110D61E0805D7A
S11321A00E94252064E180E00E94E12061E084E156
S11321B093E00E94CF200E94E6201092110DE8E0E7
S11321C0FDE080E19DE011928E179F07E1F78AE21E
S11321D08093080D84E08093AD0F33C180914B0D43
S11321E081112FC11092110D1092180DE8E0FDE03D
S11321F080E19DE01192E817F907E1F71092080DCC
S11322000E947C021092AD0F1CC18091110D8111AE
S11322103CC080914B0D882309F489C00E94E91FBA
S113222061E08CEC93E00E94CF206AE080E00E94A1
S1132230E12080910101FBE18F9FC001112461E045
S11322408A5A9E4F0E94CF2064E180E00E94E120E0
S113225061E083ED93E00E94CF206EE180E00E9474
S1132260E12061E080EE93E00E94CF2068E280E00C
S11322700E94E12061E087EE93E00E94CF200E945B
S1132280E62085E08093AD0FDCC08330D1F48091EB
S11322904B0D882309F44BC01092110D1092180DA8
S11322A0E8E0FDE080E19DE01192E817F907E1F72D
S11322B01092080D10924B0D0E947C021092AD0FEB
S11322C0C0C080914B0D882391F10E94E91F61E009
S11322D089E892E00E94CF206AE080E00E94E12039
S11322E061E085EB93E00E94CF208091110D61E0C5
S11322F0805D0E94252064E180E00E94E12061E08D
S113230084E193E00E94CF200E94E6201092180DF1
S1132310E8E0FDE080E19DE01192E817F907E1F7BC
S11323208AE28093080D84E08093AD0F8AC01092F6
S1132330110D1092180DE8E0FDE080E19DE011928E
S11323408E179F07E1F71092080D1092AD0F79C018
S11323508091130D833209F03DC0809101018111F8
S11323600EC061E0B0DC62E081E0ADDC63E082E0FD
S1132370AADC8091460D81508093460D16C08130B1
S113238059F462E0A0DC63E082E09DDC8091460DBC
S113239081508093460D09C08230A1F1833029F425
S11323A08091460D81508093460D1092110D10922C
S11323B0180DE8E0FDE080E19DE01192E817F907CF
S11323C0E1F71092080D10924B0D0E947C021092BE
S11323D0AD0F37C08A32A9F50E94FE031092110D89
S11323E01092180DE8E0FDE080E19DE011928E1757
S11323F09F07E1F71092080D1092AD0F22C01092C2
S1132400AD0F1FC063E082E05EDC8091460D815019
S11324108093460DCACF8091AD0F823009F49BCED4
S113242038F4882309F458CE813009F48ACEE7CFF2
S1132430843009F4EACE08F493CE853009F488CFC9
S1132440DECFDF91CF911F910F91FF9008951092ED
S1132450AD0FE9DC84E690E00E940525FACFAF9247
S1132460BF92CF92DF92EF92FF920F93A12CB12CE7
S1132470C12CD12CE12CF12C082F20E030E045E5D3
S113248050E06FEE73E087E292E10E948D220F919B
S1132490FF90EF90DF90CF90BF90AF900895CF92D0
S11324A0DF92EF92FF920F931F93CF93DF9380916C
S11324B0AA0F853009F44DC028F4813091F084309E
S11324C061F1BCC2873009F4ADC108F45EC0883044
S11324D009F49FC2B3C28FE493EC0197F1F700C0F3
S11324E000000E94390380933D0D8823A1F306C0A8
S11324F08FE493EC0197F1F700C000000E943903C8
S113250080933C0D90913D0D891791F397C28FE410
S113251093EC0197F1F700C000000E943903809307
S11325203D0D8823A1F306C08FE493EC0197F1F7E6
S113253000C000000E94390380933C0D90913D0D32
S1132540891791F37BC28FE493EC0197F1F700C0F4
S113255000000E94390380933D0D8823A1F306C037
S11325608FE493EC0197F1F700C000000E94390357
S113257080933C0D90913D0D891791F35FC28FE4D8
S113258093EC0197F1F700C000000E943903809397
S11325903D0D8823A1F306C08FE493EC0197F1F776
S11325A000C000000E94390380933C0D90913D0DC2
S11325B0891791F3C5E4D1E01FE528C1882309F404
S11325C010C18A3209F4DFC02091390D30913A0DDF
S11325D02115310549F5282F30E020533109309376
S11325E03A0D2093390D88830E94E91F61E089E840
S11325F092E00E94CF206AE080E00E94E12061E046
S11326008FE892E00E94CF2064E180E00E94E12004
S113261061E0CE010E94CF2061E085E992E00E9452
S1132620CF200E94E620DDC0A90141505109493064
S11326305105A0F5A901440F551F220F331F220F86
S1132640331F220F331F240F351F280F311D205332
S1132650310930933A0D2093390D89830E94E91F83
S113266061E089E892E00E94CF206AE080E00E9465
S1132670E12061E08FE892E00E94CF2064E180E0F5
S11326800E94E12061E0CE010E94CF2061E085E953
S113269092E00E94CF200E94E620A3C0A9014A50E4
S11326A051094A355105A0F5A901440F551F220FC0
S11326B0331F220F331F220F331F240F351F280F00
S11326C0311D2053310930933A0D2093390D8A83FB
S11326D00E94E91F61E089E892E00E94CF206AE04D
S11326E080E00E94E12061E08FE892E00E94CF2028
S11326F064E180E00E94E12061E0CE010E94CF20ED
S113270061E085E992E00E94CF200E94E62069C042
S1132710A901445651094438534008F062C0A90144
S1132720440F551F220F331F220F331F220F331F55
S1132730240F351F280F311D2053310930933A0DD2
S11327402093390D8B830E94E91F61E089E892E0B0
S11327500E94CF206AE080E00E94E12061E08FE8DF
S113276092E00E94CF2064E180E00E94E12061E0D9
S1132770CE010E94CF2061E085E992E00E94CF2043
S11327800E94E6202EC010923A0D1092390D188343
S113279019821A821B820E94E91F61E089E892E093
S11327A00E94CF206AE080E00E94E12061E08FE88F
S11327B092E00E94CF2064E180E00E94E12061E089
S11327C0CE010E94CF2061E085E992E00E94CF20F3
S11327D00E94E62006C08FE493EC0197F1F700C055
S11327E000000E94390380933D0D8823A1F306C0A5
S11327F08FE493EC0197F1F700C000000E943903C5
S113280080933C0D90913D0D891791F380913D0D7E
S1132810833209F0D3CEBCC38FE493EC0197F1F774
S113282000C000000E94390380933D0D8823A1F36A
S113283006C08FE493EC0197F1F700C000000E94FA
S1132840390380933C0D90913D0D891791F3C5E4B4
S1132850D1E00F2EFFE5FF2EF02DCFC0882309F421
S1132860B7C08A3209F488C09091380D911125C0FF
S113287090ED980F9093380D88830E94E91F61E0D2
S11328808BE992E00E94CF206AE080E00E94E12080
S113289061E089EA92E00E94CF2064E180E00E9436
S11328A0E12061E0CE010E94CF2061E080EB92E064
S11328B00E94CF200E94E6208BC02FEF290F2930E1
S11328C058F5990F292F220F220F920F20ED280F70
S11328D0920F9093380D89830E94E91F61E08BE980
S11328E092E00E94CF206AE080E00E94E12061E053
S11328F089EA92E00E94CF2064E180E00E94E12016
S113290061E0CE010E94CF2061E080EB92E00E9462
S1132910CF200E94E6205CC026EF290F2A3508F05C
S113292057C0990F292F220F220F920F20ED280F45
S1132930920F9093380D8A830E94E91F61E08BE91E
S113294092E00E94CF206AE080E00E94E12061E0F2
S113295089EA92E00E94CF2064E180E00E94E120B5
S113296061E0CE010E94CF2061E080EB92E00E9402
S1132970CF200E94E6202CC01092380DF8821982D4
S11329801A821B820E94E91F61E08BE992E00E9497
S1132990CF206AE080E00E94E12061E089EA92E0D1
S11329A00E94CF2064E180E00E94E12061E0CE013A
S11329B00E94CF2061E080EB92E00E94CF200E9431
S11329C0E62006C08FE493EC0197F1F700C0000005
S11329D00E94390380933D0D8823A1F306C08FE440
S11329E093EC0197F1F700C000000E943903809333
S11329F03C0D90913D0D891791F380913D0D8332EB
S1132A0009F02CCFC5C28FE493EC0197F1F700C015
S1132A1000000E94390380933D0D8823A1F306C072
S1132A208FE493EC0197F1F700C000000E94390392
S1132A3080933C0D90913D0D891791F3E091AA0F7D
S1132A408E2F90E08930910508F09FC2FC01EF576A
S1132A50FF4F0C94532780913E0D882309F4A4C2A0
S1132A6080913B0D882369F00E94E91F61E08FEF9C
S1132A7093E00E94CF200E94E62084E08093AA0F76
S1132A8093C28091460D81110DC00E94E91F61E03F
S1132A908FEC92E00E94CF200E94E62081E0809398
S1132AA0AA0F82C281E080934A0D82E08093AA0F2C
S1132AB07BC280913D0D882309F476C210923E0DAD
S1132AC00E94F2031092AA0F6FC280914A0D8111E5
S1132AD06BC28091470D882381F00E94E91F61E059
S1132AE082E394E00E94CF200E94E620299A10926B
S1132AF0470D83E08093AA0F57C210923E0D0E94A7
S1132B00F2031092AA0F50C280B1809591E081FB2C
S1132B10CC24C0F8D12C81FF90E09093430DCD28B4
S1132B2069F080913E0D882349F029980E949E0304
S1132B300E94F20385E08093AA0F36C283E080935B
S1132B40AA0F32C280913D0D833259F480913E0D1B
S1132B50882359F010923E0D0E94F2031092AA0F9E
S1132B6023C280913E0D81111FC210923B0D109221
S1132B703A0D1092390D1092380D0E94F203109202
S1132B803E0D1092AA0F10C280913D0D813369F45D
S1132B9080913E0D8823D1F181E080933B0D0E940A
S1132BA0CC0386E08093AA0FFFC1823369F480913D
S1132BB03E0D882359F182E080933B0D0E94CC03A3
S1132BC086E08093AA0FF0C1833369F480913E0DAF
S1132BD08823E1F083E080933B0D0E94CC0386E0E0
S1132BE08093AA0FE1C1843369F480913E0D882358
S1132BF069F084E080933B0D0E94CC0386E08093CF
S1132C00AA0FD2C180913E0D8111CEC110923B0D0D
S1132C1010923A0D1092390D1092380D0E94F20361
S1132C201092AA0FC1C180913D0D8332B9F48091F5
S1132C30390D90913A0D892B89F080913E0D8823AE
S1132C4089F0E5E4F1E08FE580831182128213823A
S1132C500E94DF0387E08093AA0FA6C180913E0DF6
S1132C608111A2C110923B0D10923A0D1092390DB0
S1132C701092380D0E94F2031092AA0F95C1809110
S1132C803D0D833209F050C18091380D882309F439
S1132C904BC180913E0D882309F44AC10E94E91F6B
S1132CA0E0913B0DF0E0EE0FFF1FE65BFE4F61E0AD
S1132CB0808191810E94CF206AE080E00E94E1201F
S1132CC04091390D50913A0D483E93E0590708F46C
S1132CD079C07A01F694E794F694E794F694E7942D
S1132CE09701A5ECB0E20E945C27FC01F295E29505
S1132CF0EF70EF27FF70EF2728EE33E0E29FC0016B
S1132D00E39F900DF29F900D1124FA01E81BF90B3B
S1132D10EF01D695C795D695C7959E01ABE7B4E16B
S1132D200E945C278C011695079524E6209FC0011C
S1132D30219F900D11248F01081B190B9701A5ECFD
S1132D40B0E20E945C27929582958F7089279F70CC
S1132D50892761E0805D0E9425209E01ABE7B4E1F4
S1132D600E945C279695879561E0805D0E942520EE
S1132D709801ADECBCEC0E945C27EC01D695C7959C
S1132D80D695C795D695C79561E08C2F805D0E9436
S1132D902520CE01880F991FCC0FDD1FCC0FDD1F1E
S1132DA0CC0FDD1F8C0F9D1F9801281B390BC90107
S1132DB061E0805D0E94252061E088E594E00E9446
S1132DC0CF2048C0FA01F695E795F695E7959F015F
S1132DD0ABE7B4E10E945C278C011695079524E6C5
S1132DE0209FC001219F900D11248A01081B190BFB
S1132DF09F010E945C279695879561E0805D0E9403
S1132E0025209801ADECBCEC0E945C27EC01D69522
S1132E10C795D695C795D695C79561E08C2F805DEB
S1132E200E942520CE01880F991FCC0FDD1FCC0FE7
S1132E30DD1FCC0FDD1F8C0F9D1F9801281B390B44
S1132E40C90161E0805D0E94252061E088E594E08D
S1132E500E94CF2064E180E00E94E120D091380DEF
S1132E60D43670F189E2D89F812D1124182F129540
S1132E701F7034E6139FD019112482958F7061E07E
S1132E80805D0E942520CDECDC9FC12D1124C695C8
S1132E90C695C69561E080E38C0F0E942520CC0F77
S1132EA08C2F880F880FC80F8D2F8C1B61E0805DDD
S1132EB00E94252061E080EB92E00E94CF201CC09C
S1132EC0CDECDC9FC12D1124C695C695C69561E055
S1132ED080E38C0F0E942520CC0F8C2F880F880F45
S1132EE0C80F8D2F8C1B61E0805D0E94252061E05E
S1132EF080EB92E00E94CF206EE180E00E94E1200E
S1132F0061E08CE594E00E94CF2068E280E00E94BA
S1132F10E12061E088E694E00E94CF200E94E62050
S1132F2088E08093AA0F40C080913E0D81113CC07F
S1132F3010923B0D10923A0D1092390D1092380DEB
S1132F400E94F2031092AA0F2FC080913D0D8A3285
S1132F5079F410923B0D10923A0D1092390D1092A3
S1132F60380D0E94F20310923E0D1092AA0F1CC05D
S1132F70833239F40E94F20310923E0D1092AA0F8C
S1132F8013C088E080933D0D0FC01092AA0F0CC0AF
S1132F90E091AA0F8E2F90E089309105B0F7FC01E3
S1132FA0E657FF4F0C945327DF91CF911F910F9158
S1132FB0FF90EF90DF90CF9008951092AA0F6FDAF0
S1132FC084E690E00E940525FACFAF92BF92CF929B
S1132FD0DF92EF92FF920F93A12CB12CC12CD12C34
S1132FE0E12CF12C082F20E030E045E550E065E7C6
S1132FF074E08DED97E10E948D220F91FF90EF9088
S1133000DF90CF90BF90AF900895E3D761E082E85E
S113301094E00E94CF200C94E6200895CF938091F1
S1133020AB0F813049F08230F1F02EC08FE493EC85
S11330300197F1F700C000000E943903C82F8823CC
S1133040A9F306C08FE493EC0197F1F700C00000E8
S11330500E943903C817B1F365C08FE493EC01975C
S1133060F1F700C000000E943903C82F8823A9F398
S113307006C08FE493EC0197F1F700C000000E94B2
S11330803903C817B1F34EC0833020F4813008F0FF
S113309054C003C08330D1F142C08091370D8823DE
S11330A009F44BC080913F0D882329F0AEDF81E005
S11330B08093AB0F42C080913B0D81110CC089D726
S11330C061E08EEE94E00E94CF200E94E62082E030
S11330D08093AB0F32C081E080933E0D10923B0D84
S11330E010923A0D1092390D1092380D0E94F2038D
S11330F083E08093AB0F21C01092370D1092AB0F79
S11331001CC01092370D1092AB0F17C080913E0D6A
S1133110811113C01092370D1092AB0F0EC0109294
S1133120AB0F0BC08091AB0F813031F308F4B5CFF6
S1133130823039F3833051F3F2CFCF910895109256
S1133140AB0F6CDFFECFAF92BF92CF92DF92EF92C4
S1133150FF920F93A12CB12CC12CD12CE12CF12C7A
S1133160082F20E030E045E550E065E275E08FE9A6
S113317098E10E948D220F91FF90EF90DF90CF9005
S1133180BF90AF900895FF920F931F93CF93DF9357
S11331908091A80F813049F0823031F1D4C08FE49E
S11331A093EC0197F1F700C000000E94390380936B
S11331B0070D8823A1F306C0EFE4F3EC3197F1F790
S11331C000C000000E9439038093060D9091070D02
S11331D0891791F391539093070DB5C08FE493EC45
S11331E00197F1F700C000000E9439038093070D96
S11331F08823A1F306C0EFE4F3EC3197F1F700C0A4
S113320000000E9439038093060D9091070D8917E1
S113321091F3C0E1DDE008E01DE00F2EFAE2FF2E9D
S1133220F02D77C0882309F45FC08A32A1F1209180
S1133230180D283008F058C030E0F901E85FF24F6B
S113324080832F5F3F4F2830310524F4F901E85F74
S1133250F24FF082BED661E089E892E0A0D76AE03E
S113326080E0AFD761E085EB93E099D78091050DBD
S113327061E0805DEAD664E180E0A3D761E0C80143
S11332808ED7A4D78091180D8F5F8093180D8091ED
S1133290070D8A3249F51092180DE8E0FDE011920D
S11332A0CE17DF07E1F7F801F08293D661E089E8F1
S11332B092E075D76AE080E084D761E085EB93E023
S11332C06ED78091050D61E0805DBFD664E180E03A
S11332D078D761E0C80163D779D706C08FE493EC4F
S11332E00197F1F700C000000E9439038093070D95
S11332F08823A1F306C0EFE4F3EC3197F1F700C0A3
S113330000000E9439038093060D9091070D8917E0
S113331091F38091070D833209F084CF0E94EE0E61
S1133320811106C08091050D8F5F8093050D0BC040
S11333301092050D8091A80F8130F1F068F0823071
S113334009F0EAC068C08091A80F8130A9F020F08C
S1133350823009F45CC0E0C080914A0D882309F4EE
S1133360DBC00E94FE0385E0809301011092470DAB
S113337081E08093A80FD0C08091070D9091460DF5
S1133380891780F590914A0D992381F18093010169
S11333901092050D1ED661E089E892E000D76AE03C
S11333A080E00FD761E085EB93E0F9D68091050DBD
S11333B061E0805D4AD664E180E003D761E084E1A6
S11333C093E0EDD603D7E8E0FDE080E19DE01192C3
S11333D0E817F907E1F78AE28093080D82E0809309
S11333E0A80F9AC080914A0D811196C01092050DC4
S11333F01092180DE8E0FDE080E19DE01192E817DD
S1133400F907E1F71092080D1092A80F85C080917A
S1133410050D81111AC080914A0D882309F46CC0EE
S1133420D8D561E086E395E0BAD66AE080E0C9D6F3
S113343061E086E495E0B3D6C9D681E08093470D78
S113344010924A0D1092A80F67C0833039F580910D
S11334504A0D882309F450C01092050D1092180DDE
S1133460E8E0FDE080E19DE011928E179F07E1F70F
S11334701092080DAED561E086E395E090D66AE03F
S113348080E09FD661E084E495E089D69FD61092CF
S1133490470D10924A0D1092A80F3EC080914A0D1C
S11334A0882351F196D561E089E892E078D66AE004
S11334B080E087D661E085EB93E071D68091050DBD
S11334C061E0805DC2D564E180E07BD661E084E1A7
S11334D093E065D67BD61092180DE8E0FDE080E11C
S11334E09DE011928E179F07E1F78AE28093080D01
S11334F082E08093A80F10C01092050D1092180D51
S1133500E8E0FDE080E19DE01192E817F907E1F7BA
S11335101092080D1092A80FDF91CF911F910F9177
S1133520FF9008951092A80F2EDE84E690E00E948A
S11335300525FACFAF92BF92CF92DF92EF92FF921E
S11335400F93A12CB12CC12CD12CE12CF12C082FE0
S113355020E030E045E550E063E575E082E99AE17A
S1133560DCD70F91FF90EF90DF90CF90BF90AF909A
S11335700895CF938091B10F833009F44BC028F4A0
S1133580813081F0823051F192C0853009F458C005
S1133590863009F486C08BC08FE493EC0197F1F771
S11335A000C000000E9439038093040D8823A1F316
S11335B006C08FE493EC0197F1F700C000000E946D
S11335C039038093030D9091040D891791F36FC013
S11335D08FE493EC0197F1F700C000000E943903D7
S11335E08093040D8823A1F306C08FE493EC019724
S11335F0F1F700C000000E9439038093030D9091FD
S1133600040D891791F353C08FE493EC0197F1F7FC
S113361000C000000E9439038093040D8823A1F3A5
S113362006C08FE493EC0197F1F700C000000E94FC
S113363039038093030D9091040D891791F337C0DA
S113364080B1809583FF12C0E09101019BE1E99F65
S1133650F0011124EA5AFE4F8189873021F481E078
S11336608093000118C01092000115C080B18095AC
S113367082FF11C0E09101018BE1E89FF001112468
S1133680EA5AFE4F81898A3021F481E08093000157
S113369002C01092000180B1809581708093410D29
S11336A09EC080B1809581708093410DBCC0E09133
S11336B0B10F8E2F90E08730910508F0CEC0FC0149
S11336C0ED56FF4F0C9453278091490D882309F43C
S11336D0C6C08091460D81110CC07BD461E08FEC93
S11336E092E05DD573D510924A0D83E08093B10FBB
S11336F0B6C080913B0D81110CC06BD461E082E6B1
S113370095E04DD563D510924A0D82E08093B10FB8
S1133710A6C08091400D882361F05BD461E08AE902
S113372095E03DD553D510924A0D82E08093B10FB8
S113373096C01092470D81E080934A0D84E08093F7
S1133740B10F8DC08091040D882309F488C01092B4
S1133750490D1092B10F83C08091040D882309F4A0
S11337607EC01092490D1092B10F79C08091040D62
S1133770882309F474C01092490D1092B10F6FC0E0
S113378080914A0D81116BC08091470D8823C9F047
S11337908091C201853021F4809101018093C2019E
S11337A018D461E081ED95E0FAD410D582E08093DD
S11337B0000181E08093420D289A85E08093B10F47
S11337C04EC08091480D811103C085E08093C201F1
S11337D01092490D1092470D1092B10F40C0809184
S11337E00001823009F43BC081110DC0F2D361E0C5
S11337F08EED95E0D4D4EAD41092470D1092490D81
S11338001092B10F2CC0813051F58091410D81117E
S113381006C0DFD361E083E196E0C1D4D7D486E06B
S11338208093B10F1CC08091410D8823C1F0C1E089
S1133830C0933F0DCED361E082E296E0B0D4C6D40B
S1133840C093400D1092420D2898C093440D299ABC
S11338501092490D1092B10F02C01092B10FCF9186
S113386008951092B10F85DE84E690E00E9405254C
S1133870FACFAF92BF92CF92DF92EF92FF920F9363
S1133880A12CB12CC12CD12CE12CF12C082F20E03F
S113389030E045E550E067E476E081E39CE13DD625
S11338A00F91FF90EF90DF90CF90BF90AF9008956D
S11338B08F929F92AF92BF92CF92DF92EF92FF923C
S11338C0CF93DF93E091B00F8E2F90E0FC013197FE
S11338D0E830F10508F033C1E656FF4F0C94532746
S11338E08FE493EC0197F1F700C000000E943903C4
S11338F08093020D8823A1F306C08FE493EC019713
S1133900F1F700C000000E9439038093010D9091EB
S1133910020D891791F313C18FE493EC0197F1F72A
S113392000C000000E9439038093020D8823A1F394
S113393006C08FE493EC0197F1F700C000000E94E9
S113394039038093010D9091020D891791F3F7C00B
S11339508FE493EC0197F1F700C000000E94390353
S11339608093020D8823A1F306C08FE493EC0197A2
S1133970F1F700C000000E9439038093010D90917B
S1133980020D891791F3DBC080B1809581FF03C0DC
S113399081E08093430D80B1809585FF06C010922D
S11339A0400D84E68093000D63C180B1809584FF4F
S11339B006C01092400D88EC8093000D59C181E03F
S11339C08093400D1092430D9DC16091000D70E0F5
S11339D080E090E00E9430262DE830E84AE05DE384
S11339E00E94C02627EE3BEF49E45FE30E94C02615
S11339F06B017C016091380D70E080E090E00E94E2
S1133A002E269B01AC01C701B6010E94C02620E00E
S1133A1030E048EC52E40E94C6256B017C01C09161
S1133A20C2019BE1C99FE0011124CA5ADE4F6E8591
S1133A307F8580E090E00E942E264B015C0120E00F
S1133A4030E043EE53E40E94C02628892130A9F4D3
S1133A502BE734E14EE25FE30E94C0269B01AC01F8
S1133A60C701B6010E94C62520E034E244E759E4C8
S1133A700E94C0266B017C0114C02DEC3CEC4CE090
S1133A805FE30E94C0269B01AC01C701B6010E94FE
S1133A90C62520E034E244E759E40E94C0266B01C5
S1133AA07C012AE037ED43EA5DE3C501B4010E94DD
S1133AB0C0269B01AC01C701B6010E94BC261816A2
S1133AC024F481E08093450DE0C01092450DE9C0D7
S1133AD08FE493EC0197F1F700C000000E943903D2
S1133AE08093020D8823A1F306C08FE493EC019721
S1133AF0F1F700C000000E9439038093010D9091FA
S1133B00020D891791F31BC08FE493EC0197F1F731
S1133B1000C000000E9439038093020D8823A1F3A2
S1133B2006C08FE493EC0197F1F700C000000E94F7
S1133B3039038093010D9091020D891791F3E0915F
S1133B40B00F8E2F90E08930910508F0D9C0FC01A8
S1133B50EE55FF4F0C9453278091480D882309F4A8
S1133B60D1C08091460D81110CC033D261E08FEC3D
S1133B7092E015D32BD310924A0D81E08093B00FBD
S1133B80C1C080913B0D81110CC023D261E082E65B
S1133B9095E005D31BD310924A0D82E08093B00FB9
S1133BA0B1C080913F0D81110CC013D261E084E556
S1133BB096E0F5D20BD310924A0D82E08093B00FB9
S1133BC0A1C08091450D882361F003D261E087E8AC
S1133BD096E0E5D2FBD210924A0D83E08093B00FB9
S1133BE091C081E080934A0D84E08093B00F8AC035
S1133BF08091020D882309F485C01092480D10921B
S1133C00B00F80C08091020D882309F47BC010920C
S1133C10480D1092B00F76C08091020D882309F4EC
S1133C2071C01092480D1092B00F6CC080914A0D73
S1133C30811168C08091470D882389F0909101011A
S1133C408091C20198130BC0C4D161E086E996E06B
S1133C50A6D2BCD2299A85E08093B00F53C01092AB
S1133C60480D1092B00F4EC08091400D81114AC092
S1133C708091430D882309F445C086E08093B00FFA
S1133C8041C08091450D882361F0A3D161E087E8AC
S1133C9096E085D29BD21092450D88E08093B00FB8
S1133CA031C097D161E083EB96E079D28FD281E085
S1133CB08093420D1092440D289A85B19091440D41
S1133CC0992311F0826001C08D7F85B987E08093CC
S1133CD0B00F18C08091020D8823A1F01092480DF6
S1133CE01092400D10923F0D1092B00F0BC08091B6
S1133CF0020D882339F01092480D1092B00F02C0C3
S1133D001092B00FDF91CF91FF90EF90DF90CF90A2
S1133D10BF90AF909F908F9008951092B00FC8DD20
S1133D2084E690E072D6FBCFAF92BF92CF92DF923F
S1133D30EF92FF920F93A12CB12CC12CD12CE12C2A
S1133D40F12C082F20E030E045E550E063EE76E00A
S1133D508DE89EE1E2D30F91FF90EF90DF90CF903A
S1133D60BF90AF9008958091AC0F8130A1F018F00E
S1133D70823031F12BC08091400D882349F180912C
S1133D80440D882329F11092FF0C1092FE0C81E05F
S1133D908093AC0F08958091FE0C9091FF0C893BA9
S1133DA02BE0920720F082E08093AC0F08950196F7
S1133DB09093FF0C8093FE0C81E08093AC0F0895E8
S1133DC01092440D29981092AC0F08951092AC0FE4
S1133DD008951092AC0FC7DF8AE090E016D6FBCFAF
S1133DE0AF92BF92CF92DF92EF92FF920F93A12CEA
S1133DF0B12CC12CD12CE12CF12C082F20E030E087
S1133E0045E550E06EEE76E089EE9EE186D30F91B3
S1133E10FF90EF90DF90CF90BF90AF900895809186
S1133E20A70F8130A1F018F0823031F12BC08091BE
S1133E303F0D811129C08091420D882329F11092F0
S1133E40FD0C1092FC0C81E08093A70F08958091E3
S1133E50FC0C9091FD0C893B2BE0920720F082E052
S1133E608093A70F089501969093FD0C8093FC0C0A
S1133E7081E08093A70F08951092420D2898109224
S1133E80A70F08951092A70F08951092A70FC7DFE8
S1133E908AE090E0BAD5FBCFAF92BF92CF92DF9287
S1133EA0EF92FF920F93A12CB12CC12CD12CE12CB9
S1133EB0F12C082F20E030E045E550E065E077E0A4
S1133EC085E49FE12AD30F91FF90EF90DF90CF908C
S1133ED0BF90AF9008958FE087B980EF88B98FEFD6
S1133EE08AB91BB884B915B811B882B93CD081E03D
S1133EF00E949A0781E00E94430E81E00E942F12E3
S1133F0081E063D881E01FD981E014DB81E0B1DC7A
S1133F1081E00ADF81E064DF81E0BEDFFFD380E07F
S1133F2090E008955998662311F05B9A15C05B9848
S1133F3013C0AC01022E02C0559547950A94E2F7CE
S1133F4040FF02C05C9A01C05C985D9A5D98215064
S1133F50310978F7599A089527E030E090E0E9CFE5
S1133F6060E0E0CF0895CF93DF93519A529A539A29
S1133F70549A559A5A9A599A83EC99E00197F1F711
S1133F8000C000005A988BE594E40197F1F700C053
S1133F9000005A9A599881E2E3DF83E1E1DF86E089
S1133FA0DFDF82ECDDDF80E2DBDF89E0D9DF80E880
S1133FB0D7DF80E4D5DFC8EFD1E061E080E0B2DF95
S1133FC02197D9F788E0CCDF8CE0CADFDF91CF916D
S1133FD0089580E8C5DF80E4C3DF10924A0F109291
S1133FE04B0FE2E5FDE08AE49FE01192E817F90740
S1133FF0E1F70895262F26952695269590E034E539
S1134000239F800D911D1124442379F0FC01EE5A65
S1134010F24F677081E090E002C0880F991F6A95A3
S1134020E2F79081892B80830895FC01EE5AF24FC8
S1134030677081E090E002C0880F991F6A95E2F7EB
S1134040809590818923808308955F926F927F92F7
S11340508F929F92AF92BF92CF92DF92EF92FF9294
S11340600F931F93CF93DF93562E262F30E04901F1
S1134070880C991C880C991C820E931E1814190420
S11340800CF059C08901000F111F000F111F000F00
S1134090111F021B130B612CA82EB12CC501809794
S11340A05C01AA0CBB1CAA0CBB1CA80EB91E0F2ECB
S11340B0FBE4CF2EFFE0DF2EF02D0F2EFAE4EF2EDF
S11340C0FFE0FF2EF02D2AC0FE01249130E0872D61
S11340D0652DDDD602C0359527958A95E2F720FF38
S11340E009C0F6016081670DF701808141E0860D0A
S11340F081DF08C0F6016081670DF701808140E02F
S1134100860D78DF7394872D90E080179107E4F291
S11341106394862D90E0881599056CF410161106A9
S1134120BCF7862D652DB3D6E501C80FD11DCA5A3B
S1134130DE4F712CC9CF80914A0F91E0980F852DE5
S1134140880F880F850D890F843518F480934A0FE2
S11341500EC010924A0FEBE4FFE0808191E0980FCB
S1134160852D880F880F880F8519890F808380918A
S11341704B0F803320F010924A0F10924B0FDF91B7
S1134180CF911F910F91FF90EF90DF90CF90BF9050
S1134190AF909F908F907F906F905F9008951F9342
S11341A0CF93DF93EC018881882339F0162F219671
S11341B0612F4BDF89918111FBCFDF91CF911F914B
S11341C0089580934A0F60934B0F08950F931F93A4
S11341D0CF93DF9380E8C4DE80E4C2DEC2E5DDE095
S11341E00AE41FE061E089919DDEC017D107D1F791
S11341F0DF91CF911F910F91089531E1FC0130833C
S1134200319722E220833197A3E3A083319760831F
S11342103197708331971082319760E860833197CA
S11342201082319762E06083319763E06083319755
S113423064E06083319765E06083319766E0608372
S1134240319767E06083319768E06083319769E074
S11342506083319760E1608331973083319732E135
S11342603083319733E13083319734E130833197B0
S113427035E13083319736E13083319737E130834C
S1134280319738E13083319739E13083319730E227
S11342903083319731E2308331972083319723E2A1
S11342A020833197408331975083319726E22083CE
S11342B0319727E22083319728E22083319729E23E
S11342C02083319720E32083319721E3208386974D
S11342D00895109289008CE7809388008BE0809386
S11342E08100EFE6F0E0808182608083A091A40FDA
S11342F0B091A50FCD91CDBFDD91DEBFFF91EF91C0
S1134300DF91CF91BF91AF919F918F917F916F91E9
S11343105F914F913F912F911F910F91FF90EF90DB
S1134320DF90CF90BF90AF909F908F907F906F90D1
S11343305F904F903F902F901F900F900FBE0F9063
S1134340089581E008950F920FB6F8940F921F928A
S113435011242F923F924F925F926F927F928F928D
S11343609F92AF92BF92CF92DF92EF92FF920F9300
S11343701F932F933F934F935F936F937F938F93E9
S11343809F93AF93BF93CF93DF93EF93FF93A0914A
S1134390A40FB091A50F0DB60D920EB60D928AD34F
S11343A0A091A40FB091A50FCD91CDBFDD91DEBF3B
S11343B0FF91EF91DF91CF91BF91AF919F918F9139
S11343C07F916F915F914F913F912F911F910F9129
S11343D0FF90EF90DF90CF90BF90AF909F908F9021
S11343E07F906F905F904F903F902F901F900F9011
S11343F00FBE0F9008950F920FB6F8940F921F926C
S113440011242F923F924F925F926F927F928F92DC
S11344109F92AF92BF92CF92DF92EF92FF920F934F
S11344201F932F933F934F935F936F937F938F9338
S11344309F93AF93BF93CF93DF93EF93FF93A09199
S1134440A40FB091A50F0DB60D920EB60D9295D195
S113445031D3A091A40FB091A50FCD91CDBFDD9123
S1134460DEBFFF91EF91DF91CF91BF91AF919F910B
S11344708F917F916F915F914F913F912F911F91F8
S11344800F91FF90EF90DF90CF90BF90AF909F90EF
S11344908F907F906F905F904F903F902F901F90E0
S11344A00F900FBE0F900895A6DF1895CF93DF935A
S11344B0EC01E091A40FF091A50F93838283809186
S11344C0540F9091550FC817D90768F46091A40F41
S11344D07091A50F80916A0F90916B0F6E5F7F4F63
S11344E00E941B0217C06091A40F7091A50F8091C8
S11344F06C0F90916D0F6E5F7F4F0E941B02809135
S1134500C3019091C401C817D90720F4D093C40102
S1134510C093C301DF91CF9108954F925F926F9240
S11345207F928F929F92AF92BF92CF92DF92EF923F
S1134530FF920F931F93CF93DF935C014B013A01DA
S1134540290181E290E00E94BB01EC01892B09F46E
S1134550D3C0C114D10409F0CBC0C3010E94BB0174
S1134560988F8F8B009721F4CE010E94E101C4C083
S1134570A30165EA70E0AFD49301215031098F891A
S1134580988D3C01620E731E48E050E0B401CE01E8
S11345904996A8D418A2102F043008F013E01E8BFB
S11345A06E0182E0C80ED11CC6010E94F001CE014A
S11345B00C960E94F001D987C88784E090E0811BA3
S11345C091099D878C87DB8BCA8BA201B501C3013E
S11345D014DE99838883E114F10419F0F701D1837F
S11345E0C0830FB6F8940F928091560F8F5F80931B
S11345F0560F8091A40F9091A50F892BA9F5D09304
S1134600A50FC093A40F8091560F8130E1F580E887
S11346109FE00E94E20189E89FE00E94E20182E9B2
S11346209FE00E94E2018BE99FE00E94E20187E79C
S11346309FE00E94E2018EE69FE00E94E20181E693
S11346409FE00E94E20188E59FE00E94E20187E783
S11346509FE090936D0F80936C0F8EE69FE0909394
S11346606B0F80936A0F0FC08091510F81110BC0A3
S1134670E091A40FF091A50F8689081720F0D0933C
S1134680A50FC093A40F8E899091530F981710F41F
S11346908093530F90914C0F9F5F90934C0F909188
S11346A0520F981710F48093520F90E09C01220F40
S11346B0331F220F331F220F331F820F931FB601A4
S11346C08058904F0E94F4010F900FBE8091510FBB
S11346D0882351F0E091A40FF091A50F86898017EB
S11346E028F431DE81E009C081E007C081E005C023
S11346F0D88ECF8AC6013CCF8FEFDF91CF911F9127
S11347000F91FF90EF90DF90CF90BF90AF909F906C
S11347108F907F906F905F904F900895AF92BF926B
S1134720CF92DF92EF92FF920F93A12CB12CC12C68
S1134730D12CE12CF12C00E020E030E045E550E004
S113474069E177E081E295E2E8DE813041F4F894B2
S11347508093510F1092550F1092540FBADD0F91A0
S1134760FF90EF90DF90CF90BF90AF90089580912D
S1134770500F8F5F8093500F08950F931F93CF9323
S1134780DF938091500F8111B2C08091540F9091AA
S1134790550F01969093550F8093540F8091540FA9
S11347A09091550F892B99F580916C0F90916D0F15
S11347B020916A0F30916B0F30936D0F20936C0F23
S11347C090936B0F80936A0F80914D0F8F5F80934E
S11347D04D0FE0916C0FF0916D0F8081811107C036
S11347E08FEF9FEF9093C4018093C30110C0E091B9
S11347F06C0FF0916D0F0580F681E02D0680F78136
S1134800E02D828193819093C4018093C301209110
S1134810540F3091550F8091C3019091C401281712
S1134820390708F469C0E0916C0FF0916D0F808135
S1134830882399F0E0916C0FF0916D0F0580F6815B
S1134840E02DC681D7818A819B812091540F3091BC
S1134850550F28173907F8F419C08FEF9FEF90937D
S1134860C4018093C30148C0E0916C0FF0916D0FB7
S11348700580F681E02DC681D7818A819B812091B4
S1134880540F3091550F2817390728F49093C40119
S11348908093C30131C08E010E5F1F4FC8010E9477
S11348A056028C899D89892B21F0CE010C960E9499
S11348B056028E899091520F981710F48093520FDC
S11348C090E09C01220F331F220F331F220F331F4E
S11348D0820F931FB8018058904F0E94F401E09119
S11348E06C0FF0916D0F80818111BECFB6CF809196
S11348F04F0F8F5F80934F0FDF91CF911F910F91D7
S11349000895CF92DF92EF92FF920F931F93CF936C
S1134910DF930FB6F8940F928091500F81508093DB
S1134920500F8091500F811162C08091560F8111F8
S113493032C060C0D7011596ED91FC911697C681DF
S1134940D781CE010C960E9456028E010E5F1F4F36
S1134950C8010E9456028E899091520F981710F444
S11349608093520F90E09C01220F331F220F331FBC
S1134970220F331F820F931FB8018058904F0E945B
S1134980F401E091A40FF091A50F9E8986899817F0
S113499058F0DC2C09C0D12C0F2EF1E6EF2EFFE0ED
S11349A0FF2EF02DCC24C394F70180818111C2CF56
S11349B080914F0F882379F080914F0F882391F0D5
S11349C0DCDE80914F0F815080934F0F80914F0F09
S11349D08111F6CF07C0F1E0DF1621F080914E0F70
S11349E0813039F410924E0FAEDC81E003C080E0D8
S11349F001C080E00F900FBEDF91CF911F910F9106
S1134A00FF90EF90DF90CF900895CF93DF93EC0168
S1134A10892B99F0ACDE8091540F9091550FC80FFB
S1134A20D91F8091A40F9091A50F02960E9456025F
S1134A30CE013CDD66DF811101C085DCDF91CF91C1
S1134A4008950F2EF8E5EF2EFFE0FF2EF02DC0E8BD
S1134A50DFE08091570F882341F189DED7011C9153
S1134A6050DF112311F10FB6F8940F92D701159668
S1134A70ED91FC91169706811781C80102960E9458
S1134A8056028091560F81508093560F8091570F94
S1134A9081508093570F0F900FBEF8018789908D36
S1134AA00E94E101C8010E94E1018881823088F2FC
S1134AB04ADCCFCF8091500F811113C08091520FE7
S1134AC090E0FC01EE0FFF1FEE0FFF1FEE0FFF1F24
S1134AD08E0F9F1FFC01E058F04F8081882329F03E
S1134AE01BC081E080934E0F08958091520F815036
S1134AF08093520F8091520F90E0FC01EE0FFF1F44
S1134B00EE0FFF1FEE0FFF1F8E0F9F1FFC01E058DB
S1134B10F04F8081882349F38091520F90E09C01EB
S1134B20220F331F220F331F220F331F280F391F69
S1134B30D901A058B04F1196ED91FC9112970280C3
S1134B40F381E02D1296FC93EE9311972D57304F7D
S1134B50E217F30729F422813381FD013283218393
S1134B60FC01EE0FFF1FEE0FFF1FEE0FFF1F8E0F56
S1134B709F1FFC01E058F04F0180F281E02D8681F7
S1134B8097819093A50F8093A40F08950CD0BAC079
S1134B90B2D040F0A9D030F021F45F3F19F09BC0AF
S1134BA05111E4C09EC0BFD098F39923C9F3552393
S1134BB0B1F3951B550BBB27AA276217730784070C
S1134BC038F09F5F5F4F220F331F441FAA1FA9F3C2
S1134BD033D00E2E3AF0E0E830D091505040E695B4
S1134BE0001CCAF729D0FE2F27D0660F771F881F15
S1134BF0BB1F261737074807AB07B0E809F0BB0B04
S1134C00802DBF01FF2793585F4F2AF09E3F510527
S1134C1068F061C0ABC05F3FECF3983EDCF386956F
S1134C2077956795B795F7959F5FC9F7880F911D9D
S1134C309695879597F90895E1E0660F771F881F89
S1134C40BB1F621773078407BA0720F0621B730B3C
S1134C50840BBA0BEE1F88F7E0950895E89409C019
S1134C6097FB3EF490958095709561957F4F8F4F9B
S1134C709F4F9923A9F0F92F96E9BB279395F695B1
S1134C80879577956795B795F111F8CFFAF4BB0F2F
S1134C9011F460FF1BC06F5F7F4F8F4F9F4F16C093
S1134CA0882311F096E911C0772321F09EE8872F1D
S1134CB0762F05C0662371F096E8862F70E060E0D9
S1134CC02AF09A95660F771F881FDAF7880F969552
S1134CD0879597F9089597F99F6780E870E060E0F9
S1134CE008959FEF80EC089500240A941616170681
S1134CF018060906089500240A94121613061406C9
S1134D0005060895092E0394000C11F4882352F02B
S1134D10BB0F40F4BF2B11F460FF04C06F5F7F4FE3
S1134D208F4F9F4F089557FD9058440F551F59F0CA
S1134D305F3F71F04795880F97FB991F61F09F3F84
S1134D4079F087950895121613061406551FF2CFAD
S1134D504695F1DF08C0161617061806991FF1CFFD
S1134D6086957105610508940895E894BB27662724
S1134D707727CB0197F9089566D008F48FEF08954B
S1134D800BD0C0CFB1DF28F0B6DF18F0952309F0BF
S1134D90A2CFA7CF1124EACFC6DFA0F3959FD1F30A
S1134DA0950F50E0551F629FF001729FBB27F00DD5
S1134DB0B11D639FAA27F00DB11DAA1F649F66272A
S1134DC0B00DA11D661F829F2227B00DA11D621F79
S1134DD0739FB00DA11D621F839FA00D611D221F33
S1134DE0749F3327A00D611D231F849F600D211D17
S1134DF0822F762F6A2F11249F5750408AF0E1F0BA
S1134E0088234AF0EE0FFF1FBB1F661F771F881F02
S1134E1091505040A9F79E3F510570F05CCFA6CF4A
S1134E205F3FECF3983EDCF3869577956795B795ED
S1134E30F795E7959F5FC1F7FE2B880F911D969517
S1134E40879597F90895990F0008550FAA0BE0E884
S1134E50FEEF16161706E807F907C0F01216130638
S1134E60E407F50798F0621B730B840B950B39F478
S1134E700A2661F0232B242B252B21F408950A26DE
S1134E8009F4A140A6958FEF811D811D0895991BFA
S1134E9079E004C0991F961708F0961B881F7A952D
S1134EA0C9F780950895EE0FFF1F0024001C0BBE68
S1134EB00790F691E02D0994A29FB001B39FC00121
S1134EC0A39F700D811D1124911DB29F700D811D32
S1134ED01124911D0895DC0101C06D93415050408F
S1134EE0E0F70895FB01DC014150504048F0019087
S1134EF00D920020C9F701C01D9241505040E0F7C7
S1094F000895F894FFCFB0
S1134F0602055F000000005F0000000000000000D2
S1134F160000000000232323232A2A2A2A303030C3
S1134F2630395758593854555637505253364D4ED2
S1134F364F354A4B4C34474849334445463241423F
S1134F4643313131315F202020001403690271029C
S1134F56C801830200005F0000000000000000009A
S1134F6600000000000000003030303030303030B7
S1134F76005F0000000000000000000000000000C8
S1134F860000003030303030303030005F00000038
S1134F9600000000000000000000000000003030A7
S1134FA6303030303030005F000000000000000078
S1134FB60000000000000000003030303030303097
S1134FC6300005FFFF313A204C6971756F7200326B
S1134FD63A204B65797300333A2053657474696ECD
S1134FE6677300313A204472696E6B7300323A205B
S1134FF6557365727300333A2053797374656D0083
S1135006343A204D61696E204D656E7500313A2043
S1135016416464204472696E6B00323A20526570B2
S11350266C61636500333A204D61696E204D656E8F
S11350367500313A20416464205573657200323A32
S11350462044656C657465205573657200456E74FD
S11350566572204E616D650054797065206F662017
S11350666472696E6B00313A204265657200323AA9
S11350762057696E6500333A204C6971756F72006A
S1135086343A204F7468657200456E746572005632
S11350966F6C756D6520286D4C2900456E746572BC
S11350A620416C636F686F6C00436F6E74656E7439
S11350B620250053656C6563742055736572003151
S11350C63A2000323A2000333A2000343A20004E87
S11350D66F20757365727320696E2020207379734F
S11350E674656D2E20507265737320616E79206B22
S11350F6657920746F20676F20746F204D61696E27
S1135106204D656E752E002A5374746E6773207372
S1135116747566662A002320746F2072657475722E
S11351266E005F004D61696E4D656E755461736BFB
S113513600456E74657220796F75720077656967CC
S1135146687420696E206C62730053656C656374C1
S11351562047656E64657200313A204D616C6500C6
S1135166323A2046656D616C65004372656174650B
S11351760050617373776F72640050617373776F55
S113518672643A0053797374656D20697320696E8D
S113519620207573652E2054727920616761696ECB
S11351A6206C61746572005765696768696E67206B
S11351B66B6579730050617373776F72643A20007C
S11351C6416464557365725461736B0052656D6F07
S11351D676650066726F6D2073797374656D3F0032
S11351E62A203D206E6F0023203D207965730052EE
S11351F6656D6F766555736572735461736B0043A1
S1135206616E2774206164642020202020616E79F9
S11352166D6F7265206472696E6B73507265737319
S1135226202320746F20202020636F6E74696E75AE
S11352366500436C6F7365206C6971756F7220200D
S1135246646F6F7220746F2020202020202020633A
S11352566F6E74696E756500206D4C002A20746F3C
S11352662043616E63656C002320746F20436F6E68
S11352766669726D004164644472696E6B5461734D
S11352866B0052656D6F7665206B657973202020FF
S113529666726F6D20736166652E20202020507221
S11352A665737320616E79206B657920746F206352
S11352B66F6E74696E75652E005265706C616365F8
S11352C6206472696E6B2E005468656E20636C6F81
S11352D6736520746865646F6F7220746F20202074
S11352E620202020636F6E74696E75652E004E6FE4
S11352F6206472696E6B202020202020646574650A
S1135306637465642E2020202020507265737320F8
S1135316616E79206B657920746F20636F6E746992
S11353266E75652E005265706C6163654472696EB4
S11353366B5461736B00557365722076657269668A
S113534669656400756E7375636365737366756CFE
S11353566C79005573657256657269667954617322
S11353666B004E6F206472696E6B732020202020C0
S1135376666F756E642E2050726573732020616E9D
S113538679206B657920746F20676F20746F204DC8
S113539661696E204D656E752E004472696E6B20D0
S11353A6686173206265656E72656D6F7665642EDD
S11353B6205072657373616E79206B657920746F02
S11353C620676F20746F204D61696E204D656E7580
S11353D6004465706F736974204B65797300496E78
S11353E6636F7272656374204B6579732E205072F5
S11353F665737320616E79206B657920746F2072F2
S1135406657475726E20746F206D61696E206D65AA
S11354166E7500436C6F7365204B657920446F6F1E
S11354267200456E6A6F792120507265737320206D
S1135436616E79206B657920746F20202020636F5C
S11354466E74696E7565004765744472696E6B5453
S113545661736B004E6F206B65797320696E2073E0
S1135466797374656D2E205072657373616E79203D
S11354766B657920746F20676F20746F204D6169A6
S11354866E204D656E750054696D652052656D61BB
S1135496696E696E670052657475726E204472692E
S11354A66E6B2020616E6420636C6F736520646F7D
S11354B66F720052656D6F7665206B6579732E2069
S11354C620507265737320616E79206B6579207440
S11354D66F20676F20746F204D61696E204D656E75
S11354E6752E004765744B65795461736B0041757D
S11354F6746F4C6F636B4C6971756F72446F6F7226
S11355065461736B004175746F4C6F636B4B6579B3
S1115516446F6F725461736B0049444C45003E
S9030000FC
