:100000004DC1000069C1000067C1000065C100006A
:1000100063C1000061C100005FC100005DC100005C
:100020005BC1000059C1000057C1000055C100006C
:1000300053C100000C9437084FC100004DC10000AF
:100040004BC1000049C1000047C1000045C100008C
:1000500043C1000041C100003FC100003DC100009C
:100060003BC1000039C1000037C1000035C10000AC
:1000700033C1000031C100002FC100002DC10000BC
:100080002BC1000029C1000027C10000220330035A
:100090003E034C035A036803760384039203A003D0
:1000A000AE03BC03D503050418042B045F048804C5
:1000B0009B04AE04EA04FD041005220500000000C4
:1000C0000000005F00000007000700147F147F1489
:1000D000242A7F2A122313086462364955225000CD
:1000E00005030000001C2241000041221C001408EE
:1000F0003E081408083E08080050300000080808B0
:100100000808006060000020100804023E514945C4
:100110003E00427F400042615149462141454B31FA
:100120001814127F1027454545393C4A494930018A
:10013000710905033649494936064949291E0036E1
:100140003600000056360000081422410014141432
:100150001414004122140802015109063249794160
:100160003E7E1111117E7F494949363E414141226F
:100170007F4141221C7F494949417F090909013ECC
:100180004149497A7F0808087F00417F41002040AB
:10019000413F017F081422417F404040407F020CD4
:1001A000027F7F0408107F3E4141413E7F090909DB
:1001B000063E4151215E7F09192946464949493188
:1001C00001017F01013F4040403F1F2040201F3F71
:1001D0004038403F631408146307087008076151F2
:1001E000494543007F41410002040810200041417D
:1001F0007F0004020102044040404040000102042C
:100200000020545454787F484444383844444420AF
:10021000384444487F3854545418087E0901020C6D
:100220005252523E7F0804047800447D4000204032
:10023000443D007F1028440000417F40007C0418AA
:1002400004787C0804047838444444387C1414143A
:1002500008081414187C7C080404084854545420DA
:10026000043F4440203C4040207C1C2040201C3C5B
:100270004030403C44281028440C5050503C4464CA
:10028000544C44000836410000007F000000413615
:1002900008001008081008000000000011241FBE0C
:1002A000CFEFD0E4DEBFCDBF12E0A0E0B1E0ECE8DC
:1002B000F7E100E00BBF02C007900D92A431B10737
:1002C000D9F72AE0A4E1B2E001C01D92AE34B20732
:1002D000E1F7FDD30C94C40B93CECF93DF93EC01E5
:1002E0000E948A092091140230911502C9018C0FD5
:1002F0009D1F8C3D45E0940758F42817390758F4A2
:10030000E901CA5EDD4F909315028093140205C087
:10031000C0E0D0E002C0C0E0D0E00E94540ACE01AC
:10032000DF91CF9108950895FC0103969283818314
:100330002FEF3FEF348323839683858390878783D2
:1003400010820895FC01118610860895CF93DF93E3
:10035000FC01DB0121813281E9018A819B811396B5
:100360009C938E9312978181928115969C938E9384
:1003700014978A819B81EC017D836C83E9017B83E7
:100380006A83728361831996FC93EE931897808138
:100390008F5F8083DF91CF910895CF93DF93EB013F
:1003A000488159814F3F2FEF520731F4DC011796F6
:1003B000ED91FC91189717C0FC013396DC0115965E
:1003C0002D913C911697D9012D913C9142175307DD
:1003D00050F00280F381E02DA281B3812D913C91F8
:1003E00042175307B0F7A281B381BB83AA83159646
:1003F000DC93CE931497FD83EC83D383C2839987D8
:100400008887FC0120812F5F2083DF91CF910895A1
:10041000FC01A281B3818481958115969C938E9372
:100420001497A481B5818281938113969C938E93B6
:100430001297A085B18511968D919C911297E8171E
:10044000F90731F48481958112969C938E931197CC
:10045000118610868C9181508C9308959DD361E014
:1004600080E491E07FD46AE082E08ED461E082E0B3
:1004700091E078D464E182E087D461E08CE091E09F
:1004800071D46EE182E080D461E084E191E06AD4CD
:1004900080C4089581D361E087E191E063D46AE08C
:1004A00082E072D461E080E291E05CD464E182E0B9
:1004B0006BD461E08AE291E055D46EE182E064D4CD
:1004C00061E083E391E04ED468E282E05DD461E0D4
:1004D0008DE391E047D45DC408955ED361E083E28B
:1004E00091E040D46AE082E04FD461E08AE491E098
:1004F00039D464E182E048D461E087E591E032D408
:100500006EE184E141D461E081E591E02BD441C406
:10051000089542D361E08DE291E024D46AE082E064
:1005200033D461E082E691E01DD464E182E02CD412
:1005300061E08EE691E016D46EE182E025D461E0C0
:100540008DE791E00FD468E283E21ED461E086E893
:1005500091E008D41EC408958EEF88B9000086B1DA
:10056000809584FD46C086B1809585FD44C086B1E6
:10057000809586FD42C086B1809590E0880F892FD6
:10058000881F990B9195892BD1F58DEF88B90000C3
:1005900086B1809584FD35C086B1809585FD33C0D8
:1005A00086B1809586FD31C086B1809590E0880F38
:1005B000892F881F990B9195892B49F58BEF88B965
:1005C000000086B1809584FD24C086B1809585FDAC
:1005D00022C086B1809586FD20C086B1809590E0CE
:1005E000880F892F881F990B9195892BC1F480E082
:1005F000089581E3089584E3089587E308958AE2E6
:10060000089582E3089585E3089588E3089580E3DB
:10061000089583E3089586E3089589E3089583E2C6
:10062000089510924D0A1ACF0895E0914D0A8E2F29
:1006300090E08C30910508F0ACC0FC01EA5BFF4F04
:100640000C94A50B89DF8093F60786DF9091F6075F
:1006500089139FC081DF9091F6079817D9F399C04D
:100660007BDF8093F50778DF9091F507891391C0C0
:1006700073DF9091F5079817D9F38BC06DDF8093E6
:10068000F5076ADF9091F507891383C065DF9091C4
:10069000F5079817D9F37DC05FDF8093F4075CDF1F
:1006A0009091F407891375C057DF9091F40798175C
:1006B000D9F36FC051DF8093F3074EDF9091F307BA
:1006C000891367C049DF9091F3079817D9F361C088
:1006D00043DF8093F50740DF9091F507891359C0F8
:1006E0003BDF9091F5079817D9F353C035DF80931E
:1006F000F50732DF9091F50789134BC02DDF9091FC
:10070000F5079817D9F345C027DF8093F20724DF58
:100710009091F20789133DC01FDF9091F20798175F
:10072000D9F337C019DF8093F50716DF9091F507ED
:1007300089132FC011DF9091F5079817D9F329C0BD
:100740000BDF8093F50708DF9091F507891321C02F
:1007500003DF9091F5079817D9F31BC0FDDE809356
:10076000F507FADE9091F507891313C0F5DE909135
:10077000F5079817D9F30DC0EFDE8093F507ECDE8F
:100780009091F507891305C0E7DE9091F50798175A
:10079000D9F3E0914D0A8E2F90E08C30910508F04E
:1007A00063C1FC01EE5AFF4FD0C78091F607813339
:1007B00089F481E080934D0AEFD161E08FE891E008
:1007C000D1D26AE082E0E0D261E08DE991E0CAD264
:1007D000E0C20895823389F482E080934D0ADCD12F
:1007E00061E089EA91E0BED26AE082E0CDD261E0C8
:1007F0008DE991E0B7D2CDC20895833309F041C1AC
:1008000083E080934D0A46CE08958091F5078332A8
:1008100009F037C110924D0A1092F6071092F507B1
:100820001092F4071092F3071092F20717CE089572
:100830008091F507833209F024C110924D0A10927D
:10084000F6071092F5071092F4071092F307109232
:10085000F20704CE08958091F407813329F484E0EF
:1008600080934D0A3ACE0895823329F487E080932D
:100870004D0A4FCE0895833389F48BE080934D0A5F
:100880008BD161E085EB91E06DD26AE082E07CD2B1
:1008900061E08DE991E066D27CC20895843309F06D
:1008A000F0C010924D0A1092F6071092F5071092C0
:1008B000F4071092F3071092F207D0CD08958091BB
:1008C000F307813389F485E080934D0A65D161E0B7
:1008D00084EC91E047D26AE082E056D261E08DE993
:1008E00091E040D256C20895823309F0CAC086E032
:1008F00080934D0A51D161E080ED91E033D26AE0FE
:1009000082E042D261E08DE991E02CD242C20895AA
:100910008091F507833209F0B4C010924D0A10920D
:10092000F6071092F5071092F4071092F307109251
:10093000F20794CD08958091F507833209F0A1C0A4
:1009400010924D0A1092F6071092F5071092F407D4
:100950001092F3071092F20781CD08958091F2076B
:10096000813389F488E080934D0A16D161E08EEDE1
:1009700091E0F8D16AE082E007D261E08DE991E090
:10098000F1D107C20895823389F489E080934D0A3A
:1009900003D161E089EE91E0E5D16AE082E0F4D133
:1009A00061E08DE991E0DED1F4C10895833309F06F
:1009B00068C08AE080934D0AEFD061E086EF91E055
:1009C000D1D16AE082E0E0D161E08DE991E0CAD165
:1009D000E0C108958091F507833209F052C010926A
:1009E0004D0A1092F6071092F5071092F407109234
:1009F000F3071092F20732CD08958091F507833204
:100A000009F03FC010924D0A1092F6071092F507B8
:100A10001092F4071092F3071092F2071FCD089579
:100A20008091F507833269F510924D0A1092F6070E
:100A30001092F5071092F4071092F3071092F20744
:100A40000DCD08958091F5078332D9F410924D0AA7
:100A50001092F6071092F5071092F4071092F30720
:100A60001092F207FBCC089510924D0A1092F607EF
:100A70001092F5071092F4071092F3071092F20704
:100A8000EDCC0895CEDDD1DD8AE090E091D5FBCFAD
:100A9000AF92BF92CF92DF92EF92FF920F93A12C71
:100AA000B12CC12CD12CE12CF12C082F20E030E00E
:100AB00045E550E061E072E082E495E00FD30F91EC
:100AC000FF90EF90DF90CF90BF90AF9008958FE0B0
:100AD00087B980EF88B98FEF8AB91BB827D081E03A
:100AE000D7DFEFD380E090E008955998662311F0A6
:100AF0005B9A15C05B9813C0AC01022E02C05595DD
:100B000047950A94E2F740FF02C05C9A01C05C98E6
:100B10005D9A5D982150310978F7599A089527E038
:100B200030E090E0E9CF60E0E0CF0895CF93DF932D
:100B3000519A529A539A549A559A5A9A599A83ECBE
:100B400099E00197F1F700C000005A988BE594E412
:100B50000197F1F700C000005A9A599881E2E3DF4B
:100B600083E1E1DF86E0DFDF82ECDDDF80E2DBDFF7
:100B700089E0D9DF80E8D7DF80E4D5DFC8EFD1E0B6
:100B800061E080E0B2DF2197D9F788E0CCDF8CE02C
:100B9000CADFDF91CF91089580E8C5DF80E4C3DF2D
:100BA0001092EF091092F009E7EFF7E08FEE99E06D
:100BB0001192E817F907E1F70895262F2695269553
:100BC000269590E034E5239F800D911D1124442348
:100BD00079F0FC01E950F84F677081E090E002C0C5
:100BE000880F991F6A95E2F79081892B8083089579
:100BF000FC01E950F84F677081E090E002C0880F77
:100C0000991F6A95E2F780959081892380830895E2
:100C10005F926F927F928F929F92AF92BF92CF928C
:100C2000DF92EF92FF920F931F93CF93DF93562E95
:100C3000262F30E04901880C991C880C991C820EE3
:100C4000931E181419040CF059C08901000F111FCC
:100C5000000F111F000F111F021B130B612CA82E78
:100C6000B12CC50180975C01AA0CBB1CAA0CBB1C53
:100C7000A80EB91E0F2EF0EFCF2EF9E0DF2EF02DCB
:100C80000F2EFFEEEF2EF9E0FF2EF02D2AC0FE0111
:100C9000249130E0872D652D4CD502C035952795E0
:100CA0008A95E2F720FF09C0F6016081670DF70120
:100CB000808141E0860D81DF08C0F6016081670D0B
:100CC000F701808140E0860D78DF7394872D90E0F6
:100CD00080179107E4F26394862D90E088159905BA
:100CE0006CF410161106BCF7862D652D22D5E50192
:100CF000C80FD11DC454DF4F712CC9CF8091EF09AB
:100D000091E0980F852D880F880F850D890F843508
:100D100018F48093EF090EC01092EF09E0EFF9E0AC
:100D2000808191E0980F852D880F880F880F851995
:100D3000890F80838091F009803320F01092EF09B1
:100D40001092F009DF91CF911F910F91FF90EF90DA
:100D5000DF90CF90BF90AF909F908F907F906F90DB
:100D60005F9008951F93CF93DF93EC0188818823D0
:100D700039F0162F2196612F4BDF89918111FBCF1E
:100D8000DF91CF911F9108958093EF096093F0094F
:100D900008950F931F93CF93DF9380E8C4DE80E420
:100DA000C2DEC7EFD7E00FEE19E061E089919DDE6A
:100DB000C017D107D1F7DF91CF911F910F910895FF
:100DC00031E1FC013083319722E220833197A3E3A4
:100DD000A083319760833197708331971082319768
:100DE00060E8608331971082319762E060833197C9
:100DF00063E06083319764E06083319765E06083EE
:100E0000319766E06083319767E06083319768E0EF
:100E10006083319769E06083319760E16083319747
:100E20003083319732E13083319733E1308331972A
:100E300034E13083319735E13083319736E13083C7
:100E4000319737E13083319738E13083319739E199
:100E50003083319730E23083319731E230833197FC
:100E60002083319723E22083319740833197508349
:100E7000319726E22083319727E22083319728E2B9
:100E80002083319729E22083319720E32083319713
:100E900021E3208386970895109289008CE7809340
:100EA00088008BE080938100EFE6F0E08081826033
:100EB0008083A091490AB0914A0ACD91CDBFDD91BE
:100EC000DEBFFF91EF91DF91CF91BF91AF919F91E5
:100ED0008F917F916F915F914F913F912F911F91D2
:100EE0000F91FF90EF90DF90CF90BF90AF909F90C9
:100EF0008F907F906F905F904F903F902F901F90BA
:100F00000F900FBE0F90089581E008950F920FB6D5
:100F1000F8940F921F9211242F923F924F925F925A
:100F20006F927F928F929F92AF92BF92CF92DF92F9
:100F3000EF92FF920F931F932F933F934F935F93E3
:100F40006F937F938F939F93AF93BF93CF93DF93D1
:100F5000EF93FF93A091490AB0914A0A0DB60D9202
:100F60000EB60D927AD3A091490AB0914A0ACD915A
:100F7000CDBFDD91DEBFFF91EF91DF91CF91BF91AA
:100F8000AF919F918F917F916F915F914F913F9121
:100F90002F911F910F91FF90EF90DF90CF90BF9016
:100FA000AF909F908F907F906F905F904F903F9009
:100FB0002F901F900F900FBE0F9008950F920FB6B5
:100FC000F8940F921F9211242F923F924F925F92AA
:100FD0006F927F928F929F92AF92BF92CF92DF9249
:100FE000EF92FF920F931F932F933F934F935F9333
:100FF0006F937F938F939F93AF93BF93CF93DF9321
:10100000EF93FF93A091490AB0914A0A0DB60D9251
:101010000EB60D9285D121D3A091490AB0914A0A0A
:10102000CD91CDBFDD91DEBFFF91EF91DF91CF91EB
:10103000BF91AF919F918F917F916F915F914F91F0
:101040003F912F911F910F91FF90EF90DF90CF90E4
:10105000BF90AF909F908F907F906F905F904F90D8
:101060003F902F901F900F900FBE0F900895A6DF16
:101070001895CF93DF93EC01E091490AF0914A0A69
:10108000938382838091F9099091FA09C817D9074F
:1010900060F46091490A70914A0A80910F0A909118
:1010A000100A6E5F7F4F79D916C06091490A70911E
:1010B0004A0A8091110A9091120A6E5F7F4F6DD992
:1010C0008091000190910101C817D90720F4D093B5
:1010D0000101C0930001DF91CF9108954F925F927B
:1010E0006F927F928F929F92AF92BF92CF92DF9238
:1010F000EF92FF920F931F93CF93DF935C014B010D
:101100003A01290181E290E0E8D8EC01892B09F449
:10111000C6C0C114D10409F0BEC0C301DED8988F87
:101120008F8B009719F4CE01FED8B9C0A30165EAF0
:1011300070E014D39301215031098F89988D3C01BF
:10114000620E731E48E050E0B401CE0149960DD303
:1011500018A2102F043008F013E01E8B6E0182E0FD
:10116000C80ED11CC601EED8CE010C96EBD8D9879B
:10117000C88784E090E0811B91099D878C87DB8B79
:10118000CA8BA201B501C3011BDE99838883E114D8
:10119000F10419F0F701D183C0830FB6F8940F92D0
:1011A0008091FB098F5F8093FB098091490A9091A0
:1011B0004A0A892B69F5D0934A0AC093490A80915B
:1011C000FB098130A1F585E29AE0AED88EE29AE083
:1011D000ABD887E39AE0A8D880E49AE0A5D88CE160
:1011E0009AE0A2D883E19AE09FD886E09AE09CD862
:1011F0008DEF99E099D88CE19AE09093120A809350
:10120000110A83E19AE09093100A80930F0A0FC0AD
:101210008091F60981110BC0E091490AF0914A0AC8
:101220008689081720F0D0934A0AC093490A8E890C
:101230009091F809981710F48093F8099091F109AA
:101240009F5F9093F1099091F709981710F480939C
:10125000F70990E09C01220F331F220F331F220F4A
:10126000331F820F931FB6018B5D954F6FD80F9080
:101270000FBE8091F609882351F0E091490AF09160
:101280004A0A8689801728F441DE81E009C081E09E
:1012900007C081E005C0D88ECF8AC60147CF8FEF47
:1012A000DF91CF911F910F91FF90EF90DF90CF9042
:1012B000BF90AF909F908F907F906F905F904F9076
:1012C0000895AF92BF92CF92DF92EF92FF920F9369
:1012D000A12CB12CC12CD12CE12CF12C00E020E070
:1012E00030E045E550E06EE072E084EF9AE0F6DE33
:1012F000813041F4F8948093F6091092FA09109223
:10130000F909CADD0F91FF90EF90DF90CF90BF9069
:10131000AF9008958091F5098F5F8093F509089546
:101320000F931F93CF93DF938091F5098111B2C082
:101330008091F9099091FA0901969093FA098093A6
:10134000F9098091F9099091FA09892B99F5809111
:10135000110A9091120A20910F0A3091100A3093CD
:10136000120A2093110A9093100A80930F0A809119
:10137000F2098F5F8093F209E091110AF091120A4D
:101380008081811107C08FEF9FEF909301018093BF
:10139000000110C0E091110AF091120A0580F68157
:1013A000E02D0680F781E02D8281938190930101E9
:1013B000809300012091F9093091FA098091000190
:1013C000909101012817390708F469C0E091110ACA
:1013D000F091120A8081882399F0E091110AF0912E
:1013E000120A0580F681E02DC681D7818A819B8112
:1013F0002091F9093091FA0928173907F8F419C032
:101400008FEF9FEF909301018093000148C0E0911E
:10141000110AF091120A0580F681E02DC681D7816C
:101420008A819B812091F9093091FA09281739079F
:1014300028F4909301018093000131C08E010E5F6A
:101440001F4FC8010E9408028C899D89892B21F0B9
:10145000CE010C960E9408028E899091F709981788
:1014600010F48093F70990E09C01220F331F220FA4
:10147000331F220F331F820F931FB8018B5D954FCF
:101480000E94A601E091110AF091120A8081811157
:10149000BECFB6CF8091F4098F5F8093F409DF91BE
:1014A000CF911F910F910895CF92DF92EF92FF920B
:1014B0000F931F93CF93DF930FB6F8940F92809101
:1014C000F50981508093F5098091F509811162C079
:1014D0008091FB09811132C060C0D7011596ED9152
:1014E000FC911697C681D781CE010C960E94080206
:1014F0008E010E5F1F4FC8010E9408028E899091D5
:10150000F709981710F48093F70990E09C01220FD7
:10151000331F220F331F220F331F820F931FB80177
:101520008B5D954F0E94A601E091490AF0914A0A0D
:101530009E898689981758F0DC2C09C0D12C0F2E73
:10154000F6E0EF2EFAE0FF2EF02DCC24C394F70145
:1015500080818111C2CF8091F409882379F0809134
:10156000F409882391F0DCDE8091F40981508093A6
:10157000F4098091F4098111F6CF07C0F1E0DF167C
:1015800021F08091F309813039F41092F309BEDC27
:1015900081E003C080E001C080E00F900FBEDF91CA
:1015A000CF911F910F91FF90EF90DF90CF90089512
:1015B000CF93DF93EC01892B99F0ACDE8091F90990
:1015C0009091FA09C80FD91F8091490A90914A0A4F
:1015D00002960E940802CE014CDD66DF811101C037
:1015E00095DCDF91CF9108950F2EFDEFEF2EF9E0FE
:1015F000FF2EF02DC5E2DAE08091FC09882341F14D
:1016000089DED7011C9150DF112311F10FB6F89438
:101610000F92D7011596ED91FC91169706811781CF
:10162000C80102960E9408028091FB0981508093B4
:10163000FB098091FC0981508093FC090F900FBE3B
:10164000F8018789908D0E949301C8010E9493013F
:101650008881823088F25ADCCFCF8091F5098111E0
:1016600013C08091F70990E0FC01EE0FFF1FEE0F11
:10167000FF1FEE0FFF1F8E0F9F1FFC01EB5DF54F4D
:101680008081882329F01BC081E08093F3090895AD
:101690008091F70981508093F7098091F70990E0D4
:1016A000FC01EE0FFF1FEE0FFF1FEE0FFF1F8E0F4F
:1016B0009F1FFC01EB5DF54F8081882349F38091EA
:1016C000F70990E09C01220F331F220F331F220FD6
:1016D000331F280F391FD901AB5DB54F1196ED911E
:1016E000FC9112970280F381E02D1296FC93EE9309
:1016F0001197285D354FE217F30729F422813381D2
:10170000FD0132832183FC01EE0FFF1FEE0FFF1F4F
:10171000EE0FFF1F8E0F9F1FFC01EB5DF54F018049
:10172000F281E02D8681978190934A0A8093490A3D
:101730000895991B79E004C0991F961708F0961B2D
:10174000881F7A95C9F780950895EE0FFF1F002432
:10175000001C0BBE0790F691E02D0994DC0101C03E
:101760006D9341505040E0F70895FB01DC0141507A
:10177000504048F001900D920020C9F701C01D9221
:0C17800041505040E0F70895F894FFCF6E
:10178C00FFFF313A204C6971756F7200323A204B71
:10179C0065797300333A2053657474696E6773000E
:1017AC00313A204472696E6B7300323A205573657E
:1017BC00727300333A2053797374656D00343A2098
:1017CC004D61696E204D656E7500313A204164643F
:1017DC00204472696E6B00323A205265706C616302
:1017EC006500313A20416464205573657200323AC9
:1017FC002044656C657465205573657200333A201E
:10180C0052657365740050617373776F7264002A4C
:10181C004472696E6B2073747566662A002320749B
:10182C006F2072657475726E002A4B657920537443
:10183C007566662A002A5374746E67732073747508
:10184C0066662A002A416464204472696E6B2A0021
:10185C002A5265706C63652044726E6B2A002A41B3
:10186C00646420557365722A002A52656D6F766523
:10187C00205573722A002A52737420506173732A94
:10188C00004D61696E4D656E755461736B00494412
:04189C004C450000B7
:00000001FF
