S01000004D61696E4D656E752E73726563FA
S113000069C1000086C1000084C1000082C10000F3
S113001080C100007EC100007CC100007AC10000E4
S113002078C1000076C1000074C1000072C10000F4
S113003070C100000C9445196CC100006AC1000035
S113004068C1000066C1000064C1000062C1000014
S113005060C100005EC100005CC100005AC1000024
S113006058C1000056C1000054C1000052C1000034
S113007050C100004EC100004CC100004AC1000044
S113008048C1000046C1000044C100007A0588054B
S11300909605A405B205C005CE05DC05EA05F805FC
S11300A0060614062E0668067B068E06C706FC06A0
S11300B00E0721074A0752075A076C07640BC00B47
S11300C00B0C570C920CDD0C8D0D640BC00B0B0C40
S11300D0570C920CD90C8D0D640BBC0B0B0C570CEC
S11300E0920CD90C8D0D640BC00B0B0C570C920C9D
S11300F0D90C8D0D000000000000005F0000000717
S1130100000700147F147F14242A7F2A1223130863
S1130110646236495522500005030000001C224148
S1130120000041221C0014083E081408083E080878
S11301300050300000080808080800606000002033
S1130140100804023E5149453E00427F400042618E
S11301505149462141454B311814127F102745451A
S113016045393C4A49493001710905033649494931
S113017036064949291E003636000000563600006E
S11301800814224100141414141400412214080207
S113019001510906324979413E7E1111117E7F4990
S11301A04949363E414141227F4141221C7F494910
S11301B049417F090909013E4149497A7F080808F4
S11301C07F00417F41002040413F017F08142241CC
S11301D07F404040407F020C027F7F0408107F3E36
S11301E04141413E7F090909063E4151215E7F0993
S11301F0192946464949493101017F01013F4040DF
S1130200403F1F2040201F3F4038403F63140814E4
S11302106307087008076151494543007F41410065
S113022002040810200041417F000402010204403E
S113023040404040000102040020545454787F4858
S11302404444383844444420384444487F3854545F
S11302505418087E0901020C5252523E7F080404CD
S11302607800447D40002040443D007F1028440035
S113027000417F40007C041804787C08040478382A
S1130280444444387C14141408081414187C7C085E
S11302900404084854545420043F4440203C404043
S11302A0207C1C2040201C3C4030403C442810282A
S11302B0440C5050503C4464544C440008364100B3
S11302C000007F00000041360800100808100800F4
S11302D00000000011241FBECFEFD0E4DEBFCDBF6D
S11302E014E0A0E0B1E0E4E3FAE300E00BBF02C0F5
S11302F007900D92AA30B107D9F72CE0AAE0B4E038
S113030001C01D92A138B207E1F70E946D160C944A
S1130310181D76CECF93DF93EC010E94A81A20918A
S11303200A0430910B04C9018C0F9D1F8C3D45E0DC
S1130330940758F42817390758F4E901C45FDB4FD0
S113034090930B0480930A0405C0C0E0D0E002C07F
S1130350C0E0D0E00E94721BCE01DF91CF910895DE
S11303600895FC010396928381832FEF3FEF34833A
S11303702383968385839087878310820895FC0165
S1130380118610860895CF93DF93FC01DB01218150
S11303903281E9018A819B8113969C938E931297F3
S11303A08181928115969C938E9314978A819B8167
S11303B0EC017D836C83E9017B836A8372836183AF
S11303C01996FC93EE93189780818F5F8083DF9159
S11303D0CF910895CF93DF93EB01488159814F3F2B
S11303E02FEF520731F4DC011796ED91FC91189729
S11303F017C0FC013396DC0115962D913C9116979C
S1130400D9012D913C914217530750F00280F3819A
S1130410E02DA281B3812D913C9142175307B0F78F
S1130420A281B381BB83AA831596DC93CE931497E0
S1130430FD83EC83D383C28399878887FC01208161
S11304402F5F2083DF91CF910895FC01A281B381B6
S11304508481958115969C938E931497A481B5817C
S11304608281938113969C938E931297A085B18574
S113047011968D919C911297E817F90731F48481B4
S1130480958112969C938E931197118610868C9168
S113049081508C9308950E94DA1661E082E292E022
S11304A00E94C0176AE082E00E94D21761E08FEBDD
S11304B091E00E94C01764E182E00E94D21761E0DB
S11304C089EC91E00E94C0176EE182E00E94D2178D
S11304D061E081ED91E00E94C0170C94D717089554
S11304E00E94DA1661E084ED91E00E94C0176AE090
S11304F082E00E94D21761E08DED91E00E94C01766
S113050064E182E00E94D21761E087EE91E00E94EC
S1130510C0176EE182E00E94D21761E080EF91E0A3
S11305200E94C01768E282E00E94D21761E08AEF5D
S113053091E00E94C0170C94D71708950E94DA1610
S113054061E080EE91E00E94C0176AE082E00E94C0
S1130550D21761E087E092E00E94C01764E182E074
S11305600E94D21761E084E192E00E94C0176EE11C
S113057084E10E94D21761E08EE092E00E94C017ED
S113058068E282E00E94D21761E08FE192E00E946B
S1130590C0170C94D71708950E94DA1661E08AEE0A
S11305A091E00E94C0176AE082E00E94D21761E0E5
S11305B08CE292E00E94C01764E182E00E94D217AC
S11305C061E088E392E00E94C0176EE182E00E943D
S11305D0D21761E08FE192E00E94C0170C94D71704
S11305E00895CF93DF93EC010E94DA1661E087E46B
S11305F092E00E94C0176AE080E00E94D21761E096
S1130600CE010E94C0170E94D717DF91CF910895A1
S11306108EEF88B9000086B1809584FD46C086B10E
S1130620809585FD44C086B1809586FD42C086B123
S1130630809590E0880F892F881F990B9195892BBD
S1130640D1F58DEF88B9000086B1809584FD35C061
S113065086B1809585FD33C086B1809586FD31C015
S113066086B1809590E0880F892F881F990B91950A
S1130670892B49F58BEF88B9000086B1809584FDFC
S113068024C086B1809585FD22C086B1809586FD03
S113069020C086B1809590E0880F892F881F990B20
S11306A09195892BC1F480E0089581E3089584E352
S11306B0089587E308958AE2089582E3089585E31F
S11306C0089588E3089580E3089583E3089586E315
S11306D0089589E3089583E208950E94DA1661E09B
S11306E082E592E00E94C0176AE082E00E94D2177D
S11306F061E080E692E00E94C01764E182E00E941B
S1130700D21761E088E692E00E94C0176EE182E0B1
S11307100E94D21761E080E792E00E94C01768E26D
S113072082E00E94D21761E08AE792E00E94C0173B
S11307300C94D71708950E94DA1661E083E892E0DA
S11307400E94C0176AE080E00E94D21761E089E845
S113075092E00E94C0170C94D71708950E94DA16ED
S113076061E085E992E00E94C0176AE080E00E949F
S1130770D21761E083EA92E00E94C0170C94D71765
S1130780089510921B0A10921A0AE4E4F1E08FE52E
S1130790808311821282138208950E94DA16809156
S11307A01D0A8130B1F461E08DEA92E00E94C01725
S11307B06AE080E00E94D21761E089EB92E00E9437
S11307C0C01761E085E591E00E94C0170C94D7172B
S11307D00895823021F561E08DEA92E00E94C0170D
S11307E06AE080E00E94D21761E089EB92E00E9407
S11307F0C01761E085E591E00E94C01764E180E0E4
S11308000E94D21761E08DEB92E00E94C01761E074
S11308108FE691E00E94C0170C94D7170895833097
S113082091F561E08DEA92E00E94C0176AE080E0F1
S11308300E94D21761E089EB92E00E94C01761E048
S113084085E591E00E94C01764E180E00E94D21720
S113085061E08DEB92E00E94C01761E08FE691E0C9
S11308600E94C0176EE180E00E94D21761E081EC23
S113087092E00E94C01761E089E891E00E94C017ED
S11308800C94D7170895843009F040C061E08DEAD4
S113089092E00E94C0176AE080E00E94D21761E0F3
S11308A089EB92E00E94C01761E085E591E00E9427
S11308B0C01764E180E00E94D21761E08DEB92E002
S11308C00E94C01761E08FE691E00E94C0176EE1BC
S11308D080E00E94D21761E081EC92E00E94C01790
S11308E061E089E891E00E94C01768E280E00E941C
S11308F0D21761E085EC92E00E94C01761E083EAC0
S113090091E00E94C0170C94D717089561E089EC18
S113091092E00E94C0170C94D71708952FC04091FD
S11309200F0A5091100A6091110A7091120A48320C
S113093051056105710549F410920F0A1092100ACD
S11309401092110A1092120A089587EA91E601970B
S1130950F1F700C0000080910F0A9091100AA09155
S1130960110AB091120A0196A11DB11D80930F0ABC
S11309709093100AA093110AB093120A49DE80934F
S11309807D0C882361F244DE80937F0C90917D0C72
S11309908917C9F310920F0A1092100A1092110AC3
S11309A01092120A8091150A98138AC02091130A92
S11309B03091140A2330310538F42F5F3F4F3093C0
S11309C0140A2093130A04C01092140A1092130AF2
S11309D0813341F4E091130AF091140AE05CFE4F74
S11309E080810895823341F4E091130AF091140A4E
S11309F0E45CFE4F80810895833341F4E091130A4F
S1130A00F091140AE85CFE4F80810895843341F428
S1130A10E091130AF091140AEC5CFE4F8081089572
S1130A20853341F4E091130AF091140AE05DFE4F1E
S1130A3080810895863341F4E091130AF091140AF9
S1130A40E45DFE4F80810895873341F4E091130AF9
S1130A50F091140AE85DFE4F80810895883341F4D3
S1130A60E091130AF091140AEC5DFE4F8081089521
S1130A70893341F4E091130AF091140AE05EFE4FC9
S1130A8080810895803341F4E091130AF091140AAF
S1130A90E45EFE4F808108958A3241F4E091130AA6
S1130AA0F091140AE85EFE4F80810895833271F458
S1130AB0E091130AF091140AEC5EFE4F80810895D0
S1130AC09093150A1092140A1092130A8091150A31
S1130AD008951092800CDFCC0895E091800C8E2F45
S1130AE090E08C30910508F0ACC0FC01EA5BFF4F4C
S1130AF00C94EA1C8DDD8093240A8ADD9091240AEB
S1130B0089139FC085DD9091240A9817D9F399C061
S1130B107FDD8093230A7CDD9091230A891391C0A1
S1130B2077DD9091230A9817D9F38BC071DD8093F8
S1130B30230A6EDD9091230A891383C069DD9091A5
S1130B40230A9817D9F37DC063DD8093220A60DD00
S1130B509091220A891375C05BDD9091220A98173F
S1130B60D9F36FC055DD8093210A52DD9091210A9B
S1130B70891367C04DDD9091210A9817D9F361C09C
S1130B8047DD8093230A44DD9091230A891359C0D9
S1130B903FDD9091230A9817D9F353C039DD809330
S1130BA0230A36DD9091230A89134BC031DD9091DD
S1130BB0230A9817D9F345C02BDD8093200A28DD3A
S1130BC09091200A89133DC023DD9091200A981743
S1130BD0D9F337C01DDD8093230A1ADD9091230ACF
S1130BE089132FC015DD9091230A9817D9F329C0D2
S1130BF00FDD8093230A0CDD9091230A891321C011
S1130C0007DD9091230A9817D9F31BC001DD809367
S1130C10230AFEDC9091230A891313C0F9DC909116
S1130C20230A9817D9F30DC0F3DC8093230AF0DC70
S1130C309091230A891305C0EBDC9091230A98173D
S1130C40D9F3E091800C8E2F90E08C30910508F060
S1130C5055C1FC01EE5AFF4F0C94EA1C8091240A02
S1130C608133B1F481E08093800C0E94DA1661E054
S1130C7083ED92E00E94C0176AE082E00E94D217DE
S1130C8061E081EE92E00E94C0170C94D71708959A
S1130C908233B1F482E08093800C0E94DA1661E022
S1130CA08DEE92E00E94C0176AE082E00E94D217A3
S1130CB061E081EE92E00E94C0170C94D71708956A
S1130CC0833309F028C183E08093800C09CC089514
S1130CD08091230A833209F01EC11092800C109275
S1130CE0240A1092230A1092220A1092210A1092C6
S1130CF0200AD1CB08958091230A833209F00BC1D5
S1130D001092800C1092240A1092230A1092220A44
S1130D101092210A1092200ABECB08958091220AD3
S1130D20813329F484E08093800C08CC08958233C5
S1130D3029F487E08093800C2FCC08958333B1F499
S1130D408BE08093800C0E94DA1661E089EF92E0D8
S1130D500E94C0176AE082E00E94D21761E081EE2F
S1130D6092E00E94C0170C94D7170895843309F0B9
S1130D70D2C01092800C1092240A1092230A10926E
S1130D80220A1092210A1092200A85CB089580919C
S1130D90210A813341F4A1DC81E080931C0A85E0BF
S1130DA08093800C08958233B1F486E08093800CA4
S1130DB00E94DA1661E088E093E00E94C0176AE0BE
S1130DC082E00E94D21761E081EE92E00E94C01797
S1130DD00C94D7170895833309F09DC01092800CAA
S1130DE01092240A1092230A1092220A1092210AC5
S1130DF01092200A50CB089580911C0A81118BC057
S1130E001092800C1092240A1092230A1092220A43
S1130E101092210A1092200A3ECB08958091230A51
S1130E20833209F078C01092800C1092240A109238
S1130E30230A1092220A1092210A1092200A2BCB24
S1130E4008958091200A813351F488E08093800CC6
S1130E5081E080931F0A86E193E0C3CB0895823337
S1130E6041F489E08093800C81E080931E0A95CC44
S1130E700895833309F04FC01092800C1092240A15
S1130E801092230A1092220A1092210A1092200A28
S1130E9002CB089580911F0A81113DC0FCDA1092A3
S1130EA0800C089580911E0A811135C0F4DA1092E5
S1130EB0800C08958091230A833269F51092800C86
S1130EC01092240A1092230A1092220A1092210AE4
S1130ED01092200AE0CA08958091230A8332D9F43B
S1130EE01092800C1092240A1092230A1092220A63
S1130EF01092210A1092200ACECA08951092800CF2
S1130F001092240A1092230A1092220A1092210AA3
S1130F101092200AC0CA0895DCDDDFDD8AE090E08B
S1130F200E94F61BFACFAF92BF92CF92DF92EF925C
S1130F30FF920F93A12CB12CC12CD12CE12CF12CBC
S1130F40082F20E030E045E550E068E173E08CE8EC
S1130F5097E00E947E190F91FF90EF90DF90CF9061
S1130F60BF90AF9008959091020A8091F909981367
S1130F700FC0E3E0FAE0AAEFB9E02AE03AE0919189
S1130F808D91981307C0E217F307C9F781E008951C
S1130F9080E0089580E00895EF92FF920F931F93ED
S1130FA0CF93DF9380917A0C833009F45CC130F4E1
S1130FB0813069F0823009F45CC079C3853009F46A
S1130FC081C208F4DEC1863009F449C370C3A6DCCB
S1130FD08093F7091092F609833209F4D2C5CFE55C
S1130FE08A32B1F4E0910E0AEE2371F0E150E093FD
S1130FF00E0AF0E0EA5FFE4FC08311821092F609F8
S113100086E091E0EEDA28C086E091E0EADA24C0D6
S1131010882369F0E0910E0AF0E0EA5FFE4F8083D6
S113102011828093F60986E091E0DBDA15C08091A5
S1131030F609882389F0E0910E0AE93068F4EF5F3D
S1131040E0930E0AF0E0EA5FFE4FC0831182109233
S1131050F60986E091E0C5DA61DC8093F709833212
S113106009F0BECF8EC58FE493EC0197F1F700C071
S11310700000CEDA8093F7098823A9F306C0EFE4D1
S1131080F3EC3197F1F700C00000C2DA8093F6095F
S11310909091F709891799F3C1E0D1E01FE5D7C012
S11310A0882309F4C1C08A3209F496C020910C0A3D
S11310B030910D0A2115310521F5282F30E02053F8
S11310C0310930930D0A20930C0A88830E94DA16A2
S11310D061E085E293E00E94C0176AE080E00E942C
S11310E0D21761E080E393E00E94C01764E180E0DE
S11310F00E94D21761E0CE010E94C0170E94D71748
S113110093C0A901415051094930510578F5A9010D
S1131110440F551F220F331F220F331F220F331F7B
S1131120240F351F280F311D2053310930930D0A28
S113113020930C0A89830E94DA1661E085E293E029
S11311400E94C0176AE080E00E94D21761E080E349
S113115093E00E94C01764E180E00E94D21761E02E
S1131160CE010E94C0170E94D7175EC0A9014A5041
S113117051094A35510508F057C0A901440F551FBC
S1131180220F331F220F331F220F331F240F351F4B
S1131190280F311D2053310930930D0A20930C0A76
S11311A08A830E94DA1661E085E293E00E94C01708
S11311B06AE080E00E94D21761E080E393E00E943D
S11311C0C01764E180E00E94D21761E0CE010E9462
S11311D0C0170E94D71728C010920D0A10920C0A4B
S11311E0188319821A820E94DA1661E085E293E07C
S11311F00E94C0176AE080E00E94D21761E080E399
S113120093E00E94C01764E180E00E94D21761E07D
S1131210CE010E94C0170E94D71706C087EA91E644
S11312200197F1F700C00000F3D98093F7098823F0
S1131230A9F306C0E7EAF1E63197F1F700C0000030
S1131240E7D98093F6099091F709891799F380916A
S1131250F709833209F024CF94C48FE493EC019707
S1131260F1F700C00000D4D98093F7098823A9F3CB
S113127006C0EFE4F3EC3197F1F700C00000C8D9E1
S11312808093F6099091F709891799F3C1E0D2E0A8
S11312906CC0813331F5C0930B0A0E94DA166C2FAF
S11312A08EE393E00E94C0176AE080E00E94D217A8
S11312B06C2F8CE493E00E94C01764E180E00E94EC
S11312C0D2176C2F84E593E00E94C0176EE180E092
S11312D00E94D2176C2F8FE493E00E94C0170E94E3
S11312E0D7178091F709823369F5D0930B0A0E94CE
S11312F0DA166C2F8EE393E00E94C0176AE080E058
S11313000E94D2176C2F8CE493E00E94C01764E112
S113131080E00E94D2176C2F84E593E00E94C017EE
S11313206EE180E00E94D2176C2F87E593E00E9463
S1131330C0170E94D71706C08FE493EC0197F1F70A
S113134000C0000065D98093F7098823A9F306C07B
S1131350EFE4F3EC3197F1F700C0000059D9809322
S1131360F6099091F709891799F38091F709833267
S113137009F08FCF06C48FE493EC0197F1F700C016
S1131380000046D98093F7098823A9F306C0EFE447
S1131390F3EC3197F1F700C000003AD98093F609D5
S11313A09091F709891799F3CAE0DAE002E01AE0AC
S11313B00F2EFAE2FF2EF02D79C0882309F463C0C2
S11313C08A32B1F12091F809283008F05CC030E08D
S11313D0F901EE5FF54F80832F5F3F4F28303105D1
S11313E024F4F901EE5FF54FF0820E94DA1661E011
S11313F08EE593E00E94C0176AE080E00E94D21755
S113140061E085E693E00E94C01764E180E00E94F9
S1131410D21761E0C8010E94C0170E94D7178091BB
S1131420F8098F5F8093F8098091F7098A3259F59A
S11314301092F809E2E0FAE01192EC17FD07E1F7E7
S1131440F801F0820E94DA1661E08EE593E00E94D2
S1131450C0176AE080E00E94D21761E085E693E05D
S11314600E94C01764E180E00E94D21761E0C801C5
S11314700E94C0170E94D71706C08FE493EC01970F
S1131480F1F700C00000C4D88093F7098823A9F3BA
S113149006C0EFE4F3EC3197F1F700C00000B8D8D0
S11314A08093F6099091F709891799F38091F709C8
S11314B0833209F082CF65C38FE493EC0197F1F78F
S11314C000C00000A5D88093F7098823A9F306C0BB
S11314D0EFE4F3EC3197F1F700C0000099D8809362
S11314E0F6099091F709891799F3C1E0DAE009EF59
S11314F019E00F2EFAE2FF2EF02D8EC0882309F496
S113150078C08A3209F440C02091F809283008F0E4
S113151070C030E0F901E750F64F80832F5F3F4FF2
S11315202830310524F4F901E750F64FF0820E9487
S1131530DA1661E080EF93E00E94C0176AE080E071
S11315400E94D21761E08EE693E00E94C0176AE021
S11315508CE30E94D2178091F50961E0805D0E94BE
S1131560161764E180E00E94D21761E0C8010E946E
S1131570C0170E94D7178091F8098F5F8093F809EC
S11315808091F7098A32A9F51092F809E9EFF9E098
S11315901192EC17FD07E1F7F801F0820E94DA16C8
S11315A061E080EF93E00E94C0176AE080E00E944F
S11315B0D21761E08EE693E00E94C0176AE08CE3E4
S11315C00E94D2178091F50961E0805D0E94161790
S11315D064E180E00E94D21761E0C8010E94C01754
S11315E00E94D71706C08FE493EC0197F1F700C06F
S11315F000000ED88093F7098823A9F306C0EFE40E
S1131600F3EC3197F1F700C0000002D88093F6099B
S11316109091F709891799F38091F709833209F0BA
S11316206DCFA1DC811106C08091F5098F5F809395
S1131630F509A7C21092F509E0917A0C8E2F90E07B
S11316408730910508F099C2FC01E25AFF4F0C94CF
S1131650EA1C8FE493EC0197F1F700C000000E94AC
S113166008038093F7098823A1F306C0EFE4F3ECA1
S11316703197F1F700C000000E9408038093F60937
S11316809091F709891791F3933209F0FFCF81E024
S11316908093F409E0917A0C8E2F90E087309105C5
S11316A008F06BC2FC01EB59FF4F0C94EA1CE0916B
S11316B07A0C8E2F90E08730910508F05EC2FC0111
S11316C0E459FF4F0C94EA1C80911F0A882309F403
S11316D069C280911D0A843029F410921F0A109265
S11316E07A0C60C2A6E0B1E0E1E0F1E080E01D9296
S11316F0853008F410828F5F31968E30C1F78FE504
S1131700809306018093010110920E0A10920D0A33
S113171010920C0A10920B0AE2E0FAE0A9EFB9E089
S11317208AE09AE011921D92E817F907D9F78AE244
S11317308093020A1092F9091092F8091092F7099D
S11317401092F6091092F5091092F4090E94DA1623
S113175061E087E492E00E94C0176AE080E00E94A2
S1131760D21761E086E091E00E94C0170E94D7176B
S113177081E080937A0C16C28091F7098332A1F537
S113178080910E0A8823A1F190911F0A992309F4EC
S11317903FC0E82FF0E0EA5FFE4F10828150809353
S11317A00E0A10920D0A10920C0A0E94DA1661E0D9
S11317B085E293E00E94C0176AE080E00E94D2179D
S11317C061E080E393E00E94C01764E180E00E943E
S11317D0D21761E086E193E00E94C0170E94D717F8
S11317E082E080937A0CDEC180910E0A81110CC0D4
S11317F080911F0A882361F086E193E00E94F10240
S113180081E080937A0CCEC180911F0A8111CAC1F4
S113181010927A0CC7C180910C0A90910D0A8B35F5
S1131820910578F120911F0A222309F4B6C1109280
S11318300B0A0E94DA1661E08EE393E00E94C0175F
S11318406AE080E00E94D21761E08CE493E00E9499
S1131850C01764E180E00E94D21761E084E593E060
S11318600E94C0176EE180E00E94D21761E086E119
S113187093E00E94C0170E94D71783E080937A0CEC
S113188091C18A35910560F480911F0A882361F023
S113189010920D0A10920C0A82E080937A0C82C195
S11318A080911F0A81117EC110927A0C7BC18091B4
S11318B00B0A882381F180911F0A882381F11092F9
S11318C0F809E2E0FAE08AE09AE01192E817F907F1
S11318D0E1F78AE28093020A0E94DA1661E08EE55B
S11318E093E00E94C0176AE080E00E94D21761E092
S11318F085E693E00E94C01764E180E00E94D2175D
S113190061E087EF92E00E94C0170E94D71784E03D
S113191080937A0C47C180911F0A811143C11092B0
S11319207A0C40C18091F8098830E1F580911F0A52
S11319308823E1F10E94DA1661E080EF93E00E94CF
S1131940C0176AE080E00E94D21761E088E793E064
S11319500E94C0176AE08CE30E94D2178091F509B7
S113196061E0805D0E94161764E180E00E94D21756
S113197061E087EF92E00E94C0170E94D71710928F
S1131980F8091092F509E9EFF9E081E09AE0119283
S1131990E817F907E1F78AE28093F90985E0809373
S11319A07A0C00C180911F0A8111FCC010927A0C3C
S11319B0F9C08091F509811139C080911F0A8823EB
S11319C009F4A8C00E94DA1661E086E091E00E9462
S11319D0C0176AE080E00E94D21761E081E091E0E4
S11319E00E94C0176AE084E10E94D21761E08AE392
S11319F093E00E94C01764E180E00E94D2178091B6
S1131A000B0A813031F461E08FE493E00E94C01747
S1131A1007C0823029F461E087E593E00E94C01793
S1131A200E94D71786E080937A0CBCC08330C1F53E
S1131A3080911F0A882309F46DC00E94DA1661E0C0
S1131A408EE593E00E94C0176AE080E00E94D217FE
S1131A5061E085E693E00E94C01764E180E00E94A3
S1131A60D21761E087EF92E00E94C0170E94D71757
S1131A701092F5091092F809E2E0FAE0A9EFB9E052
S1131A808AE09AE011921D928E179F07D9F78AE295
S1131A908093020A1092F90984E080937A0C82C040
S1131AA080911F0A8823B1F10E94DA1661E080EF69
S1131AB093E00E94C0176AE080E00E94D21761E0C0
S1131AC088E793E00E94C0176AE08CE30E94D21773
S1131AD08091F50961E0805D0E94161764E180E061
S1131AE00E94D21761E087EF92E00E94C0170E9423
S1131AF0D7171092F809E9EFF9E081E09AE0119222
S1131B008E179F07E1F78AE28093F90985E08093B5
S1131B107A0C48C010927A0C45C08091F40988234D
S1131B2009F440C010921F0AC0911D0AFAE1CF9F28
S1131B307001112487010B5A1E4F4EE050E066E0FD
S1131B4071E0C8010E94091D49E050E062E07AE0BA
S1131B50C7018A599E4F0E94091D80910B0AF80102
S1131B60808B80910C0A90910D0A97878687CF5FAE
S1131B70C0931D0A10927A0C15C081E080937A0CF0
S1131B8011C0E0917A0C8E2F90E087309105A8F770
S1131B90FC01ED58FF4F0C94EA1C8A35910508F4BA
S1131BA083CE7ECEDF91CF911F910F91FF90EF9066
S1131BB0089510927A0CF0D984E690E00E94F61B06
S1131BC0FACFAF92BF92CF92DF92EF92FF920F9330
S1131BD0A12CB12CC12CD12CE12CF12C082F20E00C
S1131BE030E045E550E063E873E089ED9DE00E9454
S1131BF07E190F91FF90EF90DF90CF90BF90AF9040
S1131C000895AF92BF92CF92DF92EF92FF920F931B
S1131C101F93CF93DF93CDB7DEB767970FB6F894D2
S1131C20DEBF0FBECDBF062F20E230E03A8329830A
S1131C30FE0133969CE0DF011D929A95E9F7388BFB
S1131C402F873E9697E0DF011D929A95E9F71AE1F6
S1131C50189F50011124F501EB5AFE4F6F014EE01D
S1131C6050E0BF01CE0101960E94091D109F800122
S1131C701124C8018B5A9E4F7C014EE050E0BC01F8
S1131C80C6010E94091D4EE050E0BE016F5F7F4F08
S1131C90C7010E94091DD501AA59BE4F5D0149E043
S1131CA050E0BD01CE010F960E94091D0A591E4F36
S1131CB049E050E0B801C5010E94091D49E050E027
S1131CC0BE01615F7F4FC8010E94091DF601868530
S1131CD09785D7011E962D913C911F9737872687AC
S1131CE01F969C938E931E97808950969C91509733
S1131CF0908B50968C9367960FB6F894DEBF0FBE08
S1131D00CDBFDF91CF911F910F91FF90EF90DF90A6
S1131D10CF90BF90AF900895E09100018AE1E89FD1
S1131D20D0011124AB5ABE4F51969C918091E80981
S1131D30981313C08AE1E89FF0011124E959FE4F7A
S1131D40A9EEB9E020EF39E091918D91981307C085
S1131D50A217B307C9F781E0089580E0089580E0F1
S1131D600895FF920F931F93CF93DF9380917C0C80
S1131D70823061F1833009F4F9C0813009F00BC17C
S1131D8006C08FE493EC0197F1F700C000000E94B5
S1131D9008038093F3098823A1F306C0EFE4F3EC6E
S1131DA03197F1F700C000000E9408038093F20904
S1131DB09091F309891791F391539093F309EBC030
S1131DC08FE493EC0197F1F700C000000E94080330
S1131DD08093F3098823A1F306C0EFE4F3EC319771
S1131DE0F1F700C000000E9408038093F20990916B
S1131DF0F309891791F3C0EFD9E008EE19E00F2E2B
S1131E00FAE2FF2EF02D83C0882309F46BC08A32D6
S1131E10D1F12091F809283008F064C030E0F901CC
S1131E20E851F64F80832F5F3F4F2830310524F46B
S1131E30F901E851F64FF082BDD761E083E892E002
S1131E400E94C0176AE080E00E94D21761E088E730
S1131E5093E00E94C0178091F10961E0805DE6D7AC
S1131E6064E180E00E94D21761E0C8010E94C017BB
S1131E700E94D7178091F8098F5F8093F8098091A9
S1131E80F3098A3279F51092F809E8EEF9E0119233
S1131E90EC17FD07E1F7F801F0828CD761E083E8E5
S1131EA092E00E94C0176AE080E00E94D21761E0CD
S1131EB088E793E00E94C0178091F10961E0805D9A
S1131EC0B5D764E180E00E94D21761E0C8010E94A6
S1131ED0C0170E94D71706C08FE493EC0197F1F75F
S1131EE000C000000E9408038093F3098823A1F333
S1131EF006C0EFE4F3EC3197F1F700C000000E9454
S1131F0008038093F2099091F309891791F3809162
S1131F10F309833209F078CFFFDE811112C080917A
S1131F20F1098F5F8093F10980917C0C813009F471
S1131F305DC0E8F1823009F4A6C0833009F438C1E9
S1131F4089C11092F10980917C0C813009F44EC052
S1131F5070F1823009F49BC0833009F424C17AC142
S1131F608FE493EC0197F1F700C000000E9408038E
S1131F708093F3098823A1F306C0EFE4F3EC3197CF
S1131F80F1F700C000000E9408038093F2099091C9
S1131F90F309891791F380917C0C813039F138F081
S1131FA0823009F470C0833009F4FDC053C18091BC
S1131FB01E0A882309F45AC1FDD680911D0A815056
S1131FC0843078F40E94CD031092F3091092F20940
S1131FD01092F10985E08093000181E080937C0CEC
S1131FE045C110921E0A10927C0C40C18091F309E5
S1131FF090911D0A891780F590911E0A992381F109
S113200080930001D7D661E083E892E0B9D76AE013
S113201080E0C8D761E088E793E0B2D78091F10906
S113202061E0805D03D764E180E0BCD761E087EFC5
S113203092E0A6D7BCD71092F109E8EEF9E080EF60
S113204099E011928E179F07E1F78AE28093E809DD
S113205082E080937C0C0AC180911E0A811106C122
S11320601092F1091092F809E8EEF9E080EF99E096
S113207011928E179F07E1F71092E8090E944B0214
S113208010927C0CF3C08091F109811131C08091D0
S11320901E0A882309F476C08DD661E08FE893E0A8
S11320A06FD76AE080E07ED780910001FAE18F9FCC
S11320B0C001112461E08B5A9E4F62D764E180E035
S11320C071D761E086E993E05BD76EE180E06AD77F
S11320D061E083EA93E054D768E280E063D761E08B
S11320E08AEA93E04DD763D783E080937C0CBEC02B
S11320F08330D1F480911E0A882309F443C01092DE
S1132100F1091092F809E8EEF9E080EF99E01192F4
S1132110E817F907E1F71092E80910921E0A0E94E5
S11321204B0210927C0CA2C080911E0A882351F1AC
S113213041D661E083E892E023D76AE080E032D7B9
S113214061E088E793E01CD78091F10961E0805D4C
S11321506DD664E180E026D761E087EF92E010D786
S113216026D71092F809E8EEF9E080EF99E0119291
S11321708E179F07E1F78AE28093E80982E0809353
S11321807C0C74C01092F1091092F809E8EEF9E0A1
S113219080EF99E011928E179F07E1F71092E809FA
S11321A010927C0C63C08091F309833209F03DC026
S11321B08091000181110EC061E023DD62E081E0C5
S11321C020DD63E082E01DDD80911D0A8150809353
S11321D01D0A16C0813059F462E013DD63E082E029
S11321E010DD80911D0A815080931D0A09C0823040
S11321F0A1F1833029F480911D0A815080931D0A36
S11322001092F1091092F809E8EEF9E080EF99E0F4
S113221011928E179F07E1F71092E80910921E0A97
S11322200E944B0210927C0C21C08A32F9F40E9465
S1132230CD031092F1091092F809E8EEF9E080EF6D
S113224099E011928E179F07E1F71092E809109216
S11322507C0C0CC010927C0C09C063E082E0D1DCE1
S113226080911D0A815080931D0ACACFDF91CF91BE
S11322701F910F91FF90089510927C0C72DD84E6FB
S113228090E00E94F61BFACFAF92BF92CF92DF92FA
S1132290EF92FF920F93A12CB12CC12CD12CE12CE5
S11322A0F12C082F20E030E045E550E062EB73E0CC
S11322B08CE391E10E947E190F91FF90EF90DF90E3
S11322C0CF90BF90AF900895EF92FF920F931F931A
S11322D0CF93DF9380917B0C833009F44BC028F4B7
S11322E0813081F0823051F153C2843009F467C1E6
S11322F0853009F438C24CC28FE493EC0197F1F7AE
S113230000C000000E94080380931B0A8823A1F3E5
S113231006C08FE493EC0197F1F700C000000E941F
S1132320080380931A0A90911B0A891791F330C20B
S11323308FE493EC0197F1F700C000000E940803BA
S113234080931B0A8823A1F306C08FE493EC0197C2
S1132350F1F700C000000E94080380931A0A9091CC
S11323601B0A891791F314C28FE493EC0197F1F7D8
S113237000C000000E94080380931B0A8823A1F375
S113238006C08FE493EC0197F1F700C000000E94AF
S1132390080380931A0A90911B0A891791F3C4E4E5
S11323A0D1E01FE500C1882309F4E8C08A3209F4AA
S11323B0BFC02091170A3091180A2115310509F57B
S11323C0282F30E0205331093093180A2093170A3C
S11323D08883F0D461E083E892E0D2D56AE080E0BB
S11323E0E1D561E089E892E0CBD564E180E0DAD51B
S11323F061E0CE01C5D561E08FE892E0C1D5D7D5C3
S1132400BDC0A901415051094930510560F5A901E8
S1132410440F551F220F331F220F331F220F331F68
S1132420240F351F280F311D205331093093180A0A
S11324302093170A8983BED461E083E892E0A0D593
S11324406AE080E0AFD561E089E892E099D564E183
S113245080E0A8D561E0CE0193D561E08FE892E0F9
S11324608FD5A5D58BC0A9014A5051094A355105CC
S113247060F5A901440F551F220F331F220F331F8C
S1132480220F331F240F351F280F311D205331090C
S11324903093180A2093170A8A838CD461E083E866
S11324A092E06ED56AE080E07DD561E089E892E053
S11324B067D564E180E076D561E0CE0161D561E065
S11324C08FE892E05DD573D559C0A90144565109EE
S11324D04438534008F052C0A901440F551F220F3D
S11324E0331F220F331F220F331F240F351F280FD2
S11324F0311D205331093093180A2093170A8B8316
S113250059D461E083E892E03BD56AE080E04AD5A3
S113251061E089E892E034D564E180E043D561E08C
S1132520CE012ED561E08FE892E02AD540D526C0B1
S11325301092180A1092170A188319821A821B82A1
S113254039D461E083E892E01BD56AE080E02AD5C3
S113255061E089E892E014D564E180E023D561E08C
S1132560CE010ED561E08FE892E00AD520D506C0F1
S11325708FE493EC0197F1F700C000000E94080378
S113258080931B0A8823A1F306C08FE493EC019780
S1132590F1F700C000000E94080380931A0A90918A
S11325A01B0A891791F380911B0A833209F0FBCE31
S11325B052C38FE493EC0197F1F700C000000E942E
S11325C0080380931B0A8823A1F306C08FE493ECCD
S11325D00197F1F700C000000E94080380931A0AD3
S11325E090911B0A891791F3C4E4D1E01FE5AFC0B1
S11325F0882309F497C08A3209F470C09091160AAE
S113260091111DC090ED980F9093160A8883D2D330
S113261061E085E992E0B4D46AE080E0C3D461E08B
S113262083EA92E0ADD464E180E0BCD461E0CE0101
S1132630A7D461E08AEA92E0A3D4B9D473C02FEF9F
S1132640290F293018F5990F292F220F220F920FE5
S113265020ED280F920F9093160A8983ABD361E083
S113266085E992E08DD46AE080E09CD461E083EA5D
S113267092E086D464E180E095D461E0CE0180D418
S113268061E08AEA92E07CD492D44CC026EF290F10
S11326902A3508F047C0990F292F220F220F920FD5
S11326A020ED280F920F9093160A8A8383D361E05A
S11326B085E992E065D46AE080E074D461E083EA5D
S11326C092E05ED464E180E06DD461E0CE0158D440
S11326D061E08AEA92E054D46AD424C01092160AC3
S11326E0188319821A821B8265D361E085E992E01E
S11326F047D46AE080E056D461E083EA92E040D4B3
S113270064E180E04FD461E0CE013AD461E08AEA2A
S113271092E036D44CD406C08FE493EC0197F1F7E1
S113272000C000000E94080380931B0A8823A1F3C1
S113273006C08FE493EC0197F1F700C000000E94FB
S1132740080380931A0A90911B0A891791F38091C8
S11327501B0A833209F04CCF7EC28FE493EC0197BD
S1132760F1F700C000000E94080380931B0A88232D
S1132770A1F306C08FE493EC0197F1F700C00000C9
S11327800E94080380931A0A90911B0A891791F3F7
S113279080917B0C823009F453C028F4882361F0C3
S11327A0813061F155C2843009F4C4C008F496C084
S11327B0853009F42DC24CC280911C0A882309F487
S11327C05FC28091190A882389F0F4D261E082EC17
S11327D093E0D6D36AE080E0E5D361E08CEC93E04B
S11327E0CFD3E5D381E080937B0C4AC20E946D0372
S11327F00E94C10382E080937B0C42C280911B0A39
S1132800833259F480911C0A882359F010921C0ACF
S11328100E94C10310927B0C33C280911C0A811167
S11328202FC21092190A1092180A1092170A1092C5
S1132830160A0E94C10310921C0A10927B0C20C23B
S113284080911B0A813369F480911C0A8823C9F1A1
S113285081E08093190A0E949B0383E080937B0CA0
S11328600FC2823369F480911C0A882351F182E0FB
S11328708093190A0E949B0383E080937B0C00C21F
S1132880833361F480911C0A8823D9F0C3E0C09398
S1132890190A0E949B03C0937B0CF2C1843369F430
S11328A080911C0A882369F084E08093190A0E94AD
S11328B09B0383E080937B0CE3C180911C0A81110C
S11328C0DFC11092190A1092180A1092170A109276
S11328D0160A0E94C10310927B0CD2C180911B0A7C
S11328E08332B9F48091170A9091180A892B89F0E0
S11328F080911C0A882389F0E4E4F1E08FE5808369
S11329001182128213820E94AE0384E080937B0CB6
S1132910B7C180911C0A8111B3C11092190A109297
S1132920180A1092170A1092160A0E94C1031092F4
S11329307B0CA6C180911B0A833209F058C1809197
S1132940160A882309F453C180911C0A882309F4C8
S113295052C130D2E091190AF0E0EE0FFF1FE75B9D
S1132960FE4F61E0808191810BD36AE080E01AD34D
S1132970C091170AD091180AC83E93E0D90708F409
S113298080C0FE01F695E795F695E795F695E795EF
S11329909F01A5ECB0E20E94F31C8C0112950295F4
S11329A00F7001271F70012728EE33E0029FC0013A
S11329B0039F900D129F900D11248E01081B190B7B
S11329C09E013695279536952795ABE7B4E10E948D
S11329D0F31C9695879544E6489F9001499F300DD6
S11329E01124BE01621B730BC801CDD77B019F016B
S11329F0A5ECB0E2F8D7929582958F7089279F70E5
S1132A00892761E0805D12D2980136952795369525
S1132A102795ABE7B4E1E7D79695879561E0805DAC
S1132A2005D29701ADECBCECDED7969587959695CB
S1132A3087959695879561E0805DF8D19E01ADEC10
S1132A40BCECD1D79695879596958795969587955D
S1132A509C01220F331F880F991F880F991F880F1D
S1132A60991F820F931FBE01681B790BC7018BD777
S1132A70862F61E0805DDAD161E08BED93E080D256
S1132A804BC0AE0156954795569547959A01ABE7CD
S1132A90B4E1A9D78C011695079524E6209FC001BF
S1132AA0219F900D11248E01081B190B9A019BD7AD
S1132AB09695879561E0805DB9D19801ADECBCEC49
S1132AC092D796958795969587959695879561E083
S1132AD0805DACD19E01ADECBCEC85D79695879515
S1132AE096958795969587959C01220F331F880F9D
S1132AF0991F880F991F880F991F820F931FBE017A
S1132B00681B790BC8013FD7862F61E0805D8ED1A9
S1132B1061E08BED93E034D264E180E043D2109124
S1132B20160A1436C0F189E2189F812D1124D82F7A
S1132B30D295DF70912F24E6D29F90191124D92FBA
S1132B4082958F7061E0805D71D1CDECDC9F812D29
S1132B50112486958695869561E0805D67D12D2F39
S1132B6030E01C9F912D1124969596959695990F7A
S1132B70892F880F880F980F812F891B682F70E089
S1132B80C90115D7862F61E0805D50D161E08AEAE2
S1132B9092E0F6D119C0CDEC1C9FC12D1124C6952D
S1132BA0C695C69561E080E38C0F40D1CC0F8C2F85
S1132BB0880F880FC80F812F8C1B61E0805D36D190
S1132BC061E08AEA92E0DCD16EE180E0EBD161E081
S1132BD08FED93E0D5D168E280E0E4D161E08BEE43
S1132BE093E0CED1E4D185E080937B0C49C0809101
S1132BF01C0A811145C01092190A1092180A1092E9
S1132C00170A1092160A0E94C10310927B0C38C056
S1132C1080911B0A8A3279F41092190A1092180AC8
S1132C201092170A1092160A0E94C10310921C0AED
S1132C3010927B0C25C0833239F40E94C103109298
S1132C401C0A10927B0C1CC085E080931B0A18C0E0
S1132C5010927B0C15C080917B0C823009F42DCE30
S1132C6038F4882309F4A8CD813009F4CBCDF0CF12
S1132C70843009F45FCE08F431CE853049F2E8CFD0
S1132C80DF91CF911F910F91FF90EF9008951092D3
S1132C907B0C1ADB84E690E0A9D5FBCFAF92BF9200
S1132CA0CF92DF92EF92FF920F93A12CB12CC12C03
S1132CB0D12CE12CF12C082F20E030E045E550E048
S1132CC068EF73E087E496E119D30F91FF90EF90DA
S1132CD0DF90CF90BF90AF9008958FE087B980EFD9
S1132CE088B98FEF8AB91BB82FD081E00E9493076F
S1132CF081E00E94E10D81E0C7DA81E0CFDFFFD3FC
S1132D0080E090E008955998662311F05B9A15C00D
S1132D105B9813C0AC01022E02C0559547950A94E6
S1132D20E2F740FF02C05C9A01C05C985D9A5D982E
S1132D302150310978F7599A089527E030E090E05E
S1132D40E9CF60E0E0CF0895CF93DF93519A529A90
S1132D50539A549A559A5A9A599A83EC99E001973E
S1132D60F1F700C000005A988BE594E40197F1F75D
S1132D7000C000005A9A599881E2E3DF83E1E1DF61
S1132D8086E0DFDF82ECDDDF80E2DBDF89E0D9DFB4
S1132D9080E8D7DF80E4D5DFC8EFD1E061E080E0F0
S1132DA0B2DF2197D9F788E0CCDF8CE0CADFDF916E
S1132DB0CF91089580E8C5DF80E4C3DF10921D0C35
S1132DC010921E0CE5E2FAE08DE19CE01192E81706
S1132DD0F907E1F70895262F26952695269590E084
S1132DE034E5239F800D911D1124442379F0FC01C7
S1132DF0EB5DF54F677081E090E002C0880F991F8A
S1132E006A95E2F79081892B80830895FC01EB5D3C
S1132E10F54F677081E090E002C0880F991F6A95B2
S1132E20E2F7809590818923808308955F926F9261
S1132E307F928F929F92AF92BF92CF92DF92EF9246
S1132E40FF920F931F93CF93DF93562E262F30E0DC
S1132E504901880C991C880C991C820E931E181425
S1132E6019040CF059C08901000F111F000F111F24
S1132E70000F111F021B130B612CA82EB12CC501CE
S1132E8080975C01AA0CBB1CAA0CBB1CA80EB91E23
S1132E900F2EFEE1CF2EFCE0DF2EF02D0F2EFDE1F4
S1132EA0EF2EFCE0FF2EF02D2AC0FE01249130E02D
S1132EB0872D652D5CD502C0359527958A95E2F757
S1132EC020FF09C0F6016081670DF701808141E0B0
S1132ED0860D81DF08C0F6016081670DF7018081EE
S1132EE040E0860D78DF7394872D90E0801791077A
S1132EF0E4F26394862D90E0881599056CF410161D
S1132F001106BCF7862D652D32D5E501C80FD11DFC
S1132F10CC50DF4F712CC9CF80911D0C91E0980FDC
S1132F20852D880F880F850D890F843518F48093BB
S1132F301D0C0EC010921D0CEEE1FCE0808191E0AE
S1132F40980F852D880F880F880F8519890F808326
S1132F5080911E0C803320F010921D0C10921E0CD8
S1132F60DF91CF911F910F91FF90EF90DF90CF9061
S1132F70BF90AF909F908F907F906F905F900895D7
S1132F801F93CF93DF93EC018881882339F0162FA8
S1132F902196612F4BDF89918111FBCFDF91CF9176
S1132FA01F91089580931D0C60931E0C08950F9338
S1132FB01F93CF93DF9380E8C4DE80E4C2DEC5E2D2
S1132FC0DAE00DE11CE061E089919DDEC017D107D4
S1132FD0D1F7DF91CF911F910F91089531E1FC0159
S1132FE03083319722E220833197A3E3A083319782
S1132FF060833197708331971082319760E86083E2
S113300031971082319762E06083319763E0608387
S1133010319764E06083319765E06083319766E0BF
S11330206083319767E06083319768E0608331970C
S113303069E06083319760E1608331973083319731
S113304032E13083319733E13083319734E1308397
S1133050319735E13083319736E13083319737E169
S11330603083319738E13083319739E130833197B8
S113307030E23083319731E23083319720833197C6
S113308023E220833197408331975083319726E29E
S11330902083319727E22083319728E220833197D8
S11330A029E22083319720E32083319721E3208391
S11330B086970895109289008CE7809388008BE0AE
S11330C080938100EFE6F0E0808182608083A091AC
S11330D0770CB091780CCD91CDBFDD91DEBFFF911F
S11330E0EF91DF91CF91BF91AF919F918F917F919C
S11330F06F915F914F913F912F911F910F91FF908D
S1133100EF90DF90CF90BF90AF909F908F907F9083
S11331106F905F904F903F902F901F900F900FBE35
S11331200F90089581E008950F920FB6F8940F92CE
S11331301F9211242F923F924F925F926F927F922F
S11331408F929F92AF92BF92CF92DF92EF92FF92B3
S11331500F931F932F933F934F935F936F937F939B
S11331608F939F93AF93BF93CF93DF93EF93FF938B
S1133170A091770CB091780C0DB60D920EB60D920D
S11331808AD3A091770CB091780CCD91CDBFDD910D
S1133190DEBFFF91EF91DF91CF91BF91AF919F91EE
S11331A08F917F916F915F914F913F912F911F91DB
S11331B00F91FF90EF90DF90CF90BF90AF909F90D2
S11331C08F907F906F905F904F903F902F901F90C3
S11331D00F900FBE0F9008950F920FB6F8940F92B0
S11331E01F9211242F923F924F925F926F927F927F
S11331F08F929F92AF92BF92CF92DF92EF92FF9203
S11332000F931F932F933F934F935F936F937F93EA
S11332108F939F93AF93BF93CF93DF93EF93FF93DA
S1133220A091770CB091780C0DB60D920EB60D925C
S113323095D131D3A091770CB091780CCD91CDBFBD
S1133240DD91DEBFFF91EF91DF91CF91BF91AF91FF
S11332509F918F917F916F915F914F913F912F91AA
S11332601F910F91FF90EF90DF90CF90BF90AF90A0
S11332709F908F907F906F905F904F903F902F9092
S11332801F900F900FBE0F900895A6DF1895CF934F
S1133290DF93EC01E091770CF091780C93838283B7
S11332A08091270C9091280CC817D90768F4609175
S11332B0770C7091780C80913D0C90913E0C6E5F70
S11332C07F4F0E94EA0117C06091770C7091780CCF
S11332D080913F0C9091400C6E5F7F4F0E94EA01F9
S11332E08091BD019091BE01C817D90720F4D093F5
S11332F0BE01C093BD01DF91CF9108954F925F92BB
S11333006F927F928F929F92AF92BF92CF92DF92F1
S1133310EF92FF920F931F93CF93DF935C014B01C6
S11333203A01290181E290E00E948A01EC01892B93
S113333009F4D3C0C114D10409F0CBC0C3010E9465
S11333408A01988F8F8B009721F4CE010E94B001DF
S1133350C4C0A30165EA70E055D39301215031093B
S11333608F89988D3C01620E731E48E050E0B401D1
S1133370CE0149964ED318A2102F043008F013E062
S11333801E8B6E0182E0C80ED11CC6010E94BF01D3
S1133390CE010C960E94BF01D987C88784E090E0D3
S11333A0811B91099D878C87DB8BCA8BA201B50198
S11333B0C30114DE99838883E114F10419F0F70141
S11333C0D183C0830FB6F8940F928091290C8F5F3C
S11333D08093290C8091770C9091780C892BA9F516
S11333E0D093780CC093770C8091290C8130E1F54F
S11333F083E59CE00E94B1018CE59CE00E94B10150
S113340085E69CE00E94B1018EE69CE00E94B10139
S11334108AE49CE00E94B10181E49CE00E94B10135
S113342084E39CE00E94B1018BE29CE00E94B10124
S11334308AE49CE09093400C80933F0C81E49CE0F0
S113344090933E0C80933D0C0FC08091240C81110D
S11334500BC0E091770CF091780C8689081720F066
S1133460D093780CC093770C8E899091260C981782
S113347010F48093260C90911F0C9F5F90931F0C67
S11334809091250C981710F48093250C90E09C01E2
S1133490220F331F220F331F220F331F820F931F5C
S11334A0B6018D5A934F0E94C3010F900FBE8091B5
S11334B0240C882351F0E091770CF091780C8689E4
S11334C0801728F431DE81E009C081E007C081E083
S11334D005C0D88ECF8AC6013CCF8FEFDF91CF9144
S11334E01F910F91FF90EF90DF90CF90BF90AF901E
S11334F09F908F907F906F905F904F900895AF92C0
S1133500BF92CF92DF92EF92FF920F93A12CB12C36
S1133510C12CD12CE12CF12C00E020E030E045E579
S113352050E065E074E082E19CE1E8DE813041F442
S1133530F8948093240C1092280C1092270CBADD76
S11335400F91FF90EF90DF90CF90BF90AF900895D0
S11335508091230C8F5F8093230C08950F931F9306
S1133560CF93DF938091230C8111B2C08091270CFB
S11335709091280C01969093280C8093270C8091AD
S1133580270C9091280C892B99F580913F0C9091F0
S1133590400C20913D0C30913E0C3093400C209314
S11335A03F0C90933E0C80933D0C8091200C8F5FD8
S11335B08093200CE0913F0CF091400C80818111AC
S11335C007C08FEF9FEF9093BE018093BD0110C0A1
S11335D0E0913F0CF091400C0580F681E02D0680CF
S11335E0F781E02D828193819093BE018093BD0188
S11335F02091270C3091280C8091BD019091BE013F
S11336002817390708F469C0E0913F0CF091400C89
S11336108081882399F0E0913F0CF091400C058063
S1133620F681E02DC681D7818A819B812091270C68
S11336303091280C28173907F8F419C08FEF9FEF41
S11336409093BE018093BD0148C0E0913F0CF0917E
S1133650400C0580F681E02DC681D7818A819B814B
S11336602091270C3091280C2817390728F49093BF
S1133670BE018093BD0131C08E010E5F1F4FC80192
S11336800E9425028C899D89892B21F0CE010C96FC
S11336900E9425028E899091250C981710F480932E
S11336A0250C90E09C01220F331F220F331F220FA1
S11336B0331F820F931FB8018D5A934F0E94C30189
S11336C0E0913F0CF091400C80818111BECFB6CFC8
S11336D08091220C8F5F8093220CDF91CF911F91F8
S11336E00F910895CF92DF92EF92FF920F931F9361
S11336F0CF93DF930FB6F8940F928091230C8150EF
S11337008093230C8091230C811162C08091290C39
S1133710811132C060C0D7011596ED91FC911697C6
S1133720C681D781CE010C960E9425028E010E5FC0
S11337301F4FC8010E9425028E899091250C98176D
S113374010F48093250C90E09C01220F331F220F6C
S1133750331F220F331F820F931FB8018D5A934FCB
S11337600E94C301E091770CF091780C9E898689C0
S1133770981758F0DC2C09C0D12C0F2EF4E3EF2E4F
S1133780FCE0FF2EF02DCC24C394F701808181113D
S1133790C2CF8091220C882379F08091220C882357
S11337A091F0DCDE8091220C81508093220C809178
S11337B0220C8111F6CF07C0F1E0DF1621F08091D1
S11337C0210C813039F41092210CAEDC81E003C06D
S11337D080E001C080E00F900FBEDF91CF911F9178
S11337E00F91FF90EF90DF90CF900895CF93DF93E8
S11337F0EC01892B99F0ACDE8091270C9091280C78
S1133800C80FD91F8091770C9091780C02960E9472
S11338102502CE013CDD66DF811101C085DCDF912C
S1133820CF9108950F2EFBE2EF2EFCE0FF2EF02D3A
S1133830C3E5DCE080912A0C882341F189DED701BD
S11338401C9150DF112311F10FB6F8940F92D70198
S11338501596ED91FC91169706811781C801029681
S11338600E9425028091290C81508093290C80911B
S11338702A0C815080932A0C0F900FBEF80187897F
S1133880908D0E94B001C8010E94B00188818230ED
S113389088F24ADCCFCF8091230C811113C0809130
S11338A0250C90E0FC01EE0FFF1FEE0FFF1FEE0F43
S11338B0FF1F8E0F9F1FFC01ED5AF34F8081882359
S11338C029F01BC081E08093210C08958091250C80
S11338D081508093250C8091250C90E0FC01EE0F23
S11338E0FF1FEE0FFF1FEE0FFF1F8E0F9F1FFC0128
S11338F0ED5AF34F8081882349F38091250C90E0A1
S11339009C01220F331F220F331F220F331F280F56
S1133910391FD901AD5AB34F1196ED91FC9112970D
S11339200280F381E02D1296FC93EE9311972A5AAC
S1133930334FE217F30729F422813381FD013283E7
S11339402183FC01EE0FFF1FEE0FFF1FEE0FFF1F81
S11339508E0F9F1FFC01ED5AF34F0180F281E02D81
S1133960868197819093780C8093770C0895991BA6
S113397079E004C0991F961708F0961B881F7A9562
S1133980C9F780950895AA1BBB1B51E107C0AA1F64
S1133990BB1FA617B70710F0A61BB70B881F991FEC
S11339A05A95A9F780959095BC01CD01089597FB90
S11339B0072E16F4009406D077FD08D0E4DF07FC48
S11339C005D03EF4909581959F4F0895709561952B
S11339D07F4F0895EE0FFF1F0024001C0BBE0790BD
S11339E0F691E02D0994A29FB001B39FC001A39F5B
S11339F0700D811D1124911DB29F700D811D112424
S1133A00911D0895DC0101C06D9341505040E0F7D1
S1133A100895FB01DC014150504048F001900D92A3
S1133A200020C9F701C01D9241505040E0F70895AD
S1073A30F894FFCF34
S1133A34055F000000005F000000000000000000BB
S1133A4400000000232323232A2A2A2A303030307A
S1133A54395758593854555637505253364D4E4F9A
S1133A64354A4B4C34474849334445463241424332
S1133A74313131315F20202000F70263026B02C22E
S1133A84017D0200005F000000000000000000004F
S1133A940000000000003030303030303030005F3F
S1133AA4000000000000000000000000000000000E
S1133AB43030303030303030005F0000000000001F
S1133AC400000000000000000000303030303030CE
S1133AD43030005F0000000000000000000000001F
S1133AE400000000303030303030303000FFFF311F
S1133AF43A204C6971756F7200323A204B657973C0
S1133B0400333A2053657474696E677300313A2044
S1133B144472696E6B7300323A2055736572730094
S1133B24333A2053797374656D00343A204D6169D6
S1133B346E204D656E7500313A20416464204472F0
S1133B44696E6B00323A205265706C6163650033B0
S1133B543A204D61696E204D656E7500313A2041FD
S1133B646464205573657200323A2044656C65744C
S1133B7465205573657200456E746572204E616DDF
S1133B84650054797065206F66206472696E6B00F9
S1133B94313A204265657200323A2057696E6500F5
S1133BA4333A204C6971756F7200343A204F74684B
S1133BB4657200456E74657200566F6C756D652090
S1133BC4286D4C2900456E74657220416C636F68DE
S1133BD46F6C00436F6E74656E7420250053656CBE
S1133BE4656374205573657200313A2000323A20BB
S1133BF400333A2000343A20004E6F205573657226
S1133C047321002A4472696E6B2073747566662A84
S1133C14002320746F2072657475726E002A4B65DC
S1133C24792053747566662A002A5374746E677314
S1133C342073747566662A002A5265706C63652065
S1133C4444726E6B2A005F004D61696E4D656E753A
S1133C545461736B00456E74657220796F757200DC
S1133C6477656967687420696E206C6273005365B4
S1133C746C6563742047656E64657200313A204D47
S1133C84616C6500323A2046656D616C650043726F
S1133C94656174650050617373776F726400506179
S1133CA47373776F72643A0050617373776F7264DD
S1133CB43A2000416464557365725461736B005215
S1133CC4656D6F76650066726F6D207379737465C4
S1133CD46D3F002A203D206E6F0023203D2079652E
S1133CE4730052656D6F76655573657273546173B1
S1133CF46B0043616E27742061646400616E796DA6
S1133D046F7265206472696E6B7300206D4C002AB7
S1133D1420746F2043616E63656C002320746F20EC
S1133D24436F6E6669726D004164644472696E6BBC
S10D3D345461736B0049444C4500D0
S9030000FC
