S01000004D61696E4D656E752E73726563FA
S113000069C1000086C1000084C1000082C10000F3
S113001080C100007EC100007CC100007AC10000E4
S113002078C1000076C1000074C1000072C10000F4
S113003070C100000C947B136CC100006AC1000005
S113004068C1000066C1000064C1000062C1000014
S113005060C100005EC100005CC100005AC1000024
S113006058C1000056C1000054C1000052C1000034
S113007050C100004EC100004CC100004AC1000044
S113008048C1000046C1000044C100001A0528050B
S113009036054405520560056E057C058A059805FC
S11300A0A605B405CE0508061B062E0667069A06A5
S11300B0AD06C006F106F90601071307F40A4B0B57
S11300C08F0BD20B060C480CDE0CF40A4B0B8F0B77
S11300D0D20B060C440CDE0CF40A470B8F0BD20B2C
S11300E0060C440CDE0CF40A4B0B8F0BD20B060CE3
S11300F0440CDE0C000000000000005F000000075C
S1130100000700147F147F14242A7F2A1223130863
S1130110646236495522500005030000001C224148
S1130120000041221C0014083E081408083E080878
S11301300050300000080808080800606000002033
S1130140100804023E5149453E00427F400042618E
S11301505149462141454B311814127F102745451A
S113016045393C4A49493001710905033649494931
S113017036064949291E003636000000563600006E
S11301800814224100141414141400412214080207
S113019001510906324979413E7E1111117E7F4990
S11301A04949363E414141227F4141221C7F494910
S11301B049417F090909013E4149497A7F080808F4
S11301C07F00417F41002040413F017F08142241CC
S11301D07F404040407F020C027F7F0408107F3E36
S11301E04141413E7F090909063E4151215E7F0993
S11301F0192946464949493101017F01013F4040DF
S1130200403F1F2040201F3F4038403F63140814E4
S11302106307087008076151494543007F41410065
S113022002040810200041417F000402010204403E
S113023040404040000102040020545454787F4858
S11302404444383844444420384444487F3854545F
S11302505418087E0901020C5252523E7F080404CD
S11302607800447D40002040443D007F1028440035
S113027000417F40007C041804787C08040478382A
S1130280444444387C14141408081414187C7C085E
S11302900404084854545420043F4440203C404043
S11302A0207C1C2040201C3C4030403C442810282A
S11302B0440C5050503C4464544C440008364100B3
S11302C000007F00000041360800100808100800F4
S11302D00000000011241FBECFEFD0E4DEBFCDBF6D
S11302E013E0A0E0B1E0E4E3FEE200E00BBF02C0F3
S11302F007900D92AC37B107D9F72BE0ACE7B3E028
S113030001C01D92AB3EB207E1F70E94A6100C9407
S1130310181776CECF93DF93EC010E94DE14209160
S11303207C0330917D03C9018C0F9D1F8C3D45E0FA
S1130330940758F42817390758F4E901C258DC4FD8
S113034090937D0380937C0305C0C0E0D0E002C09D
S1130350C0E0D0E00E94A815CE01DF91CF910895AE
S11303600895FC010396928381832FEF3FEF34833A
S11303702383968385839087878310820895FC0165
S1130380118610860895CF93DF93FC01DB01218150
S11303903281E9018A819B8113969C938E931297F3
S11303A08181928115969C938E9314978A819B8167
S11303B0EC017D836C83E9017B836A8372836183AF
S11303C01996FC93EE93189780818F5F8083DF9159
S11303D0CF910895CF93DF93EB01488159814F3F2B
S11303E02FEF520731F4DC011796ED91FC91189729
S11303F017C0FC013396DC0115962D913C9116979C
S1130400D9012D913C914217530750F00280F3819A
S1130410E02DA281B3812D913C9142175307B0F78F
S1130420A281B381BB83AA831596DC93CE931497E0
S1130430FD83EC83D383C28399878887FC01208161
S11304402F5F2083DF91CF910895FC01A281B381B6
S11304508481958115969C938E931497A481B5817C
S11304608281938113969C938E931297A085B18574
S113047011968D919C911297E817F90731F48481B4
S1130480958112969C938E931197118610868C9168
S113049081508C9308950E94101161E08CEE91E0DC
S11304A00E94F6116AE082E00E94081261E08EEA7E
S11304B091E00E94F61164E182E00E94081261E07A
S11304C088EB91E00E94F6116EE182E00E9408122E
S11304D061E080EC91E00E94F6110C940D120895F5
S11304E00E94101161E083EC91E00E94F6116AE031
S11304F082E00E94081261E08CEC91E00E94F61107
S113050064E182E00E94081261E086ED91E00E94BD
S1130510F6116EE182E00E94081261E08FED91E035
S11305200E94F61168E282E00E94081261E089EEFE
S113053091E00E94F6110C940D1208950E9410117E
S113054061E08FEC91E00E94F6116AE082E00E9483
S1130550081261E086EF91E00E94F61164E182E006
S11305600E94081261E083E092E00E94F6116EE1BD
S113057084E10E94081261E08DEF91E00E94F6117F
S11305800C940D1208950E94101161E089ED91E020
S11305900E94F6116AE082E00E94081261E08EE097
S11305A092E00E94F61164E182E00E94081261E088
S11305B08AE192E00E94F6116EE182E00E94081244
S11305C061E089E292E00E94F61168E283E20E940F
S11305D0081261E082E392E00E94F6110C940D127D
S11305E00895CF93DF93EC010E94101161E08BE337
S11305F092E00E94F6116AE080E00E94081261E035
S1130600CE010E94F6110E940D12DF91CF91089540
S11306108EEF88B9000086B1809584FD46C086B10E
S1130620809585FD44C086B1809586FD42C086B123
S1130630809590E0880F892F881F990B9195892BBD
S1130640D1F58DEF88B9000086B1809584FD35C061
S113065086B1809585FD33C086B1809586FD31C015
S113066086B1809590E0880F892F881F990B91950A
S1130670892B49F58BEF88B9000086B1809584FDFC
S113068024C086B1809585FD22C086B1809586FD03
S113069020C086B1809590E0880F892F881F990B20
S11306A09195892BC1F480E0089581E3089584E352
S11306B0089587E308958AE2089582E3089585E31F
S11306C0089588E3089580E3089583E3089586E315
S11306D0089589E3089583E208950E94101180919A
S11306E088098130B1F461E086E492E00E94F61159
S11306F06AE080E00E94081261E082E592E00E94D4
S1130700F61161E084E491E00E94F6110C940D125C
S11307100895823021F561E086E492E00E94F611AA
S11307206AE080E00E94081261E082E592E00E94A3
S1130730F61161E084E491E00E94F61164E180E046
S11307400E94081261E086E592E00E94F61161E0E1
S11307508EE591E00E94F6110C940D1208958330F9
S113076091F561E086E492E00E94F6116AE080E08F
S11307700E94081261E082E592E00E94F61161E0B5
S113078084E491E00E94F61164E180E00E94081282
S113079061E086E592E00E94F61161E08EE591E069
S11307A00E94F6116EE180E00E94081261E08AE581
S11307B092E00E94F61161E088E791E00E94F61150
S11307C00C940D120895843009F040C061E086E471
S11307D092E00E94F6116AE080E00E94081261E053
S11307E082E592E00E94F61161E084E491E00E94C7
S11307F0F61164E180E00E94081261E086E592E06F
S11308000E94F61161E08EE591E00E94F6116EE11E
S113081080E00E94081261E08AE592E00E94F611ED
S113082061E088E791E00E94F61168E280E00E94AE
S1130830081261E08EE592E00E94F61161E082E91F
S113084091E00E94F6110C940D12089561E082E685
S113085092E00E94F6110C940D1208952FC040915D
S11308608109509182096091830970918409483209
S113087051056105710549F41092810910928209AC
S11308801092830910928409089587EA91E60197EA
S1130890F1F700C000008091810990918209A09134
S11308A08309B09184090196A11DB11D809381092A
S11308B090938209A0938309B0938409A9DE80935D
S11308C0E70B882361F2A4DE8093E90B9091E70B98
S11308D08917C9F310928109109282091092830931
S11308E0109284098091870998138AC02091850900
S11308F0309186092330310538F42F5F3F4F309310
S113090086092093850904C01092860910928509EE
S1130910813341F4E0918509F0918609E05CFE4F52
S113092080810895823341F4E0918509F09186092C
S1130930E45CFE4F80810895833341F4E09185099E
S1130940F0918609E85CFE4F80810895843341F478
S1130950E0918509F0918609EC5CFE4F8081089551
S1130960853341F4E0918509F0918609E05DFE4FFD
S113097080810895863341F4E0918509F0918609D8
S1130980E45DFE4F80810895873341F4E091850949
S1130990F0918609E85DFE4F80810895883341F423
S11309A0E0918509F0918609EC5DFE4F8081089500
S11309B0893341F4E0918509F0918609E05EFE4FA8
S11309C080810895803341F4E0918509F09186098E
S11309D0E45EFE4F808108958A3241F4E0918509F6
S11309E0F0918609E85EFE4F80810895833271F4A8
S11309F0E0918509F0918609EC5EFE4F80810895AF
S1130A00909387091092860910928509809187092D
S1130A1008951092EA0B3FCD0895E091EA0B8E2FD2
S1130A2090E08C30910508F0ACC0FC01EA5BFF4F0C
S1130A300C94F916EDDD80938F09EADD90918F090E
S1130A4089139FC0E5DD90918F099817D9F399C058
S1130A50DFDD80938E09DCDD90918E09891391C0CE
S1130A60D7DD90918E099817D9F38BC0D1DD80938F
S1130A708E09CEDD90918E09891383C0C9DD9091D2
S1130A808E099817D9F37DC0C3DD80938D09C0DD2D
S1130A9090918D09891375C0BBDD90918D099817CC
S1130AA0D9F36FC0B5DD80938C09B2DD90918C09C8
S1130AB0891367C0ADDD90918C099817D9F361C093
S1130AC0A7DD80938E09A4DD90918E09891359C006
S1130AD09FDD90918E099817D9F353C099DD8093C7
S1130AE08E0996DD90918E0989134BC091DD90910A
S1130AF08E099817D9F345C08BDD80938B0988DD67
S1130B0090918B0989133DC083DD90918B099817CF
S1130B10D9F337C07DDD80938E097ADD90918E09FB
S1130B2089132FC075DD90918E099817D9F329C0C8
S1130B306FDD80938E096CDD90918E09891321C03D
S1130B4067DD90918E099817D9F31BC061DD8093FE
S1130B508E095EDD90918E09891313C059DD909141
S1130B608E099817D9F30DC053DD80938E0950DD9B
S1130B7090918E09891305C04BDD90918E099817C9
S1130B80D9F3E091EA0B8E2F90E08C30910508F0B8
S1130B905CC1FC01EE5AFF4F0C94F91680918F0949
S1130BA08133B1F481E08093EA0B0E94101161E07B
S1130BB08CE692E00E94F6116AE082E00E9408123C
S1130BC061E08AE792E00E94F6110C940D120895F8
S1130BD08233B1F482E08093EA0B0E94101161E049
S1130BE086E892E00E94F6116AE082E00E94081210
S1130BF061E08AE792E00E94F6110C940D120895C8
S1130C00833309F02FC183E08093EA0B69CC089504
S1130C1080918E09833209F025C11092EA0B10925B
S1130C208F0910928E0910928D0910928C091092DE
S1130C308B0931CC089580918E09833209F012C159
S1130C401092EA0B10928F0910928E0910928D095E
S1130C5010928C0910928B091ECC089580918D09F5
S1130C60813329F484E08093EA0B68CC08958233BD
S1130C7029F487E08093EA0B86CC08958333B1F49A
S1130C808BE08093EA0B0E94101161E082E992E00C
S1130C900E94F6116AE082E00E94081261E08AE78D
S1130CA092E00E94F6110C940D120895843309F019
S1130CB0D9C01092EA0B10928F0910928E091092EB
S1130CC08D0910928C0910928B09E5CB08958091BF
S1130CD08C098133B1F485E08093EA0B0E941011F2
S1130CE061E081EA92E00E94F6116AE082E00E94EB
S1130CF0081261E08AE792E00E94F6110C940D124A
S1130D000895823309F0AEC086E08093EA0B0E9416
S1130D10101161E08DEA92E00E94F6116AE082E02F
S1130D200E94081261E08AE792E00E94F6110C9496
S1130D300D12089580918E09833209F093C01092A8
S1130D40EA0B10928F0910928E0910928D0910925D
S1130D508C0910928B099FCB089580918E09833260
S1130D6009F080C01092EA0B10928F0910928E093C
S1130D7010928D0910928C0910928B098CCB0895D6
S1130D8080918B09813351F488E08093EA0B81E0F0
S1130D9080938A098BEB92E024CC0895823341F44A
S1130DA089E08093EA0B81E08093890996CC0895C9
S1130DB0833309F057C08AE08093EA0B0E94101134
S1130DC061E08DEB92E00E94F6116AE082E00E94FD
S1130DD0081261E08AE792E00E94F6110C940D1269
S1130DE0089580918A0981113DC055DB1092EA0B68
S1130DF0089580918909811135C04DDB1092EA0B69
S1130E00089580918E09833269F51092EA0B10924D
S1130E108F0910928E0910928D0910928C091092EC
S1130E208B0939CB089580918E098332D9F41092BD
S1130E30EA0B10928F0910928E0910928D0910926C
S1130E408C0910928B0927CB08951092EA0B10920B
S1130E508F0910928E0910928D0910928C091092AC
S1130E608B0919CB0895D5DDD8DD8AE090E00E9486
S1130E702C16FACFAF92BF92CF92DF92EF92FF92ED
S1130E800F93A12CB12CC12CD12CE12CF12C082FC7
S1130E9020E030E045E550E068EC72E083E397E061
S1130EA00E94B4130F91FF90EF90DF90CF90BF900A
S1130EB0AF9008959091740980916B0998130FC0B5
S1130EC0E5E7F9E0ACE6B9E02CE739E091918D91E2
S1130ED0981307C0E217F307C9F781E0089580E08B
S1130EE0089580E00895EF92FF920F931F93CF939C
S1130EF0DF938091E50B833009F45CC130F48130D9
S1130F0069F0823009F45CC062C3853009F47EC2A2
S1130F1008F4DDC1863009F434C359C39FDC8093DF
S1130F20690910926809833209F47CC5CFE58A32D5
S1130F30B1F4E0918009EE2371F0E150E09380096F
S1130F40F0E0EA5FFE4FC08311821092680986E0E8
S1130F5091E047DB28C086E091E043DB24C088238E
S1130F6069F0E0918009F0E0EA5FFE4F808311822E
S1130F708093680986E091E034DB15C080916809AC
S1130F80882389F0E0918009E93068F4EF5FE09309
S1130F908009F0E0EA5FFE4FC08311821092680975
S1130FA086E091E01EDB5ADC80936909833209F004
S1130FB0BECF38C58FE493EC0197F1F700C0000071
S1130FC027DB809369098823A9F306C0EFE4F3ECD7
S1130FD03197F1F700C000001BDB80936809909102
S1130FE06909891799F3C1E0D1E01FE5D7C08823C7
S1130FF009F4C1C08A3209F496C020917E09309167
S11310007F092115310521F5282F30E020533109BE
S113101030937F0920937E0988830E94101161E038
S113102085ED92E00E94F6116AE080E00E940812C9
S113103061E080EE92E00E94F61164E180E00E949B
S1131040081261E0CE010E94F6110E940D1293C0B5
S1131050A901415051094930510578F5A901440FBE
S1131060551F220F331F220F331F220F331F240F4C
S1131070351F280F311D2053310930937F092093E8
S11310807E0989830E94101161E085ED92E00E943F
S1131090F6116AE080E00E94081261E080EE92E0BE
S11310A00E94F61164E180E00E94081261E0CE0122
S11310B00E94F6110E940D125EC0A9014A50510906
S11310C04A35510508F057C0A901440F551F220F96
S11310D0331F220F331F220F331F240F351F280FF6
S11310E0311D2053310930937F0920937E098A836F
S11310F00E94101161E085ED92E00E94F6116AE011
S113110080E00E94081261E080EE92E00E94F611F5
S113111064E180E00E94081261E0CE010E94F611B1
S11311200E940D1228C010927F0910927E09188324
S113113019821A820E94101161E085ED92E00E94EA
S1131140F6116AE080E00E94081261E080EE92E00D
S11311500E94F61164E180E00E94081261E0CE0171
S11311600E94F6110E940D1206C087EA91E60197CB
S1131170F1F700C000004CDA809369098823A9F3D1
S113118006C0E7EAF1E63197F1F700C0000040DA63
S11311908093680990916909891799F38091690985
S11311A0833209F024CF3EC48FE493EC0197F1F726
S11311B000C000002DDA809369098823A9F306C0D2
S11311C0EFE4F3EC3197F1F700C0000021DA8093EB
S11311D0680990916909891799F3C1E0D2E06BC05D
S11311E0813331F5C0937D090E9410116C2F8EEE6E
S11311F092E00E94F6116AE080E00E9408126C2FCF
S11312008CEF92E00E94F61164E180E00E940812E3
S11312106C2F84E093E00E94F6116EE180E00E945E
S113122008126C2F8FEF92E00E94F6110E940D12AB
S113123080916909823361F5D0937D09F1D76C2FD0
S11312408EEE92E00E94F6116AE080E00E9408129D
S11312506C2F8CEF92E00E94F61164E180E00E9412
S113126008126C2F84E093E00E94F6116EE180E096
S11312700E9408126C2F87E093E00E94F6110E94EE
S11312800D1206C08FE493EC0197F1F700C0000043
S1131290BFD9809369098823A9F306C0EFE4F3EC6E
S11312A03197F1F700C00000B3D980936809909199
S11312B06909891799F380916909833209F090CFFC
S11312C0B1C38FE493EC0197F1F700C00000A0D9FB
S11312D0809369098823A9F306C0EFE4F3EC3197FE
S11312E0F1F700C0000094D98093680990916909CE
S11312F0891799F3CCE7D9E004E719E00F2EFAE255
S1131300FF2EF02D77C0882309F461C08A32A9F139
S113131020916A09283008F05AC030E0F901EC58ED
S1131320F64F80832F5F3F4F2830310524F4F901B5
S1131330EC58F64FF08274D761E08EE093E00E949F
S1131340F6116AE080E00E94081261E082E392E014
S11313500E94F61164E180E00E94081261E0C80175
S11313600E94F6110E940D1280916A098F5F80938A
S11313706A09809169098A3251F510926A09E4E791
S1131380F9E01192EC17FD07E1F7F801F08248D774
S113139061E08EE093E00E94F6116AE080E00E9432
S11313A0081261E082E392E00E94F61164E180E0B9
S11313B00E94081261E0C8010E94F6110E940D12F9
S11313C006C08FE493EC0197F1F700C0000020D928
S11313D0809369098823A9F306C0EFE4F3EC3197FD
S11313E0F1F700C0000014D980936809909169094D
S11313F0891799F380916909833209F084CF12C364
S11314008FE493EC0197F1F700C0000001D98093B9
S113141069098823A9F306C0EFE4F3EC3197F1F7E7
S113142000C00000F5D88093680990916909891774
S113143099F3C3E7D9E00BE619E00F2EFAE2FF2E89
S1131440F02D7CC0882309F466C08A3209F437C0C1
S113145020916A09283008F05EC030E0F901E559AE
S1131460F64F80832F5F3F4F2830310524F4F90174
S1131470E559F64FF082D4D661E085E193E0B6D722
S11314806AE080E0C5D761E08DE193E0AFD76AE020
S11314908CE3BED78091670961E0805DFDD664E18D
S11314A080E0B6D761E0C801A1D7B7D780916A09B7
S11314B08F5F80936A09809169098A3261F510927D
S11314C06A09EBE6F9E01192EC17FD07E1F7F80180
S11314D0F082A6D661E085E193E088D76AE080E0F7
S11314E097D761E08DE193E081D76AE08CE390D7F0
S11314F08091670961E0805DCFD664E180E088D7A0
S113150061E0C80173D789D706C08FE493EC0197D3
S1131510F1F700C000007CD8809369098823A9F3FF
S113152006C0EFE4F3EC3197F1F700C0000070D887
S11315308093680990916909891799F380916909E1
S1131540833209F07FCFB6DC811106C08091670930
S11315508F5F8093670966C210926709E091E50B7B
S11315608E2F90E08730910508F058C2FC01E25AB2
S1131570FF4F0C94F9168FE493EC0197F1F700C038
S1131580000046D8809369098823A9F306C0EFE4D4
S1131590F3EC3197F1F700C000003AD88093680962
S11315A090916909891799F3933209F0FFCF81E08B
S11315B080936609E091E50B8E2F90E087309105CA
S11315C008F02CC2FC01EB59FF4F0C94F916E09182
S11315D0E50B8E2F90E08730910508F01FC2FC01C7
S11315E0E459FF4F0C94F91680918A09882309F471
S11315F02AC280918809843029F410928A091092B1
S1131600E50B21C2A6E0B1E0E1E0F1E080E01D924B
S1131610853008F410828F5F31968E30C1F78FE5E4
S113162080930601809301011092800910927F0932
S113163010927E0910927D09E4E7F9E0ABE6B9E087
S11316408CE799E011921D92E817F907D9F78AE21D
S11316508093740910926B0910926A0910926909B7
S1131660109268091092670910926609D9D561E051
S11316708BE392E0BBD66AE080E0CAD661E086E004
S113168091E0B4D6CAD681E08093E50BDCC18091A9
S11316906909833269F580918009882369F1909101
S11316A08A09992309F438C0E82FF0E0EA5FFE4F75
S11316B0108281508093800910927F0910927E09D4
S11316C0AFD561E085ED92E091D66AE080E0A0D6E6
S11316D061E080EE92E08AD664E180E099D661E030
S11316E08BEB92E083D699D682E08093E50BABC175
S11316F08091800981110CC080918A09882361F04E
S11317008BEB92E00E94F10281E08093E50B9BC198
S113171080918A09811197C11092E50B94C180913F
S11317207E0990917F098B35910530F120918A09CA
S1131730222309F483C110927D0972D561E08EEEF3
S113174092E054D66AE080E063D661E08CEF92E0E8
S11317504DD664E180E05CD661E084E093E046D657
S11317606EE180E055D661E08BEB92E03FD655D632
S113177083E08093E50B67C18A35910560F480911D
S11317808A09882361F010927F0910927E0982E011
S11317908093E50B58C180918A09811154C110923C
S11317A0E50B51C180917D09882349F180918A0913
S11317B0882349F110926A09E4E7F9E08CE799E09B
S11317C01192E817F907E1F78AE28093740928D5A2
S11317D061E08EE093E00AD66AE080E019D661E029
S11317E082E392E003D664E180E012D661E080E90E
S11317F092E0FCD512D684E08093E50B24C180915D
S11318008A09811120C11092E50B1DC180916A09DA
S1131810883099F580918A09882399F101D561E08E
S113182085E193E0E3D56AE080E0F2D561E087E208
S113183093E0DCD56AE08CE3EBD58091670961E045
S1131840805D2AD564E180E0E3D561E080E992E03F
S1131850CDD5E3D510926A0910926709EBE6F9E059
S113186083E799E01192E817F907E1F78AE2809398
S11318706B0985E08093E50BE6C080918A098111AC
S1131880E2C01092E50BDFC08091670981112FC07F
S113189080918A09882309F48EC0C2D461E086E06D
S11318A091E0A4D56AE080E0B3D561E081E091E005
S11318B09DD56AE084E1ACD561E08AEE92E096D5EC
S11318C064E180E0A5D580917D09813029F461E04F
S11318D08FEF92E08BD506C0823021F461E087E07F
S11318E093E084D59AD586E08093E50BACC0833031
S11318F089F580918A09882309F45DC091D461E057
S11319008EE093E073D56AE080E082D561E082E303
S113191092E06CD564E180E07BD561E080E992E0FF
S113192065D57BD51092670910926A09E4E7F9E05E
S1131930ABE6B9E08CE799E011921D928E179F07F0
S1131940D9F78AE28093740910926B0984E080933A
S1131950E50B79C080918A09882369F161D461E03B
S113196085E193E043D56AE080E052D561E087E207
S113197093E03CD56AE08CE34BD58091670961E044
S1131980805D8AD464E180E043D561E080E992E03F
S11319902DD543D510926A09EBE6F9E083E799E087
S11319A011928E179F07E1F78AE280936B0985E015
S11319B08093E50B48C01092E50B45C08091660901
S11319C0882309F440C010928A09C0918809FAE179
S11319D0CF9F7001112487010C5B1E4F4EE050E035
S11319E066E071E0C8010E94091749E050E064E72D
S11319F079E0C7018B5A9E4F0E94091780917D0997
S1131A00F801808B80917E0990917F099787868762
S1131A10CF5FC09388091092E50B15C081E08093D5
S1131A20E50B11C0E091E50B8E2F90E08730910516
S1131A30A8F7FC01ED58FF4F0C94F9168A3591056F
S1131A4008F4ADCEA8CEDF91CF911F910F91FF90F6
S1131A50EF9008951092E50B46DA84E690E00E9438
S1131A602C16FACFAF92BF92CF92DF92EF92FF92F1
S1131A700F93A12CB12CC12CD12CE12CF12C082FCB
S1131A8020E030E045E550E062E373E08AE29DE067
S1131A906BD60F91FF90EF90DF90CF90BF90AF90F7
S1131AA00895AF92BF92CF92DF92EF92FF920F937D
S1131AB01F93CF93DF93CDB7DEB767970FB6F89434
S1131AC0DEBF0FBECDBF062F20E230E03A8329836C
S1131AD0FE0133969CE0DF011D929A95E9F7388B5D
S1131AE02F873E9697E0DF011D929A95E9F71AE158
S1131AF0189F50011124F501EC5BFE4F6F014EE07D
S1131B0050E0BF01CE0101960E940917109F800189
S1131B101124C8018C5B9E4F7C014EE050E0BC0157
S1131B20C6010E9409174EE050E0BE016F5F7F4F6F
S1131B30C7010E940917D501AB5ABE4F5D0149E0A8
S1131B4050E0BD01CE010F960E9409170B5A1E4F9B
S1131B5049E050E0B801C5010E94091749E050E08E
S1131B60BE01615F7F4FC8010E940917F601868597
S1131B709785D7011E962D913C911F97378726870D
S1131B801F969C938E931E97808950969C91509794
S1131B90908B50968C9367960FB6F894DEBF0FBE69
S1131BA0CDBFDF91CF911F910F91FF90EF90DF9008
S1131BB0CF90BF90AF900895E09100018AE1E89F33
S1131BC0D0011124AC5BBE4F51969C9180915A096F
S1131BD0981313C08AE1E89FF0011124EA5AFE4FDA
S1131BE0ABE5B9E022E639E091918D91981307C0F5
S1131BF0A217B307C9F781E0089580E0089580E053
S1131C000895FF920F931F93CF93DF938091E60B78
S1131C10823061F1833009F4EDC0813009F0FFC0F6
S1131C2006C08FE493EC0197F1F700C000000E9416
S1131C300803809365098823A1F306C0EFE4F3EC5D
S1131C403197F1F700C000000E94080380936409F3
S1131C5090916509891791F3915390936509DFC0B9
S1131C608FE493EC0197F1F700C000000E94080391
S1131C70809365098823A1F306C0EFE4F3EC319760
S1131C80F1F700C000000E9408038093640990915A
S1131C906509891791F3C2E6D9E00AE519E00F2E28
S1131CA0FAE2FF2EF02D77C0882309F45FC08A3250
S1131CB0A1F120916A09283008F058C030E0F901F8
S1131CC0E65AF64F80832F5F3F4F2830310524F4C6
S1131CD0F901E65AF64FF082A3D261E08EE393E075
S1131CE085D36AE080E094D361E087E293E07ED319
S1131CF08091630961E0805DCFD264E180E088D3A4
S1131D0061E0C80173D389D380916A098F5F80939E
S1131D106A09809165098A3249F510926A09EAE5EF
S1131D20F9E01192EC17FD07E1F7F801F08278D29F
S1131D3061E08EE393E05AD36AE080E069D361E026
S1131D4087E293E053D38091630961E0805DA4D27C
S1131D5064E180E05DD361E0C80148D35ED306C08E
S1131D608FE493EC0197F1F700C000000E94080390
S1131D70809365098823A1F306C0EFE4F3EC31975F
S1131D80F1F700C000000E94080380936409909159
S1131D906509891791F380916509833209F084CF2D
S1131DA00BDF811112C0809163098F5F80936309F7
S1131DB08091E60B813009F45DC0E8F1823009F4CA
S1131DC0A6C0833009F438C189C110926309809197
S1131DD0E60B813009F44EC070F1823009F49BC0E7
S1131DE0833009F424C17AC18FE493EC0197F1F7AD
S1131DF000C000000E940803809365098823A1F3B2
S1131E0006C0EFE4F3EC3197F1F700C000000E9444
S1131E1008038093640990916509891791F380916F
S1131E20E60B813039F138F0823009F470C0833028
S1131E3009F4FDC053C180918909882309F45AC16A
S1131E40EFD1809188098150843078F40E946D0329
S1131E5010926509109264091092630985E08093D9
S1131E60000181E08093E60B45C11092890910922C
S1131E70E60B40C18091650990918809891780F526
S1131E8090918909992381F180930001C9D161E07E
S1131E908EE393E0ABD26AE080E0BAD261E087E2FD
S1131EA093E0A4D28091630961E0805DF5D164E19F
S1131EB080E0AED261E080E992E098D2AED2109296
S1131EC06309EAE5F9E082E699E011928E179F072B
S1131ED0E1F78AE280935A0982E08093E60B0AC113
S1131EE080918909811106C11092630910926A09CF
S1131EF0EAE5F9E082E699E011928E179F07E1F78F
S1131F0010925A090E944B021092E60BF3C0809182
S1131F106309811131C080918909882309F476C04D
S1131F207FD161E084E493E061D26AE080E070D222
S1131F3080910001FAE18F9FC001112461E08C5B64
S1131F409E4F54D264E180E063D261E08BE493E07D
S1131F504DD26EE180E05CD261E088E593E046D248
S1131F6068E280E055D261E08FE593E03FD255D23C
S1131F7083E08093E60BBEC08330D1F4809189095D
S1131F80882309F443C01092630910926A09EAE5B0
S1131F90F9E082E699E01192E817F907E1F7109267
S1131FA05A09109289090E944B021092E60BA2C0B2
S1131FB080918909882351F133D161E08EE393E064
S1131FC015D26AE080E024D261E087E293E00ED289
S1131FD08091630961E0805D5FD164E180E018D2A3
S1131FE061E080E992E002D218D210926A09EAE52F
S1131FF0F9E082E699E011928E179F07E1F78AE2F1
S113200080935A0982E08093E60B74C010926309AE
S113201010926A09EAE5F9E082E699E011928E17D6
S11320209F07E1F710925A091092E60B63C0809162
S11320306509833209F03DC08091000181110EC011
S113204061E02FDD62E081E02CDD63E082E029DDE8
S11320508091880981508093880916C0813059F491
S113206062E01FDD63E082E01CDD8091880981501D
S11320708093880909C08230A1F1833029F48091CA
S113208088098150809388091092630910926A0923
S1132090EAE5F9E082E699E011928E179F07E1F7ED
S11320A010925A09109289090E944B021092E60B71
S11320B021C08A32F9F40E946D03109263091092D0
S11320C06A09EAE5F9E082E699E011928E179F0722
S11320D0E1F710925A091092E60B0CC01092E60B2D
S11320E009C063E082E0DDDC80918809815080933F
S11320F08809CACFDF91CF911F910F91FF90089566
S11321001092E60B7EDD84E690E0A6D5FBCFAF927D
S1132110BF92CF92DF92EF92FF920F93A12CB12C3A
S1132120C12CD12CE12CF12C082F20E030E045E526
S113213050E067E673E080E890E116D30F91FF90DA
S1132140EF90DF90CF90BF90AF9008958FE087B964
S113215080EF88B98FEF8AB91BB82CD081E00E9438
S11321603A0781E07FDC81E0D2DFFFD380E090E0BA
S113217008955998662311F05B9A15C05B9813C0B3
S1132180AC01022E02C0559547950A94E2F740FF30
S113219002C05C9A01C05C985D9A5D982150310937
S11321A078F7599A089527E030E090E0E9CF60E0AD
S11321B0E0CF0895CF93DF93519A529A539A549A49
S11321C0559A5A9A599A83EC99E00197F1F700C00D
S11321D000005A988BE594E40197F1F700C00000E1
S11321E05A9A599881E2E3DF83E1E1DF86E0DFDF99
S11321F082ECDDDF80E2DBDF89E0D9DF80E8D7DF56
S113220080E4D5DFC8EFD1E061E080E0B2DF219760
S1132210D9F788E0CCDF8CE0CADFDF91CF91089555
S113222080E8C5DF80E4C3DF1092880B1092890B2D
S1132230E0E9F9E088E89BE01192E817F907E1F793
S11322400895262F26952695269590E034E5239F1C
S1132250800D911D1124442379F0FC01E057F64FC1
S1132260677081E090E002C0880F991F6A95E2F7D9
S11322709081892B80830895FC01E057F64F6770A5
S113228081E090E002C0880F991F6A95E2F780957B
S113229090818923808308955F926F927F928F92B9
S11322A09F92AF92BF92CF92DF92EF92FF920F93E1
S11322B01F93CF93DF93562E262F30E04901880CCD
S11322C0991C880C991C820E931E181419040CF086
S11322D059C08901000F111F000F111F000F111F9A
S11322E0021B130B612CA82EB12CC50180975C0135
S11322F0AA0CBB1CAA0CBB1CA80EB91E0F2EF9E815
S1132300CF2EFBE0DF2EF02D0F2EF8E8EF2EFBE0B2
S1132310FF2EF02D2AC0FE01249130E0872D652D7B
S11323205CD502C0359527958A95E2F720FF09C050
S1132330F6016081670DF701808141E0860D81DF40
S113234008C0F6016081670DF701808140E0860DC9
S113235078DF7394872D90E080179107E4F26394FB
S1132360862D90E0881599056CF410161106BCF7BB
S1132370862D652D32D5E501C80FD11DCC50DF4F18
S1132380712CC9CF8091880B91E0980F852D880F0F
S1132390880F850D890F843518F48093880B0EC03F
S11323A01092880BE9E8FBE0808191E0980F852D7D
S11323B0880F880F880F8519890F80838091890B76
S11323C0803320F01092880B1092890BDF91CF910B
S11323D01F910F91FF90EF90DF90CF90BF90AF903F
S11323E09F908F907F906F905F9008951F93CF93ED
S11323F0DF93EC018881882339F0162F2196612F11
S11324004BDF89918111FBCFDF91CF911F9108950B
S11324108093880B6093890B08950F931F93CF9338
S1132420DF9380E8C4DE80E4C2DEC0E9D9E008E8D6
S11324301BE061E089919DDEC017D107D1F7DF91E0
S1132440CF911F910F91089531E1FC0130833197B1
S113245022E220833197A3E3A083319760833197ED
S1132460708331971082319760E8608331971082CE
S1132470319762E06083319763E06083319764E071
S11324806083319765E06083319766E060833197BC
S113249067E06083319768E06083319769E0608327
S11324A0319760E1608331973083319732E1308333
S11324B0319733E13083319734E13083319735E11B
S11324C03083319736E13083319737E13083319768
S11324D038E13083319739E13083319730E230830A
S11324E0319731E2308331972083319723E220837F
S11324F03197408331975083319726E22083319777
S113250027E22083319728E22083319729E2208330
S1132510319720E32083319721E320838697089520
S1132520109289008CE7809388008BE0809381006F
S1132530EFE6F0E0808182608083A091E20BB091AD
S1132540E30BCD91CDBFDD91DEBFFF91EF91DF9124
S1132550CF91BF91AF919F918F917F916F915F9137
S11325604F913F912F911F910F91FF90EF90DF902A
S1132570CF90BF90AF909F908F907F906F905F901F
S11325804F903F902F901F900F900FBE0F90089583
S113259081E008950F920FB6F8940F921F921124C0
S11325A02F923F924F925F926F927F928F929F925F
S11325B0AF92BF92CF92DF92EF92FF920F931F934D
S11325C02F933F934F935F936F937F938F939F9337
S11325D0AF93BF93CF93DF93EF93FF93A091E20B5D
S11325E0B091E30B0DB60D920EB60D928AD3A09165
S11325F0E20BB091E30BCD91CDBFDD91DEBFFF9136
S1132600EF91DF91CF91BF91AF919F918F917F9186
S11326106F915F914F913F912F911F910F91FF9077
S1132620EF90DF90CF90BF90AF909F908F907F906E
S11326306F905F904F903F902F901F900F900FBE20
S11326400F9008950F920FB6F8940F921F921124D1
S11326502F923F924F925F926F927F928F929F92AE
S1132660AF92BF92CF92DF92EF92FF920F931F939C
S11326702F933F934F935F936F937F938F939F9386
S1132680AF93BF93CF93DF93EF93FF93A091E20BAC
S1132690B091E30B0DB60D920EB60D9295D131D3D8
S11326A0A091E20BB091E30BCD91CDBFDD91DEBFE4
S11326B0FF91EF91DF91CF91BF91AF919F918F9156
S11326C07F916F915F914F913F912F911F910F9146
S11326D0FF90EF90DF90CF90BF90AF909F908F903E
S11326E07F906F905F904F903F902F901F900F902E
S11326F00FBE0F900895A6DF1895CF93DF93EC01DA
S1132700E091E20BF091E30B938382838091920B2F
S11327109091930BC817D90768F46091E20B7091FC
S1132720E30B8091A80B9091A90B6E5F7F4F0E94E1
S1132730EA0117C06091E20B7091E30B8091AA0B40
S11327409091AB0B6E5F7F4F0E94EA018091AC01C8
S11327509091AD01C817D90720F4D093AD01C0936F
S1132760AC01DF91CF9108954F925F926F927F9267
S11327708F929F92AF92BF92CF92DF92EF92FF928D
S11327800F931F93CF93DF935C014B013A0129010F
S113279081E290E00E948A01EC01892B09F4D3C004
S11327A0C114D10409F0CBC0C3010E948A01988FDF
S11327B08F8B009721F4CE010E94B001C4C0A30105
S11327C065EA70E01FD39301215031098F89988DF8
S11327D03C01620E731E48E050E0B401CE014996FC
S11327E018D318A2102F043008F013E01E8B6E01CA
S11327F082E0C80ED11CC6010E94BF01CE010C9616
S11328000E94BF01D987C88784E090E0811B9109A9
S11328109D878C87DB8BCA8BA201B501C30114DEB3
S113282099838883E114F10419F0F701D183C083FB
S11328300FB6F8940F928091940B8F5F8093940B52
S11328408091E20B9091E30B892BA9F5D093E30BD4
S1132850C093E20B8091940B8130E1F58EEB9BE009
S11328600E94B10187EC9BE00E94B10180ED9BE0E6
S11328700E94B10189ED9BE00E94B10185EB9BE0D0
S11328800E94B1018CEA9BE00E94B1018FE99BE0B8
S11328900E94B10186E99BE00E94B10185EB9BE0B7
S11328A09093AB0B8093AA0B8CEA9BE09093A90BBB
S11328B08093A80B0FC080918F0B81110BC0E09106
S11328C0E20BF091E30B8689081720F0D093E30B19
S11328D0C093E20B8E899091910B981710F480931A
S11328E0910B90918A0B9F5F90938A0B9091900B20
S11328F0981710F48093900B90E09C01220F331FE3
S1132900220F331F220F331F820F931FB6018254ED
S1132910944F0E94C3010F900FBE80918F0B8823A8
S113292051F0E091E20BF091E30B8689801728F4D3
S113293031DE81E009C081E007C081E005C0D88EA6
S1132940CF8AC6013CCF8FEFDF91CF911F910F91BA
S1132950FF90EF90DF90CF90BF90AF909F908F90BB
S11329607F906F905F904F900895AF92BF92CF92F7
S1132970DF92EF92FF920F93A12CB12CC12CD12C9A
S1132980E12CF12C00E020E030E045E550E067E781
S113299073E088E496E1E8DE813041F4F8948093B2
S11329A08F0B1092930B1092920BBADD0F91FF9044
S11329B0EF90DF90CF90BF90AF90089580918E0BF1
S11329C08F5F80938E0B08950F931F93CF93DF93A4
S11329D080918E0B8111B2C08091920B9091930BD8
S11329E001969093930B8093920B8091920B90910C
S11329F0930B892B99F58091AA0B9091AB0B2091A5
S1132A00A80B3091A90B3093AB0B2093AA0B909396
S1132A10A90B8093A80B80918B0B8F5F80938B0BFA
S1132A20E091AA0BF091AB0B8081811107C08FEF6D
S1132A309FEF9093AD018093AC0110C0E091AA0B7D
S1132A40F091AB0B0580F681E02D0680F781E02D37
S1132A50828193819093AD018093AC012091920B7C
S1132A603091930B8091AC019091AD0128173907F7
S1132A7008F469C0E091AA0BF091AB0B8081882324
S1132A8099F0E091AA0BF091AB0B0580F681E02D53
S1132A90C681D7818A819B812091920B3091930BBF
S1132AA028173907F8F419C08FEF9FEF9093AD0101
S1132AB08093AC0148C0E091AA0BF091AB0B058068
S1132AC0F681E02DC681D7818A819B812091920B6A
S1132AD03091930B2817390728F49093AD01809314
S1132AE0AC0131C08E010E5F1F4FC8010E94250248
S1132AF08C899D89892B21F0CE010C960E94250298
S1132B008E899091900B981710F48093900B90E01D
S1132B109C01220F331F220F331F220F331F820FFA
S1132B20931FB8018254944F0E94C301E091AA0BF1
S1132B30F091AB0B80818111BECFB6CF80918D0B0C
S1132B408F5F80938D0BDF91CF911F910F9108952B
S1132B50CF92DF92EF92FF920F931F93CF93DF9365
S1132B600FB6F8940F9280918E0B815080938E0B48
S1132B7080918E0B811162C08091940B811132C0BF
S1132B8060C0D7011596ED91FC911697C681D78147
S1132B90CE010C960E9425028E010E5F1F4FC801C4
S1132BA00E9425028E899091900B981710F48093BF
S1132BB0900B90E09C01220F331F220F331F220F32
S1132BC0331F820F931FB8018254944F0E94C30194
S1132BD0E091E20BF091E30B9E898689981758F0F7
S1132BE0DC2C09C0D12C0F2EFFE9EF2EFBE0FF2EC9
S1132BF0F02DCC24C394F70180818111C2CF809140
S1132C008D0B882379F080918D0B882391F0DCDE85
S1132C1080918D0B815080938D0B80918D0B811150
S1132C20F6CF07C0F1E0DF1621F080918C0B8130E4
S1132C3039F410928C0BAEDC81E003C080E001C05B
S1132C4080E00F900FBEDF91CF911F910F91FF9005
S1132C50EF90DF90CF900895CF93DF93EC01892B11
S1132C6099F0ACDE8091920B9091930BC80FD91F11
S1132C708091E20B9091E30B02960E942502CE0113
S1132C803CDD66DF811101C085DCDF91CF910895C1
S1132C900F2EF6E9EF2EFBE0FF2EF02DCEEBDBE05E
S1132CA08091950B882341F189DED7011C9150DF77
S1132CB0112311F10FB6F8940F92D7011596ED91E7
S1132CC0FC91169706811781C80102960E9425027D
S1132CD08091940B81508093940B8091950B81503B
S1132CE08093950B0F900FBEF8018789908D0E94F9
S1132CF0B001C8010E94B0018881823088F24ADCA8
S1132D00CFCF80918E0B811113C08091900B90E0F6
S1132D10FC01EE0FFF1FEE0FFF1FEE0FFF1F8E0FC4
S1132D209F1FFC01E254F44F8081882329F01BC0CB
S1132D3081E080938C0B08958091900B8150809357
S1132D40900B8091900B90E0FC01EE0FFF1FEE0FB3
S1132D50FF1FEE0FFF1F8E0F9F1FFC01E254F44F65
S1132D608081882349F38091900B90E09C01220F8D
S1132D70331F220F331F220F331F280F391FD9018E
S1132D80A254B44F1196ED91FC9112970280F381F5
S1132D90E02D1296FC93EE9311972F53344FE217C4
S1132DA0F30729F422813381FD0132832183FC015D
S1132DB0EE0FFF1FEE0FFF1FEE0FFF1F8E0F9F1F63
S1132DC0FC01E254F44F0180F281E02D8681978169
S1132DD09093E30B8093E20B0895991B79E004C070
S1132DE0991F961708F0961B881F7A95C9F7809546
S1132DF00895EE0FFF1F0024001C0BBE0790F691F0
S1132E00E02D0994DC0101C06D9341505040E0F77E
S1132E100895FB01DC014150504048F001900D92AF
S1132E200020C9F701C01D9241505040E0F70895B9
S1072E30F894FFCF40
S1132E34055F000000005F000000000000000000C7
S1132E4400000000232323232A2A2A2A3030303086
S1132E54395758593854555637505253364D4E4FA6
S1132E64354A4B4C3447484933444546324142433E
S1132E74313131315F000000000000000000000027
S1132E8400000000003030303030303030005F005B
S1132E9400000000000000000000000000000030FA
S1132EA430303030303030005F000000000000006B
S1132EB400000000000000000030303030303030BA
S1132EC430005F000000000000000000000000006B
S1132ED4000000303030303030303000FFFF313A01
S1132EE4204C6971756F7200323A204B6579730016
S1132EF4333A2053657474696E677300313A20441D
S1132F0472696E6B7300323A2055736572730033C1
S1132F143A2053797374656D00343A204D61696EB7
S1132F24204D656E7500313A204164642044726911
S1132F346E6B00323A205265706C61636500313AFD
S1132F4420416464205573657200323A2044656CF0
S1132F54657465205573657200333A205265736550
S1132F64740050617373776F726400456E74657294
S1132F74204E616D650053656C65637420557365FB
S1132F847200313A2000323A2000333A2000343AB5
S1132F9420004E6F20557365727321002A447269B0
S1132FA46E6B2073747566662A002320746F207216
S1132FB4657475726E002A4B657920537475666660
S1132FC42A002A5374746E67732073747566662AB0
S1132FD4002A416464204472696E6B2A002A526593
S1132FE4706C63652044726E6B2A005F002A52730E
S1132FF47420506173732A004D61696E4D656E755A
S11330045461736B00456E74657220796F75720038
S113301477656967687420696E206C627300536510
S11330246C6563742047656E64657200313A204DA3
S1133034616C6500323A2046656D616C65004372CB
S11330446561746500436F6E6669726D00506173E7
S113305473776F72643A0050617373776F72643A72
S11330642000416464557365725461736B00456E4A
S11330747465720052656D6F76650066726F6D20BB
S113308473797374656D3F002A203D206E6F0023AD
S1133094203D207965730052656D6F7665557365BF
S10F30A472735461736B0049444C450086
S9030000FC
