S01000004D61696E4D656E752E73726563FA
S11300009AC10000B7C10000B5C10000B3C100002F
S1130010B1C10000AFC10000ADC10000ABC1000020
S1130020A9C10000A7C10000A5C10000A3C1000030
S1130030A1C100000C94B5219DC100009BC100002A
S113004099C1000097C1000095C1000093C1000050
S113005091C100008FC100008DC100008BC1000060
S113006089C1000087C1000085C1000083C1000070
S113007081C100007FC100007DC100007BC1000080
S113008079C1000077C1000075C10000B305C10546
S1130090CF05DD05EB05F905070615062306310630
S11300A03F064D06670682069406A606DF06040789
S11300B0160728075107590761077307ED07010859
S11300C053084D09D509EE098F0A500B850BF30B24
S11300D0F80B470C930CB30CEE0C350DE90D850BA6
S11300E0EE0BF80B470C930CB30CEE0C350DE90D2D
S11300F0850BF30BFC0B470C930CB30CEE0C350D7A
S1130100E90D28155615621581159F15C115101690
S11301103C16CD1728155B15621581159F15C11561
S113012010163C16CD17891BC71BDB1BD11BE51B07
S1130130141C381C9B1CB71CD31CC11DE91C0A1DB4
S1130140901DAC1DCE1D1A1E241E2E1E381E551EBB
S1130150621E8B1E941E000000000000005F000061
S11301600007000700147F147F14242A7F2A122317
S11301701308646236495522500005030000001C30
S11301802241000041221C0014083E081408083EC5
S113019008080050300000080808080800606000E3
S11301A00020100804023E5149453E00427F4000B1
S11301B042615149462141454B311814127F1027A1
S11301C0454545393C4A49493001710905033649D9
S11301D0494936064949291E00363600000056367C
S11301E000000814224100141414141400412214B1
S11301F0080201510906324979413E7E1111117EEE
S11302007F494949363E414141227F4141221C7F79
S1130210494949417F090909013E4149497A7F0811
S113022008087F00417F41002040413F017F0814BE
S113023022417F404040407F020C027F7F0408102F
S11302407F3E4141413E7F090909063E4151215EFD
S11302507F09192946464949493101017F01013F76
S11302604040403F1F2040201F3F4038403F631420
S113027008146307087008076151494543007F412A
S1130280410002040810200041417F0004020102E1
S1130290044040404040000102040020545454787B
S11302A07F484444383844444420384444487F38E0
S11302B054545418087E0901020C5252523E7F08CD
S11302C004047800447D40002040443D007F102811
S11302D0440000417F40007C041804787C08040436
S11302E07838444444387C14141408081414187CD2
S11302F07C080404084854545420043F4440203CDF
S11303004040207C1C2040201C3C4030403C442881
S11303101028440C5050503C4464544C440008365B
S1130320410000007F00000041360800100808105A
S113033008000000000011241FBECFEFD0E4DEBF90
S1130340CDBF16E0A0E0B1E0E6E1FEE400E00BBFC3
S113035002C007900D92AC3CB107D9F72FE0ACEC8A
S1130360B6E001C01D92AD35B207E1F70E94D01E80
S11303700C94092745CECF93DF93EC010E941823F8
S11303802091CC063091CD06C9018C0F9D1F8C3D68
S113039045E0940758F42817390758F4E901C25383
S11303A0D94F9093CD068093CC0605C0C0E0D0E031
S11303B002C0C0E0D0E00E94E223CE01DF91CF91E1
S11303C008950895FC010396928381832FEF3FEFF4
S11303D0348323839683858390878783108208954B
S11303E0FC01118610860895CF93DF93FC01DB0195
S11303F021813281E9018A819B8113969C938E939A
S113040012978181928115969C938E9314978A8179
S11304109B81EC017D836C83E9017B836A83728316
S113042061831996FC93EE93189780818F5F808384
S1130430DF91CF910895CF93DF93EB0148815981E8
S11304404F3F2FEF520731F4DC011796ED91FC91E9
S1130450189717C0FC013396DC0115962D913C9139
S11304601697D9012D913C914217530750F0028001
S1130470F381E02DA281B3812D913C914217530762
S1130480B0F7A281B381BB83AA831596DC93CE9384
S11304901497FD83EC83D383C28399878887FC01F7
S11304A020812F5F2083DF91CF910895FC01A281E9
S11304B0B3818481958115969C938E931497A4811E
S11304C0B5818281938113969C938E931297A08514
S11304D0B18511968D919C911297E817F90731F423
S11304E08481958112969C938E9311971186108620
S11304F08C9181508C9308950E944A1F61E088E298
S113050092E00E9430206AE082E00E94422061E092
S113051085EC91E00E94302064E182E00E94422058
S113052061E08FEC91E00E9430206EE182E00E9455
S1130530422061E087ED91E00E9430200C94472036
S113054008950E944A1F61E08AED91E00E943020E4
S11305506AE082E00E94422061E083EE91E00E9422
S1130560302064E182E00E94422061E08DEE91E05F
S11305700E9430206EE182E00E94422061E086EF1A
S113058091E00E94302068E282E00E94422061E013
S113059080E092E00E9430200C94472008950E944D
S11305A04A1F61E086EE91E00E9430206AE082E01A
S11305B00E94422061E08DE092E00E94302064E1DC
S11305C082E00E94422061E08AE192E00E943020B1
S11305D06EE184E10E94422061E084E192E00E94A5
S11305E0302068E282E00E94422061E085E292E0ED
S11305F00E9430200C94472008950E944A1F61E015
S113060080EF91E00E9430206AE082E00E94422064
S113061061E082E392E00E94302064E182E00E9483
S1130620422061E08EE392E00E9430206EE182E09D
S11306300E94422061E085E292E00E9430200C9406
S113064047200895CF93DF93EC010E944A1F61E095
S11306508DE492E00E9430206AE080E00E94422013
S113066061E0CE010E9430200E944720DF91CF91AB
S113067008958EEF88B9000086B1809584FD46C048
S113068086B1809585FD44C086B1809586FD42C0C3
S113069086B1809590E0880F892F881F990B9195DA
S11306A0892BD1F58DEF88B9000086B1809584FD42
S11306B035C086B1809585FD33C086B1809586FDB1
S11306C031C086B1809590E0880F892F881F990BDF
S11306D09195892B49F58BEF88B9000086B18095F7
S11306E084FD24C086B1809585FD22C086B18095A5
S11306F086FD20C086B1809590E0880F892F881FE1
S1130700990B9195892BC1F480E0089581E30895B4
S113071084E3089587E308958AE2089582E30895BF
S113072085E3089588E3089580E3089583E30895B5
S113073086E3089589E3089583E208950E944A1F99
S113074061E088E592E00E9430206AE082E00E9445
S1130750422061E086E692E00E94302064E182E07B
S11307600E94422061E08EE692E00E9430206EE119
S113077082E00E94422061E086E792E00E943020FD
S113078068E282E00E94422061E080E892E00E94F8
S113079030200C94472008950E944A1F61E089E8A4
S11307A092E00E9430206AE080E00E94422061E0F2
S11307B08FE892E00E9430200C94472008950E9414
S11307C04A1F61E08BE992E00E9430206AE080E0F9
S11307D00E94422061E089EA92E00E9430200C9459
S11307E0472008951092E80C1092E70CE5E4F1E03C
S11307F08FE5808311821282138208958091F10C17
S11308008130C1F40E944A1F61E083EB92E00E94B0
S113081030206AE080E00E94422061E08FEB92E0A9
S11308200E94302061E086E591E00E9430200C9423
S113083047200895823031F50E944A1F61E083EB1E
S113084092E00E9430206AE080E00E94422061E051
S11308508FEB92E00E94302061E086E591E00E94F7
S1130860302064E180E00E94422061E083EC92E069
S11308700E94302061E081E791E00E9430200C94D6
S1130880472008958330A1F50E944A1F61E083EB5D
S113089092E00E9430206AE080E00E94422061E001
S11308A08FEB92E00E94302061E086E591E00E94A7
S11308B0302064E180E00E94422061E083EC92E019
S11308C00E94302061E081E791E00E9430206EE1D7
S11308D080E00E94422061E087EC92E00E94302098
S11308E061E08CE891E00E9430200C944720089548
S11308F0843009F042C00E944A1F61E083EB92E019
S11309000E9430206AE080E00E94422061E08FEB88
S113091092E00E94302061E086E591E00E94302060
S113092064E180E00E94422061E083EC92E00E9456
S1130930302061E081E791E00E9430206EE180E0A8
S11309400E94422061E087EC92E00E94302061E046
S11309508CE891E00E94302068E280E00E9442200E
S113096061E08BEC92E00E94302061E087EA91E044
S11309700E9430200C94472008950E944A1F61E091
S11309808FEC92E00E9430200C94472008952FC0F1
S11309904091DA0C5091DB0C6091DC0C7091DD0C11
S11309A0443151056105710549F41092DA0C109235
S11309B0DB0C1092DC0C1092DD0C089587EA91E6B2
S11309C00197F1F700C000008091DA0C9091DB0CE4
S11309D0A091DC0CB091DD0C0196A11DB11D80939A
S11309E0DA0C9093DB0CA093DC0CB093DD0C41DEAD
S11309F08093570F882361F23CDE80935B0F9091C4
S1130A00570F8917C9F31092DA0C1092DB0C10926D
S1130A10DC0C1092DD0C8091E00C98138AC02091BC
S1130A20DE0C3091DF0C2330310538F42F5F3F4F5B
S1130A303093DF0C2093DE0C04C01092DF0C109274
S1130A40DE0C813341F4E091DE0CF091DF0CEF5BBE
S1130A50FE4F80810895823341F4E091DE0CF091E1
S1130A60DF0CE35CFE4F80810895833341F4E09111
S1130A70DE0CF091DF0CE75CFE4F80810895843337
S1130A8041F4E091DE0CF091DF0CEB5CFE4F8081D1
S1130A900895853341F4E091DE0CF091DF0CEF5CB6
S1130AA0FE4F80810895863341F4E091DE0CF0918D
S1130AB0DF0CE35DFE4F80810895873341F4E091BC
S1130AC0DE0CF091DF0CE75DFE4F808108958833E2
S1130AD041F4E091DE0CF091DF0CEB5DFE4F808180
S1130AE00895893341F4E091DE0CF091DF0CEF5D61
S1130AF0FE4F80810895803341F4E091DE0CF09143
S1130B00DF0CE35EFE4F808108958A3241F4E09168
S1130B10DE0CF091DF0CE75EFE4F80810895833296
S1130B2071F4E091DE0CF091DF0CEB5EFE4F8081FE
S1130B3008959093E00C1092DF0C1092DE0C8091DB
S1130B40E00C089510925C0FD7CC0895E0915C0FEF
S1130B508E2F90E08C30910508F0ACC0FC01EA5B6C
S1130B60FF4F0C94DB2685DD8093FC0C82DD909195
S1130B70FC0C89139FC07DDD9091FC0C9817D9F370
S1130B8099C077DD8093FB0C74DD9091FB0C891385
S1130B9091C06FDD9091FB0C9817D9F38BC069DD80
S1130BA08093FB0C66DD9091FB0C891383C061DD9F
S1130BB09091FB0C9817D9F37DC05BDD8093FA0C00
S1130BC058DD9091FA0C891375C053DD9091FA0C9D
S1130BD09817D9F36FC04DDD8093F90C4ADD9091DD
S1130BE0F90C891367C045DD9091F90C9817D9F376
S1130BF061C03FDD8093FB0C3CDD9091FB0C8913BD
S1130C0059C037DD9091FB0C9817D9F353C031DDEF
S1130C108093FB0C2EDD9091FB0C89134BC029DDD6
S1130C209091FB0C9817D9F345C023DD8093F80C01
S1130C3020DD9091F80C89133DC01BDD9091F80CD8
S1130C409817D9F337C015DD8093FB0C12DD909112
S1130C50FB0C89132FC00DDD9091FB0C9817D9F371
S1130C6029C007DD8093FB0C04DD9091FB0C8913F4
S1130C7021C0FFDC9091FB0C9817D9F31BC0F9DC61
S1130C808093FB0CF6DC9091FB0C891313C0F1DC10
S1130C909091FB0C9817D9F30DC0EBDC8093FB0CFF
S1130CA0E8DC9091FB0C891305C0E3DC9091FB0C0C
S1130CB09817D9F3E0915C0F8E2F90E08C3091055A
S1130CC008F023C1FC01EE5AFF4F0C94DB268091FF
S1130CD0FC0C813331F481E08093F40C80935C0F3D
S1130CE00895823339F481E08093F30C82E0809399
S1130CF05C0F0895833309F015C183E080935C0F82
S1130D0020CC08958091F40C81110CC11092FC0C3C
S1130D101092FB0C1092FA0C1092F90C1092F80C31
S1130D20EBDB10925C0F08958091F30C8111FAC0F3
S1130D301092FC0C1092FB0C1092FA0C1092F90C0D
S1130D401092F80CD9DB10925C0F08958091FA0C84
S1130D50813329F484E080935C0F21CC089582339D
S1130D6029F487E080935C0F48CC08958333B1F471
S1130D708BE080935C0F0E944A1F61E087E093E060
S1130D800E9430206AE082E00E94422061E086E115
S1130D9093E00E9430200C9447200895843309F096
S1130DA0C1C010925C0F1092FC0C1092FB0C1092BC
S1130DB0FA0C1092F90C1092F80C9ECB08958091C5
S1130DC0F90C813339F481E08093E90C85E0809358
S1130DD05C0F0895823339F481E08093E10C86E05E
S1130DE080935C0F0895833309F09CC010925C0FCC
S1130DF01092FC0C1092FB0C1092FA0C1092F90C4D
S1130E001092F80C79CB08958091E90C81118AC075
S1130E1010925C0F1092FC0C1092FB0C1092FA0CC6
S1130E201092F90C1092F80C67CB08958091E10CA4
S1130E30811178C010925C0F1092FC0C1092FB0C84
S1130E401092FA0C1092F90C1092F80C55CB0895EC
S1130E508091F80C813351F488E080935C0F81E039
S1130E608093F70C82E293E0EDCB0895823341F452
S1130E7089E080935C0F81E08093F60CBFCC0895E9
S1130E80833309F04FC010925C0F1092FC0C109247
S1130E90FB0C1092FA0C1092F90C1092F80C2CCB5B
S1130EA008958091F70C81113DC026DB10925C0FF0
S1130EB008958091F60C811135C01EDB10925C0FF1
S1130EC008958091FB0C833269F510925C0F1092A7
S1130ED0FC0C1092FB0C1092FA0C1092F90C10926C
S1130EE0F80C0ACB08958091FB0C8332D9F410924C
S1130EF05C0F1092FC0C1092FB0C1092FA0C1092E6
S1130F00F90C1092F80CF8CA089510925C0F109224
S1130F10FC0C1092FB0C1092FA0C1092F90C10922B
S1130F20F80CEACA08950EDE11DE8AE090E00E9411
S1130F306624FACFAF92BF92CF92DF92EF92FF92E4
S1130F400F93A12CB12CC12CD12CE12CF12C082F06
S1130F5020E030E045E550E064E273E083E997E0A7
S1130F600E94EE210F91FF90EF90DF90CF90BF9001
S1130F70AF9008959091CC0C8091C30C98130FC03E
S1130F80EDECFCE0A4ECBCE024ED3CE091918D910F
S1130F90981307C0E217F307C9F781E0089580E0CA
S1130FA0089580E00895EF92FF920F931F93CF93DB
S1130FB0DF93E091530F8E2F90E0FC013197E830DE
S1130FC0F10508F095C3E25AFF4F0C94DB268FE439
S1130FD093EC0197F1F700C000004BDB8093C10C48
S1130FE08823A9F306C0EFE4F3EC3197F1F700C0CE
S1130FF000003FDB8093C00C9091C10C891799F3DA
S113100077C3C5DC8093C10C1092C00C833209F401
S11310101CC6CFE58A32B1F4E091D90CEE2371F00D
S1131020E150E093D90CF0E0E95FFE4FC0831182F8
S11310301092C00C87E091E005DB28C087E091E0C6
S113104001DB24C0882369F0E091D90CF0E0E95F6A
S1131050FE4F808311828093C00C87E091E0F2DA26
S113106015C08091C00C882389F0E091D90CE93037
S113107068F4EF5FE093D90CF0E0E95FFE4FC083C2
S113108011821092C00C87E091E0DCDA80DC80935E
S1131090C10C833209F0BECFD8C58FE493EC01971D
S11310A0F1F700C00000E5DA8093C10C8823A9F3AE
S11310B006C0EFE4F3EC3197F1F700C00000D9DA91
S11310C08093C00C9091C10C891799F3C2E0D1E0D0
S11310D01FE5D7C0882309F4C1C08A3209F496C039
S11310E02091D70C3091D80C2115310521F5282FEA
S11310F030E0205331093093D80C2093D70C8883E7
S11311000E944A1F61E081E393E00E9430206AE07C
S113111080E00E94422061E08CE393E00E94302052
S113112064E180E00E94422061E0CE010E94302010
S11311300E94472093C0A9014150510949305105EB
S113114078F5A901440F551F220F331F220F331FB7
S1131150220F331F240F351F280F311D205331094F
S11311603093D80C2093D70C89830E944A1F61E0E6
S113117081E393E00E9430206AE080E00E944220F4
S113118061E08CE393E00E94302064E180E00E94FF
S1131190422061E0CE010E9430200E9447205EC0C0
S11311A0A9014A5051094A35510508F057C0A9010F
S11311B0440F551F220F331F220F331F220F331FDB
S11311C0240F351F280F311D205331093093D80CBB
S11311D02093D70C8A830E944A1F61E081E393E045
S11311E00E9430206AE080E00E94422061E08CE3AB
S11311F093E00E94302064E180E00E94422061E09C
S1131200CE010E9430200E94472028C01092D80CA2
S11312101092D70C188319821A820E944A1F61E027
S113122081E393E00E9430206AE080E00E94422043
S113123061E08CE393E00E94302064E180E00E944E
S1131240422061E0CE010E9430200E94472006C067
S113125087EA91E60197F1F700C000000ADA80936B
S1131260C10C8823A9F306C0E7EAF1E63197F1F748
S113127000C00000FED98093C00C9091C10C891766
S113128099F38091C10C833209F024CFDEC48FE43A
S113129093EC0197F1F700C00000EBD98093C10CE7
S11312A08823A9F306C0EFE4F3EC3197F1F700C00B
S11312B00000DFD98093C00C9091C10C891799F379
S11312C0C1E0D2E06CC0813331F5C093D60C0E94EA
S11312D04A1F6C2F8AE493E00E9430206AE080E089
S11312E00E9442206C2F88E593E00E94302064E144
S11312F080E00E9442206C2F80E693E00E94302020
S11313006EE180E00E9442206C2F8BE593E00E9406
S113131030200E9447208091C10C823369F5D0931C
S1131320D60C0E944A1F6C2F8AE493E00E9430205E
S11313306AE080E00E9442206C2F88E593E00E94DE
S1131340302064E180E00E9442206C2F80E693E02C
S11313500E9430206EE180E00E9442206C2F83E6E0
S113136093E00E9430200E94472006C08FE493EC53
S11313700197F1F700C000007CD98093C10C882349
S1131380A9F306C0EFE4F3EC3197F1F700C00000D5
S113139070D98093C00C9091C10C891799F38091F6
S11313A0C10C833209F08FCF50C480B1809582FF85
S11313B004C08AE08093D50CDAC280B1809583FFA3
S11313C004C087E08093D50CD2C21092D50CFFC222
S11313D08FE493EC0197F1F700C000004AD98093A1
S11313E0C10C8823A9F306C0EFE4F3EC3197F1F7BD
S11313F000C000003ED98093C00C9091C10C8917A5
S113140099F3C4EDDCE00CEC1CE00F2EFAE2FF2EA5
S1131410F02D79C0882309F463C08A32B1F1209198
S1131420C20C283008F05CC030E0F901E453F34FFB
S113143080832F5F3F4F2830310524F4F901E453B2
S1131440F34FF0820E944A1F61E08AE693E00E9413
S113145030206AE080E00E94422061E081E793E06E
S11314600E94302064E180E00E94422061E0C801D3
S11314700E9430200E9447208091C20C8F5F80938D
S1131480C20C8091C10C8A3259F51092C20CECEC5A
S1131490FCE01192CE17DF07E1F7F801F0820E9419
S11314A04A1F61E08AE693E00E9430206AE080E00F
S11314B00E94422061E081E793E00E94302064E1D1
S11314C080E00E94422061E0C8010E9430200E9416
S11314D0472006C08FE493EC0197F1F700C00000A9
S11314E0C8D88093C10C8823A9F306C0EFE4F3ECB9
S11314F03197F1F700C00000BCD88093C00C9091E4
S1131500C10C891799F38091C10C833209F082CF01
S11315109CC38FE493EC0197F1F700C00000A9D8B5
S11315208093C10C8823A9F306C0EFE4F3EC319750
S1131530F1F700C000009DD88093C00C9091C10CBD
S1131540891799F3CBECDCE003EC1CE00F2EFAE2F4
S1131550FF2EF02D8EC0882309F478C08A3209F456
S113156040C02091C20C283008F070C030E0F9016E
S1131570ED53F34F80832F5F3F4F2830310524F420
S1131580F901ED53F34FF0820E944A1F61E08DE6AA
S113159094E00E9430206AE080E00E94422061E0F2
S11315A08AE793E00E9430206AE08CE30E944220A4
S11315B08091BF0C61E0805D0E94861F64E180E041
S11315C00E94422061E0C8010E9430200E9447200E
S11315D08091C20C8F5F8093C20C8091C10C8A32BF
S11315E0A9F51092C20CE3ECFCE01192EC17FD0794
S11315F0E1F7F801F0820E944A1F61E08DE694E071
S11316000E9430206AE080E00E94422061E08AE784
S113161093E00E9430206AE08CE30E944220809193
S1131620BF0C61E0805D0E94861F64E180E00E943F
S1131630422061E0C8010E9430200E94472006C079
S11316408FE493EC0197F1F700C0000012D8809367
S1131650C10C8823A9F306C0EFE4F3EC3197F1F74A
S113166000C0000006D88093C00C9091C10C89176B
S113167099F38091C10C833209F06DCF7BDC811129
S113168006C08091BF0C8F5F8093BF0CDEC21092A6
S1131690BF0CDBC28FE493EC0197F1F700C00000AC
S11316A00E9439038093C10C8823A1F306C0EFE4A0
S11316B0F3EC3197F1F700C000000E9439038093E6
S11316C0C00C9091C10C891791F3933209F0FFCFAC
S11316D081E08093BE0CE091530F8E2F90E089300F
S11316E0910508F0A9C2FC01EA59FF4F0C94DB26CE
S11316F0E091530F8E2F90E08930910508F09CC241
S1131700FC01E159FF4F0C94DB268091F70C8823F0
S113171009F4A7C28091EA0C811153C08091F10CA5
S1131720843029F41092F70C1092530F9AC2A7E058
S1131730B1E0E2E0F1E080E01D92853008F410822F
S11317408F5F31968E30C1F78FE5809307018093C8
S113175002011092D90C1092D80C1092D70C10924E
S1131760D60CECECFCE0A3ECBCE084ED9CE0119224
S11317701D92E817F907D9F78AE28093CC0C1092EE
S1131780C30C1092C20C1092C10C1092C00C109297
S1131790BF0C1092BE0C0E944A1F61E08DE492E0DF
S11317A00E9430206AE080E00E94422061E087E0ED
S11317B091E00E9430200E94472082E08093530FE2
S11317C050C20E944A1F61E084E893E00E943020E6
S11317D00E94472081E08093530F43C28091C10C43
S11317E0882309F43EC21092F70C1092530F39C2A9
S11317F08091C10C8332A1F58091D90C8823A1F189
S11318009091F70C992309F43FC0E82FF0E0E95FC9
S1131810FE4F108281508093D90C1092D80C1092F4
S1131820D70C0E944A1F61E081E393E00E943020BC
S11318306AE080E00E94422061E08CE393E00E9431
S1131840302064E180E00E94422061E082E293E083
S11318500E9430200E94472083E08093530F01C2EE
S11318608091D90C81110CC08091F70C882361F010
S113187082E293E00E94220382E08093530FF1C13D
S11318808091F70C8111EDC11092530FEAC1809140
S1131890D70C9091D80C8B35910578F12091F70CE9
S11318A0222309F4CDC11092D60C0E944A1F61E094
S11318B08AE493E00E9430206AE080E00E944220A3
S11318C061E088E593E00E94302064E180E00E94BA
S11318D0422061E080E693E00E9430206EE180E0E7
S11318E00E94422061E082E293E00E9430200E9444
S11318F0472084E08093530FB4C18A35910560F486
S11319008091F70C882361F01092D80C1092D70CB8
S113191083E08093530FA5C18091F70C8111A1C17D
S11319201092530F9EC18091D60C8823A9F0809108
S1131930F70C8823A9F081E08093ED0C289A0E948B
S11319404A1F61E087EA93E00E9430200E9447200A
S113195085E08093530F85C18091F70C811181C17B
S11319601092530F7EC18091D50C882381F1809110
S1131970F70C882381F11092C20CECECFCE084EDAE
S11319809CE01192E817F907E1F78AE28093CC0C06
S11319900E944A1F61E08AE693E00E9430206AE0D8
S11319A080E00E94422061E081E793E00E943020C1
S11319B064E180E00E94422061E084E193E00E94BF
S11319C030200E94472086E08093530F4AC18091C3
S11319D0F70C811146C11092530F43C18091C20C80
S11319E08830E1F58091F70C8823E1F10E944A1FC9
S11319F061E08DE694E00E9430206AE080E00E947D
S1131A00422061E085EB93E00E9430206AE08CE3A1
S1131A100E9442208091BF0C61E0805D0E94861F7D
S1131A2064E180E00E94422061E084E193E00E944E
S1131A3030200E9447201092C20C1092BF0CE3EC9D
S1131A40FCE08BEC9CE01192E817F907E1F78AE2DD
S1131A508093C30C87E08093530F03C18091F70CEC
S1131A608111FFC01092530FFCC08091BF0C8111F3
S1131A7039C08091F70C882309F4A8C00E944A1F3A
S1131A8061E087E091E00E9430206AE080E00E94FB
S1131A90422061E082E091E00E9430206AE084E12B
S1131AA00E94422061E086E493E00E94302064E1D9
S1131AB080E00E9442208091D60C813031F461E0B4
S1131AC08BE593E00E94302007C0823029F461E066
S1131AD083E693E00E9430200E94472088E08093B0
S1131AE0530FBFC08330C1F58091F70C882309F4EC
S1131AF06DC00E944A1F61E08AE693E00E94302094
S1131B006AE080E00E94422061E081E793E00E9465
S1131B10302064E180E00E94422061E084E193E0AF
S1131B200E9430200E9447201092BF0C1092C20CD9
S1131B30ECECFCE0A3ECBCE084ED9CE011921D9283
S1131B40E817F907D9F78AE28093CC0C1092C30CFA
S1131B5086E08093530F85C08091F70C8823B1F100
S1131B600E944A1F61E08DE694E00E9430206AE002
S1131B7080E00E94422061E085EB93E00E943020E7
S1131B806AE08CE30E9442208091BF0C61E0805D9A
S1131B900E94861F64E180E00E94422061E084E1AB
S1131BA093E00E9430200E9447201092C20CE3EC84
S1131BB0FCE08BEC9CE01192E817F907E1F78AE26C
S1131BC08093C30C87E08093530F4BC01092530F44
S1131BD048C08091BE0C882309F443C01092F70CCE
S1131BE0C091F10CFBE1CF9F7001112487010A5AC7
S1131BF01E4F4EE050E067E071E0C8010E94FA26F3
S1131C0049E050E06CEC7CE0C70188599E4F0E948B
S1131C10FA268091D60CF801808B8091D70C909194
S1131C20D80C978786878091D50C818BCF5FC09322
S1131C30F10C1092530F15C082E08093530F11C022
S1131C408A35910508F46CCE67CEE091530F8E2F40
S1131C5090E08930910580F7FC01E858FF4F0C941F
S1131C60DB26DF91CF911F910F91FF90EF900895A4
S1131C701092530F98D984E690E00E946624FACF1C
S1131C80AF92BF92CF92DF92EF92FF920F93A12C6B
S1131C90B12CC12CD12CE12CF12C082F20E030E008
S1131CA045E550E060EC73E088E39EE00E94EE219D
S1131CB00F91FF90EF90DF90CF90BF90AF90089579
S1131CC0AF92BF92CF92DF92EF92FF920F931F9346
S1131CD0CF93DF93CDB7DEB767970FB6F894DEBF27
S1131CE00FBECDBF062F20E230E03A832983FE01E8
S1131CF033969CE0DF011D929A95E9F7388B2F8784
S1131D003E9697E0DF011D929A95E9F71BE1189F33
S1131D1050011124F501EA5AFE4F6F014EE050E0E4
S1131D20BF01CE0101960E94FA26109F8001112462
S1131D30C8018A5A9E4F7C014EE050E0BC01C601A6
S1131D400E94FA264EE050E0BE016F5F7F4FC7014C
S1131D500E94FA26D501A859BE4F5D0149E050E022
S1131D60BD01CE010F960E94FA2608591E4F49E084
S1131D7050E0B801C5010E94FA2649E050E0BE01D6
S1131D80615F7F4FC8010E94FA26F6018685978518
S1131D90D7011E962D913C911F97378726871F9652
S1131DA09C938E931E97808950969C915097908B0C
S1131DB050968C9367960FB6F894DEBF0FBECDBFD6
S1131DC0DF91CF911F910F91FF90EF90DF90CF9013
S1131DD0BF90AF900895E09101018BE1E89FD0019D
S1131DE01124AA5ABE4F52969C918091B20C98131A
S1131DF013C08BE1E89FF0011124E759FE4FA3EBD8
S1131E00BCE02AEB3CE091918D91981307C0A21796
S1131E10B307C9F781E0089580E0089580E008954C
S1131E20FF920F931F93CF93DF938091560F8330CC
S1131E3009F44BC028F4813081F0823051F135C16E
S1131E40843009F461C0853009F41AC12EC18FE4CD
S1131E5093EC0197F1F700C000000E9439038093CE
S1131E60BD0C8823A1F306C0EFE4F3EC3197F1F73E
S1131E7000C000000E9439038093BC0C9091BD0CFB
S1131E80891791F312C18FE493EC0197F1F700C025
S1131E9000000E9439038093BD0C8823A1F306C07F
S1131EA0EFE4F3EC3197F1F700C000000E9439032E
S1131EB08093BC0C9091BD0C891791F3F6C08FE40C
S1131EC093EC0197F1F700C000000E94390380935E
S1131ED0BD0C8823A1F306C0EFE4F3EC3197F1F7CE
S1131EE000C000000E9439038093BC0C9091BD0C8B
S1131EF0891791F391539093BD0CD7C08FE493EC61
S1131F000197F1F700C000000E9439038093BD0CD3
S1131F108823A1F306C0EFE4F3EC3197F1F700C096
S1131F2000000E9439038093BC0C9091BD0C89176A
S1131F3091F3CAEBDCE002EB1CE00F2EFAE2FF2E79
S1131F40F02D87C0882309F46FC08A32E1F1209113
S1131F50C20C283008F068C030E0F901EE54F34FA9
S1131F6080832F5F3F4F2830310524F4F901EE546C
S1131F70F34FF0820E944A1F61E089E892E00E94D8
S1131F8030206AE080E00E94422061E085EB93E02B
S1131F900E9430208091BB0C61E0805D0E94861F0E
S1131FA064E180E00E94422061E0C8010E94302088
S1131FB00E9447208091C20C8F5F8093C20C809155
S1131FC0BD0C8A3289F51092C20CE2EBFCE011924E
S1131FD0CE17DF07E1F7F801F0820E944A1F61E0A3
S1131FE089E892E00E9430206AE080E00E9442206A
S1131FF061E085EB93E00E9430208091BB0C61E0AE
S1132000805D0E94861F64E180E00E94422061E0BE
S1132010C8010E9430200E94472006C08FE493EC40
S11320200197F1F700C000000E9439038093BD0CB2
S11320308823A1F306C0EFE4F3EC3197F1F700C075
S113204000000E9439038093BC0C9091BD0C891749
S113205091F38091BD0C833209F074CFBCDE811101
S113206006C08091BB0C8F5F8093BB0CD1C11092D2
S1132070BB0CCEC18FE493EC0197F1F700C00000D4
S11320800E9439038093BD0C8823A1F306C0EFE4BA
S1132090F3EC3197F1F700C000000E9439038093FC
S11320A0BC0C9091BD0C891791F38091560F82302E
S11320B009F449C028F4882361F08130D1F19CC12E
S11320C0843009F49FC008F448C0853009F43DC148
S11320D093C18091F60C882309F4B0C18091F10C6E
S11320E08150843068F41092BD0C1092BC0C109294
S11320F0BB0C85E08093010183E08093560F9EC161
S11321008091EA0C811104C08091EB0C882369F062
S11321100E944A1F61E084E893E00E9430200E94FC
S1132120472081E08093560F89C182E08093560F47
S113213085C18091BD0C882309F480C11092F60CEE
S11321401092560F7BC18091BD0C882309F476C18F
S11321501092F60C1092560F71C18091BD0C9091A3
S1132160F10C8917C0F59091F60C9923C1F1809375
S113217001010E944A1F61E089E892E00E94302038
S11321806AE080E00E94422061E085EB93E00E94D7
S113219030208091BB0C61E0805D0E94861F64E169
S11321A080E00E94422061E084E193E00E943020BC
S11321B00E9447201092BB0CE2EBFCE08AEB9CE00F
S11321C011928E179F07E1F78AE28093B20C84E0A4
S11321D08093560F33C18091F60C81112FC1109258
S11321E0BB0C1092C20CE2EBFCE08AEB9CE0119277
S11321F0E817F907E1F71092B20C0E947C021092E2
S1132200560F1CC18091BB0C81113CC08091F60C0F
S1132210882309F489C00E944A1F61E08CEC93E092
S11322200E9430206AE080E00E94422080910101F7
S1132230FBE18F9FC001112461E08A5A9E4F0E94E6
S1132240302064E180E00E94422061E083ED93E06D
S11322500E9430206EE180E00E94422061E080EE26
S113226093E00E94302068E280E00E94422061E016
S113227087EE93E00E9430200E94472085E08093FF
S1132280560FDCC08330D1F48091F60C882309F416
S11322904BC01092BB0C1092C20CE2EBFCE08AEB38
S11322A09CE01192E817F907E1F71092B20C109232
S11322B0F60C0E947C021092560FC0C08091F60C5E
S11322C0882391F10E944A1F61E089E892E00E940C
S11322D030206AE080E00E94422061E085EB93E0D8
S11322E00E9430208091BB0C61E0805D0E94861FBB
S11322F064E180E00E94422061E084E193E00E9476
S113230030200E9447201092C20CE2EBFCE08AEBE2
S11323109CE01192E817F907E1F78AE28093B20C86
S113232084E08093560F8AC01092BB0C1092C20CAA
S1132330E2EBFCE08AEB9CE011928E179F07E1F739
S11323401092B20C1092560F79C08091BD0C83325A
S113235009F03DC08091010181110EC061E0B0DC43
S113236062E081E0ADDC63E082E0AADC8091F10C04
S113237081508093F10C16C0813059F462E0A0DCE6
S113238063E082E09DDC8091F10C81508093F10C3C
S113239009C08230A1F1833029F48091F10C81507D
S11323A08093F10C1092BB0C1092C20CE2EBFCE097
S11323B08AEB9CE01192E817F907E1F71092B20C4E
S11323C01092F60C0E947C021092560F37C08A328B
S11323D0A9F50E94FE031092BB0C1092C20CE2EB12
S11323E0FCE08AEB9CE011928E179F07E1F71092B4
S11323F0B20C1092560F22C01092560F1FC063E009
S113240082E05EDC8091F10C81508093F10CCACFA4
S11324108091560F823009F49BCE38F4882309F456
S113242058CE813009F48ACEE7CF843009F4EACE5D
S113243008F493CE853009F488CFDECFDF91CF91B5
S11324401F910F91FF9008951092560FE9DC84E6D6
S113245090E00E946624FACFAF92BF92CF92DF92AF
S1132460EF92FF920F93A12CB12CC12CD12CE12C13
S1132470F12C082F20E030E045E550E06FEE73E0EA
S113248084E292E10E94EE210F91FF90EF90DF90A1
S1132490CF90BF90AF900895CF92DF92EF92FF92CA
S11324A00F931F93CF93DF938091540F853009F4DA
S11324B04DC028F4813091F0843061F1BCC2873082
S11324C009F4ADC108F45EC0883009F49FC2B3C2F8
S11324D08FE493EC0197F1F700C000000E943903E8
S11324E08093E80C8823A1F306C08FE493EC019752
S11324F0F1F700C000000E9439038093E70C90912B
S1132500E80C891791F397C28FE493EC0197F1F7E4
S113251000C000000E9439038093E80C8823A1F3D3
S113252006C08FE493EC0197F1F700C000000E940D
S113253039038093E70C9091E80C891791F37BC2DF
S11325408FE493EC0197F1F700C000000E94390377
S11325508093E80C8823A1F306C08FE493EC0197E1
S1132560F1F700C000000E9439038093E70C9091BA
S1132570E80C891791F35FC28FE493EC0197F1F7AC
S113258000C000000E9439038093E80C8823A1F363
S113259006C08FE493EC0197F1F700C000000E949D
S11325A039038093E70C9091E80C891791F3C5E403
S11325B0D1E01FE528C1882309F410C18A3209F447
S11325C0DFC02091E40C3091E50C2115310549F56B
S11325D0282F30E0205331093093E50C2093E40C8C
S11325E088830E944A1F61E089E892E00E943020BB
S11325F06AE080E00E94422061E08FE892E00E945D
S1132600302064E180E00E94422061E0CE010E941B
S1132610302061E085E992E00E9430200E9447204A
S1132620DDC0A9014150510949305105A0F5A90166
S1132630440F551F220F331F220F331F220F331F46
S1132640240F351F280F311D205331093093E50C19
S11326502093E40C89830E944A1F61E089E892E098
S11326600E9430206AE080E00E94422061E08FE80E
S113267092E00E94302064E180E00E94422061E008
S1132680CE010E94302061E085E992E00E94302072
S11326900E944720A3C0A9014A5051094A35510557
S11326A0A0F5A901440F551F220F331F220F331F1A
S11326B0220F331F240F351F280F311D20533109DA
S11326C03093E50C2093E40C8A830E944A1F61E056
S11326D089E892E00E9430206AE080E00E94422073
S11326E061E08FE892E00E94302064E180E00E9483
S11326F0422061E0CE010E94302061E085E992E051
S11327000E9430200E94472069C0A9014456510903
S11327104438534008F062C0A901440F551F220FEA
S1132720331F220F331F220F331F240F351F280F8F
S1132730311D205331093093E50C2093E40C8B8335
S11327400E944A1F61E089E892E00E9430206AE01A
S113275080E00E94422061E08FE892E00E943020F5
S113276064E180E00E94422061E0CE010E943020BA
S113277061E085E992E00E9430200E9447202EC04B
S11327801092E50C1092E40C188319821A821B82B1
S11327900E944A1F61E089E892E00E9430206AE0CA
S11327A080E00E94422061E08FE892E00E943020A5
S11327B064E180E00E94422061E0CE010E9430206A
S11327C061E085E992E00E9430200E94472006C023
S11327D08FE493EC0197F1F700C000000E943903E5
S11327E08093E80C8823A1F306C08FE493EC01974F
S11327F0F1F700C000000E9439038093E70C909128
S1132800E80C891791F38091E80C833209F0D3CE58
S1132810E7C38FE493EC0197F1F700C000000E9436
S113282039038093E80C8823A1F306C08FE493EC6A
S11328300197F1F700C000000E9439038093E70C70
S11328409091E80C891791F3C5E4D1E00F2EFFE5D0
S1132850FF2EF02DCFC0882309F4B7C08A3209F4C3
S113286088C09091E30C911125C090ED980F90933E
S1132870E30C88830E944A1F61E08BE992E00E9486
S113288030206AE080E00E94422061E089EA92E020
S11328900E94302064E180E00E94422061E0CE0189
S11328A00E94302061E080EB92E00E9430200E9480
S11328B047208BC02FEF290F293058F5990F292F66
S11328C0220F220F920F20ED280F920F9093E30C0A
S11328D089830E944A1F61E08BE992E00E943020C4
S11328E06AE080E00E94422061E089EA92E00E946E
S11328F0302064E180E00E94422061E0CE010E9429
S1132900302061E080EB92E00E9430200E9447205A
S11329105CC026EF290F2A3508F057C0990F292FDC
S1132920220F220F920F20ED280F920F9093E30CA9
S11329308A830E944A1F61E08BE992E00E94302062
S11329406AE080E00E94422061E089EA92E00E940D
S1132950302064E180E00E94422061E0CE010E94C8
S1132960302061E080EB92E00E9430200E944720FA
S11329702CC01092E30CF88219821A821B820E94E6
S11329804A1F61E08BE992E00E9430206AE080E017
S11329900E94422061E089EA92E00E94302064E1D2
S11329A080E00E94422061E0CE010E94302061E07C
S11329B080EB92E00E9430200E94472006C08FE402
S11329C093EC0197F1F700C000000E943903809353
S11329D0E80C8823A1F306C08FE493EC0197F1F788
S11329E000C000000E9439038093E70C9091E80C2A
S11329F0891791F38091E80C833209F02CCFF0C24F
S1132A008FE493EC0197F1F700C000000E943903B2
S1132A108093E80C8823A1F306C08FE493EC01971C
S1132A20F1F700C000000E9439038093E70C9091F5
S1132A30E80C891791F3E091540F8E2F90E08930C0
S1132A40910508F0CAC2FC01EF57FF4F0C94DB2636
S1132A508091E90C882309F4CFC28091E60C882385
S1132A6069F00E944A1F61E08FEF93E00E943020DA
S1132A700E94472084E08093540FBEC28091F10CE1
S1132A8081110DC00E944A1F61E08FEC92E00E9408
S1132A9030200E94472081E08093540FADC281E032
S1132AA08093F50C82E08093540FA6C28091E80CC9
S1132AB0882309F4A1C21092E90C0E94F203109237
S1132AC0540F9AC28091F50C811196C28091F20C38
S1132AD0882381F00E944A1F61E082E394E00E940F
S1132AE030200E944720299A1092F20C83E08093B0
S1132AF0540F82C21092E90C0E94F2031092540FF8
S1132B007BC280B1809591E081FBCC24C0F8D12CAC
S1132B1081FF90E09093EE0CCD2869F08091E90C50
S1132B20882349F029980E949E030E94F20385E0BD
S1132B308093540F61C283E08093540F5DC28091EF
S1132B40E80C833259F48091E90C882359F01092EF
S1132B50E90C0E94F2031092540F4EC28091E90CCA
S1132B6081114AC21092E60C1092E50C1092E40C0A
S1132B701092E30C0E94F2031092E90C1092540F8D
S1132B803BC28091E80C813369F48091E90C88237D
S1132B90D1F181E08093E60C0E94CC0386E080931F
S1132BA0540F2AC2823369F48091E90C882359F1C5
S1132BB082E08093E60C0E94CC0386E08093540F5D
S1132BC01BC2833369F48091E90C8823E1F083E02C
S1132BD08093E60C0E94CC0386E08093540F0CC2D1
S1132BE0843369F48091E90C882369F084E080934C
S1132BF0E60C0E94CC0386E08093540FFDC18091C3
S1132C00E90C8111F9C11092E60C1092E50C1092B6
S1132C10E40C1092E30C0E94F2031092540FECC1E6
S1132C208091E80C8332B9F48091E40C9091E50C26
S1132C30892B89F08091E90C882389F0E5E4F1E09F
S1132C408FE580831182128213820E94DF0387E062
S1132C508093540FD1C18091E90C8111CDC11092A0
S1132C60E60C1092E50C1092E40C1092E30C0E9416
S1132C70F2031092540FC0C18091E80C833209F022
S1132C807BC18091E30C882309F476C18091E90C1F
S1132C90882309F475C10E944A1FE091E60CF0E014
S1132CA0EE0FFF1FE65BFE4F61E0808191810E9481
S1132CB030206AE080E00E944220C091E40CD09170
S1132CC0E50CC83E93E0D90708F48BC0FE01F695E5
S1132CD0E795F695E795F695E7959F01A5ECB0E2A3
S1132CE00E94E4268C01129502950F7001271F7033
S1132CF0012728EE33E0029FC001039F900D129F2D
S1132D00900D11248E01081B190B9E0136952795F1
S1132D1036952795ABE7B4E10E94E426969587950E
S1132D2044E6489F9001499F300D1124BE01621B67
S1132D30730BC8010E94B4267B019F01A5ECB0E28D
S1132D400E94E426929582958F7089279F70892727
S1132D5061E0805D0E94861F98013695279536951F
S1132D602795ABE7B4E10E94E4269695879561E048
S1132D70805D0E94861F9701ADECBCEC0E94E426A6
S1132D8096958795969587959695879561E0805D4C
S1132D900E94861F9E01ADECBCEC0E94E426969531
S1132DA0879596958795969587959C01220F331F55
S1132DB0880F991F880F991F880F991F820F931FDF
S1132DC0BE01681B790BC7010E94B426862F61E0FF
S1132DD0805D0E94861F61E088E594E00E943020B7
S1132DE054C0AE0156954795569547959A01ABE761
S1132DF0B4E10E94E4268C011695079524E6209FF1
S1132E00C001219F900D11248E01081B190B9A01FA
S1132E100E94E4269695879561E0805D0E94861F56
S1132E209801ADECBCEC0E94E426969587959695A6
S1132E3087959695879561E0805D0E94861F9E0127
S1132E40ADECBCEC0E94E426969587959695879503
S1132E50969587959C01220F331F880F991F880F21
S1132E60991F880F991F820F931FBE01681B790B4E
S1132E70C8010E94B426862F61E0805D0E94861FEF
S1132E8061E088E594E00E94302064E180E00E94E3
S1132E9042201091E30C1436E8F189E2189F812D49
S1132EA01124D82FD295DF70912F24E6D29F901948
S1132EB01124D92F82958F7061E0805D0E94861F56
S1132EC0CDECDC9F812D112486958695869561E055
S1132ED0805D0E94861F2D2F30E01C9F912D1124B0
S1132EE0969596959695990F892F880F880F980F28
S1132EF0812F891B682F70E0C9010E94C826862F84
S1132F0061E0805D0E94861F61E080EB92E00E9498
S1132F1030201AC0CDEC1C9FC12D1124C695C69536
S1132F20C69561E080E38C0FF1D7CC0F8C2F880F0E
S1132F30880FC80F812F8C1B61E0805DE7D761E0AB
S1132F4080EB92E00E9430206EE180E00E944220FB
S1132F5061E08CE594E00E94302068E280E00E9409
S1132F60422061E088E694E00E9430200E944720DD
S1132F7088E08093540F40C08091E90C81113CC0DB
S1132F801092E60C1092E50C1092E40C1092E30CF3
S1132F900E94F2031092540F2FC08091E80C8A32E1
S1132FA079F41092E60C1092E50C1092E40C109255
S1132FB0E30C0E94F2031092E90C1092540F1CC00F
S1132FC0833239F40E94F2031092E90C1092540FE8
S1132FD013C088E08093E80C0FC01092540F0CC00B
S1132FE0E091540F8E2F90E089309105B0F7FC01E9
S1132FF0E657FF4F0C94DB26DF91CF911F910F9181
S1133000FF90EF90DF90CF9008951092540F44DA20
S113301084E690E00E946624FACFAF92BF92CF92EA
S1133020DF92EF92FF920F93A12CB12CC12CD12CE3
S1133030E12CF12C082F20E030E045E550E065E775
S113304074E085E098E10E94EE210F91FF90EF90EB
S1133050DF90CF90BF90AF9008951CD761E082E8D5
S113306094E0FED70C9447200895CF938091550F98
S1133070813049F08230F1F02EC08FE493EC019757
S1133080F1F700C000000E943903C82F8823A9F378
S113309006C08FE493EC0197F1F700C000000E9492
S11330A03903C817B1F363C08FE493EC0197F1F7C8
S11330B000C000000E943903C82F8823A9F306C06A
S11330C08FE493EC0197F1F700C000000E943903EC
S11330D0C817B1F34CC0833020F4813008F052C0DB
S11330E003C08330C1F140C08091E10C882309F40E
S11330F049C08091E20C882329F0AFDF81E08093FE
S1133100550F40C08091E60C81110AC0C3D661E01E
S11331108EEE94E0A5D7BBD782E08093550F32C0E2
S113312081E08093E90C1092E60C1092E50C109269
S1133130E40C1092E30C0E94F20383E08093550F99
S113314021C01092E10C1092550F1CC01092E10C9A
S11331501092550F17C08091E90C811113C0109281
S1133160E10C1092550F0EC01092550F0BC08091B8
S1133170550F813031F308F4B7CF823039F38330FF
S113318051F3F2CFCF9108951092550F6EDFFECF19
S1133190AF92BF92CF92DF92EF92FF920F93A12C46
S11331A0B12CC12CD12CE12CF12C082F20E030E0E3
S11331B045E550E065E275E084EC98E10E94EE217B
S11331C00F91FF90EF90DF90CF90BF90AF90089554
S11331D0FF920F931F93CF93DF938091520F81300F
S11331E049F0823031F1D4C08FE493EC0197F1F7C8
S11331F000C000000E9439038093B10C8823A1F31E
S113320006C0EFE4F3EC3197F1F700C000000E9430
S113321039038093B00C9091B10C891791F39153B9
S11332209093B10CB5C08FE493EC0197F1F700C013
S113323000000E9439038093B10C8823A1F306C0D7
S1133240EFE4F3EC3197F1F700C000000E9439037A
S11332508093B00C9091B10C891791F3CAEBDCE028
S113326002EB1CE00F2EFAE2FF2EF02D77C088232C
S113327009F45FC08A32A1F12091C20C283008F011
S113328058C030E0F901EE54F34F80832F5F3F4F75
S11332902830310524F4F901EE54F34FF082FAD5C5
S11332A061E089E892E0DCD66AE080E0EBD661E098
S11332B085EB93E0D5D68091AF0C61E0805D26D696
S11332C064E180E0DFD661E0C801CAD6E0D680912F
S11332D0C20C8F5F8093C20C8091B10C8A3249F585
S11332E01092C20CE2EBFCE01192CE17DF07E1F77B
S11332F0F801F082CFD561E089E892E0B1D66AE0C6
S113330080E0C0D661E085EB93E0AAD68091AF0C53
S113331061E0805DFBD564E180E0B4D661E0C80182
S11333209FD6B5D606C08FE493EC0197F1F700C0A1
S113333000000E9439038093B10C8823A1F306C0D6
S1133340EFE4F3EC3197F1F700C000000E94390379
S11333508093B00C9091B10C891791F38091B10CCA
S1133360833209F084CF0E94EB0E811106C0809154
S1133370AF0C8F5F8093AF0C0BC01092AF0C809199
S1133380520F8130F1F068F0823009F0EAC068C071
S11333908091520F8130A9F020F0823009F45CC092
S11333A0E0C08091F50C882309F4DBC00E94FE0381
S11333B085E0809301011092F20C81E08093520F1A
S11333C0D0C08091B10C9091F10C891780F5909147
S11333D0F50C992381F1809301011092AF0C5AD519
S11333E061E089E892E03CD66AE080E04BD661E097
S11333F085EB93E035D68091AF0C61E0805D86D596
S113340064E180E03FD661E084E193E029D63FD6D1
S1133410E2EBFCE08AEB9CE01192E817F907E1F794
S11334208AE28093B20C82E08093520F9AC080911A
S1133430F50C811196C01092AF0C1092C20CE2EB05
S1133440FCE08AEB9CE01192E817F907E1F710928F
S1133450B20C1092520F85C08091AF0C81111AC02A
S11334608091F50C882309F46CC014D561E086E3DF
S113347095E0F6D56AE080E005D661E086E495E063
S1133480EFD505D681E08093F20C1092F50C1092E2
S1133490520F67C0833039F58091F50C882309F405
S11334A050C01092AF0C1092C20CE2EBFCE08AEB1D
S11334B09CE011928E179F07E1F71092B20CEAD4A8
S11334C061E086E395E0CCD56AE080E0DBD561E09D
S11334D084E495E0C5D5DBD51092F20C1092F50C7E
S11334E01092520F3EC08091F50C882351F1D2D432
S11334F061E089E892E0B4D56AE080E0C3D561E098
S113350085EB93E0ADD58091AF0C61E0805DFED496
S113351064E180E0B7D561E084E193E0A1D5B7D55B
S11335201092C20CE2EBFCE08AEB9CE011928E1745
S11335309F07E1F78AE28093B20C82E08093520FF6
S113354010C01092AF0C1092C20CE2EBFCE08AEBBC
S11335509CE01192E817F907E1F71092B20C10926F
S1133560520FDF91CF911F910F91FF900895109208
S1133570520F2EDE84E690E00E946624FACFAF92CA
S1133580BF92CF92DF92EF92FF920F93A12CB12CB6
S1133590C12CD12CE12CF12C082F20E030E045E5A2
S11335A050E063E575E087EB9AE118D70F91FF903F
S11335B0EF90DF90CF90BF90AF900895CF9380911C
S11335C05A0F833009F44BC028F4813081F08230E3
S11335D051F192C0853009F458C0863009F486C090
S11335E08BC08FE493EC0197F1F700C000000E94B8
S11335F039038093AE0C8823A1F306C08FE493ECC7
S11336000197F1F700C000000E9439038093AD0CCC
S11336109091AE0C891791F36FC08FE493EC0197EE
S1133620F1F700C000000E9439038093AE0C882398
S1133630A1F306C08FE493EC0197F1F700C00000FA
S11336400E9439038093AD0C9091AE0C891791F3CD
S113365053C08FE493EC0197F1F700C000000E947F
S113366039038093AE0C8823A1F306C08FE493EC56
S11336700197F1F700C000000E9439038093AD0C5C
S11336809091AE0C891791F337C080B1809583FF78
S113369012C0E09101019BE1E99FF0011124EA5A73
S11336A0FE4F8189873021F481E08093000118C0A6
S11336B01092000115C080B1809582FF11C0E09185
S11336C001018BE1E89FF0011124EA5AFE4F818940
S11336D08A3021F481E08093000102C0109200013D
S11336E080B1809581708093EC0C9EC080B18095F0
S11336F081708093EC0CBCC0E0915A0F8E2F90E047
S11337008730910508F0CEC0FC01ED56FF4F0C94B4
S1133710DB268091F40C882309F4C6C08091F10C57
S113372081110CC0B7D361E08FEC92E099D4AFD48F
S11337301092F50C83E080935A0FB6C08091E60C8A
S113374081110CC0A7D361E082E695E089D49FD4AF
S11337501092F50C82E080935A0FA6C08091EB0C76
S1133760882361F097D361E08AE995E079D48FD416
S11337701092F50C82E080935A0F96C01092F20CCE
S113378081E08093F50C84E080935A0F8DC0809182
S1133790AE0C882309F488C01092F40C10925A0FCE
S11337A083C08091AE0C882309F47EC01092F40C7F
S11337B010925A0F79C08091AE0C882309F474C01A
S11337C01092F40C10925A0F6FC08091F50C811175
S11337D06BC08091F20C8823C9F08091C2018530BE
S11337E021F4809101018093C20154D361E081ED01
S11337F095E036D44CD482E08093000181E080933C
S1133800ED0C289A85E080935A0F4EC08091F30CFA
S1133810811103C085E08093C2011092F40C1092D0
S1133820F20C10925A0F40C080910001823009F4CA
S11338303BC081110DC02ED361E08EED95E010D414
S113384026D41092F20C1092F40C10925A0F2CC041
S1133850813051F58091EC0C811106C01BD361E0DD
S11338608DEE95E0FDD313D486E080935A0F1CC0EF
S11338708091EC0C8823C1F0C1E0C093EA0C0AD318
S113388061E08CEF95E0ECD302D4C093EB0C109282
S1133890ED0C2898C093EF0C299A1092F40C109216
S11338A05A0F02C010925A0FCF91089510925A0FD6
S11338B085DE84E690E00E946624FACFAF92BF9240
S11338C0CF92DF92EF92FF920F93A12CB12CC12CD7
S11338D0D12CE12CF12C082F20E030E045E550E01C
S11338E060E276E086E59CE179D50F91FF90EF9058
S11338F0DF90CF90BF90AF9008958F929F92AF9238
S1133900BF92CF92DF92EF92FF92CF93DF93E09139
S1133910590F8E2F90E0FC013197E830F10508F043
S113392030C1E656FF4F0C94DB268FE493EC0197ED
S1133930F1F700C000000E9439038093AC0C882387
S1133940A1F306C08FE493EC0197F1F700C00000E7
S11339500E9439038093AB0C9091AC0C891791F3BE
S113396010C18FE493EC0197F1F700C000000E94AE
S113397039038093AC0C8823A1F306C08FE493EC45
S11339800197F1F700C000000E9439038093AB0C4B
S11339909091AC0C891791F3F4C08FE493EC0197E8
S11339A0F1F700C000000E9439038093AC0C882317
S11339B0A1F306C08FE493EC0197F1F700C0000077
S11339C00E9439038093AB0C9091AC0C891791F34E
S11339D0D8C080B1809581FF03C081E08093EE0C54
S11339E080B1809585FF06C01092EB0C84E680932D
S11339F0AA0C5FC180B1809584FF06C01092EB0CC5
S1133A0088EC8093AA0C55C181E08093EB0C109252
S1133A10EE0C95C16091AA0C70E080E090E00E94E9
S1133A2091252DE830E84AE05DE30E94212627EE47
S1133A303BEF49E45FE30E9421266B017C01609126
S1133A40E30C70E080E090E00E948F259B01AC01C4
S1133A50C701B6010E94212620E030E048EC52E480
S1133A60F6D76B017C01C091C2019BE1C99FE001C3
S1133A701124CA5ADE4F6E857F8580E090E00E9453
S1133A808F254B015C0120E030E043EE53E40E94BB
S1133A90212628892130A1F42BE734E14EE25FE3AB
S1133AA00E9421269B01AC01C701B601D0D720E0BA
S1133AB034E244E759E40E9421266B017C0113C0DF
S1133AC02DEC3CEC4CE05FE30E9421269B01AC0111
S1133AD0C701B601BCD720E034E244E759E40E94B0
S1133AE021266B017C012AE037ED43EA5DE3C50141
S1133AF0B4010E9421269B01AC01C701B6010E94BA
S1133B001D26181624F481E08093F00CDFC0109277
S1133B10F00CE8C08FE493EC0197F1F700C00000CB
S1133B200E9439038093AC0C8823A1F306C08FE470
S1133B3093EC0197F1F700C000000E9439038093D1
S1133B40AB0C9091AC0C891791F31BC08FE493ECF0
S1133B500197F1F700C000000E9439038093AC0C78
S1133B608823A1F306C08FE493EC0197F1F700C01A
S1133B7000000E9439038093AB0C9091AC0C891720
S1133B8091F3E091590F8E2F90E08930910508F060
S1133B90D4C0FC01EE55FF4F0C94DB268091F30C4E
S1133BA0882309F4CCC08091F10C81110CC072D12E
S1133BB061E08FEC92E054D26AD21092F50C81E06D
S1133BC08093590FBCC08091E60C81110CC062D166
S1133BD061E082E695E044D25AD21092F50C82E07C
S1133BE08093590FACC08091EA0C81110CC052D162
S1133BF061E08DE296E034D24AD21092F50C82E074
S1133C008093590F9CC08091F00C882361F042D1BD
S1133C1061E080E696E024D23AD21092F50C83E07B
S1133C208093590F8CC081E08093F50C84E08093DD
S1133C30590F85C08091AC0C882309F480C0109280
S1133C40F30C1092590F7BC08091AC0C882309F4BB
S1133C5076C01092F30C1092590F71C08091AC0C85
S1133C60882309F46CC01092F30C1092590F67C0AA
S1133C708091F50C811163C08091F20C882381F04E
S1133C80909101018091C20198130AC003D161E0AF
S1133C908FE696E0E5D1FBD185E08093590F4FC0C4
S1133CA01092F30C1092590F4AC08091EB0C8111C1
S1133CB046C08091EE0C882309F441C086E08093CD
S1133CC0590F3DC08091F00C882361F0E3D061E08E
S1133CD080E696E0C5D1DBD11092F00C88E08093A9
S1133CE0590F2DC0D7D061E08CE896E0B9D1CFD17F
S1133CF081E08093ED0C1092EF0C289A85B190919D
S1133D00EF0C992311F0826001C08D7F85B987E0A3
S1133D108093590F14C08091AC0C882381F01092C9
S1133D20F30C1092590F0BC08091AC0C882339F01E
S1133D301092F30C1092590F02C01092590FDF9198
S1133D40CF91FF90EF90DF90CF90BF90AF909F9076
S1133D508F9008951092590FD0DD84E690E0B6D587
S1133D60FBCFAF92BF92CF92DF92EF92FF920F936D
S1133D70A12CB12CC12CD12CE12CF12C082F20E04A
S1133D8030E045E550E06CEB76E08AEA9EE126D32C
S1133D900F91FF90EF90DF90CF90BF90AF90089578
S1133DA08FE087B980EF88B98FEF8AB91BB884B9DF
S1133DB015B811B882B938D081E00E949A0781E021
S1133DC00E94400E81E00E942C1281E026D981E0FD
S1133DD0DFD981E0D4DB81E071DD81E0C2DFFFD394
S1133DE080E090E008955998662311F05B9A15C01D
S1133DF05B9813C0AC01022E02C0559547950A94F6
S1133E00E2F740FF02C05C9A01C05C985D9A5D983D
S1133E102150310978F7599A089527E030E090E06D
S1133E20E9CF60E0E0CF0895CF93DF93519A529A9F
S1133E30539A549A559A5A9A599A83EC99E001974D
S1133E40F1F700C000005A988BE594E40197F1F76C
S1133E5000C000005A9A599881E2E3DF83E1E1DF70
S1133E6086E0DFDF82ECDDDF80E2DBDF89E0D9DFC3
S1133E7080E8D7DF80E4D5DFC8EFD1E061E080E0FF
S1133E80B2DF2197D9F788E0CCDF8CE0CADFDF917D
S1133E90CF91089580E8C5DF80E4C3DF1092F50E6A
S1133EA01092F60EEDEFFCE085EF9EE01192E8171C
S1133EB0F907E1F70895262F26952695269590E093
S1133EC034E5239F800D911D1124442379F0FC01D6
S1133ED0E350F34F677081E090E002C0880F991FB0
S1133EE06A95E2F79081892B80830895FC01E35061
S1133EF0F34F677081E090E002C0880F991F6A95C4
S1133F00E2F7809590818923808308955F926F9270
S1133F107F928F929F92AF92BF92CF92DF92EF9255
S1133F20FF920F931F93CF93DF93562E262F30E0EB
S1133F304901880C991C880C991C820E931E181434
S1133F4019040CF059C08901000F111F000F111F33
S1133F50000F111F021B130B612CA82EB12CC501DD
S1133F6080975C01AA0CBB1CAA0CBB1CA80EB91E32
S1133F700F2EF6EFCF2EFEE0DF2EF02D0F2EF5EFF5
S1133F80EF2EFEE0FF2EF02D2AC0FE01249130E03A
S1133F90872D652DDDD602C0359527958A95E2F7E4
S1133FA020FF09C0F6016081670DF701808141E0BF
S1133FB0860D81DF08C0F6016081670DF7018081FD
S1133FC040E0860D78DF7394872D90E08017910789
S1133FD0E4F26394862D90E0881599056CF410162C
S1133FE01106BCF7862D652DB3D6E501C80FD11D8A
S1133FF0CA5ADE4F712CC9CF8091F50E91E0980F0B
S1134000852D880F880F850D890F843518F48093CA
S1134010F50E0EC01092F50EE6EFFEE0808191E001
S1134020980F852D880F880F880F8519890F808335
S11340308091F60E803320F01092F50E1092F60E59
S1134040DF91CF911F910F91FF90EF90DF90CF9070
S1134050BF90AF909F908F907F906F905F900895E6
S11340601F93CF93DF93EC018881882339F0162FB7
S11340702196612F4BDF89918111FBCFDF91CF9185
S11340801F9108958093F50E6093F60E08950F9393
S11340901F93CF93DF9380E8C4DE80E4C2DECDEFCC
S11340A0DCE005EF1EE061E089919DDEC017D107D9
S11340B0D1F7DF91CF911F910F91089531E1FC0168
S11340C03083319722E220833197A3E3A083319791
S11340D060833197708331971082319760E86083F1
S11340E031971082319762E06083319763E0608397
S11340F0319764E06083319765E06083319766E0CF
S11341006083319767E06083319768E0608331971B
S113411069E06083319760E1608331973083319740
S113412032E13083319733E13083319734E13083A6
S1134130319735E13083319736E13083319737E178
S11341403083319738E13083319739E130833197C7
S113415030E23083319731E23083319720833197D5
S113416023E220833197408331975083319726E2AD
S11341702083319727E22083319728E220833197E7
S113418029E22083319720E32083319721E32083A0
S113419086970895109289008CE7809388008BE0BD
S11341A080938100EFE6F0E0808182608083A091BB
S11341B04F0FB091500FCD91CDBFDD91DEBFFF9178
S11341C0EF91DF91CF91BF91AF919F918F917F91AB
S11341D06F915F914F913F912F911F910F91FF909C
S11341E0EF90DF90CF90BF90AF909F908F907F9093
S11341F06F905F904F903F902F901F900F900FBE45
S11342000F90089581E008950F920FB6F8940F92DD
S11342101F9211242F923F924F925F926F927F923E
S11342208F929F92AF92BF92CF92DF92EF92FF92C2
S11342300F931F932F933F934F935F936F937F93AA
S11342408F939F93AF93BF93CF93DF93EF93FF939A
S1134250A0914F0FB091500F0DB60D920EB60D9266
S11342608AD3A0914F0FB091500FCD91CDBFDD9166
S1134270DEBFFF91EF91DF91CF91BF91AF919F91FD
S11342808F917F916F915F914F913F912F911F91EA
S11342900F91FF90EF90DF90CF90BF90AF909F90E1
S11342A08F907F906F905F904F903F902F901F90D2
S11342B00F900FBE0F9008950F920FB6F8940F92BF
S11342C01F9211242F923F924F925F926F927F928E
S11342D08F929F92AF92BF92CF92DF92EF92FF9212
S11342E00F931F932F933F934F935F936F937F93FA
S11342F08F939F93AF93BF93CF93DF93EF93FF93EA
S1134300A0914F0FB091500F0DB60D920EB60D92B5
S113431095D131D3A0914F0FB091500FCD91CDBF16
S1134320DD91DEBFFF91EF91DF91CF91BF91AF910E
S11343309F918F917F916F915F914F913F912F91B9
S11343401F910F91FF90EF90DF90CF90BF90AF90AF
S11343509F908F907F906F905F904F903F902F90A1
S11343601F900F900FBE0F900895A6DF1895CF935E
S1134370DF93EC01E0914F0FF091500F9383828310
S11343808091FF0E9091000FC817D90768F46091CF
S11343904F0F7091500F8091150F9091160F6E5F13
S11343A07F4F0E941B0217C060914F0F7091500FF6
S11343B08091170F9091180F6E5F7F4F0E941B0220
S11343C08091C3019091C401C817D90720F4D093F8
S11343D0C401C093C301DF91CF9108954F925F92BE
S11343E06F927F928F929F92AF92BF92CF92DF9201
S11343F0EF92FF920F931F93CF93DF935C014B01D6
S11344003A01290181E290E00E94BB01EC01892B71
S113441009F4D3C0C114D10409F0CBC0C3010E9474
S1134420BB01988F8F8B009721F4CE010E94E1018C
S1134430C4C0A30165EA70E0D6D4930121503109C8
S11344408F89988D3C01620E731E48E050E0B401E0
S1134450CE014996CFD418A2102F043008F013E0EF
S11344601E8B6E0182E0C80ED11CC6010E94F001B1
S1134470CE010C960E94F001D987C88784E090E0B1
S1134480811B91099D878C87DB8BCA8BA201B501A7
S1134490C30114DE99838883E114F10419F0F70150
S11344A0D183C0830FB6F8940F928091010F8F5F70
S11344B08093010F80914F0F9091500F892BA9F594
S11344C0D093500FC0934F0F8091010F8130E1F5CD
S11344D08BE29FE00E94E20184E39FE00E94E201FC
S11344E08DE39FE00E94E20186E49FE00E94E201E6
S11344F082E29FE00E94E20189E19FE00E94E201E2
S11345008CE09FE00E94E20183E09FE00E94E201D0
S113451082E29FE09093180F8093170F89E19FE048
S11345209093160F8093150F0FC08091FC0E81118C
S11345300BC0E0914F0FF091500F8689081720F0BF
S1134540D093500FC0934F0F8E899091FE0E981701
S113455010F48093FE0E9091F70E9F5F9093F70EE8
S11345609091FD0E981710F48093FD0E90E09C013D
S1134570220F331F220F331F220F331F820F931F6B
S1134580B601855D904F0E94F4010F900FBE80919B
S1134590FC0E882351F0E0914F0FF091500F868963
S11345A0801728F431DE81E009C081E007C081E092
S11345B005C0D88ECF8AC6013CCF8FEFDF91CF9153
S11345C01F910F91FF90EF90DF90CF90BF90AF902D
S11345D09F908F907F906F905F904F900895AF92CF
S11345E0BF92CF92DF92EF92FF920F93A12CB12C46
S11345F0C12CD12CE12CF12C00E020E030E045E589
S113460050E067EC76E082E894E2E8DE813041F441
S1134610F8948093FC0E1092000F1092FF0EBADDF6
S11346200F91FF90EF90DF90CF90BF90AF900895DF
S11346308091FB0E8F5F8093FB0E08950F931F9361
S1134640CF93DF938091FB0E8111B2C08091FF0E56
S11346509091000F01969093000F8093FF0E80912C
S1134660FF0E9091000F892B99F58091170F90916F
S1134670180F2091150F3091160F3093180F2093B7
S1134680170F9093160F8093150F8091F80E8F5F7C
S11346908093F80EE091170FF091180F808181112B
S11346A007C08FEF9FEF9093C4018093C30110C0A4
S11346B0E091170FF091180F0580F681E02D068028
S11346C0F781E02D828193819093C4018093C3018B
S11346D02091FF0E3091000F8091C3019091C4018D
S11346E02817390708F469C0E091170FF091180FE3
S11346F08081882399F0E091170FF091180F0580BD
S1134700F681E02DC681D7818A819B812091FF0E9D
S11347103091000F28173907F8F419C08FEF9FEF75
S11347209093C4018093C30148C0E091170FF091A6
S1134730180F0580F681E02DC681D7818A819B817F
S11347402091FF0E3091000F2817390728F4909319
S1134750C4018093C30131C08E010E5F1F4FC80195
S11347600E9456028C899D89892B21F0CE010C96DA
S11347700E9456028E899091FD0E981710F4809332
S1134780FD0E90E09C01220F331F220F331F220FD6
S1134790331F820F931FB801855D904F0E94F4016F
S11347A0E091170FF091180F80818111BECFB6CF21
S11347B08091FA0E8F5F8093FA0EDF91CF911F9153
S11347C00F910895CF92DF92EF92FF920F931F9370
S11347D0CF93DF930FB6F8940F928091FB0E815024
S11347E08093FB0E8091FB0E811162C08091010FBA
S11347F0811132C060C0D7011596ED91FC911697D6
S1134800C681D781CE010C960E9456028E010E5F9E
S11348101F4FC8010E9456028E899091FD0E981771
S113482010F48093FD0E90E09C01220F331F220FA1
S1134830331F220F331F820F931FB801855D904FE2
S11348400E94F401E0914F0FF091500F9E898689E8
S1134850981758F0DC2C09C0D12C0F2EFCE0EF2E59
S1134860FFE0FF2EF02DCC24C394F7018081811149
S1134870C2CF8091FA0E882379F08091FA0E8823B2
S113488091F0DCDE8091FA0E81508093FA0E8091D3
S1134890FA0E8111F6CF07C0F1E0DF1621F0809106
S11348A0F90E813039F41092F90EAEDC81E003C0C8
S11348B080E001C080E00F900FBEDF91CF911F9187
S11348C00F91FF90EF90DF90CF900895CF93DF93F7
S11348D0EC01892B99F0ACDE8091FF0E9091000FD2
S11348E0C80FD91F80914F0F9091500F02960E94CC
S11348F05602CE013CDD66DF811101C085DCDF910B
S1134900CF9108950F2EF3E0EF2EFFE0FF2EF02D50
S1134910CBE2DFE08091020F882341F189DED701E9
S11349201C9150DF112311F10FB6F8940F92D701A7
S11349301596ED91FC91169706811781C801029690
S11349400E9456028091010F81508093010F809143
S1134950020F81508093020F0F900FBEF8018789D8
S1134960908D0E94E101C8010E94E101888182309A
S113497088F24ADCCFCF8091FB0E811113C0809165
S1134980FD0E90E0FC01EE0FFF1FEE0FFF1FEE0F78
S1134990FF1F8E0F9F1FFC01E55DF04F8081882370
S11349A029F01BC081E08093F90E08958091FD0EDB
S11349B081508093FD0E8091FD0E90E0FC01EE0F7E
S11349C0FF1FEE0FFF1FEE0FFF1F8E0F9F1FFC0137
S11349D0E55DF04F8081882349F38091FD0E90E0DE
S11349E09C01220F331F220F331F220F331F280F66
S11349F0391FD901A55DB04F1196ED91FC91129725
S1134A000280F381E02D1296FC93EE931197225DC0
S1134A10304FE217F30729F422813381FD013283F9
S1134A202183FC01EE0FFF1FEE0FFF1FEE0FFF1F90
S1134A308E0F9F1FFC01E55DF04F0180F281E02D98
S1134A40868197819093500F80934F0F08950CD0D7
S1134A50BAC0B2D040F0A9D030F021F45F3F19F0D1
S1134A609BC05111E4C09EC0BFD098F39923C9F3F1
S1134A705523B1F3951B550BBB27AA276217730760
S1134A80840738F09F5F5F4F220F331F441FAA1F14
S1134A90A9F333D00E2E3AF0E0E830D091505040D4
S1134AA0E695001CCAF729D0FE2F27D0660F771F82
S1134AB0881FBB1F261737074807AB07B0E809F064
S1134AC0BB0B802DBF01FF2793585F4F2AF09E3FF9
S1134AD0510568F061C0ABC05F3FECF3983EDCF376
S1134AE0869577956795B795F7959F5FC9F7880F72
S1134AF0911D9695879597F90895E1E0660F771FC4
S1134B00881FBB1F621773078407BA0720F0621B54
S1134B10730B840BBA0BEE1F88F7E0950895E894A5
S1134B2009C097FB3EF490958095709561957F4FF1
S1134B308F4F9F4F9923A9F0F92F96E9BB2793959F
S1134B40F695879577956795B795F111F8CFFAF4AF
S1134B50BB0F11F460FF1BC06F5F7F4F8F4F9F4FE0
S1134B6016C0882311F096E911C0772321F09EE83E
S1134B70872F762F05C0662371F096E8862F70E0A4
S1134B8060E02AF09A95660F771F881FDAF7880F7E
S1134B909695879597F9089597F99F6780E870E04F
S1134BA060E008959FEF80EC089500240A9416169F
S1134BB0170618060906089500240A941216130607
S1134BC0140605060895092E0394000C11F4882395
S1134BD052F0BB0F40F4BF2B11F460FF04C06F5FB1
S1134BE07F4F8F4F9F4F089557FD9058440F551F87
S1134BF059F05F3F71F04795880F97FB991F61F05B
S1134C009F3F79F087950895121613061406551FD1
S1134C10F2CF4695F1DF08C0161617061806991F3D
S1134C20F1CF86957105610508940895E894BB2732
S1134C3066277727CB0197F9089566D008F48FEF9C
S1134C4008950BD0C0CFB1DF28F0B6DF18F095235C
S1134C5009F0A2CFA7CF1124EACFC6DFA0F3959F16
S1134C60D1F3950F50E0551F629FF001729FBB274F
S1134C70F00DB11D639FAA27F00DB11DAA1F649FFB
S1134C806627B00DA11D661F829F2227B00DA11DAE
S1134C90621F739FB00DA11D621F839FA00D611D34
S1134CA0221F749F3327A00D611D231F849F600D55
S1134CB0211D822F762F6A2F11249F5750408AF08E
S1134CC0E1F088234AF0EE0FFF1FBB1F661F771F1A
S1134CD0881F91505040A9F79E3F510570F05CCF5A
S1134CE0A6CF5F3FECF3983EDCF386957795679506
S1134CF0B795F795E7959F5FC1F7FE2B880F911D38
S1134D009695879597F90895990F0008550FAA0B62
S1134D10E0E8FEEF16161706E807F907C0F01216CA
S1134D201306E407F50798F0621B730B840B950BCD
S1134D3039F40A2661F0232B242B252B21F4089522
S1134D400A2609F4A140A6958FEF811D811D0895BF
S1134D50991B79E004C0991F961708F0961B881FC9
S1134D607A95C9F780950895AA1BBB1B51E107C02A
S1134D70AA1FBB1FA617B70710F0A61BB70B881FE7
S1134D80991F5A95A9F780959095BC01CD01089576
S1134D9097FB072E16F4009406D077FD08D0E4DFC5
S1134DA007FC05D03EF4909581959F4F089570952A
S1134DB061957F4F0895EE0FFF1F0024001C0BBE6A
S1134DC00790F691E02D0994A29FB001B39FC00112
S1134DD0A39F700D811D1124911DB29F700D811D23
S1134DE01124911D0895DC0101C06D934150504080
S1134DF0E0F70895FB01DC014150504048F0019078
S1134E000D920020C9F701C01D9241505040E0F7B7
S1094E100895F894FFCFA1
S1134E1602055F000000005F0000000000000000C3
S1134E260000000000232323232A2A2A2A303030B4
S1134E3630395758593854555637505253364D4EC3
S1134E464F354A4B4C344748493344454632414230
S1134E5643313131315F202020001403690271028D
S1134E66C801830200005F0000000000000000008B
S1134E7600000000000000003030303030303030A8
S1134E86005F0000000000000000000000000000B9
S1134E960000003030303030303030005F00000029
S1134EA60000000000000000000000000000303098
S1134EB6303030303030005F000000000000000069
S1134EC60000000000000000003030303030303088
S1134ED6300005FFFF313A204C6971756F7200325C
S1134EE63A204B65797300333A2053657474696EBE
S1134EF6677300313A204472696E6B7300323A204C
S1134F06557365727300333A2053797374656D0073
S1134F16343A204D61696E204D656E7500313A2034
S1134F26416464204472696E6B00323A20526570A3
S1134F366C61636500333A204D61696E204D656E80
S1134F467500313A20416464205573657200323A23
S1134F562044656C657465205573657200456E74EE
S1134F666572204E616D650054797065206F662008
S1134F766472696E6B00313A204265657200323A9A
S1134F862057696E6500333A204C6971756F72005B
S1134F96343A204F7468657200456E746572005623
S1134FA66F6C756D6520286D4C2900456E746572AD
S1134FB620416C636F686F6C00436F6E74656E742A
S1134FC620250053656C6563742055736572003142
S1134FD63A2000323A2000333A2000343A20004E78
S1134FE66F20757365727320696E20202073797340
S1134FF674656D2E20507265737320616E79206B13
S1135006657920746F20676F20746F204D61696E17
S1135016204D656E752E002A5374746E6773207363
S1135026747566662A002320746F2072657475721F
S11350366E005F004D61696E4D656E755461736BEC
S113504600456E74657220796F75720077656967BD
S1135056687420696E206C62730053656C656374B2
S11350662047656E64657200313A204D616C6500B7
S1135076323A2046656D616C6500437265617465FC
S11350860050617373776F72640050617373776F46
S113509672643A0053797374656D20697320696E7E
S11350A620207573652E2054727920616761696EBC
S11350B6206C61746572005765696768696E67205C
S11350C66B6579730050617373776F72643A20006D
S11350D6416464557365725461736B0052656D6FF8
S11350E676650066726F6D2073797374656D3F0023
S11350F62A203D206E6F0023203D207965730052DF
S1135106656D6F766555736572735461736B004391
S1135116616E2774206164642020202020616E79EA
S11351266D6F7265206472696E6B7350726573730A
S1135136202320746F20202020636F6E74696E759F
S11351466500436C6F7365206C6971756F722020FE
S1135156646F6F7220746F2020202020202020632B
S11351666F6E74696E756500206D4C002A20746F2D
S11351762043616E63656C002320746F20436F6E59
S11351866669726D004164644472696E6B5461733E
S11351966B0052656D6F7665206B657973202020F0
S11351A666726F6D20736166652E20202020507212
S11351B665737320616E79206B657920746F206343
S11351C66F6E74696E75652E005265706C616365E9
S11351D6206472696E6B2E005468656E20636C6F72
S11351E6736520746865646F6F7220746F20202065
S11351F620202020636F6E74696E75652E004E6FD5
S1135206206472696E6B20202020202064657465FA
S1135216637465642E2020202020507265737320E9
S1135226616E79206B657920746F20636F6E746983
S11352366E75652E005265706C6163654472696EA5
S11352466B5461736B00557365722076657269667B
S113525669656400756E7375636365737366756CEF
S11352666C79005573657256657269667954617313
S11352766B004E6F206472696E6B732020202020B1
S1135286666F756E642E2050726573732020616E8E
S113529679206B657920746F20676F20746F204DB9
S11352A661696E204D656E752E004472696E6B20C1
S11352B6686173206265656E72656D6F7665642ECE
S11352C6205072657373616E79206B657920746FF3
S11352D620676F20746F204D61696E204D656E7571
S11352E6004465706F736974204B65797300496E69
S11352F6636F7272656374204B65797300436C6FD8
S11353067365204B657920446F6F7200456E6A6F32
S113531679212050726573732020616E79206B6544
S11353267920746F202020636F6E74696E75650032
S11353364765744472696E6B5461736B004E6F20DB
S11353466B65797320696E2073797374656D2E208D
S11353565072657373616E79206B657920746F2062
S1135366676F20746F204D61696E204D656E750000
S113537654696D652052656D61696E696E67005288
S1135386657475726E204472696E6B2020616E645A
S113539620636C6F736520646F6F720052656D6F66
S11353A67665206B6579732E2020507265737320A1
S11353B6616E79206B657920746F20676F20746F36
S11353C6204D61696E204D656E752E004765744BE0
S10F53D665795461736B0049444C450038
S9030000FC
