:1000000089C10000A6C10000A4C10000A2C1000077
:10001000A0C100009EC100009CC100009AC1000068
:1000200098C1000096C1000094C1000092C1000078
:1000300090C100000C94321F8CC100008AC10000E6
:1000400088C1000086C1000084C1000082C1000098
:1000500080C100007EC100007CC100007AC10000A8
:1000600078C1000076C1000074C1000072C10000B8
:1000700070C100006EC100006CC100006AC10000C8
:1000800068C1000066C1000064C10000A205B0059F
:10009000BE05CC05DA05E805F605040612062006BD
:1000A0002E063C06560680069206A506DE060307C7
:1000B000150727075007580760077207EC07000865
:1000C00052084C09D409ED098E0A500B850BF30B2D
:1000D000F80B470C930CB30CEE0C350DE90D850BAA
:1000E000EE0BF80B470C930CB30CEE0C350DE90D31
:1000F000850BF30BFC0B470C930CB30CEE0C350D7E
:10010000E90D2815541560157E159C15BE150D16A4
:100110003916B3172815591560157E159C15BE158F
:100120000D163916B3176A1BA81BBC1BB21BC61BC6
:10013000E61B0A1C000000000000005F0000000732
:10014000000700147F147F14242A7F2A1223130827
:10015000646236495522500005030000001C22410C
:10016000000041221C0014083E081408083E08083C
:1001700000503000000808080808006060000020F7
:10018000100804023E5149453E00427F4000426152
:100190005149462141454B311814127F10274545DE
:1001A00045393C4A494930017109050336494949F5
:1001B00036064949291E0036360000005636000032
:1001C00008142241001414141414004122140802CB
:1001D00001510906324979413E7E1111117E7F4954
:1001E0004949363E414141227F4141221C7F4949D4
:1001F00049417F090909013E4149497A7F080808B8
:100200007F00417F41002040413F017F081422418F
:100210007F404040407F020C027F7F0408107F3EF9
:100220004141413E7F090909063E4151215E7F0956
:10023000192946464949493101017F01013F4040A2
:10024000403F1F2040201F3F4038403F63140814A8
:100250006307087008076151494543007F41410029
:1002600002040810200041417F0004020102044002
:1002700040404040000102040020545454787F481C
:100280004444383844444420384444487F38545423
:100290005418087E0901020C5252523E7F08040491
:1002A0007800447D40002040443D007F10284400F9
:1002B00000417F40007C041804787C0804047838EE
:1002C000444444387C14141408081414187C7C0822
:1002D0000404084854545420043F4440203C404007
:1002E000207C1C2040201C3C4030403C44281028EE
:1002F000440C5050503C4464544C44000836410077
:1003000000007F00000041360800100808100800B7
:100310000000000011241FBECFEFD0E4DEBFCDBF30
:1003200016E0A0E0B1E0EEE0F6E400E00BBF02C0B2
:1003300007900D92AE33B107D9F72EE0AEE3B6E0E9
:1003400001C01D92A93CB207E1F70E944E1C0C941B
:10035000052356CECF93DF93EC010E949520209188
:100360003E0630913F06C9018C0F9D1F8C3D45E034
:10037000940758F42817390758F4E901C05CD94F9D
:1003800090933F0680933E0605C0C0E0D0E002C0D7
:10039000C0E0D0E00E945F21CE01DF91CF910895AF
:1003A0000895FC010396928381832FEF3FEF3483FE
:1003B0002383968385839087878310820895FC0129
:1003C000118610860895CF93DF93FC01DB01218114
:1003D0003281E9018A819B8113969C938E931297B7
:1003E0008181928115969C938E9314978A819B812B
:1003F000EC017D836C83E9017B836A837283618373
:100400001996FC93EE93189780818F5F8083DF911C
:10041000CF910895CF93DF93EB01488159814F3FEE
:100420002FEF520731F4DC011796ED91FC911897EC
:1004300017C0FC013396DC0115962D913C9116975F
:10044000D9012D913C914217530750F00280F3815E
:10045000E02DA281B3812D913C9142175307B0F753
:10046000A281B381BB83AA831596DC93CE931497A4
:10047000FD83EC83D383C28399878887FC01208125
:100480002F5F2083DF91CF910895FC01A281B3817A
:100490008481958115969C938E931497A481B58140
:1004A0008281938113969C938E931297A085B18538
:1004B00011968D919C911297E817F90731F4848178
:1004C000958112969C938E931197118610868C912C
:1004D00081508C9308950E94C71C61E087E292E0EE
:1004E0000E94AD1D6AE082E00E94BF1D61E084ECC5
:1004F00091E00E94AD1D64E182E00E94BF1D61E0B9
:100500008EEC91E00E94AD1D6EE182E00E94BF1D65
:1005100061E086ED91E00E94AD1D0C94C41D08952C
:100520000E94C71C61E089ED91E00E94AD1D6AE068
:1005300082E00E94BF1D61E082EE91E00E94AD1D4D
:1005400064E182E00E94BF1D61E08CEE91E00E94B8
:10055000AD1D6EE182E00E94BF1D61E085EF91E07C
:100560000E94AD1D68E282E00E94BF1D61E08FEF36
:1005700091E00E94AD1D0C94C41D08950E94C71CFB
:1005800061E085EE91E00E94AD1D6AE082E00E948C
:10059000BF1D61E08CE092E00E94AD1D64E182E04D
:1005A0000E94BF1D61E089E192E00E94AD1D6EE1F5
:1005B00084E10E94BF1D61E083E192E00E94AD1DD5
:1005C00068E282E00E94BF1D61E084E292E00E9446
:1005D000AD1D0C94C41D08950E94C71C61E08FEEF0
:1005E00091E00E94AD1D6AE082E00E94BF1D61E0C3
:1005F00081E392E00E94AD1D64E182E00E94BF1D94
:1006000061E08DE392E00E94AD1D6EE182E00E9408
:10061000BF1D61E084E292E00E94AD1D0C94C41DF8
:100620000895CF93DF93EC010E94C71C61E08CE436
:1006300092E00E94AD1D6AE080E00E94BF1D61E073
:10064000CE010E94AD1D0E94C41DDF91CF9108957F
:100650008EEF88B9000086B1809584FD46C086B1D2
:10066000809585FD44C086B1809586FD42C086B1E7
:10067000809590E0880F892F881F990B9195892B81
:10068000D1F58DEF88B9000086B1809584FD35C025
:1006900086B1809585FD33C086B1809586FD31C0D9
:1006A00086B1809590E0880F892F881F990B9195CE
:1006B000892B49F58BEF88B9000086B1809584FDC0
:1006C00024C086B1809585FD22C086B1809586FDC7
:1006D00020C086B1809590E0880F892F881F990BE4
:1006E0009195892BC1F480E0089581E3089584E316
:1006F000089587E308958AE2089582E3089585E3E3
:10070000089588E3089580E3089583E3089586E3D8
:10071000089589E3089583E208950E94C71C61E06B
:1007200087E592E00E94AD1D6AE082E00E94BF1D55
:1007300061E085E692E00E94AD1D64E182E00E94E6
:10074000BF1D61E08DE692E00E94AD1D6EE182E08A
:100750000E94BF1D61E085E792E00E94AD1D68E246
:1007600082E00E94BF1D61E08FE792E00E94AD1D14
:100770000C94C41D08950E94C71C61E088E892E0B3
:100780000E94AD1D6AE080E00E94BF1D61E08EE81E
:1007900092E00E94AD1D0C94C41D08950E94C71CD8
:1007A00061E08AE992E00E94AD1D6AE080E00E946B
:1007B000BF1D61E088EA92E00E94AD1D0C94C41D4B
:1007C00008951092570C1092560CE5E4F1E08FE575
:1007D0008083118212821382089580915F0C813090
:1007E000C1F40E94C71C61E082EB92E00E94AD1D43
:1007F0006AE080E00E94BF1D61E08EEB92E00E9403
:10080000AD1D61E086E591E00E94AD1D0C94C41D14
:100810000895823031F50E94C71C61E082EB92E0BE
:100820000E94AD1D6AE080E00E94BF1D61E08EEB7A
:1008300092E00E94AD1D61E086E591E00E94AD1D51
:1008400064E180E00E94BF1D61E082EC92E00E94C2
:10085000AD1D61E081E791E00E94AD1D0C94C41DC7
:1008600008958330A1F50E94C71C61E082EB92E0FD
:100870000E94AD1D6AE080E00E94BF1D61E08EEB2A
:1008800092E00E94AD1D61E086E591E00E94AD1D01
:1008900064E180E00E94BF1D61E082EC92E00E9472
:1008A000AD1D61E081E791E00E94AD1D6EE180E049
:1008B0000E94BF1D61E086EC92E00E94AD1D61E0E8
:1008C0008CE891E00E94AD1D0C94C41D0895843005
:1008D00009F042C00E94C71C61E082EB92E00E94D6
:1008E000AD1D6AE080E00E94BF1D61E08EEB92E0EA
:1008F0000E94AD1D61E086E591E00E94AD1D64E1BE
:1009000080E00E94BF1D61E082EC92E00E94AD1D7C
:1009100061E081E791E00E94AD1D6EE180E00E9400
:10092000BF1D61E086EC92E00E94AD1D61E08CE8A5
:1009300091E00E94AD1D68E280E00E94BF1D61E071
:100940008AEC92E00E94AD1D61E087EA91E00E948E
:10095000AD1D0C94C41D08950E94C71C61E08EEC6F
:1009600092E00E94AD1D0C94C41D08952FC04091CB
:10097000490C50914A0C60914B0C70914C0C4431D5
:1009800051056105710549F41092490C10924A0C09
:1009900010924B0C10924C0C089587EA91E6019747
:1009A000F1F700C000008091490C90914A0CA09191
:1009B0004B0CB0914C0C0196A11DB11D8093490CBC
:1009C00090934A0CA0934B0CB0934C0C41DE809357
:1009D000C40E882361F23CDE8093C70E9091C40E52
:1009E0008917C9F31092490C10924A0C10924B0CC3
:1009F00010924C0C80914F0C98138AC020914D0C92
:100A000030914E0C2330310538F42F5F3F4F309337
:100A10004E0C20934D0C04C010924E0C10924D0CB5
:100A2000813341F4E0914D0CF0914E0CEF5BFE4FA1
:100A300080810895823341F4E0914D0CF0914E0C89
:100A4000E35CFE4F80810895833341F4E0914D0CC7
:100A5000F0914E0CE75CFE4F80810895843341F4A1
:100A6000E0914D0CF0914E0CEB5CFE4F80810895AF
:100A7000853341F4E0914D0CF0914E0CEF5CFE4F4C
:100A800080810895863341F4E0914D0CF0914E0C35
:100A9000E35DFE4F80810895873341F4E0914D0C72
:100AA000F0914E0CE75DFE4F80810895883341F44C
:100AB000E0914D0CF0914E0CEB5DFE4F808108955E
:100AC000893341F4E0914D0CF0914E0CEF5DFE4FF7
:100AD00080810895803341F4E0914D0CF0914E0CEB
:100AE000E35EFE4F808108958A3241F4E0914D0C1F
:100AF000F0914E0CE75EFE4F80810895833271F4D1
:100B0000E0914D0CF0914E0CEB5EFE4F808108950C
:100B100090934F0C10924E0C10924D0C80914F0CF4
:100B200008951092C80ED7CC0895E091C80E8E2F6C
:100B300090E08C30910508F0ACC0FC01EA5BFF4FFF
:100B40000C94D72285DD8093690C82DD9091690C2D
:100B500089139FC07DDD9091690C9817D9F399C0D6
:100B600077DD8093680C74DD9091680C891391C0D7
:100B70006FDD9091680C9817D9F38BC069DD809375
:100B8000680C66DD9091680C891383C061DD9091DB
:100B9000680C9817D9F37DC05BDD8093670C58DD36
:100BA0009091670C891375C053DD9091670C98176D
:100BB000D9F36FC04DDD8093660C4ADD9091660CD1
:100BC000891367C045DD9091660C9817D9F361C011
:100BD0003FDD8093680C3CDD9091680C891359C00F
:100BE00037DD9091680C9817D9F353C031DD8093AD
:100BF000680C2EDD9091680C89134BC029DD909113
:100C0000680C9817D9F345C023DD8093650C20DD6F
:100C10009091650C89133DC01BDD9091650C981770
:100C2000D9F337C015DD8093680C12DD9091680C04
:100C300089132FC00DDD9091680C9817D9F329C046
:100C400007DD8093680C04DD9091680C891321C046
:100C5000FFDC9091680C9817D9F31BC0F9DC8093E6
:100C6000680CF6DC9091680C891313C0F1DC90914C
:100C7000680C9817D9F30DC0EBDC8093680CE8DCA6
:100C80009091680C891305C0E3DC9091680C98176B
:100C9000D9F3E091C80E8E2F90E08C30910508F0CA
:100CA00033C1FC01EE5AFF4F0C94D7228091690C9E
:100CB000813331F481E08093610C8093C80E0895F4
:100CC0008233B1F482E08093C80E0E94C71C61E0B9
:100CD00086E093E00E94AD1D6AE082E00E94BF1DA5
:100CE00061E082E193E00E94AD1D0C94C41D089563
:100CF000833309F016C183E08093C80E11CC0895A8
:100D00008091610C81110DC11092690C1092680CD8
:100D10001092670C1092660C1092650CDCDB10923E
:100D2000C80E08958091680C833209F0FAC01092C1
:100D3000C80E1092690C1092680C1092670C1092F9
:100D4000660C1092650CC7CB08958091670C8133B7
:100D500029F484E08093C80E11CC0895823329F4DD
:100D600087E08093C80E38CC08958333B1F48BE0CC
:100D70008093C80E0E94C71C61E08EE193E00E9440
:100D8000AD1D6AE082E00E94BF1D61E082E193E058
:100D90000E94AD1D0C94C41D0895843309F0C1C098
:100DA0001092C80E1092690C1092680C1092670C89
:100DB0001092660C1092650C8ECB08958091660C93
:100DC000813339F481E08093580C85E08093C80E1C
:100DD0000895823339F481E08093500C86E080934B
:100DE000C80E0895833309F09CC01092C80E10926B
:100DF000690C1092680C1092670C1092660C10929D
:100E0000650C69CB08958091580C81118AC01092AD
:100E1000C80E1092690C1092680C1092670C109218
:100E2000660C1092650C57CB08958091500C81117F
:100E300078C01092C80E1092690C1092680C109233
:100E4000670C1092660C1092650C45CB089580914A
:100E5000650C813351F488E08093C80E81E0809363
:100E6000640C8DE293E0DDCB0895823341F489E098
:100E70008093C80E81E08093630CAFCC08958333D8
:100E800009F04FC01092C80E1092690C1092680CB5
:100E90001092670C1092660C1092650C1CCB089592
:100EA0008091640C81113DC016DB1092C80E08952C
:100EB0008091630C811135C00EDB1092C80E08952D
:100EC0008091680C833269F51092C80E1092690CFB
:100ED0001092680C1092670C1092660C1092650CC0
:100EE000FACA08958091680C8332D9F41092C80E22
:100EF0001092690C1092680C1092670C1092660C9C
:100F00001092650CE8CA08951092C80E1092690CF0
:100F10001092680C1092670C1092660C1092650C7F
:100F2000DACA0895FEDD01DE8AE090E00E94E32146
:100F3000FACFAF92BF92CF92DF92EF92FF920F93D0
:100F4000A12CB12CC12CD12CE12CF12C082F20E0AC
:100F500030E045E550E06FE273E082E997E00E94FF
:100F60006B1F0F91FF90EF90DF90CF90BF90AF90ED
:100F7000089590913B0C8091320C98130FC0ECE3D4
:100F8000FCE0A3E3BCE023E43CE091918D91981355
:100F900007C0E217F307C9F781E0089580E00895DC
:100FA00080E00895EF92FF920F931F93CF93DF930A
:100FB000E091C00E8E2F90E0FC013197E830F105F2
:100FC00008F096C3E25AFF4F0C94D7228FE493ECBB
:100FD0000197F1F700C000003BDB8093300C8823C1
:100FE000A9F306C0EFE4F3EC3197F1F700C000007D
:100FF0002FDB80932F0C9091300C891799F378C3D5
:10100000B5DC8093300C10922F0C833209F41DC68E
:10101000CFE58A32B1F4E091480CEE2371F0E15053
:10102000E093480CF0E0E95FFE4FC083118210921C
:101030002F0C87E091E0F5DA28C087E091E0F1DA43
:1010400024C0882369F0E091480CF0E0E95FFE4F8E
:101050008083118280932F0C87E091E0E2DA15C043
:1010600080912F0C882389F0E091480CE93068F4D6
:10107000EF5FE093480CF0E0E95FFE4FC083118220
:1010800010922F0C87E091E0CCDA70DC8093300C6A
:10109000833209F0BECFD9C58FE493EC0197F1F705
:1010A00000C00000D5DA8093300C8823A9F306C075
:1010B000EFE4F3EC3197F1F700C00000C9DA809358
:1010C0002F0C9091300C891799F3C2E0D1E01FE505
:1010D000D7C0882309F4C1C08A3209F496C0209190
:1010E000460C3091470C2115310521F5282F30E0B1
:1010F000205331093093470C2093460C88830E947B
:10110000C71C61E08CE393E00E94AD1D6AE080E0C3
:101110000E94BF1D61E087E493E00E94AD1D64E181
:1011200080E00E94BF1D61E0CE010E94AD1D0E94C3
:10113000C41D93C0A901415051094930510578F5AA
:10114000A901440F551F220F331F220F331F220FF7
:10115000331F240F351F280F311D205331093093C1
:10116000470C2093460C89830E94C71C61E08CE3E6
:1011700093E00E94AD1D6AE080E00E94BF1D61E027
:1011800087E493E00E94AD1D64E180E00E94BF1DF2
:1011900061E0CE010E94AD1D0E94C41D5EC0A90188
:1011A0004A5051094A35510508F057C0A901440F6A
:1011B000551F220F331F220F331F220F331F240FFF
:1011C000351F280F311D205331093093470C2093D0
:1011D000460C8A830E94C71C61E08CE393E00E9466
:1011E000AD1D6AE080E00E94BF1D61E087E493E0EE
:1011F0000E94AD1D64E180E00E94BF1D61E0CE0150
:101200000E94AD1D0E94C41D28C01092470C109270
:10121000460C188319821A820E94C71C61E08CE375
:1012200093E00E94AD1D6AE080E00E94BF1D61E076
:1012300087E493E00E94AD1D64E180E00E94BF1D41
:1012400061E0CE010E94AD1D0E94C41D06C087EA68
:1012500091E60197F1F700C00000FAD98093300CB5
:101260008823A9F306C0E7EAF1E63197F1F700C059
:101270000000EED980932F0C9091300C891799F3D0
:101280008091300C833209F024CFDFC48FE493ECDB
:101290000197F1F700C00000DBD98093300C882360
:1012A000A9F306C0EFE4F3EC3197F1F700C00000BA
:1012B000CFD980932F0C9091300C891799F3C1E00E
:1012C000D2E06CC0813331F5C093450C0E94C71C3D
:1012D0006C2F85E593E00E94AD1D6AE080E00E94DE
:1012E000BF1D6C2F83E693E00E94AD1D64E180E09A
:1012F0000E94BF1D6C2F8BE693E00E94AD1D6EE136
:1013000080E00E94BF1D6C2F86E693E00E94AD1D19
:101310000E94C41D8091300C823369F5D093450C36
:101320000E94C71C6C2F85E593E00E94AD1D6AE00A
:1013300080E00E94BF1D6C2F83E693E00E94AD1DEC
:1013400064E180E00E94BF1D6C2F8BE693E00E9459
:10135000AD1D6EE180E00E94BF1D6C2F8EE693E014
:101360000E94AD1D0E94C41D06C08FE493EC01973E
:10137000F1F700C000006CD98093300C8823A9F3EA
:1013800006C0EFE4F3EC3197F1F700C0000060D93C
:1013900080932F0C9091300C891799F38091300C29
:1013A000833209F08FCF51C480B1809582FF04C091
:1013B0008AE08093440CDBC280B1809583FF04C037
:1013C00087E08093440CD3C21092440C00C38FE496
:1013D00093EC0197F1F700C000003AD98093300CEC
:1013E0008823A9F306C0EFE4F3EC3197F1F700C0CE
:1013F00000002ED980932F0C9091300C891799F30F
:10140000C3E4DCE00BE31CE00F2EFAE2FF2EF02D2C
:1014100079C0882309F463C08A32B1F12091310C7C
:10142000283008F05CC030E0F901E55CF34F8083C0
:101430002F5F3F4F2830310524F4F901E55CF34F6D
:10144000F0820E94C71C61E085E793E00E94AD1D19
:101450006AE080E00E94BF1D61E08CE793E00E949B
:10146000AD1D64E180E00E94BF1D61E0C8010E94E3
:10147000AD1D0E94C41D8091310C8F5F8093310C93
:101480008091300C8A3259F51092310CEBE3FCE07C
:101490001192CE17DF07E1F7F801F0820E94C71C16
:1014A00061E085E793E00E94AD1D6AE080E00E9464
:1014B000BF1D61E08CE793E00E94AD1D64E180E018
:1014C0000E94BF1D61E0C8010E94AD1D0E94C41DA5
:1014D00006C08FE493EC0197F1F700C00000B8D884
:1014E0008093300C8823A9F306C0EFE4F3EC319726
:1014F000F1F700C00000ACD880932F0C9091300C15
:10150000891799F38091300C833209F082CF9DC303
:101510008FE493EC0197F1F700C0000099D8809315
:10152000300C8823A9F306C0EFE4F3EC3197F1F710
:1015300000C000008DD880932F0C9091300C89173B
:1015400099F3CAE3DCE002E31CE00F2EFAE2FF2E7F
:10155000F02D8FC0882309F478C08A3209F440C086
:101560002091310C283008F070C030E0F901EE5CB9
:10157000F34F80832F5F3F4F2830310524F4F9016A
:10158000EE5CF34FF0820E94C71C61E088E794E0B4
:101590000E94AD1D6AE080E00E94BF1D61E085E809
:1015A00093E00E94AD1D6AE08CE30E94BF1D809114
:1015B0002E0C61E0805D0E94031D64E180E00E94CA
:1015C000BF1D61E0C8010E94AD1D0E94C41D809135
:1015D000310C8F5F8093310C8091300C8A32A9F5E9
:1015E0001092310CE2E3FCE01192EC17FD07E1F7F9
:1015F000F801F0820E94C71C61E088E794E00E9435
:10160000AD1D6AE080E00E94BF1D61E085E893E0C7
:101610000E94AD1D6AE08CE30E94BF1D80912E0CDC
:1016200061E0805D0E94031D64E180E00E94BF1DB7
:1016300061E0C8010E94AD1D0E94C41D06C08FE478
:1016400093EC0197F1F700C0000002D88093300CB2
:101650008823A9F306C0EFE4F3EC3197F1F700C05B
:1016600000000E94280380932F0C9091300C891762
:1016700091F38091300C833209F06CCF7ADC8111C8
:1016800006C080912E0C8F5F80932E0CDEC21092CC
:101690002E0CDBC28FE493EC0197F1F700C0000041
:1016A0000E9428038093300C8823A1F306C0EFE446
:1016B000F3EC3197F1F700C000000E9428038093FB
:1016C0002F0C9091300C891791F3933209F0FFCFD2
:1016D00081E080932D0CE091C00E8E2F90E0893038
:1016E000910508F0A9C2FC01EA59FF4F0C94D722DA
:1016F000E091C00E8E2F90E08930910508F09CC2D9
:10170000FC01E159FF4F0C94D7228091640C88238F
:1017100009F4A7C28091590C811153C080915F0CCC
:10172000843029F41092640C1092C00E9AC2A7E083
:10173000B1E0E2E0F1E080E01D92853008F4108233
:101740008F5F31968E30C1F78FE5809307018093CC
:1017500002011092480C1092470C1092460C109205
:10176000450CEBE3FCE0A2E3BCE083E49CE01192D7
:101770001D92E817F907D9F78AE280933B0C109283
:10178000320C1092310C1092300C10922F0C1092DF
:101790002E0C10922D0C0E94C71C61E08CE492E08C
:1017A0000E94AD1D6AE080E00E94BF1D61E087E0FD
:1017B00091E00E94AD1D0E94C41D82E08093C00E86
:1017C00050C20E94C71C61E08FE893E00E94AD1DEB
:1017D0000E94C41D81E08093C00E43C28091300CF2
:1017E000882309F43EC21092640C1092C00E39C2D4
:1017F0008091300C8332A1F58091480C8823A1F1AF
:101800009091640C992309F43FC0E82FF0E0E95F60
:10181000FE4F108281508093480C1092470C10921A
:10182000460C0E94C71C61E08CE393E00E94AD1D52
:101830006AE080E00E94BF1D61E087E493E00E94BF
:10184000AD1D64E180E00E94BF1D61E08DE293E088
:101850000E94AD1D0E94C41D83E08093C00E01C292
:101860008091480C81110CC08091640C882361F038
:101870008DE293E00E94110382E08093C00EF1C1DB
:101880008091640C8111EDC11092C00EEAC180916B
:10189000460C9091470C8B35910578F12091640CA2
:1018A000222309F4CDC11092450C0E94C71C61E0AF
:1018B00085E593E00E94AD1D6AE080E00E94BF1DB7
:1018C00061E083E693E00E94AD1D64E180E00E9448
:1018D000BF1D61E08BE693E00E94AD1D6EE180E0EC
:1018E0000E94BF1D61E08DE293E00E94AD1D0E9449
:1018F000C41D84E08093C00EB4C18A35910560F4A4
:101900008091640C882361F01092470C1092460C71
:1019100083E08093C00EA5C18091640C8111A1C1A8
:101920001092C00E9EC18091450C8823A9F0809131
:10193000640C8823A9F081E080935C0C289A0E94B3
:10194000C71C61E082EB93E00E94AD1D0E94C41DA4
:1019500085E08093C00E85C18091640C811181C1A6
:101960001092C00E7EC18091440C882381F1809139
:10197000640C882381F11092310CEBE3FCE083E4EA
:101980009CE01192E817F907E1F78AE280933B0C9B
:101990000E94C71C61E085E793E00E94AD1D6AE0EC
:1019A00080E00E94BF1D61E08CE793E00E94AD1DC6
:1019B00064E180E00E94BF1D61E080E193E00E944D
:1019C000AD1D0E94C41D86E08093C00E4AC1809167
:1019D000640C811146C11092C00E43C18091310C3C
:1019E0008830E1F58091640C8823E1F10E94C71CE6
:1019F00061E088E794E00E94AD1D6AE080E00E940B
:101A0000BF1D61E080EC93E00E94AD1D6AE08CE3B5
:101A10000E94BF1D80912E0C61E0805D0E94031D1D
:101A200064E180E00E94BF1D61E080E193E00E94DC
:101A3000AD1D0E94C41D1092310C10922E0CE2E3D9
:101A4000FCE08AE39CE01192E817F907E1F78AE2EB
:101A50008093320C87E08093C00E03C18091640CA8
:101A60008111FFC01092C00EFCC080912E0C81111C
:101A700039C08091640C882309F4A8C00E94C71C57
:101A800061E087E091E00E94AD1D6AE080E00E9485
:101A9000BF1D61E082E091E00E94AD1D6AE084E13B
:101AA0000E94BF1D61E081E593E00E94AD1D64E1ED
:101AB00080E00E94BF1D8091450C813031F461E0CF
:101AC00086E693E00E94AD1D07C0823029F461E0F4
:101AD0008EE693E00E94AD1D0E94C41D88E08093B5
:101AE000C00EBFC08330C1F58091640C882309F417
:101AF0006DC00E94C71C61E085E793E00E94AD1DA8
:101B00006AE080E00E94BF1D61E08CE793E00E94E4
:101B1000AD1D64E180E00E94BF1D61E080E193E0C3
:101B20000E94AD1D0E94C41D10922E0C1092310C0B
:101B3000EBE3FCE0A2E3BCE083E49CE011921D92A5
:101B4000E817F907D9F78AE280933B0C1092320C20
:101B500086E08093C00E85C08091640C8823B1F12B
:101B60000E94C71C61E088E794E00E94AD1D6AE016
:101B700080E00E94BF1D61E080EC93E00E94AD1DFB
:101B80006AE08CE30E94BF1D80912E0C61E0805DB5
:101B90000E94031D64E180E00E94BF1D61E080E1BE
:101BA00093E00E94AD1D0E94C41D1092310CE2E32F
:101BB000FCE08AE39CE01192E817F907E1F78AE27A
:101BC0008093320C87E08093C00E4BC01092C00E01
:101BD00048C080912D0C882309F443C01092640CF6
:101BE000C0915F0CFBE1CF9F7001112487010A5A5D
:101BF0001E4F4EE050E067E071E0C8010E94F622FF
:101C000049E050E06BE37CE0C70188599E4F0E9499
:101C1000F6228091450CF801808B8091460C9091C2
:101C2000470C978786878091440C818BCF5FC09348
:101C30005F0C1092C00E15C082E08093C00E11C0E0
:101C40008A35910508F46CCE67CEE091C00E8E2FD8
:101C500090E08930910580F7FC01E858FF4F0C9423
:101C6000D722DF91CF911F910F91FF90EF900895B0
:101C70001092C00E97D984E690E00E94E321FACF3B
:101C8000AF92BF92CF92DF92EF92FF920F93A12C6F
:101C9000B12CC12CD12CE12CF12C082F20E030E00C
:101CA00045E550E06BEC73E088E39EE00E946B1F1B
:101CB0000F91FF90EF90DF90CF90BF90AF9008957D
:101CC000AF92BF92CF92DF92EF92FF920F931F934A
:101CD000CF93DF93CDB7DEB767970FB6F894DEBF2B
:101CE0000FBECDBF062F20E230E03A832983FE01EC
:101CF00033969CE0DF011D929A95E9F7388B2F8788
:101D00003E9697E0DF011D929A95E9F71BE1189F37
:101D100050011124F501EA5AFE4F6F014EE050E0E8
:101D2000BF01CE0101960E94F622109F800111246E
:101D3000C8018A5A9E4F7C014EE050E0BC01C601AA
:101D40000E94F6224EE050E0BE016F5F7F4FC70158
:101D50000E94F622D501A859BE4F5D0149E050E02E
:101D6000BD01CE010F960E94F62208591E4F49E090
:101D700050E0B801C5010E94F62249E050E0BE01E2
:101D8000615F7F4FC8010E94F622F6018685978524
:101D9000D7011E962D913C911F97378726871F9656
:101DA0009C938E931E97808950969C915097908B10
:101DB00050968C9367960FB6F894DEBF0FBECDBFDA
:101DC000DF91CF911F910F91FF90EF90DF90CF9017
:101DD000BF90AF900895E09101018BE1E89FD001A1
:101DE0001124AA5ABE4F52969C918091210C9813AF
:101DF00013C08BE1E89FF0011124E759FE4FA2E2E6
:101E0000BCE029E23CE091918D91981307C0A217A4
:101E1000B307C9F781E0089580E0089580E0089550
:101E2000FF920F931F93CF93DF938091C30E833064
:101E300009F44BC028F4813081F0823051F135C172
:101E4000843009F461C0853009F41AC12EC18FE4D1
:101E500093EC0197F1F700C000000E9428038093E3
:101E60002C0C8823A1F306C0EFE4F3EC3197F1F7D3
:101E700000C000000E94280380932B0C90912C0C32
:101E8000891791F312C18FE493EC0197F1F700C029
:101E900000000E94280380932C0C8823A1F306C025
:101EA000EFE4F3EC3197F1F700C000000E94280343
:101EB00080932B0C90912C0C891791F3F6C08FE432
:101EC00093EC0197F1F700C000000E942803809373
:101ED0002C0C8823A1F306C0EFE4F3EC3197F1F763
:101EE00000C000000E94280380932B0C90912C0CC2
:101EF000891791F3915390932C0CD7C08FE493ECF6
:101F00000197F1F700C000000E94280380932C0C79
:101F10008823A1F306C0EFE4F3EC3197F1F700C09A
:101F200000000E94280380932B0C90912C0C8917A1
:101F300091F3C9E2DCE001E21CE00F2EFAE2FF2E91
:101F4000F02D87C0882309F46FC08A32E1F1209117
:101F5000310C283008F068C030E0F901EF5DF34F34
:101F600080832F5F3F4F2830310524F4F901EF5D66
:101F7000F34FF0820E94C71C61E088E892E00E9463
:101F8000AD1D6AE080E00E94BF1D61E080EC93E03F
:101F90000E94AD1D80912A0C61E0805D0E94031DAE
:101FA00064E180E00E94BF1D61E0C8010E94AD1D98
:101FB0000E94C41D8091310C8F5F8093310C809101
:101FC0002C0C8A3289F51092310CE1E2FCE011927E
:101FD000CE17DF07E1F7F801F0820E94C71C61E02D
:101FE00088E892E00E94AD1D6AE080E00E94BF1D7B
:101FF00061E080EC93E00E94AD1D80912A0C61E0CD
:10200000805D0E94031D64E180E00E94BF1D61E0CD
:10201000C8010E94AD1D0E94C41D06C08FE493EC50
:102020000197F1F700C000000E94280380932C0C58
:102030008823A1F306C0EFE4F3EC3197F1F700C079
:1020400000000E94280380932B0C90912C0C891780
:1020500091F380912C0C833209F074CFBCDE811196
:1020600006C080912A0C8F5F80932A0CD1C11092F8
:102070002A0CCEC18FE493EC0197F1F700C0000069
:102080000E94280380932C0C8823A1F306C0EFE460
:10209000F3EC3197F1F700C000000E942803809311
:1020A0002B0C90912C0C891791F38091C30E8230E8
:1020B00009F449C028F4882361F08130D1F19CC132
:1020C000843009F49FC008F448C0853009F43DC14C
:1020D00093C18091630C882309F4B0C180915F0C97
:1020E0008150843068F410922C0C10922B0C1092BA
:1020F0002A0C85E08093010183E08093C30E9EC18A
:102100008091590C811104C080915A0C882369F088
:102110000E94C71C61E08FE893E00E94AD1D0E9401
:10212000C41D81E08093C30E89C182E08093C30EF9
:1021300085C180912C0C882309F480C11092630C16
:102140001092C30E7BC180912C0C882309F476C1B8
:102150001092630C1092C30E71C180912C0C90915F
:102160005F0C8917C0F59091630C9923C1F180939E
:1021700001010E94C71C61E088E892E00E94AD1D49
:102180006AE080E00E94BF1D61E080EC93E00E9465
:10219000AD1D80912A0C61E0805D0E94031D64E109
:1021A00080E00E94BF1D61E080E193E00E94AD1DD0
:1021B0000E94C41D10922A0CE1E2FCE089E29CE03E
:1021C00011928E179F07E1F78AE28093210C84E039
:1021D0008093C30E33C18091630C81112FC1109283
:1021E0002A0C1092310CE1E2FCE089E29CE01192B1
:1021F000E817F907E1F71092210C0E946B02109288
:10220000C30E1CC180912A0C81113CC08091630CCB
:10221000882309F489C00E94C71C61E087ED93E020
:102220000E94AD1D6AE080E00E94BF1D8091010107
:10223000FBE18F9FC001112461E08A5A9E4F0E94EA
:10224000AD1D64E180E00E94BF1D61E08EED93E072
:102250000E94AD1D6EE180E00E94BF1D61E08BEE2B
:1022600093E00E94AD1D68E280E00E94BF1D61E026
:1022700082EF93E00E94AD1D0E94C41D85E0809313
:10228000C30EDCC08330D1F48091630C882309F441
:102290004BC010922A0C1092310CE1E2FCE089E272
:1022A0009CE01192E817F907E1F71092210C1092C7
:1022B000630C0E946B021092C30EC0C08091630C2D
:1022C000882391F10E94C71C61E088E892E00E9497
:1022D000AD1D6AE080E00E94BF1D61E080EC93E0EC
:1022E0000E94AD1D80912A0C61E0805D0E94031D5B
:1022F00064E180E00E94BF1D61E080E193E00E9404
:10230000AD1D0E94C41D1092310CE1E2FCE089E297
:102310009CE01192E817F907E1F78AE28093210C1B
:1023200084E08093C30E8AC010922A0C1092310C64
:10233000E1E2FCE089E29CE011928E179F07E1F751
:102340001092210C1092C30E79C080912C0C833214
:1023500009F03DC08091010181110EC061E0B0DC47
:1023600062E081E0ADDC63E082E0AADC80915F0C9A
:10237000815080935F0C16C0813059F462E0A0DC7C
:1023800063E082E09DDC80915F0C815080935F0C64
:1023900009C08230A1F1833029F480915F0C815013
:1023A00080935F0C10922A0C1092310CE1E2FCE059
:1023B00089E29CE01192E817F907E1F71092210CED
:1023C0001092630C0E946B021092C30E37C08A32C7
:1023D000A9F50E94ED0310922A0C1092310CE1E253
:1023E000FCE089E29CE011928E179F07E1F71092C2
:1023F000210C1092C30E22C01092C30E1FC063E0C6
:1024000082E05EDC80915F0C815080935F0CCACFCC
:102410008091C30E823009F49BCE38F4882309F4EE
:1024200058CE813009F48ACEE7CF843009F4EACE61
:1024300008F493CE853009F488CFDECFDF91CF91B9
:102440001F910F91FF9008951092C30EE9DC84E66E
:1024500090E00E94E321FACFAF92BF92CF92DF9239
:10246000EF92FF920F93A12CB12CC12CD12CE12C17
:10247000F12C082F20E030E045E550E06AEF73E0F2
:1024800084E292E10E946B1F0F91FF90EF90DF902A
:10249000CF90BF90AF900895CF92DF92EF92FF92CE
:1024A0000F931F93CF93DF938091C10E853009F472
:1024B0004DC028F4813091F0843061F1BCC2873086
:1024C00009F4ADC108F45EC0883009F49FC2B3C2FC
:1024D0008FE493EC0197F1F700C000000E942803FD
:1024E0008093570C8823A1F306C08FE493EC0197E7
:1024F000F1F700C000000E9428038093560C9091D1
:10250000570C891791F397C28FE493EC0197F1F779
:1025100000C000000E9428038093570C8823A1F379
:1025200006C08FE493EC0197F1F700C000000E9411
:1025300028038093560C9091570C891791F37BC216
:102540008FE493EC0197F1F700C000000E9428038C
:102550008093570C8823A1F306C08FE493EC019776
:10256000F1F700C000000E9428038093560C909160
:10257000570C891791F35FC28FE493EC0197F1F741
:1025800000C000000E9428038093570C8823A1F309
:1025900006C08FE493EC0197F1F700C000000E94A1
:1025A00028038093560C9091570C891791F3C5E43A
:1025B000D1E01FE528C1882309F410C18A3209F44B
:1025C000DFC02091530C3091540C2115310549F591
:1025D000282F30E0205331093093540C2093530CB2
:1025E00088830E94C71C61E088E892E00E94AD1DCC
:1025F0006AE080E00E94BF1D61E08EE892E00E94E8
:10260000AD1D64E180E00E94BF1D61E0CE010E942B
:10261000AD1D61E084E992E00E94AD1D0E94C41DE1
:10262000DDC0A9014150510949305105A0F5A9016A
:10263000440F551F220F331F220F331F220F331F4A
:10264000240F351F280F311D205331093093540CAE
:102650002093530C89830E94C71C61E088E892E0B4
:102660000E94AD1D6AE080E00E94BF1D61E08EE81F
:1026700092E00E94AD1D64E180E00E94BF1D61E018
:10268000CE010E94AD1D61E084E992E00E94AD1D83
:102690000E94C41DA3C0A9014A5051094A355105E1
:1026A000A0F5A901440F551F220F331F220F331F1E
:1026B000220F331F240F351F280F311D20533109DE
:1026C0003093540C2093530C8A830E94C71C61E002
:1026D00088E892E00E94AD1D6AE080E00E94BF1D84
:1026E00061E08EE892E00E94AD1D64E180E00E940E
:1026F000BF1D61E0CE010E94AD1D61E084E992E062
:102700000E94AD1D0E94C41D69C0A9014456510913
:102710004438534008F062C0A901440F551F220FEE
:10272000331F220F331F220F331F240F351F280F93
:10273000311D205331093093540C2093530C8B835B
:102740000E94C71C61E088E892E00E94AD1D6AE02B
:1027500080E00E94BF1D61E08EE892E00E94AD1D06
:1027600064E180E00E94BF1D61E0CE010E94AD1DCA
:1027700061E084E992E00E94AD1D0E94C41D2EC05C
:102780001092540C1092530C188319821A821B82D7
:102790000E94C71C61E088E892E00E94AD1D6AE0DB
:1027A00080E00E94BF1D61E08EE892E00E94AD1DB6
:1027B00064E180E00E94BF1D61E0CE010E94AD1D7A
:1027C00061E084E992E00E94AD1D0E94C41D06C034
:1027D0008FE493EC0197F1F700C000000E942803FA
:1027E0008093570C8823A1F306C08FE493EC0197E4
:1027F000F1F700C000000E9428038093560C9091CE
:10280000570C891791F38091570C833209F0D3CE7E
:10281000CDC38FE493EC0197F1F700C000000E9454
:1028200028038093570C8823A1F306C08FE493EC10
:102830000197F1F700C000000E9428038093560C16
:102840009091570C891791F3C5E4D1E00F2EFFE565
:10285000FF2EF02DCFC0882309F4B7C08A3209F4C7
:1028600088C09091520C911125C090ED980F9093D3
:10287000520C88830E94C71C61E08AE992E00E94A2
:10288000AD1D6AE080E00E94BF1D61E088EA92E031
:102890000E94AD1D64E180E00E94BF1D61E0CE0199
:1028A0000E94AD1D61E08FEA92E00E94AD1D0E9482
:1028B000C41D8BC02FEF290F293058F5990F292FF0
:1028C000220F220F920F20ED280F920F9093520C9F
:1028D00089830E94C71C61E08AE992E00E94AD1DD5
:1028E0006AE080E00E94BF1D61E088EA92E00E94F9
:1028F000AD1D64E180E00E94BF1D61E0CE010E9439
:10290000AD1D61E08FEA92E00E94AD1D0E94C41DE2
:102910005CC026EF290F2A3508F057C0990F292FE0
:10292000220F220F920F20ED280F920F9093520C3E
:102930008A830E94C71C61E08AE992E00E94AD1D73
:102940006AE080E00E94BF1D61E088EA92E00E9498
:10295000AD1D64E180E00E94BF1D61E0CE010E94D8
:10296000AD1D61E08FEA92E00E94AD1D0E94C41D82
:102970002CC01092520CF88219821A821B820E947B
:10298000C71C61E08AE992E00E94AD1D6AE080E028
:102990000E94BF1D61E088EA92E00E94AD1D64E1E3
:1029A00080E00E94BF1D61E0CE010E94AD1D61E08C
:1029B0008FEA92E00E94AD1D0E94C41D06C08FE404
:1029C00093EC0197F1F700C000000E942803809368
:1029D000570C8823A1F306C08FE493EC0197F1F71D
:1029E00000C000000E9428038093560C9091570C61
:1029F000891791F38091570C833209F02CCFD6C2FE
:102A00008FE493EC0197F1F700C000000E942803C7
:102A10008093570C8823A1F306C08FE493EC0197B1
:102A2000F1F700C000000E9428038093560C90919B
:102A3000570C891791F3E091C10E8E2F90E08930E9
:102A4000910508F0B0C2FC01EF57FF4F0C94D7225C
:102A50008091580C882309F4B5C28091550C8823C5
:102A600061F095D761E08AE094E00E94AD1D0E947C
:102A7000C41D84E08093C10EA5C280915F0C8111BA
:102A80000CC085D761E08EEC92E00E94AD1D0E94E3
:102A9000C41D81E08093C10E95C281E08093620CD9
:102AA00082E08093C10E8EC28091570C882309F476
:102AB00089C21092580C0E94E1031092C10E82C28A
:102AC0008091620C81117EC28091600C882379F024
:102AD0005ED761E08DE394E00E94AD1D0E94C41DAD
:102AE000299A1092600C83E08093C10E6BC2109201
:102AF000580C0E94E1031092C10E64C280B180950F
:102B000091E081FBCC24C0F8D12C81FF90E0909320
:102B10005D0CCD2869F08091580C882349F02998E4
:102B20000E948D030E94E10385E08093C10E4AC29A
:102B300083E08093C10E46C28091570C833259F4D2
:102B40008091580C882359F01092580C0E94E10390
:102B50001092C10E37C28091580C811133C210926D
:102B6000550C1092540C1092530C1092520C0E945F
:102B7000E1031092580C1092C10E24C28091570CA0
:102B8000813369F48091580C8823D1F181E08093DE
:102B9000550C0E94BB0386E08093C10E13C28233A2
:102BA00069F48091580C882359F182E08093550C88
:102BB0000E94BB0386E08093C10E04C2833369F494
:102BC0008091580C8823E1F083E08093550C0E949B
:102BD000BB0386E08093C10EF5C1843369F4809114
:102BE000580C882369F084E08093550C0E94BB0345
:102BF00086E08093C10EE6C18091580C8111E2C13C
:102C00001092550C1092540C1092530C1092520CBE
:102C10000E94E1031092C10ED5C18091570C8332FE
:102C2000B9F48091530C9091540C892B89F08091C8
:102C3000580C882389F0E5E4F1E08FE58083118268
:102C4000128213820E94CE0387E08093C10EBAC124
:102C50008091580C8111B6C11092550C1092540CF1
:102C60001092530C1092520C0E94E1031092C10E6C
:102C7000A9C18091570C833209F064C18091520C34
:102C8000882309F45FC18091580C882309F45EC140
:102C90007ED6E091550CF0E0EE0FFF1FE65BFE4F95
:102CA00061E08081918159D76AE080E068D7C09166
:102CB000530CD091540CC83E93E0D90708F486C059
:102CC000FE01F695E795F695E795F695E7959F0150
:102CD000A5ECB0E20E94E0228C01129502950F70E3
:102CE00001271F70012728EE33E0029FC001039FD8
:102CF000900D129F900D11248E01081B190B9E013F
:102D00003695279536952795ABE7B4E10E94E022EA
:102D10009695879544E6489F9001499F300D112470
:102D2000BE01621B730BC8010E94B0227B019F0190
:102D3000A5ECB0E20E94E022929582958F708927DF
:102D40009F70892761E0805D5ED698013695279552
:102D500036952795ABE7B4E10E94E02296958795DA
:102D600061E0805D50D69701ADECBCEC0E94E022A2
:102D700096958795969587959695879561E0805D60
:102D800042D69E01ADECBCEC0E94E0229695879560
:102D900096958795969587959C01220F331F880FEE
:102DA000991F880F991F880F991F820F931FBE01CB
:102DB000681B790BC7010E94B022862F61E0805DFD
:102DC00022D661E083E694E0C8D650C0AE015695A5
:102DD0004795569547959A01ABE7B4E10E94E022EA
:102DE0008C011695079524E6209FC001219F900D28
:102DF00011248E01081B190B9A010E94E02296955E
:102E0000879561E0805DFFD59801ADECBCEC0E9438
:102E1000E02296958795969587959695879561E09A
:102E2000805DF1D59E01ADECBCEC0E94E022969550
:102E3000879596958795969587959C01220F331FC8
:102E4000880F991F880F991F880F991F820F931F52
:102E5000BE01681B790BC8010E94B022862F61E079
:102E6000805DD1D561E083E694E077D664E180E0CF
:102E700086D61091520C1436C8F189E2189F812D24
:102E80001124D82FD295DF70912F24E6D29F90196C
:102E90001124D92F82958F7061E0805DB4D5CDEC7F
:102EA000DC9F812D112486958695869561E0805D55
:102EB000AAD52D2F30E01C9F912D11249695969523
:102EC0009695990F892F880F880F980F812F891B4E
:102ED000682F70E0C9010E94C422862F61E0805DE6
:102EE00092D561E08FEA92E038D619C0CDEC1C9FF4
:102EF000C12D1124C695C695C69561E080E38C0F5F
:102F000082D5CC0F8C2F880F880FC80F812F8C1B78
:102F100061E0805D78D561E08FEA92E01ED66EE1D7
:102F200080E02DD661E087E694E017D668E280E085
:102F300026D661E083E794E010D626D688E0809319
:102F4000C10E40C08091580C81113CC01092550CAC
:102F50001092540C1092530C1092520C0E94E103E8
:102F60001092C10E2FC08091570C8A3279F41092C2
:102F7000550C1092540C1092530C1092520C0E944B
:102F8000E1031092580C1092C10E1CC0833239F428
:102F90000E94E1031092580C1092C10E13C088E0F9
:102FA0008093570C0FC01092C10E0CC0E091C10E5F
:102FB0008E2F90E089309105B0F7FC01E657FF4F66
:102FC0000C94D722DF91CF911F910F91FF90EF903A
:102FD000DF90CF9008951092C10E5EDA84E690E003
:102FE0000E94E321FACFAF92BF92CF92DF92EF928D
:102FF000FF920F93A12CB12CC12CD12CE12CF12CE0
:10300000082F20E030E045E550E060E874E08BEE0A
:1030100097E161D70F91FF90EF90DF90CF90BF9035
:10302000AF900895B4D461E08DE894E096D5ACC536
:103030000895CF938091C20E813049F08230F1F033
:103040002EC08FE493EC0197F1F700C000000E94BE
:103050002803C82F8823A9F306C08FE493EC0197B7
:10306000F1F700C000000E942803C817B1F363C045
:103070008FE493EC0197F1F700C000000E94280351
:10308000C82F8823A9F306C08FE493EC0197F1F7CA
:1030900000C000000E942803C817B1F34CC0833061
:1030A00020F4813008F052C003C08330C1F140C029
:1030B0008091500C882309F449C08091510C8823D9
:1030C00029F0B0DF81E08093C20E40C08091550CA2
:1030D00081110AC05CD461E089EF94E03ED554D5FB
:1030E00082E08093C20E32C081E08093580C10922F
:1030F000550C1092540C1092530C1092520C0E94CA
:10310000E10383E08093C20E21C01092500C109214
:10311000C20E1CC01092500C1092C20E17C08091AB
:10312000580C811113C01092500C1092C20E0EC098
:103130001092C20E0BC08091C20E813031F308F4A0
:10314000B7CF823039F3833051F3F2CFCF91089566
:103150001092C20E6EDFFECFAF92BF92CF92DF927F
:10316000EF92FF920F93A12CB12CC12CD12CE12C0A
:10317000F12C082F20E030E045E550E060E375E0F9
:1031800088EA98E1A8D60F91FF90EF90DF90CF905A
:10319000BF90AF900895FF920F931F93CF93DF934B
:1031A0008091BF0E813049F0823031F1D4C08FE47C
:1031B00093EC0197F1F700C000000E942803809370
:1031C000200C8823A1F306C0EFE4F3EC3197F1F76C
:1031D00000C000000E94280380931F0C9091200CD7
:1031E000891791F391539093200CB5C08FE493EC21
:1031F0000197F1F700C000000E9428038093200C83
:103200008823A1F306C0EFE4F3EC3197F1F700C097
:1032100000000E94280380931F0C9091200C8917B6
:1032200091F3C9E2DCE001E21CE00F2EFAE2FF2E8E
:10323000F02D77C0882309F45FC08A32A1F1209174
:10324000310C283008F058C030E0F901EF5DF34F41
:1032500080832F5F3F4F2830310524F4F901EF5D63
:10326000F34FF08294D361E088E892E076D46AE08C
:1032700080E085D461E080EC93E06FD480911E0CF7
:1032800061E0805DC0D364E180E079D461E0C80191
:1032900064D47AD48091310C8F5F8093310C80910B
:1032A000200C8A3249F51092310CE1E2FCE01192D7
:1032B000CE17DF07E1F7F801F08269D361E088E813
:1032C00092E04BD46AE080E05AD461E080EC93E075
:1032D00044D480911E0C61E0805D95D364E180E070
:1032E0004ED461E0C80139D44FD406C08FE493ECCA
:1032F0000197F1F700C000000E9428038093200C82
:103300008823A1F306C0EFE4F3EC3197F1F700C096
:1033100000000E94280380931F0C9091200C8917B5
:1033200091F38091200C833209F084CF0E94EB0E40
:10333000811106C080911E0C8F5F80931E0C0BC004
:1033400010921E0C8091BF0E8130F1F068F0823037
:1033500009F0EAC068C08091BF0E8130A9F020F06A
:10336000823009F45CC0E0C08091620C882309F4CB
:10337000DBC00E94ED0385E0809301011092600C98
:1033800081E08093BF0ED0C08091200C90915F0CA3
:10339000891780F59091620C992381F18093010146
:1033A00010921E0CF4D261E088E892E0D6D36AE075
:1033B00080E0E5D361E080EC93E0CFD380911E0CF8
:1033C00061E0805D20D364E180E0D9D361E080E1F9
:1033D00093E0C3D3D9D3E1E2FCE089E29CE011920F
:1033E000E817F907E1F78AE28093210C82E08093E5
:1033F000BF0E9AC08091620C811196C010921E0C73
:103400001092310CE1E2FCE089E29CE01192E817B5
:10341000F907E1F71092210C1092BF0E85C0809140
:103420001E0C81111AC08091620C882309F46CC0B3
:10343000AED261E081E495E090D36AE080E09FD372
:1034400061E081E595E089D39FD381E08093600CB2
:103450001092620C1092BF0E67C0833039F58091D4
:10346000620C882309F450C010921E0C1092310C8B
:10347000E1E2FCE089E29CE011928E179F07E1F700
:103480001092210C84D261E081E495E066D36AE079
:1034900080E075D361E08FE495E05FD375D310923F
:1034A000600C1092620C1092BF0E3EC08091620CB4
:1034B000882351F16CD261E088E892E04ED36AE053
:1034C00080E05DD361E080EC93E047D380911E0CF7
:1034D00061E0805D98D264E180E051D361E080E1F9
:1034E00093E03BD351D31092310CE1E2FCE089E24E
:1034F0009CE011928E179F07E1F78AE28093210CDE
:1035000082E08093BF0E10C010921E0C1092310CFE
:10351000E1E2FCE089E29CE01192E817F907E1F7AB
:103520001092210C1092BF0EDF91CF911F910F913D
:10353000FF9008951092BF0E2EDE84E690E043D7F0
:10354000FBCFAF92BF92CF92DF92EF92FF920F9399
:10355000A12CB12CC12CD12CE12CF12C082F20E076
:1035600030E045E550E06EE575E08AE99AE1B3D4D4
:103570000F91FF90EF90DF90CF90BF90AF900895A4
:10358000CF938091C60E833009F44BC028F481306C
:1035900081F0823051F192C0853009F458C08630F4
:1035A00009F486C08BC08FE493EC0197F1F700C05B
:1035B00000000E94280380931D0C8823A1F306C0FD
:1035C0008FE493EC0197F1F700C000000E942803FC
:1035D00080931C0C90911D0C891791F36FC08FE4A0
:1035E00093EC0197F1F700C000000E94280380933C
:1035F0001D0C8823A1F306C08FE493EC0197F1F72B
:1036000000C000000E94280380931C0C90911D0CA8
:10361000891791F353C08FE493EC0197F1F700C041
:1036200000000E94280380931D0C8823A1F306C08C
:103630008FE493EC0197F1F700C000000E9428038B
:1036400080931C0C90911D0C891791F337C080B1A9
:10365000809583FF12C0E09101019BE1E99FF00199
:103660001124EA5AFE4F8189873021F481E080934A
:10367000000118C01092000115C080B1809582FF32
:1036800011C0E09101018BE1E89FF0011124EA5A99
:10369000FE4F81898A3021F481E08093000102C0CD
:1036A0001092000180B18095817080935B0C8EC078
:1036B00080B18095817080935B0CACC0E091C60EA8
:1036C0008E2F90E08730910508F0BEC0FC01ED56CA
:1036D000FF4F6DC78091610C882309F4B7C08091BA
:1036E0005F0C81110CC053D161E08EEC92E035D2B9
:1036F0004BD21092620C83E08093C60EA7C08091DB
:10370000550C81110CC043D161E08DE695E025D2C6
:103710003BD21092620C82E08093C60E97C08091DB
:103720005A0C882361F033D161E085EA95E015D227
:103730002BD21092620C82E08093C60E87C010924A
:10374000600C81E08093620C84E08093C60E7EC0A2
:1037500080911D0C882309F479C01092610C10929D
:10376000C60E74C080911D0C882309F46FC010929E
:10377000610C1092C60E6AC080911D0C882309F45A
:1037800065C01092610C1092C60E60C08091620CF0
:1037900081115CC08091600C882389F0F8D061E0D1
:1037A0008CED95E0DAD1F0D182E08093000181E0E8
:1037B00080935C0C289A85E08093C60E47C01092D7
:1037C000610C1092600C1092C60E40C080910001F6
:1037D000823009F43BC081110DC0D9D061E089EE7F
:1037E00095E0BBD1D1D11092600C1092610C109277
:1037F000C60E2CC0813051F580915B0C811106C042
:10380000C6D061E088EF95E0A8D1BED186E0809374
:10381000C60E1CC080915B0C8823C1F0C1E0C09330
:10382000590CB5D061E087E096E097D1ADD1C09357
:103830005A0C10925C0C2898C0935E0C299A109236
:10384000610C1092C60E02C01092C60ECF91089560
:103850001092C60E95DE84E690E0B5D5FBCFAF9210
:10386000BF92CF92DF92EF92FF920F93A12CB12CD7
:10387000C12CD12CE12CF12C082F20E030E045E5C3
:1038800050E06BE276E088E29CE125D30F91FF9057
:10389000EF90DF90CF90BF90AF9008958FE087B901
:1038A00080EF88B98FEF8AB91BB884B915B811B801
:1038B00082B937D015B881E00E94990781E00E9453
:1038C000400E81E00E942C1281E08DDB81E044DC1F
:1038D00081E037DE81E0C3DFFFD380E090E0089530
:1038E0005998662311F05B9A15C05B9813C0AC0120
:1038F000022E02C0559547950A94E2F740FF02C098
:103900005C9A01C05C985D9A5D982150310978F706
:10391000599A089527E030E090E0E9CF60E0E0CFE9
:103920000895CF93DF93519A529A539A549A559A85
:103930005A9A599A83EC99E00197F1F700C0000078
:103940005A988BE594E40197F1F700C000005A9A69
:10395000599881E2E3DF83E1E1DF86E0DFDF82EC9B
:10396000DDDF80E2DBDF89E0D9DF80E8D7DF80E4DC
:10397000D5DFC8EFD1E061E080E0B2DF2197D9F771
:1039800088E0CCDF8CE0CADFDF91CF91089580E83A
:10399000C5DF80E4C3DF1092620E1092630EEAE688
:1039A000FCE082E69EE01192E817F907E1F708953E
:1039B000262F26952695269590E034E5239F800DA9
:1039C000911D1124442379F0FC01E659F34F6770EF
:1039D00081E090E002C0880F991F6A95E2F790811C
:1039E000892B80830895FC01E659F34F677081E0CD
:1039F00090E002C0880F991F6A95E2F78095908148
:103A00008923808308955F926F927F928F929F9215
:103A1000AF92BF92CF92DF92EF92FF920F931F93DC
:103A2000CF93DF93562E262F30E04901880C991C46
:103A3000880C991C820E931E181419040CF059C09E
:103A40008901000F111F000F111F000F111F021B12
:103A5000130B612CA82EB12CC50180975C01AA0C18
:103A6000BB1CAA0CBB1CA80EB91E0F2EF3E6CF2E52
:103A7000FEE0DF2EF02D0F2EF2E6EF2EFEE0FF2E01
:103A8000F02D2AC0FE01249130E0872D652D5CD5F4
:103A900002C0359527958A95E2F720FF09C0F60107
:103AA0006081670DF701808141E0860D81DF08C0EC
:103AB000F6016081670DF701808140E0860D78DFB7
:103AC0007394872D90E080179107E4F26394862D1C
:103AD00090E0881599056CF410161106BCF7862D38
:103AE000652D32D5E501C80FD11DCC5CDE4F712CA0
:103AF000C9CF8091620E91E0980F852D880F880FB5
:103B0000850D890F843518F48093620E0EC01092D3
:103B1000620EE3E6FEE0808191E0980F852D880F2C
:103B2000880F880F8519890F80838091630E8033F9
:103B300020F01092620E1092630EDF91CF911F91D0
:103B40000F91FF90EF90DF90CF90BF90AF909F903C
:103B50008F907F906F905F9008951F93CF93DF9326
:103B6000EC018881882339F0162F2196612F4BDFD5
:103B700089918111FBCFDF91CF911F91089580939F
:103B8000620E6093630E08950F931F93CF93DF939C
:103B900080E8C4DE80E4C2DECAE6DCE002E61EE0C5
:103BA00061E089919DDEC017D107D1F7DF91CF91F8
:103BB0001F910F91089531E1FC013083319722E28A
:103BC00020833197A3E3A08331976083319770837B
:103BD00031971082319760E8608331971082319776
:103BE00062E06083319763E06083319764E06083D3
:103BF000319765E06083319766E06083319767E0D5
:103C00006083319768E06083319769E06083319722
:103C100060E1608331973083319732E130833197AF
:103C200033E13083319734E13083319735E13083AC
:103C3000319736E13083319737E13083319738E17E
:103C40003083319739E13083319730E230833197D7
:103C500031E2308331972083319723E220833197FB
:103C6000408331975083319726E22083319727E2B2
:103C70002083319728E22083319729E220833197EE
:103C800020E32083319721E32083869708951092C3
:103C900089008CE7809388008BE080938100EFE6B9
:103CA000F0E0808182608083A091BC0EB091BD0E57
:103CB000CD91CDBFDD91DEBFFF91EF91DF91CF912F
:103CC000BF91AF919F918F917F916F915F914F9134
:103CD0003F912F911F910F91FF90EF90DF90CF9028
:103CE000BF90AF909F908F907F906F905F904F901C
:103CF0003F902F901F900F900FBE0F90089581E07E
:103D000008950F920FB6F8940F921F9211242F92DC
:103D10003F924F925F926F927F928F929F92AF925B
:103D2000BF92CF92DF92EF92FF920F931F932F9348
:103D30003F934F935F936F937F938F939F93AF9333
:103D4000BF93CF93DF93EF93FF93A091BC0EB091FD
:103D5000BD0E0DB60D920EB60D928AD3A091BC0E7B
:103D6000B091BD0ECD91CDBFDD91DEBFFF91EF9142
:103D7000DF91CF91BF91AF919F918F917F916F9183
:103D80005F914F913F912F911F910F91FF90EF9075
:103D9000DF90CF90BF90AF909F908F907F906F906B
:103DA0005F904F903F902F901F900F900FBE0F90FD
:103DB00008950F920FB6F8940F921F9211242F922C
:103DC0003F924F925F926F927F928F929F92AF92AB
:103DD000BF92CF92DF92EF92FF920F931F932F9398
:103DE0003F934F935F936F937F938F939F93AF9383
:103DF000BF93CF93DF93EF93FF93A091BC0EB0914D
:103E0000BD0E0DB60D920EB60D9295D131D3A09187
:103E1000BC0EB091BD0ECD91CDBFDD91DEBFFF9147
:103E2000EF91DF91CF91BF91AF919F918F917F9152
:103E30006F915F914F913F912F911F910F91FF9043
:103E4000EF90DF90CF90BF90AF909F908F907F903A
:103E50006F905F904F903F902F901F900F900FBEEC
:103E60000F900895A6DF1895CF93DF93EC01E091B2
:103E7000BC0EF091BD0E9383828380916C0E909165
:103E80006D0EC817D90768F46091BC0E7091BD0E15
:103E90008091820E9091830E6E5F7F4F0E940A0286
:103EA00017C06091BC0E7091BD0E8091840E9091F0
:103EB000850E6E5F7F4F0E940A028091C201909131
:103EC000C301C817D90720F4D093C301C093C2011E
:103ED000DF91CF9108954F925F926F927F928F9270
:103EE0009F92AF92BF92CF92DF92EF92FF920F9389
:103EF0001F93CF93DF935C014B013A01290181E2CB
:103F000090E00E94AA01EC01892B09F4D3C0C114EE
:103F1000D10409F0CBC0C3010E94AA01988F8F8BF6
:103F2000009721F4CE010E94D001C4C0A30165EA2C
:103F300070E055D39301215031098F89988D3C0150
:103F4000620E731E48E050E0B401CE0149964ED394
:103F500018A2102F043008F013E01E8B6E0182E0CF
:103F6000C80ED11CC6010E94DF01CE010C960E9432
:103F7000DF01D987C88784E090E0811B91099D8784
:103F80008C87DB8BCA8BA201B501C30114DE998338
:103F90008883E114F10419F0F701D183C0830FB6CF
:103FA000F8940F9280916E0E8F5F80936E0E8091C9
:103FB000BC0E9091BD0E892BA9F5D093BD0EC09378
:103FC000BC0E80916E0E8130E1F588E99EE00E9482
:103FD000D10181EA9EE00E94D1018AEA9EE00E941E
:103FE000D10183EB9EE00E94D1018FE89EE00E9408
:103FF000D10186E89EE00E94D10189E79EE00E94FF
:10400000D10180E79EE00E94D1018FE89EE090936D
:10401000850E8093840E86E89EE09093830E8093B5
:10402000820E0FC08091690E81110BC0E091BC0E11
:10403000F091BD0E8689081720F0D093BD0EC09375
:10404000BC0E8E8990916B0E981710F480936B0EB6
:104050009091640E9F5F9093640E90916A0E9817F2
:1040600010F480936A0E90E09C01220F331F220F00
:10407000331F220F331F820F931FB6018856914FB3
:104080000E94E3010F900FBE8091690E882351F0CA
:10409000E091BC0EF091BD0E8689801728F431DEC8
:1040A00081E009C081E007C081E005C0D88ECF8AD9
:1040B000C6013CCF8FEFDF91CF911F910F91FF9001
:1040C000EF90DF90CF90BF90AF909F908F907F90B8
:1040D0006F905F904F900895AF92BF92CF92DF9212
:1040E000EF92FF920F93A12CB12CC12CD12CE12C7B
:1040F000F12C00E020E030E045E550E068E376E0B8
:104100008FEF91E2E8DE813041F4F8948093690EFC
:1041100010926D0E10926C0EBADD0F91FF90EF9021
:10412000DF90CF90BF90AF9008958091680E8F5F21
:104130008093680E08950F931F93CF93DF93809120
:10414000680E8111B2C080916C0E90916D0E019637
:1041500090936D0E80936C0E80916C0E90916D0E0D
:10416000892B99F58091840E9091850E2091820E75
:104170003091830E3093850E2093840E9093830E9E
:104180008093820E8091650E8F5F8093650EE09123
:10419000840EF091850E8081811107C08FEF9FEF13
:1041A0009093C3018093C20110C0E091840EF091FE
:1041B000850E0580F681E02D0680F781E02D828155
:1041C00093819093C3018093C20120916C0E309132
:1041D0006D0E8091C2019091C3012817390708F430
:1041E00069C0E091840EF091850E8081882399F05A
:1041F000E091840EF091850E0580F681E02DC68158
:10420000D7818A819B8120916C0E30916D0E281789
:104210003907F8F419C08FEF9FEF9093C301809393
:10422000C20148C0E091840EF091850E0580F681B0
:10423000E02DC681D7818A819B8120916C0E3091BF
:104240006D0E2817390728F49093C3018093C2019B
:1042500031C08E010E5F1F4FC8010E9445028C893C
:104260009D89892B21F0CE010C960E9445028E89F2
:1042700090916A0E981710F480936A0E90E09C015A
:10428000220F331F220F331F220F331F820F931F62
:10429000B8018856914F0E94E301E091840EF0919D
:1042A000850E80818111BECFB6CF8091670E8F5F62
:1042B0008093670EDF91CF911F910F910895CF9258
:1042C000DF92EF92FF920F931F93CF93DF930FB67E
:1042D000F8940F928091680E81508093680E8091BF
:1042E000680E811162C080916E0E811132C060C073
:1042F000D7011596ED91FC911697C681D781CE0115
:104300000C960E9445028E010E5F1F4FC8010E944D
:1043100045028E8990916A0E981710F480936A0E68
:1043200090E09C01220F331F220F331F220F331FF7
:10433000820F931FB8018856914F0E94E301E091CC
:10434000BC0EF091BD0E9E898689981758F0DC2C22
:1043500009C0D12C0F2EF9E7EF2EFEE0FF2EF02D35
:10436000CC24C394F70180818111C2CF8091670E64
:10437000882379F08091670E882391F0DCDE8091AC
:10438000670E81508093670E8091670E8111F6CF82
:1043900007C0F1E0DF1621F08091660E813039F41C
:1043A0001092660EAEDC81E003C080E001C080E0C8
:1043B0000F900FBEDF91CF911F910F91FF90EF9063
:1043C000DF90CF900895CF93DF93EC01892B99F084
:1043D000ACDE80916C0E90916D0EC80FD91F80914C
:1043E000BC0E9091BD0E02960E944502CE013CDDAE
:1043F00066DF811101C085DCDF91CF9108950F2E1A
:10440000F0E7EF2EFEE0FF2EF02DC8E9DEE0809110
:104410006F0E882341F189DED7011C9150DF1123F3
:1044200011F10FB6F8940F92D7011596ED91FC910A
:10443000169706811781C80102960E944502809155
:104440006E0E815080936E0E80916F0E815080931E
:104450006F0E0F900FBEF8018789908D0E94D001DA
:10446000C8010E94D0018881823088F24ADCCFCF17
:104470008091680E811113C080916A0E90E0FC015A
:10448000EE0FFF1FEE0FFF1FEE0FFF1F8E0F9F1F80
:10449000FC01E856F14F8081882329F01BC081E0A0
:1044A0008093660E089580916A0E815080936A0E03
:1044B00080916A0E90E0FC01EE0FFF1FEE0FFF1FD0
:1044C000EE0FFF1F8E0F9F1FFC01E856F14F8081FA
:1044D000882349F380916A0E90E09C01220F331FDC
:1044E000220F331F220F331F280F391FD901A8565F
:1044F000B14F1196ED91FC9112970280F381E02D5E
:104500001296FC93EE9311972556314FE217F3075D
:1045100029F422813381FD0132832183FC01EE0FD6
:10452000FF1FEE0FFF1FEE0FFF1F8E0F9F1FFC01DF
:10453000E856F14F0180F281E02D868197819093BA
:10454000BD0E8093BC0E0895991B79E004C0991F9D
:10455000961708F0961B881F7A95C9F780950895DD
:10456000AA1BBB1B51E107C0AA1FBB1FA617B70799
:1045700010F0A61BB70B881F991F5A95A9F78095B5
:104580009095BC01CD01089597FB072E16F4009479
:1045900006D077FD08D0E4DF07FC05D03EF4909507
:1045A00081959F4F0895709561957F4F0895EE0F07
:1045B000FF1F0024001C0BBE0790F691E02D09940C
:1045C000A29FB001B39FC001A39F700D811D112454
:1045D000911DB29F700D811D1124911D0895DC0164
:1045E00001C06D9341505040E0F70895FB01DC019C
:1045F0004150504048F001900D920020C9F701C091
:0E4600001D9241505040E0F70895F894FFCF0E
:10460E0002055F000000005F0000000000000000D7
:10461E000000000000232323232A2A2A2A303030C8
:10462E0030395758593854555637505253364D4ED7
:10463E004F354A4B4C344748493344454632414244
:10464E0043313131315F20202000100368027002A7
:10465E00C701820200005F000000000000000000A1
:10466E0000000000000000003030303030303030BC
:10467E00005F0000000000000000000000000000CD
:10468E000000003030303030303030005F0000003D
:10469E0000000000000000000000000000003030AC
:1046AE00303030303030005F00000000000000007D
:1046BE00000000000000000000303030303030309C
:1046CE003000FFFF313A204C6971756F7200323A3B
:1046DE00204B65797300333A2053657474696E67A5
:1046EE007300313A204472696E6B7300323A205572
:1046FE007365727300333A2053797374656D0034A9
:10470E003A204D61696E204D656E7500313A20413B
:10471E006464204472696E6B00323A205265706C8C
:10472E0061636500333A204D61696E204D656E758B
:10473E0000313A20416464205573657200323A208C
:10474E0044656C657465205573657200456E7465BD
:10475E0072204E616D650054797065206F6620641D
:10476E0072696E6B00313A204265657200323A20F2
:10477E0057696E6500333A204C6971756F7200345B
:10478E003A204F7468657200456E74657200566FFC
:10479E006C756D6520286D4C2900456E7465722010
:1047AE00416C636F686F6C00436F6E74656E74203E
:1047BE00250053656C656374205573657200313A3C
:1047CE002000323A2000333A2000343A20004E6F57
:1047DE0020757365727320696E202020737973744F
:1047EE00656D2E20507265737320616E79206B6536
:1047FE007920746F20676F20746F204D61696E2071
:10480E004D656E752E002A4B65792053747566665C
:10481E002A002320746F2072657475726E002A53FD
:10482E0074746E67732073747566662A005F004D2C
:10483E0061696E4D656E755461736B00456E74657E
:10484E007220796F75720077656967687420696E7A
:10485E00206C62730053656C6563742047656E64EB
:10486E00657200313A204D616C6500323A20466522
:10487E006D616C65004372656174650050617373A0
:10488E00776F72640050617373776F72643A00537E
:10489E00797374656D20697320696E202075736558
:1048AE002E2054727920616761696E206C61746587
:1048BE0072005765696768696E67206B657973006A
:1048CE0050617373776F72643A200041646455735C
:1048DE0065725461736B0052656D6F76650066721A
:1048EE006F6D2073797374656D3F002A203D206EC5
:1048FE006F0023203D207965730052656D6F7665DC
:10490E0055736572735461736B0043616E27742027
:10491E006164642020202020616E796D6F726520A5
:10492E006472696E6B735072657373202320746F9B
:10493E0020202020636F6E74696E756500436C6F66
:10494E007365206C6971756F722020646F6F7220B1
:10495E00746F2020202020202020636F6E74696EDB
:10496E00756500206D4C002A20746F2043616E63C4
:10497E00656C002320746F20436F6E6669726D0044
:10498E004164644472696E6B5461736B0052656D61
:10499E006F7665206B65797320202066726F6D20AF
:1049AE00736166652E20202020507265737320611E
:1049BE006E79206B657920746F20636F6E74696EEB
:1049CE0075652E005265706C616365206472696E48
:1049DE006B2E005468656E20636C6F73652074686F
:1049EE0065646F6F7220746F20202020202020635A
:1049FE006F6E74696E75652E004E6F206472696EEF
:104A0E006B20202020202064657465637465642EFD
:104A1E002020202020507265737320616E79206BE8
:104A2E00657920746F20636F6E74696E75652E00E4
:104A3E005265706C6163654472696E6B5461736B21
:104A4E0000557365722076657269666965640075D6
:104A5E006E7375636365737366756C6C79005573ED
:104A6E0065725665726966795461736B004E6F207C
:104A7E006472696E6B732020202020666F756E64E1
:104A8E002E2050726573732020616E79206B6579CC
:104A9E0020746F20676F20746F204D61696E204DFA
:104AAE00656E752E004472696E6B206861732062AC
:104ABE0065656E72656D6F7665642E2050726573D6
:104ACE0073616E79206B657920746F20676F207427
:104ADE006F204D61696E204D656E75004465706F77
:104AEE00736974204B65797300496E636F727265DA
:104AFE006374204B65797300436C6F7365204B654F
:104B0E007920446F6F7200456E6A6F792120507262
:104B1E006573732020616E79206B657920746F2028
:104B2E002020636F6E74696E7565004765744472FC
:0E4B3E00696E6B5461736B0049444C45000076
:00000001FF
